{
  "abi": [
    {
      "inputs": [
        {
          "internalType": "address",
          "name": "_terminal",
          "type": "address"
        }
      ],
      "stateMutability": "nonpayable",
      "type": "constructor"
    },
    {
      "inputs": [],
      "name": "unAuth",
      "type": "error"
    },
    {
      "anonymous": false,
      "inputs": [
        {
          "indexed": true,
          "internalType": "address",
          "name": "owner",
          "type": "address"
        },
        {
          "indexed": true,
          "internalType": "address",
          "name": "approved",
          "type": "address"
        },
        {
          "indexed": true,
          "internalType": "uint256",
          "name": "tokenId",
          "type": "uint256"
        }
      ],
      "name": "Approval",
      "type": "event"
    },
    {
      "anonymous": false,
      "inputs": [
        {
          "indexed": true,
          "internalType": "address",
          "name": "owner",
          "type": "address"
        },
        {
          "indexed": true,
          "internalType": "address",
          "name": "operator",
          "type": "address"
        },
        {
          "indexed": false,
          "internalType": "bool",
          "name": "approved",
          "type": "bool"
        }
      ],
      "name": "ApprovalForAll",
      "type": "event"
    },
    {
      "anonymous": false,
      "inputs": [
        {
          "indexed": true,
          "internalType": "address",
          "name": "from",
          "type": "address"
        },
        {
          "indexed": true,
          "internalType": "address",
          "name": "to",
          "type": "address"
        },
        {
          "indexed": true,
          "internalType": "uint256",
          "name": "tokenId",
          "type": "uint256"
        }
      ],
      "name": "Transfer",
      "type": "event"
    },
    {
      "inputs": [
        {
          "internalType": "address",
          "name": "to",
          "type": "address"
        },
        {
          "internalType": "uint256",
          "name": "tokenId",
          "type": "uint256"
        }
      ],
      "name": "approve",
      "outputs": [],
      "stateMutability": "nonpayable",
      "type": "function"
    },
    {
      "inputs": [
        {
          "internalType": "address",
          "name": "owner",
          "type": "address"
        }
      ],
      "name": "balanceOf",
      "outputs": [
        {
          "internalType": "uint256",
          "name": "",
          "type": "uint256"
        }
      ],
      "stateMutability": "view",
      "type": "function"
    },
    {
      "inputs": [
        {
          "components": [
            {
              "internalType": "address",
              "name": "payer",
              "type": "address"
            },
            {
              "internalType": "uint256",
              "name": "projectId",
              "type": "uint256"
            },
            {
              "internalType": "uint256",
              "name": "currentFundingCycleConfiguration",
              "type": "uint256"
            },
            {
              "components": [
                {
                  "internalType": "address",
                  "name": "token",
                  "type": "address"
                },
                {
                  "internalType": "uint256",
                  "name": "value",
                  "type": "uint256"
                },
                {
                  "internalType": "uint256",
                  "name": "decimals",
                  "type": "uint256"
                },
                {
                  "internalType": "uint256",
                  "name": "currency",
                  "type": "uint256"
                }
              ],
              "internalType": "struct JBTokenAmount",
              "name": "amount",
              "type": "tuple"
            },
            {
              "internalType": "uint256",
              "name": "projectTokenCount",
              "type": "uint256"
            },
            {
              "internalType": "address",
              "name": "beneficiary",
              "type": "address"
            },
            {
              "internalType": "bool",
              "name": "preferClaimedTokens",
              "type": "bool"
            },
            {
              "internalType": "string",
              "name": "memo",
              "type": "string"
            },
            {
              "internalType": "bytes",
              "name": "metadata",
              "type": "bytes"
            }
          ],
          "internalType": "struct JBDidPayData",
          "name": "_param",
          "type": "tuple"
        }
      ],
      "name": "didPay",
      "outputs": [],
      "stateMutability": "nonpayable",
      "type": "function"
    },
    {
      "inputs": [
        {
          "internalType": "uint256",
          "name": "tokenId",
          "type": "uint256"
        }
      ],
      "name": "getApproved",
      "outputs": [
        {
          "internalType": "address",
          "name": "",
          "type": "address"
        }
      ],
      "stateMutability": "view",
      "type": "function"
    },
    {
      "inputs": [
        {
          "internalType": "address",
          "name": "owner",
          "type": "address"
        },
        {
          "internalType": "address",
          "name": "operator",
          "type": "address"
        }
      ],
      "name": "isApprovedForAll",
      "outputs": [
        {
          "internalType": "bool",
          "name": "",
          "type": "bool"
        }
      ],
      "stateMutability": "view",
      "type": "function"
    },
    {
      "inputs": [],
      "name": "name",
      "outputs": [
        {
          "internalType": "string",
          "name": "",
          "type": "string"
        }
      ],
      "stateMutability": "view",
      "type": "function"
    },
    {
      "inputs": [
        {
          "internalType": "uint256",
          "name": "tokenId",
          "type": "uint256"
        }
      ],
      "name": "ownerOf",
      "outputs": [
        {
          "internalType": "address",
          "name": "",
          "type": "address"
        }
      ],
      "stateMutability": "view",
      "type": "function"
    },
    {
      "inputs": [
        {
          "internalType": "address",
          "name": "from",
          "type": "address"
        },
        {
          "internalType": "address",
          "name": "to",
          "type": "address"
        },
        {
          "internalType": "uint256",
          "name": "tokenId",
          "type": "uint256"
        }
      ],
      "name": "safeTransferFrom",
      "outputs": [],
      "stateMutability": "nonpayable",
      "type": "function"
    },
    {
      "inputs": [
        {
          "internalType": "address",
          "name": "from",
          "type": "address"
        },
        {
          "internalType": "address",
          "name": "to",
          "type": "address"
        },
        {
          "internalType": "uint256",
          "name": "tokenId",
          "type": "uint256"
        },
        {
          "internalType": "bytes",
          "name": "data",
          "type": "bytes"
        }
      ],
      "name": "safeTransferFrom",
      "outputs": [],
      "stateMutability": "nonpayable",
      "type": "function"
    },
    {
      "inputs": [
        {
          "internalType": "address",
          "name": "operator",
          "type": "address"
        },
        {
          "internalType": "bool",
          "name": "approved",
          "type": "bool"
        }
      ],
      "name": "setApprovalForAll",
      "outputs": [],
      "stateMutability": "nonpayable",
      "type": "function"
    },
    {
      "inputs": [
        {
          "internalType": "bytes4",
          "name": "interfaceId",
          "type": "bytes4"
        }
      ],
      "name": "supportsInterface",
      "outputs": [
        {
          "internalType": "bool",
          "name": "",
          "type": "bool"
        }
      ],
      "stateMutability": "view",
      "type": "function"
    },
    {
      "inputs": [],
      "name": "symbol",
      "outputs": [
        {
          "internalType": "string",
          "name": "",
          "type": "string"
        }
      ],
      "stateMutability": "view",
      "type": "function"
    },
    {
      "inputs": [
        {
          "internalType": "uint256",
          "name": "tokenId",
          "type": "uint256"
        }
      ],
      "name": "tokenURI",
      "outputs": [
        {
          "internalType": "string",
          "name": "",
          "type": "string"
        }
      ],
      "stateMutability": "view",
      "type": "function"
    },
    {
      "inputs": [
        {
          "internalType": "address",
          "name": "from",
          "type": "address"
        },
        {
          "internalType": "address",
          "name": "to",
          "type": "address"
        },
        {
          "internalType": "uint256",
          "name": "tokenId",
          "type": "uint256"
        }
      ],
      "name": "transferFrom",
      "outputs": [],
      "stateMutability": "nonpayable",
      "type": "function"
    }
  ],
  "bytecode": {
    "object": "0x60806040523480156200001157600080fd5b50604051620017ec380380620017ec83398101604081905262000034916200016b565b604080518082018252600a8152694e46545265776172647360b01b6020808301918252835180850190945260078452661290960b53919560ca1b9084015281519192916200008591600091620000c5565b5080516200009b906001906020840190620000c5565b5050600780546001600160a01b0319166001600160a01b03939093169290921790915550620001da565b828054620000d3906200019d565b90600052602060002090601f016020900481019282620000f7576000855562000142565b82601f106200011257805160ff191683800117855562000142565b8280016001018555821562000142579182015b828111156200014257825182559160200191906001019062000125565b506200015092915062000154565b5090565b5b8082111562000150576000815560010162000155565b6000602082840312156200017e57600080fd5b81516001600160a01b03811681146200019657600080fd5b9392505050565b600181811c90821680620001b257607f821691505b60208210811415620001d457634e487b7160e01b600052602260045260246000fd5b50919050565b61160280620001ea6000396000f3fe608060405234801561001057600080fd5b50600436106100ea5760003560e01c80636352211e1161008c578063a22cb46511610066578063a22cb465146101e1578063b88d4fde146101f4578063c87b56dd14610207578063e985e9c51461021a57600080fd5b80636352211e146101a557806370a08231146101b857806395d89b41146101d957600080fd5b8063095ea7b3116100c8578063095ea7b31461015757806323b872dd1461016c578063304b1eea1461017f57806342842e0e1461019257600080fd5b806301ffc9a7146100ef57806306fdde0314610117578063081812fc1461012c575b600080fd5b6101026100fd36600461125b565b610256565b60405190151581526020015b60405180910390f35b61011f6102a8565b60405161010e9190611382565b61013f61013a3660046112d1565b61033a565b6040516001600160a01b03909116815260200161010e565b61016a610165366004611231565b610361565b005b61016a61017a3660046110dd565b61047c565b61016a61018d366004611295565b6104ad565b61016a6101a03660046110dd565b61052f565b61013f6101b33660046112d1565b61054a565b6101cb6101c636600461108f565b6105aa565b60405190815260200161010e565b61011f610630565b61016a6101ef3660046111f5565b61063f565b61016a610202366004611119565b61064a565b61011f6102153660046112d1565b610682565b6101026102283660046110aa565b6001600160a01b03918216600090815260056020908152604080832093909416825291909152205460ff1690565b60006001600160e01b031982166380ac58cd60e01b148061028757506001600160e01b03198216635b5e139f60e01b145b806102a257506301ffc9a760e01b6001600160e01b03198316145b92915050565b6060600080546102b7906114a4565b80601f01602080910402602001604051908101604052809291908181526020018280546102e3906114a4565b80156103305780601f1061030557610100808354040283529160200191610330565b820191906000526020600020905b81548152906001019060200180831161031357829003601f168201915b5050505050905090565b600061034582610793565b506000908152600460205260409020546001600160a01b031690565b600061036c8261054a565b9050806001600160a01b0316836001600160a01b031614156103df5760405162461bcd60e51b815260206004820152602160248201527f4552433732313a20617070726f76616c20746f2063757272656e74206f776e656044820152603960f91b60648201526084015b60405180910390fd5b336001600160a01b03821614806103fb57506103fb8133610228565b61046d5760405162461bcd60e51b815260206004820152603e60248201527f4552433732313a20617070726f76652063616c6c6572206973206e6f7420746f60448201527f6b656e206f776e6572206e6f7220617070726f76656420666f7220616c6c000060648201526084016103d6565b61047783836107f5565b505050565b6104863382610863565b6104a25760405162461bcd60e51b81526004016103d6906113e7565b6104778383836108e1565b6007546001600160a01b031633146104d8576040516307e58fe360e51b815260040160405180910390fd5b6104e6600880546001019055565b60006104f160085490565b9050610509610503602084018461108f565b82610a7d565b61052b8160405180608001604052806050815260200161157d60509139610bbf565b5050565b6104778383836040518060200160405280600081525061064a565b6000818152600260205260408120546001600160a01b0316806102a25760405162461bcd60e51b8152602060048201526018602482015277115490cdcc8c4e881a5b9d985b1a59081d1bdad95b88125160421b60448201526064016103d6565b60006001600160a01b0382166106145760405162461bcd60e51b815260206004820152602960248201527f4552433732313a2061646472657373207a65726f206973206e6f7420612076616044820152683634b21037bbb732b960b91b60648201526084016103d6565b506001600160a01b031660009081526003602052604090205490565b6060600180546102b7906114a4565b61052b338383610c59565b6106543383610863565b6106705760405162461bcd60e51b81526004016103d6906113e7565b61067c84848484610d28565b50505050565b606061068d82610793565b600082815260066020526040812080546106a6906114a4565b80601f01602080910402602001604051908101604052809291908181526020018280546106d2906114a4565b801561071f5780601f106106f45761010080835404028352916020019161071f565b820191906000526020600020905b81548152906001019060200180831161070257829003601f168201915b50505050509050600061073d60408051602081019091526000815290565b9050805160001415610750575092915050565b81511561078257808260405160200161076a929190611316565b60405160208183030381529060405292505050919050565b61078b84610d5b565b949350505050565b6000818152600260205260409020546001600160a01b03166107f25760405162461bcd60e51b8152602060048201526018602482015277115490cdcc8c4e881a5b9d985b1a59081d1bdad95b88125160421b60448201526064016103d6565b50565b600081815260046020526040902080546001600160a01b0319166001600160a01b038416908117909155819061082a8261054a565b6001600160a01b03167f8c5be1e5ebec7d5bd14f71427d1e84f3dd0314c0f7b2291e5b200ac8c7c3b92560405160405180910390a45050565b60008061086f8361054a565b9050806001600160a01b0316846001600160a01b031614806108b657506001600160a01b0380821660009081526005602090815260408083209388168352929052205460ff165b8061078b5750836001600160a01b03166108cf8461033a565b6001600160a01b031614949350505050565b826001600160a01b03166108f48261054a565b6001600160a01b0316146109585760405162461bcd60e51b815260206004820152602560248201527f4552433732313a207472616e736665722066726f6d20696e636f72726563742060448201526437bbb732b960d91b60648201526084016103d6565b6001600160a01b0382166109ba5760405162461bcd60e51b8152602060048201526024808201527f4552433732313a207472616e7366657220746f20746865207a65726f206164646044820152637265737360e01b60648201526084016103d6565b6109c56000826107f5565b6001600160a01b03831660009081526003602052604081208054600192906109ee908490611461565b90915550506001600160a01b0382166000908152600360205260408120805460019290610a1c908490611435565b909155505060008181526002602052604080822080546001600160a01b0319166001600160a01b0386811691821790925591518493918716917fddf252ad1be2c89b69c2b068fc378daa952ba7f163c4a11628f55a4df523b3ef91a4505050565b6001600160a01b038216610ad35760405162461bcd60e51b815260206004820181905260248201527f4552433732313a206d696e7420746f20746865207a65726f206164647265737360448201526064016103d6565b6000818152600260205260409020546001600160a01b031615610b385760405162461bcd60e51b815260206004820152601c60248201527f4552433732313a20746f6b656e20616c7265616479206d696e7465640000000060448201526064016103d6565b6001600160a01b0382166000908152600360205260408120805460019290610b61908490611435565b909155505060008181526002602052604080822080546001600160a01b0319166001600160a01b03861690811790915590518392907fddf252ad1be2c89b69c2b068fc378daa952ba7f163c4a11628f55a4df523b3ef908290a45050565b6000828152600260205260409020546001600160a01b0316610c3a5760405162461bcd60e51b815260206004820152602e60248201527f45524337323155524953746f726167653a2055524920736574206f66206e6f6e60448201526d32bc34b9ba32b73a103a37b5b2b760911b60648201526084016103d6565b6000828152600660209081526040909120825161047792840190610fda565b816001600160a01b0316836001600160a01b03161415610cbb5760405162461bcd60e51b815260206004820152601960248201527f4552433732313a20617070726f766520746f2063616c6c65720000000000000060448201526064016103d6565b6001600160a01b03838116600081815260056020908152604080832094871680845294825291829020805460ff191686151590811790915591519182527f17307eab39ab6107e8899845ad3d59bd9653f200f220920489ca2b5937696c31910160405180910390a3505050565b610d338484846108e1565b610d3f84848484610dcf565b61067c5760405162461bcd60e51b81526004016103d690611395565b6060610d6682610793565b6000610d7d60408051602081019091526000815290565b90506000815111610d9d5760405180602001604052806000815250610dc8565b80610da784610edc565b604051602001610db8929190611316565b6040516020818303038152906040525b9392505050565b60006001600160a01b0384163b15610ed157604051630a85bd0160e11b81526001600160a01b0385169063150b7a0290610e13903390899088908890600401611345565b602060405180830381600087803b158015610e2d57600080fd5b505af1925050508015610e5d575060408051601f3d908101601f19168201909252610e5a91810190611278565b60015b610eb7573d808015610e8b576040519150601f19603f3d011682016040523d82523d6000602084013e610e90565b606091505b508051610eaf5760405162461bcd60e51b81526004016103d690611395565b805181602001fd5b6001600160e01b031916630a85bd0160e11b14905061078b565b506001949350505050565b606081610f005750506040805180820190915260018152600360fc1b602082015290565b8160005b8115610f2a5780610f14816114df565b9150610f239050600a8361144d565b9150610f04565b60008167ffffffffffffffff811115610f4557610f45611550565b6040519080825280601f01601f191660200182016040528015610f6f576020820181803683370190505b5090505b841561078b57610f84600183611461565b9150610f91600a866114fa565b610f9c906030611435565b60f81b818381518110610fb157610fb161153a565b60200101906001600160f81b031916908160001a905350610fd3600a8661144d565b9450610f73565b828054610fe6906114a4565b90600052602060002090601f016020900481019282611008576000855561104e565b82601f1061102157805160ff191683800117855561104e565b8280016001018555821561104e579182015b8281111561104e578251825591602001919060010190611033565b5061105a92915061105e565b5090565b5b8082111561105a576000815560010161105f565b80356001600160a01b038116811461108a57600080fd5b919050565b6000602082840312156110a157600080fd5b610dc882611073565b600080604083850312156110bd57600080fd5b6110c683611073565b91506110d460208401611073565b90509250929050565b6000806000606084860312156110f257600080fd5b6110fb84611073565b925061110960208501611073565b9150604084013590509250925092565b6000806000806080858703121561112f57600080fd5b61113885611073565b935061114660208601611073565b925060408501359150606085013567ffffffffffffffff8082111561116a57600080fd5b818701915087601f83011261117e57600080fd5b81358181111561119057611190611550565b604051601f8201601f19908116603f011681019083821181831017156111b8576111b8611550565b816040528281528a60208487010111156111d157600080fd5b82602086016020830137600060208483010152809550505050505092959194509250565b6000806040838503121561120857600080fd5b61121183611073565b91506020830135801515811461122657600080fd5b809150509250929050565b6000806040838503121561124457600080fd5b61124d83611073565b946020939093013593505050565b60006020828403121561126d57600080fd5b8135610dc881611566565b60006020828403121561128a57600080fd5b8151610dc881611566565b6000602082840312156112a757600080fd5b813567ffffffffffffffff8111156112be57600080fd5b82016101808185031215610dc857600080fd5b6000602082840312156112e357600080fd5b5035919050565b60008151808452611302816020860160208601611478565b601f01601f19169290920160200192915050565b60008351611328818460208801611478565b83519083019061133c818360208801611478565b01949350505050565b6001600160a01b0385811682528416602082015260408101839052608060608201819052600090611378908301846112ea565b9695505050505050565b602081526000610dc860208301846112ea565b60208082526032908201527f4552433732313a207472616e7366657220746f206e6f6e20455243373231526560408201527131b2b4bb32b91034b6b83632b6b2b73a32b960711b606082015260800190565b6020808252602e908201527f4552433732313a2063616c6c6572206973206e6f7420746f6b656e206f776e6560408201526d1c881b9bdc88185c1c1c9bdd995960921b606082015260800190565b600082198211156114485761144861150e565b500190565b60008261145c5761145c611524565b500490565b6000828210156114735761147361150e565b500390565b60005b8381101561149357818101518382015260200161147b565b8381111561067c5750506000910152565b600181811c908216806114b857607f821691505b602082108114156114d957634e487b7160e01b600052602260045260246000fd5b50919050565b60006000198214156114f3576114f361150e565b5060010190565b60008261150957611509611524565b500690565b634e487b7160e01b600052601160045260246000fd5b634e487b7160e01b600052601260045260246000fd5b634e487b7160e01b600052603260045260246000fd5b634e487b7160e01b600052604160045260246000fd5b6001600160e01b0319811681146107f257600080fdfe68747470733a2f2f676174657761792e70696e6174612e636c6f75642f697066732f516d584d4c4e737a374c4e4841324a56694c755569436f4747566d6e686e4533566337366632613545746f474536a2646970667358221220fb97bf7c0aeae3edabcbb85783766969746ed19c096960f40f03dd1be236162964736f6c63430008060033",
    "linkReferences": {}
  },
  "methodIdentifiers": {
    "approve(address,uint256)": "095ea7b3",
    "balanceOf(address)": "70a08231",
    "didPay((address,uint256,uint256,(address,uint256,uint256,uint256),uint256,address,bool,string,bytes))": "304b1eea",
    "getApproved(uint256)": "081812fc",
    "isApprovedForAll(address,address)": "e985e9c5",
    "name()": "06fdde03",
    "ownerOf(uint256)": "6352211e",
    "safeTransferFrom(address,address,uint256)": "42842e0e",
    "safeTransferFrom(address,address,uint256,bytes)": "b88d4fde",
    "setApprovalForAll(address,bool)": "a22cb465",
    "supportsInterface(bytes4)": "01ffc9a7",
    "symbol()": "95d89b41",
    "tokenURI(uint256)": "c87b56dd",
    "transferFrom(address,address,uint256)": "23b872dd"
  },
  "id": 1
}