{
  "abi": [
    {
      "inputs": [
        {
          "internalType": "contract IJBOperatorStore",
          "name": "_operatorStore",
          "type": "address"
        },
        {
          "internalType": "contract IJBProjects",
          "name": "_projects",
          "type": "address"
        },
        {
          "internalType": "contract IJBDirectory",
          "name": "_directory",
          "type": "address"
        }
      ],
      "stateMutability": "nonpayable",
      "type": "constructor"
    },
    {
      "inputs": [],
      "name": "INVALID_LOCKED_UNTIL",
      "type": "error"
    },
    {
      "inputs": [],
      "name": "INVALID_PROJECT_ID",
      "type": "error"
    },
    {
      "inputs": [],
      "name": "INVALID_SPLIT_PERCENT",
      "type": "error"
    },
    {
      "inputs": [],
      "name": "INVALID_TOTAL_PERCENT",
      "type": "error"
    },
    {
      "inputs": [],
      "name": "PREVIOUS_LOCKED_SPLITS_NOT_INCLUDED",
      "type": "error"
    },
    {
      "inputs": [],
      "name": "UNAUTHORIZED",
      "type": "error"
    },
    {
      "anonymous": false,
      "inputs": [
        {
          "indexed": true,
          "internalType": "uint256",
          "name": "projectId",
          "type": "uint256"
        },
        {
          "indexed": true,
          "internalType": "uint256",
          "name": "domain",
          "type": "uint256"
        },
        {
          "indexed": true,
          "internalType": "uint256",
          "name": "group",
          "type": "uint256"
        },
        {
          "components": [
            {
              "internalType": "bool",
              "name": "preferClaimed",
              "type": "bool"
            },
            {
              "internalType": "bool",
              "name": "preferAddToBalance",
              "type": "bool"
            },
            {
              "internalType": "uint256",
              "name": "percent",
              "type": "uint256"
            },
            {
              "internalType": "uint256",
              "name": "projectId",
              "type": "uint256"
            },
            {
              "internalType": "address payable",
              "name": "beneficiary",
              "type": "address"
            },
            {
              "internalType": "uint256",
              "name": "lockedUntil",
              "type": "uint256"
            },
            {
              "internalType": "contract IJBSplitAllocator",
              "name": "allocator",
              "type": "address"
            }
          ],
          "indexed": false,
          "internalType": "struct JBSplit",
          "name": "split",
          "type": "tuple"
        },
        {
          "indexed": false,
          "internalType": "address",
          "name": "caller",
          "type": "address"
        }
      ],
      "name": "SetSplit",
      "type": "event"
    },
    {
      "inputs": [],
      "name": "directory",
      "outputs": [
        {
          "internalType": "contract IJBDirectory",
          "name": "",
          "type": "address"
        }
      ],
      "stateMutability": "view",
      "type": "function"
    },
    {
      "inputs": [],
      "name": "operatorStore",
      "outputs": [
        {
          "internalType": "contract IJBOperatorStore",
          "name": "",
          "type": "address"
        }
      ],
      "stateMutability": "view",
      "type": "function"
    },
    {
      "inputs": [],
      "name": "projects",
      "outputs": [
        {
          "internalType": "contract IJBProjects",
          "name": "",
          "type": "address"
        }
      ],
      "stateMutability": "view",
      "type": "function"
    },
    {
      "inputs": [
        {
          "internalType": "uint256",
          "name": "_projectId",
          "type": "uint256"
        },
        {
          "internalType": "uint256",
          "name": "_domain",
          "type": "uint256"
        },
        {
          "components": [
            {
              "internalType": "uint256",
              "name": "group",
              "type": "uint256"
            },
            {
              "components": [
                {
                  "internalType": "bool",
                  "name": "preferClaimed",
                  "type": "bool"
                },
                {
                  "internalType": "bool",
                  "name": "preferAddToBalance",
                  "type": "bool"
                },
                {
                  "internalType": "uint256",
                  "name": "percent",
                  "type": "uint256"
                },
                {
                  "internalType": "uint256",
                  "name": "projectId",
                  "type": "uint256"
                },
                {
                  "internalType": "address payable",
                  "name": "beneficiary",
                  "type": "address"
                },
                {
                  "internalType": "uint256",
                  "name": "lockedUntil",
                  "type": "uint256"
                },
                {
                  "internalType": "contract IJBSplitAllocator",
                  "name": "allocator",
                  "type": "address"
                }
              ],
              "internalType": "struct JBSplit[]",
              "name": "splits",
              "type": "tuple[]"
            }
          ],
          "internalType": "struct JBGroupedSplits[]",
          "name": "_groupedSplits",
          "type": "tuple[]"
        }
      ],
      "name": "set",
      "outputs": [],
      "stateMutability": "nonpayable",
      "type": "function"
    },
    {
      "inputs": [
        {
          "internalType": "uint256",
          "name": "_projectId",
          "type": "uint256"
        },
        {
          "internalType": "uint256",
          "name": "_domain",
          "type": "uint256"
        },
        {
          "internalType": "uint256",
          "name": "_group",
          "type": "uint256"
        }
      ],
      "name": "splitsOf",
      "outputs": [
        {
          "components": [
            {
              "internalType": "bool",
              "name": "preferClaimed",
              "type": "bool"
            },
            {
              "internalType": "bool",
              "name": "preferAddToBalance",
              "type": "bool"
            },
            {
              "internalType": "uint256",
              "name": "percent",
              "type": "uint256"
            },
            {
              "internalType": "uint256",
              "name": "projectId",
              "type": "uint256"
            },
            {
              "internalType": "address payable",
              "name": "beneficiary",
              "type": "address"
            },
            {
              "internalType": "uint256",
              "name": "lockedUntil",
              "type": "uint256"
            },
            {
              "internalType": "contract IJBSplitAllocator",
              "name": "allocator",
              "type": "address"
            }
          ],
          "internalType": "struct JBSplit[]",
          "name": "",
          "type": "tuple[]"
        }
      ],
      "stateMutability": "view",
      "type": "function"
    }
  ],
  "bytecode": {
    "object": "0x60e060405234801561001057600080fd5b506040516111de3803806111de83398101604081905261002f91610056565b6001600160601b0319606093841b811660805291831b821660a05290911b1660c0526100bb565b60008060006060848603121561006b57600080fd5b8351610076816100a3565b6020850151909350610087816100a3565b6040850151909250610098816100a3565b809150509250925092565b6001600160a01b03811681146100b857600080fd5b50565b60805160601c60a05160601c60c05160601c6110d261010c6000396000818160f001526101f9015260008181608a015261015201526000818160c90152818161050101526105b701526110d26000f3fe608060405234801561001057600080fd5b50600436106100575760003560e01c806369e11cc51461005c5780638b79543c14610085578063ad007d63146100c4578063c41c2f24146100eb578063f2da44b614610112575b600080fd5b61006f61006a366004610d36565b610127565b60405161007c9190610db6565b60405180910390f35b6100ac7f000000000000000000000000000000000000000000000000000000000000000081565b6040516001600160a01b03909116815260200161007c565b6100ac7f000000000000000000000000000000000000000000000000000000000000000081565b6100ac7f000000000000000000000000000000000000000000000000000000000000000081565b610125610120366004610cb3565b61013c565b005b60606101348484846102ef565b949350505050565b6040516331a9108f60e11b8152600481018590527f00000000000000000000000000000000000000000000000000000000000000006001600160a01b031690636352211e9060240160206040518083038186803b15801561019c57600080fd5b505afa1580156101b0573d6000803e3d6000fd5b505050506040513d601f19601f820116820180604052508101906101d49190610c72565b604051632eec7b5560e11b815260048101869052859060129033906001600160a01b037f00000000000000000000000000000000000000000000000000000000000000001690635dd8f6aa9060240160206040518083038186803b15801561023b57600080fd5b505afa15801561024f573d6000803e3d6000fd5b505050506040513d601f19601f820116820180604052508101906102739190610c72565b6001600160a01b031614610289848484846104b0565b8460005b818110156102e35760008888838181106102a9576102a961104a565b90506020028101906102bb9190610e2b565b6102c490610ee0565b90506102da8b8b83600001518460200151610657565b5060010161028d565b50505050505050505050565b60008381526020818152604080832085845282528083208484529091528120546060918167ffffffffffffffff81111561032b5761032b611060565b60405190808252806020026020018201604052801561039257816020015b6040805160e08101825260008082526020808301829052928201819052606082018190526080820181905260a0820181905260c082015282526000199092019101816103495790505b50905060005b828110156104a65760008781526001602081815260408084208a855282528084208985528252808420858552825280842054815160e08101835260a0810186905260c081018690528185168514815281851c851690941484840152600281811c63ffffffff1685840152602282901c66ffffffffffffff166060860152605a82901c6001600160a01b031660808601528c865283528185208b865283528185208a865283528185208686529092529092205480156104725765ffffffffffff811660a08301526001600160a01b03603082901c1660c08301525b818585815181106104855761048561104a565b6020026020010181905250505050808061049e90611019565b915050610398565b5095945050505050565b801580156104c75750336001600160a01b03851614155b801561057d575060405163c161c93f60e01b81523360048201526001600160a01b03858116602483015260448201859052606482018490527f0000000000000000000000000000000000000000000000000000000000000000169063c161c93f9060840160206040518083038186803b15801561054357600080fd5b505afa158015610557573d6000803e3d6000fd5b505050506040513d601f19601f8201168201806040525081019061057b9190610c96565b155b8015610633575060405163c161c93f60e01b81523360048201526001600160a01b03858116602483015260006044830152606482018490527f0000000000000000000000000000000000000000000000000000000000000000169063c161c93f9060840160206040518083038186803b1580156105f957600080fd5b505afa15801561060d573d6000803e3d6000fd5b505050506040513d601f19601f820116820180604052508101906106319190610c96565b155b156106515760405163075fd2b160e01b815260040160405180910390fd5b50505050565b60006106648585856102ef565b905060005b815181101561086d578181815181106106845761068461104a565b602002602001015160a00151421061069b5761085b565b6000805b845181101561083a578383815181106106ba576106ba61104a565b6020026020010151604001518582815181106106d8576106d861104a565b60200260200101516040015114801561073c57508383815181106106fe576106fe61104a565b6020026020010151608001516001600160a01b03168582815181106107255761072561104a565b6020026020010151608001516001600160a01b0316145b801561079357508383815181106107555761075561104a565b602002602001015160c001516001600160a01b031685828151811061077c5761077c61104a565b602002602001015160c001516001600160a01b0316145b80156107d857508383815181106107ac576107ac61104a565b6020026020010151606001518582815181106107ca576107ca61104a565b602002602001015160600151145b801561081e57508383815181106107f1576107f161104a565b602002602001015160a0015185828151811061080f5761080f61104a565b602002602001015160a0015110155b1561082857600191505b8061083281611019565b91505061069f565b508061085957604051631974459560e01b815260040160405180910390fd5b505b8061086581611019565b915050610669565b506000805b8351811015610c495783818151811061088d5761088d61104a565b602002602001015160400151600014156108ba5760405163e119ba4560e01b815260040160405180910390fd5b66ffffffffffffff80168482815181106108d6576108d661104a565b602002602001015160600151111561090157604051631da26cc960e11b815260040160405180910390fd5b8381815181106109135761091361104a565b6020026020010151604001518261092a9190610ec8565b9150633b9aca0082111561095157604051630eca736160e41b815260040160405180910390fd5b60008482815181106109655761096561104a565b6020026020010151600001511561097a575060015b84828151811061098c5761098c61104a565b602002602001015160200151156109a1576002175b60028583815181106109b5576109b561104a565b602002602001015160400151901b8117905060228583815181106109db576109db61104a565b602002602001015160600151901b81179050605a858381518110610a0157610a0161104a565b6020908102919091018101516080015160008b81526001835260408082208c835284528082208b835284528082208783529093529182206001600160a01b0390911690921b92909217908190558551909190869084908110610a6557610a6561104a565b602002602001015160a001511180610aad575060006001600160a01b0316858381518110610a9557610a9561104a565b602002602001015160c001516001600160a01b031614155b15610b875765ffffffffffff8016858381518110610acd57610acd61104a565b602002602001015160a001511115610af85760405163d509b54d60e01b815260040160405180910390fd5b6000858381518110610b0c57610b0c61104a565b602002602001015160a0015165ffffffffffff1690506030868481518110610b3657610b3661104a565b60209081029190910181015160c0015160008c81526002835260408082208d835284528082208c83528452808220888352909352919091206001600160a01b0390911690911b919091179055610be1565b60008881526002602090815260408083208a84528252808320898452825280832085845290915290205415610be15760008881526002602090815260408083208a8452825280832089845282528083208584529091528120555b8587897f1d65eeba667d8160993d485b4782f11eef3bc64186c6521f2a0801f816e752e7888681518110610c1757610c1761104a565b602002602001015133604051610c2e929190610e04565b60405180910390a45080610c4181611019565b915050610872565b505090516000948552602085815260408087209587529481528486209386529290925250912055565b600060208284031215610c8457600080fd5b8151610c8f81611076565b9392505050565b600060208284031215610ca857600080fd5b8151610c8f8161108e565b60008060008060608587031215610cc957600080fd5b8435935060208501359250604085013567ffffffffffffffff80821115610cef57600080fd5b818701915087601f830112610d0357600080fd5b813581811115610d1257600080fd5b8860208260051b8501011115610d2757600080fd5b95989497505060200194505050565b600080600060608486031215610d4b57600080fd5b505081359360208301359350604090920135919050565b80511515825260208082015115159083015260408082015190830152606080820151908301526080808201516001600160a01b039081169184019190915260a0808301519084015260c09182015116910152565b6020808252825182820181905260009190848201906040850190845b81811015610df857610de5838551610d62565b9284019260e09290920191600101610dd2565b50909695505050505050565b6101008101610e138285610d62565b6001600160a01b039290921660e09190910152919050565b60008235603e19833603018112610e4157600080fd5b9190910192915050565b6040805190810167ffffffffffffffff81118282101715610e6e57610e6e611060565b60405290565b60405160e0810167ffffffffffffffff81118282101715610e6e57610e6e611060565b604051601f8201601f1916810167ffffffffffffffff81118282101715610ec057610ec0611060565b604052919050565b60008219821115610edb57610edb611034565b500190565b60006040808336031215610ef357600080fd5b610efb610e4b565b8335815260208085013567ffffffffffffffff80821115610f1b57600080fd5b9086019036601f830112610f2e57600080fd5b813581811115610f4057610f40611060565b610f4e848260051b01610e97565b818152848101925083850160e036818502870188011115610f6e57600080fd5b60009550855b8481101561100457818336031215610f8a578687fd5b610f92610e74565b8335610f9d8161108e565b815283890135610fac8161108e565b818a0152838b01358b82015260608085013590820152608080850135610fd181611076565b9082015260a0848101359082015260c080850135610fee81611076565b9082015286529487019491810191600101610f74565b50505093850193909352509195945050505050565b600060001982141561102d5761102d611034565b5060010190565b634e487b7160e01b600052601160045260246000fd5b634e487b7160e01b600052603260045260246000fd5b634e487b7160e01b600052604160045260246000fd5b6001600160a01b038116811461108b57600080fd5b50565b801515811461108b57600080fdfea26469706673582212202dcd3815e49552d9b3ae0ce384dbfbc2e9d6684573691ed16c684b913b544a9f64736f6c63430008060033",
    "linkReferences": {}
  },
  "methodIdentifiers": {
    "directory()": "c41c2f24",
    "operatorStore()": "ad007d63",
    "projects()": "8b79543c",
    "set(uint256,uint256,(uint256,(bool,bool,uint256,uint256,address,uint256,address)[])[])": "f2da44b6",
    "splitsOf(uint256,uint256,uint256)": "69e11cc5"
  },
  "id": 16
}