{
  "abi": [
    {
      "inputs": [
        {
          "internalType": "address",
          "name": "_token",
          "type": "address"
        },
        {
          "internalType": "uint256",
          "name": "_projectId",
          "type": "uint256"
        }
      ],
      "name": "acceptsToken",
      "outputs": [
        {
          "internalType": "bool",
          "name": "",
          "type": "bool"
        }
      ],
      "stateMutability": "view",
      "type": "function"
    },
    {
      "inputs": [
        {
          "internalType": "uint256",
          "name": "_projectId",
          "type": "uint256"
        },
        {
          "internalType": "uint256",
          "name": "_amount",
          "type": "uint256"
        },
        {
          "internalType": "address",
          "name": "_token",
          "type": "address"
        },
        {
          "internalType": "string",
          "name": "_memo",
          "type": "string"
        },
        {
          "internalType": "bytes",
          "name": "_metadata",
          "type": "bytes"
        }
      ],
      "name": "addToBalanceOf",
      "outputs": [],
      "stateMutability": "payable",
      "type": "function"
    },
    {
      "inputs": [
        {
          "internalType": "address",
          "name": "_token",
          "type": "address"
        }
      ],
      "name": "currencyForToken",
      "outputs": [
        {
          "internalType": "uint256",
          "name": "",
          "type": "uint256"
        }
      ],
      "stateMutability": "view",
      "type": "function"
    },
    {
      "inputs": [
        {
          "internalType": "uint256",
          "name": "_projectId",
          "type": "uint256"
        }
      ],
      "name": "currentEthOverflowOf",
      "outputs": [
        {
          "internalType": "uint256",
          "name": "",
          "type": "uint256"
        }
      ],
      "stateMutability": "view",
      "type": "function"
    },
    {
      "inputs": [
        {
          "internalType": "address",
          "name": "_token",
          "type": "address"
        }
      ],
      "name": "decimalsForToken",
      "outputs": [
        {
          "internalType": "uint256",
          "name": "",
          "type": "uint256"
        }
      ],
      "stateMutability": "view",
      "type": "function"
    },
    {
      "inputs": [
        {
          "internalType": "uint256",
          "name": "_projectId",
          "type": "uint256"
        },
        {
          "internalType": "uint256",
          "name": "_amount",
          "type": "uint256"
        },
        {
          "internalType": "address",
          "name": "_token",
          "type": "address"
        },
        {
          "internalType": "address",
          "name": "_beneficiary",
          "type": "address"
        },
        {
          "internalType": "uint256",
          "name": "_minReturnedTokens",
          "type": "uint256"
        },
        {
          "internalType": "bool",
          "name": "_preferClaimedTokens",
          "type": "bool"
        },
        {
          "internalType": "string",
          "name": "_memo",
          "type": "string"
        },
        {
          "internalType": "bytes",
          "name": "_metadata",
          "type": "bytes"
        }
      ],
      "name": "pay",
      "outputs": [
        {
          "internalType": "uint256",
          "name": "beneficiaryTokenCount",
          "type": "uint256"
        }
      ],
      "stateMutability": "payable",
      "type": "function"
    },
    {
      "inputs": [
        {
          "internalType": "address",
          "name": "_holder",
          "type": "address"
        },
        {
          "internalType": "uint256",
          "name": "_projectId",
          "type": "uint256"
        },
        {
          "internalType": "uint256",
          "name": "_count",
          "type": "uint256"
        },
        {
          "internalType": "address",
          "name": "_token",
          "type": "address"
        },
        {
          "internalType": "uint256",
          "name": "_minReturnedTokens",
          "type": "uint256"
        },
        {
          "internalType": "address payable",
          "name": "_beneficiary",
          "type": "address"
        },
        {
          "internalType": "string",
          "name": "_memo",
          "type": "string"
        },
        {
          "internalType": "bytes",
          "name": "_metadata",
          "type": "bytes"
        }
      ],
      "name": "redeemTokensOf",
      "outputs": [
        {
          "internalType": "uint256",
          "name": "reclaimAmount",
          "type": "uint256"
        }
      ],
      "stateMutability": "nonpayable",
      "type": "function"
    },
    {
      "inputs": [
        {
          "internalType": "bytes4",
          "name": "_interfaceId",
          "type": "bytes4"
        }
      ],
      "name": "supportsInterface",
      "outputs": [
        {
          "internalType": "bool",
          "name": "",
          "type": "bool"
        }
      ],
      "stateMutability": "view",
      "type": "function"
    }
  ],
  "bytecode": {
    "object": "0x608060405234801561001057600080fd5b506104e6806100206000396000f3fe60806040526004361061007b5760003560e01c8063a32e1e961161004e578063a32e1e961461011b578063b7bad1b11461013c578063df21a7dd1461015d578063fe663f0f1461018c57600080fd5b806301ffc9a7146100805780630cf8e858146100b55780631982d679146100ce5780631ebc263f146100fd575b600080fd5b34801561008c57600080fd5b506100a061009b36600461035a565b6101a7565b60405190151581526020015b60405180910390f35b6100cc6100c3366004610402565b50505050505050565b005b3480156100da57600080fd5b506100ef6100e9366004610242565b50600190565b6040519081526020016100ac565b6100ef61010b36600461039d565b60009a9950505050505050505050565b34801561012757600080fd5b506100ef610136366004610384565b50600090565b34801561014857600080fd5b506100ef610157366004610242565b50601290565b34801561016957600080fd5b506100a0610178366004610266565b6001600160a01b03821661eeee1492915050565b34801561019857600080fd5b506100ef61010b366004610292565b60006001600160e01b0319821663301cdc3960e21b14806101d857506001600160e01b0319821663fe663f0f60e01b145b806101f357506301ffc9a760e01b6001600160e01b03198316145b92915050565b60008083601f84011261020b57600080fd5b50813567ffffffffffffffff81111561022357600080fd5b60208301915083602082850101111561023b57600080fd5b9250929050565b60006020828403121561025457600080fd5b813561025f81610498565b9392505050565b6000806040838503121561027957600080fd5b823561028481610498565b946020939093013593505050565b6000806000806000806000806000806101008b8d0312156102b257600080fd5b8a356102bd81610498565b995060208b0135985060408b0135975060608b01356102db81610498565b965060808b0135955060a08b01356102f281610498565b945060c08b013567ffffffffffffffff8082111561030f57600080fd5b61031b8e838f016101f9565b909650945060e08d013591508082111561033457600080fd5b506103418d828e016101f9565b915080935050809150509295989b9194979a5092959850565b60006020828403121561036c57600080fd5b81356001600160e01b03198116811461025f57600080fd5b60006020828403121561039657600080fd5b5035919050565b6000806000806000806000806000806101008b8d0312156103bd57600080fd5b8a35995060208b0135985060408b01356103d681610498565b975060608b01356103e681610498565b965060808b0135955060a08b013580151581146102f257600080fd5b600080600080600080600060a0888a03121561041d57600080fd5b8735965060208801359550604088013561043681610498565b9450606088013567ffffffffffffffff8082111561045357600080fd5b61045f8b838c016101f9565b909650945060808a013591508082111561047857600080fd5b506104858a828b016101f9565b989b979a50959850939692959293505050565b6001600160a01b03811681146104ad57600080fd5b5056fea26469706673582212201b695a318ec35e5d4453598d31efb9babb356752921693c79a202750e8e9e63164736f6c63430008060033",
    "linkReferences": {}
  },
  "methodIdentifiers": {
    "acceptsToken(address,uint256)": "df21a7dd",
    "addToBalanceOf(uint256,uint256,address,string,bytes)": "0cf8e858",
    "currencyForToken(address)": "1982d679",
    "currentEthOverflowOf(uint256)": "a32e1e96",
    "decimalsForToken(address)": "b7bad1b1",
    "pay(uint256,uint256,address,address,uint256,bool,string,bytes)": "1ebc263f",
    "redeemTokensOf(address,uint256,uint256,address,uint256,address,string,bytes)": "fe663f0f",
    "supportsInterface(bytes4)": "01ffc9a7"
  },
  "id": 10
}