{
  "abi": [
    {
      "inputs": [
        {
          "internalType": "contract IJBDirectory",
          "name": "_directory",
          "type": "address"
        },
        {
          "internalType": "contract IJBFundingCycleStore",
          "name": "_fundingCycleStore",
          "type": "address"
        },
        {
          "internalType": "contract IJBPrices",
          "name": "_prices",
          "type": "address"
        }
      ],
      "stateMutability": "nonpayable",
      "type": "constructor"
    },
    {
      "inputs": [],
      "name": "CURRENCY_MISMATCH",
      "type": "error"
    },
    {
      "inputs": [],
      "name": "DISTRIBUTION_AMOUNT_LIMIT_REACHED",
      "type": "error"
    },
    {
      "inputs": [],
      "name": "FUNDING_CYCLE_DISTRIBUTION_PAUSED",
      "type": "error"
    },
    {
      "inputs": [],
      "name": "FUNDING_CYCLE_PAYMENT_PAUSED",
      "type": "error"
    },
    {
      "inputs": [],
      "name": "FUNDING_CYCLE_REDEEM_PAUSED",
      "type": "error"
    },
    {
      "inputs": [],
      "name": "INADEQUATE_CONTROLLER_ALLOWANCE",
      "type": "error"
    },
    {
      "inputs": [],
      "name": "INADEQUATE_PAYMENT_TERMINAL_STORE_BALANCE",
      "type": "error"
    },
    {
      "inputs": [],
      "name": "INSUFFICIENT_TOKENS",
      "type": "error"
    },
    {
      "inputs": [],
      "name": "INVALID_FUNDING_CYCLE",
      "type": "error"
    },
    {
      "inputs": [],
      "name": "PAYMENT_TERMINAL_MIGRATION_NOT_ALLOWED",
      "type": "error"
    },
    {
      "inputs": [
        {
          "internalType": "uint256",
          "name": "prod1",
          "type": "uint256"
        },
        {
          "internalType": "uint256",
          "name": "denominator",
          "type": "uint256"
        }
      ],
      "name": "PRBMath__MulDivOverflow",
      "type": "error"
    },
    {
      "inputs": [
        {
          "internalType": "contract IJBSingleTokenPaymentTerminal",
          "name": "",
          "type": "address"
        },
        {
          "internalType": "uint256",
          "name": "",
          "type": "uint256"
        }
      ],
      "name": "balanceOf",
      "outputs": [
        {
          "internalType": "uint256",
          "name": "",
          "type": "uint256"
        }
      ],
      "stateMutability": "view",
      "type": "function"
    },
    {
      "inputs": [
        {
          "internalType": "contract IJBSingleTokenPaymentTerminal",
          "name": "_terminal",
          "type": "address"
        },
        {
          "internalType": "uint256",
          "name": "_projectId",
          "type": "uint256"
        }
      ],
      "name": "currentOverflowOf",
      "outputs": [
        {
          "internalType": "uint256",
          "name": "",
          "type": "uint256"
        }
      ],
      "stateMutability": "view",
      "type": "function"
    },
    {
      "inputs": [
        {
          "internalType": "uint256",
          "name": "_projectId",
          "type": "uint256"
        },
        {
          "internalType": "uint256",
          "name": "_tokenCount",
          "type": "uint256"
        },
        {
          "internalType": "uint256",
          "name": "_totalSupply",
          "type": "uint256"
        },
        {
          "internalType": "uint256",
          "name": "_overflow",
          "type": "uint256"
        }
      ],
      "name": "currentReclaimableOverflowOf",
      "outputs": [
        {
          "internalType": "uint256",
          "name": "",
          "type": "uint256"
        }
      ],
      "stateMutability": "view",
      "type": "function"
    },
    {
      "inputs": [
        {
          "internalType": "contract IJBSingleTokenPaymentTerminal",
          "name": "_terminal",
          "type": "address"
        },
        {
          "internalType": "uint256",
          "name": "_projectId",
          "type": "uint256"
        },
        {
          "internalType": "uint256",
          "name": "_tokenCount",
          "type": "uint256"
        },
        {
          "internalType": "bool",
          "name": "_useTotalOverflow",
          "type": "bool"
        }
      ],
      "name": "currentReclaimableOverflowOf",
      "outputs": [
        {
          "internalType": "uint256",
          "name": "",
          "type": "uint256"
        }
      ],
      "stateMutability": "view",
      "type": "function"
    },
    {
      "inputs": [
        {
          "internalType": "uint256",
          "name": "_projectId",
          "type": "uint256"
        },
        {
          "internalType": "uint256",
          "name": "_decimals",
          "type": "uint256"
        },
        {
          "internalType": "uint256",
          "name": "_currency",
          "type": "uint256"
        }
      ],
      "name": "currentTotalOverflowOf",
      "outputs": [
        {
          "internalType": "uint256",
          "name": "",
          "type": "uint256"
        }
      ],
      "stateMutability": "view",
      "type": "function"
    },
    {
      "inputs": [],
      "name": "directory",
      "outputs": [
        {
          "internalType": "contract IJBDirectory",
          "name": "",
          "type": "address"
        }
      ],
      "stateMutability": "view",
      "type": "function"
    },
    {
      "inputs": [],
      "name": "fundingCycleStore",
      "outputs": [
        {
          "internalType": "contract IJBFundingCycleStore",
          "name": "",
          "type": "address"
        }
      ],
      "stateMutability": "view",
      "type": "function"
    },
    {
      "inputs": [],
      "name": "prices",
      "outputs": [
        {
          "internalType": "contract IJBPrices",
          "name": "",
          "type": "address"
        }
      ],
      "stateMutability": "view",
      "type": "function"
    },
    {
      "inputs": [
        {
          "internalType": "uint256",
          "name": "_projectId",
          "type": "uint256"
        },
        {
          "internalType": "uint256",
          "name": "_amount",
          "type": "uint256"
        }
      ],
      "name": "recordAddedBalanceFor",
      "outputs": [],
      "stateMutability": "nonpayable",
      "type": "function"
    },
    {
      "inputs": [
        {
          "internalType": "uint256",
          "name": "_projectId",
          "type": "uint256"
        },
        {
          "internalType": "uint256",
          "name": "_amount",
          "type": "uint256"
        },
        {
          "internalType": "uint256",
          "name": "_currency",
          "type": "uint256"
        }
      ],
      "name": "recordDistributionFor",
      "outputs": [
        {
          "components": [
            {
              "internalType": "uint256",
              "name": "number",
              "type": "uint256"
            },
            {
              "internalType": "uint256",
              "name": "configuration",
              "type": "uint256"
            },
            {
              "internalType": "uint256",
              "name": "basedOn",
              "type": "uint256"
            },
            {
              "internalType": "uint256",
              "name": "start",
              "type": "uint256"
            },
            {
              "internalType": "uint256",
              "name": "duration",
              "type": "uint256"
            },
            {
              "internalType": "uint256",
              "name": "weight",
              "type": "uint256"
            },
            {
              "internalType": "uint256",
              "name": "discountRate",
              "type": "uint256"
            },
            {
              "internalType": "contract IJBFundingCycleBallot",
              "name": "ballot",
              "type": "address"
            },
            {
              "internalType": "uint256",
              "name": "metadata",
              "type": "uint256"
            }
          ],
          "internalType": "struct JBFundingCycle",
          "name": "fundingCycle",
          "type": "tuple"
        },
        {
          "internalType": "uint256",
          "name": "distributedAmount",
          "type": "uint256"
        }
      ],
      "stateMutability": "nonpayable",
      "type": "function"
    },
    {
      "inputs": [
        {
          "internalType": "uint256",
          "name": "_projectId",
          "type": "uint256"
        }
      ],
      "name": "recordMigration",
      "outputs": [
        {
          "internalType": "uint256",
          "name": "balance",
          "type": "uint256"
        }
      ],
      "stateMutability": "nonpayable",
      "type": "function"
    },
    {
      "inputs": [
        {
          "internalType": "address",
          "name": "_payer",
          "type": "address"
        },
        {
          "components": [
            {
              "internalType": "address",
              "name": "token",
              "type": "address"
            },
            {
              "internalType": "uint256",
              "name": "value",
              "type": "uint256"
            },
            {
              "internalType": "uint256",
              "name": "decimals",
              "type": "uint256"
            },
            {
              "internalType": "uint256",
              "name": "currency",
              "type": "uint256"
            }
          ],
          "internalType": "struct JBTokenAmount",
          "name": "_amount",
          "type": "tuple"
        },
        {
          "internalType": "uint256",
          "name": "_projectId",
          "type": "uint256"
        },
        {
          "internalType": "uint256",
          "name": "_baseWeightCurrency",
          "type": "uint256"
        },
        {
          "internalType": "address",
          "name": "_beneficiary",
          "type": "address"
        },
        {
          "internalType": "string",
          "name": "_memo",
          "type": "string"
        },
        {
          "internalType": "bytes",
          "name": "_metadata",
          "type": "bytes"
        }
      ],
      "name": "recordPaymentFrom",
      "outputs": [
        {
          "components": [
            {
              "internalType": "uint256",
              "name": "number",
              "type": "uint256"
            },
            {
              "internalType": "uint256",
              "name": "configuration",
              "type": "uint256"
            },
            {
              "internalType": "uint256",
              "name": "basedOn",
              "type": "uint256"
            },
            {
              "internalType": "uint256",
              "name": "start",
              "type": "uint256"
            },
            {
              "internalType": "uint256",
              "name": "duration",
              "type": "uint256"
            },
            {
              "internalType": "uint256",
              "name": "weight",
              "type": "uint256"
            },
            {
              "internalType": "uint256",
              "name": "discountRate",
              "type": "uint256"
            },
            {
              "internalType": "contract IJBFundingCycleBallot",
              "name": "ballot",
              "type": "address"
            },
            {
              "internalType": "uint256",
              "name": "metadata",
              "type": "uint256"
            }
          ],
          "internalType": "struct JBFundingCycle",
          "name": "fundingCycle",
          "type": "tuple"
        },
        {
          "internalType": "uint256",
          "name": "tokenCount",
          "type": "uint256"
        },
        {
          "internalType": "contract IJBPayDelegate",
          "name": "delegate",
          "type": "address"
        },
        {
          "internalType": "string",
          "name": "memo",
          "type": "string"
        }
      ],
      "stateMutability": "nonpayable",
      "type": "function"
    },
    {
      "inputs": [
        {
          "internalType": "address",
          "name": "_holder",
          "type": "address"
        },
        {
          "internalType": "uint256",
          "name": "_projectId",
          "type": "uint256"
        },
        {
          "internalType": "uint256",
          "name": "_tokenCount",
          "type": "uint256"
        },
        {
          "internalType": "string",
          "name": "_memo",
          "type": "string"
        },
        {
          "internalType": "bytes",
          "name": "_metadata",
          "type": "bytes"
        }
      ],
      "name": "recordRedemptionFor",
      "outputs": [
        {
          "components": [
            {
              "internalType": "uint256",
              "name": "number",
              "type": "uint256"
            },
            {
              "internalType": "uint256",
              "name": "configuration",
              "type": "uint256"
            },
            {
              "internalType": "uint256",
              "name": "basedOn",
              "type": "uint256"
            },
            {
              "internalType": "uint256",
              "name": "start",
              "type": "uint256"
            },
            {
              "internalType": "uint256",
              "name": "duration",
              "type": "uint256"
            },
            {
              "internalType": "uint256",
              "name": "weight",
              "type": "uint256"
            },
            {
              "internalType": "uint256",
              "name": "discountRate",
              "type": "uint256"
            },
            {
              "internalType": "contract IJBFundingCycleBallot",
              "name": "ballot",
              "type": "address"
            },
            {
              "internalType": "uint256",
              "name": "metadata",
              "type": "uint256"
            }
          ],
          "internalType": "struct JBFundingCycle",
          "name": "fundingCycle",
          "type": "tuple"
        },
        {
          "internalType": "uint256",
          "name": "reclaimAmount",
          "type": "uint256"
        },
        {
          "internalType": "contract IJBRedemptionDelegate",
          "name": "delegate",
          "type": "address"
        },
        {
          "internalType": "string",
          "name": "memo",
          "type": "string"
        }
      ],
      "stateMutability": "nonpayable",
      "type": "function"
    },
    {
      "inputs": [
        {
          "internalType": "uint256",
          "name": "_projectId",
          "type": "uint256"
        },
        {
          "internalType": "uint256",
          "name": "_amount",
          "type": "uint256"
        },
        {
          "internalType": "uint256",
          "name": "_currency",
          "type": "uint256"
        }
      ],
      "name": "recordUsedAllowanceOf",
      "outputs": [
        {
          "components": [
            {
              "internalType": "uint256",
              "name": "number",
              "type": "uint256"
            },
            {
              "internalType": "uint256",
              "name": "configuration",
              "type": "uint256"
            },
            {
              "internalType": "uint256",
              "name": "basedOn",
              "type": "uint256"
            },
            {
              "internalType": "uint256",
              "name": "start",
              "type": "uint256"
            },
            {
              "internalType": "uint256",
              "name": "duration",
              "type": "uint256"
            },
            {
              "internalType": "uint256",
              "name": "weight",
              "type": "uint256"
            },
            {
              "internalType": "uint256",
              "name": "discountRate",
              "type": "uint256"
            },
            {
              "internalType": "contract IJBFundingCycleBallot",
              "name": "ballot",
              "type": "address"
            },
            {
              "internalType": "uint256",
              "name": "metadata",
              "type": "uint256"
            }
          ],
          "internalType": "struct JBFundingCycle",
          "name": "fundingCycle",
          "type": "tuple"
        },
        {
          "internalType": "uint256",
          "name": "usedAmount",
          "type": "uint256"
        }
      ],
      "stateMutability": "nonpayable",
      "type": "function"
    },
    {
      "inputs": [
        {
          "internalType": "contract IJBSingleTokenPaymentTerminal",
          "name": "",
          "type": "address"
        },
        {
          "internalType": "uint256",
          "name": "",
          "type": "uint256"
        },
        {
          "internalType": "uint256",
          "name": "",
          "type": "uint256"
        }
      ],
      "name": "usedDistributionLimitOf",
      "outputs": [
        {
          "internalType": "uint256",
          "name": "",
          "type": "uint256"
        }
      ],
      "stateMutability": "view",
      "type": "function"
    },
    {
      "inputs": [
        {
          "internalType": "contract IJBSingleTokenPaymentTerminal",
          "name": "",
          "type": "address"
        },
        {
          "internalType": "uint256",
          "name": "",
          "type": "uint256"
        },
        {
          "internalType": "uint256",
          "name": "",
          "type": "uint256"
        }
      ],
      "name": "usedOverflowAllowanceOf",
      "outputs": [
        {
          "internalType": "uint256",
          "name": "",
          "type": "uint256"
        }
      ],
      "stateMutability": "view",
      "type": "function"
    }
  ],
  "bytecode": {
    "object": "0x60e06040523480156200001157600080fd5b50604051620032df380380620032df833981016040819052620000349162000061565b60016000556001600160601b0319606093841b811660805291831b821660a05290911b1660c052620000ce565b6000806000606084860312156200007757600080fd5b83516200008481620000b5565b60208501519093506200009781620000b5565b6040850151909250620000aa81620000b5565b809150509250925092565b6001600160a01b0381168114620000cb57600080fd5b50565b60805160601c60a05160601c60c05160601c6131536200018c60003960008181610263015281816106ad01528181610b560152818161205b015261226601526000818161018b015281816103600152818161082a01528181610c5001528181610d76015281816113b1015281816114890152818161183601528181611c1901526122ee0152600081816102290152818161041f01528181610ff3015281816116a40152818161191f01528181611e6501526120dd01526131536000f3fe608060405234801561001057600080fd5b50600436106100ff5760003560e01c8063c294b2f411610097578063d49031c011610066578063d49031c014610285578063d4c3a8d214610298578063e7c8e3e3146102c9578063e8ba563a146102de57600080fd5b8063c294b2f414610211578063c41c2f2414610224578063c66445971461024b578063d3419bf31461025e57600080fd5b80636bb6a5ad116100d35780636bb6a5ad146101c5578063a2df1f95146101d8578063a57c7f59146101eb578063b753d7e9146101fe57600080fd5b8062fdd58e1461010457806325386715146101425780632fa1b39114610163578063557e715514610186575b600080fd5b61012f61011236600461282b565b600160209081526000928352604080842090915290825290205481565b6040519081526020015b60405180910390f35b610155610150366004612abe565b61030f565b604051610139929190612bde565b610176610171366004612610565b6107df565b6040516101399493929190612bfb565b6101ad7f000000000000000000000000000000000000000000000000000000000000000081565b6040516001600160a01b039091168152602001610139565b61012f6101d33660046129eb565b610c0e565b6101766101e63660046126d1565b610d2b565b61012f6101f9366004612aea565b611379565b61012f61020c366004612abe565b61144f565b61012f61021f36600461288c565b611466565b6101ad7f000000000000000000000000000000000000000000000000000000000000000081565b610155610259366004612abe565b6117ee565b6101ad7f000000000000000000000000000000000000000000000000000000000000000081565b61012f61029336600461282b565b611c10565b61012f6102a6366004612857565b600360209081526000938452604080852082529284528284209052825290205481565b6102dc6102d7366004612a78565b611cf8565b005b61012f6102ec366004612857565b600260209081526000938452604080852082529284528284209052825290205481565b6103176124a2565b6000600260005414156103455760405162461bcd60e51b815260040161033c90612ba7565b60405180910390fd5b60026000556040516321d1336160e11b8152600481018690527f00000000000000000000000000000000000000000000000000000000000000006001600160a01b0316906343a266c2906024016101206040518083038186803b1580156103ab57600080fd5b505afa1580156103bf573d6000803e3d6000fd5b505050506040513d601f19601f820116820180604052508101906103e391906128fc565b336000908152600360209081526040808320898452825280832082850151845290915281205491935090610418908690612ef1565b90506000807f00000000000000000000000000000000000000000000000000000000000000006001600160a01b0316635dd8f6aa896040518263ffffffff1660e01b815260040161046b91815260200190565b60206040518083038186803b15801561048357600080fd5b505afa158015610497573d6000803e3d6000fd5b505050506040513d601f19601f820116820180604052508101906104bb91906125f3565b6001600160a01b0316637a81b56289876020015133336001600160a01b031663fc0c546a6040518163ffffffff1660e01b815260040160206040518083038186803b15801561050957600080fd5b505afa15801561051d573d6000803e3d6000fd5b505050506040513d601f19601f8201168201806040525081019061054191906125f3565b6040518563ffffffff1660e01b81526004016105609493929190612e47565b604080518083038186803b15801561057757600080fd5b505afa15801561058b573d6000803e3d6000fd5b505050506040513d601f19601f820116820180604052508101906105af9190612a9a565b91509150818311806105bf575081155b156105dd57604051635b76558960e11b815260040160405180910390fd5b8086146105fd5760405163e56ea4e760e01b815260040160405180910390fd5b6000336001600160a01b031663e5a6b10f6040518163ffffffff1660e01b815260040160206040518083038186803b15801561063857600080fd5b505afa15801561064c573d6000803e3d6000fd5b505050506040513d601f19601f820116820180604052508101906106709190612a04565b905080871461073a57610735886106896012600a612f6e565b604051635268657960e11b8152600481018b905260248101859052601260448201527f00000000000000000000000000000000000000000000000000000000000000006001600160a01b03169063a4d0caf2906064015b60206040518083038186803b1580156106f857600080fd5b505afa15801561070c573d6000803e3d6000fd5b505050506040513d601f19601f820116820180604052508101906107309190612a04565b611d41565b61073c565b875b945061074a338a8884611e0f565b85111561076a576040516317e53f6760e11b815260040160405180910390fd5b3360008181526003602090815260408083208d845282528083208a83015184528252808320889055928252600181528282208c8352905220546107ae908690613035565b3360009081526001602081815260408084209d84529c90529a81209190915598909855509296919550909350505050565b6107e76124a2565b60008060606002600054141561080f5760405162461bcd60e51b815260040161033c90612ba7565b60026000556040516321d1336160e11b8152600481018b90527f00000000000000000000000000000000000000000000000000000000000000006001600160a01b0316906343a266c2906024016101206040518083038186803b15801561087557600080fd5b505afa158015610889573d6000803e3d6000fd5b505050506040513d601f19601f820116820180604052508101906108ad91906128fc565b80519094506108cf5760405163174b338d60e11b815260040160405180910390fd5b61010084015160481c600190811614156108fc5760405163a3bb913360e01b815260040160405180910390fd5b61010084015160009060521c60019081161415610a6f576000604051806101400160405280336001600160a01b031681526020018f6001600160a01b031681526020018e803603810190610950919061297c565b815260208082018f905288015160408201526001600160a01b038c16606082015260a080890151608083015261010089015191019060181c61ffff1681526020018a8a8080601f01602080910402602001604051908101604052809392919081815260200183838082843760009201919091525050509082525060200188905290506109e186610100015160541c90565b6001600160a01b031663d46cf171826040518263ffffffff1660e01b8152600401610a0c9190612c36565b600060405180830381600087803b158015610a2657600080fd5b505af1158015610a3a573d6000803e3d6000fd5b505050506040513d6000823e601f3d908101601f19168201604052610a629190810190612a1d565b955093509150610ab09050565b8460a00151905087878080601f0160208091040260200160405190810160405280939291908181526020018383808284376000920191909152509294505050505b60208c0135610ac3575060009250610bf7565b3360009081526001602090815260408083208e8452825290912054610aeb918e013590612ef1565b3360009081526001602090815260408083208f845290915290205580610b15575060009250610bf7565b60408c0135600060608e01358c14610bd557604051635268657960e11b815260608f01356004820152602481018d9052604481018390526001600160a01b037f0000000000000000000000000000000000000000000000000000000000000000169063a4d0caf29060640160206040518083038186803b158015610b9857600080fd5b505afa158015610bac573d6000803e3d6000fd5b505050506040513d601f19601f82011682018060405250810190610bd09190612a04565b610be0565b610be082600a612f6e565b9050610bf18e602001358483611d41565b95505050505b600160008190555098509850985098945050505050565b600060026000541415610c335760405162461bcd60e51b815260040161033c90612ba7565b600260009081556040516321d1336160e11b8152600481018490527f00000000000000000000000000000000000000000000000000000000000000006001600160a01b0316906343a266c2906024016101206040518083038186803b158015610c9b57600080fd5b505afa158015610caf573d6000803e3d6000fd5b505050506040513d601f19601f82011682018060405250810190610cd391906128fc565b610100810151909150604e1c600190811614610d02576040516373e4f05f60e11b815260040160405180910390fd5b505033600090815260016020818152604080842094845293905291812080549082905591905590565b610d336124a2565b600080606060026000541415610d5b5760405162461bcd60e51b815260040161033c90612ba7565b60026000556040516321d1336160e11b8152600481018990527f00000000000000000000000000000000000000000000000000000000000000006001600160a01b0316906343a266c2906024016101206040518083038186803b158015610dc157600080fd5b505afa158015610dd5573d6000803e3d6000fd5b505050506040513d601f19601f82011682018060405250810190610df991906128fc565b610100810151909450604a1c60019081161415610e295760405163a97cf58f60e01b815260040160405180910390fd5b610e5d604051806080016040528060006001600160a01b031681526020016000815260200160008152602001600081525090565b6000806000336001600160a01b031663fc0c546a6040518163ffffffff1660e01b815260040160206040518083038186803b158015610e9b57600080fd5b505afa158015610eaf573d6000803e3d6000fd5b505050506040513d601f19601f82011682018060405250810190610ed391906125f3565b90506000336001600160a01b031663313ce5676040518163ffffffff1660e01b815260040160206040518083038186803b158015610f1057600080fd5b505afa158015610f24573d6000803e3d6000fd5b505050506040513d601f19601f82011682018060405250810190610f489190612a04565b90506000336001600160a01b031663e5a6b10f6040518163ffffffff1660e01b815260040160206040518083038186803b158015610f8557600080fd5b505afa158015610f99573d6000803e3d6000fd5b505050506040513d601f19601f82011682018060405250810190610fbd9190612a04565b6101008b015190915060511c600190811614610fe457610fdf338f8c84611e0f565b610fef565b610fef8e83836120ba565b94507f00000000000000000000000000000000000000000000000000000000000000006001600160a01b0316635dd8f6aa8f6040518263ffffffff1660e01b815260040161103f91815260200190565b60206040518083038186803b15801561105757600080fd5b505afa15801561106b573d6000803e3d6000fd5b505050506040513d601f19601f8201168201806040525081019061108f91906125f3565b6001600160a01b031663b5f1e34d8f6110b48d610100015161ffff60189190911c1690565b6040516001600160e01b031960e085901b1681526004810192909252602482015260440160206040518083038186803b1580156110f057600080fd5b505afa158015611104573d6000803e3d6000fd5b505050506040513d601f19601f820116820180604052508101906111289190612a04565b9350838d111561114a57604051625c579160e91b815260040160405180910390fd5b84156111605761115d8e8b8f87896122c4565b98505b604080516080810182526001600160a01b03949094168452602084018a9052830191909152606082015261010088015190935060531c600190811614156112da576000604051806101a00160405280336001600160a01b031681526020018e6001600160a01b031681526020018d8152602001896020015181526020018c815260200183815260200184815260200185815260200161120c8a6101000151600160519190911c81161490565b1515815260200161121c8a61240a565b815260200161122a8a612427565b81526020018b81526020018a815250905061124a88610100015160541c90565b6001600160a01b0316638dfc9598826040518263ffffffff1660e01b81526004016112759190612d38565b600060405180830381600087803b15801561128f57600080fd5b505af11580156112a3573d6000803e3d6000fd5b505050506040513d6000823e601f3d908101601f191682016040526112cb9190810190612a1d565b91985090965094506112de9050565b8893505b50503360009081526001602090815260408083208c8452909152902054841115905061131d576040516317e53f6760e11b815260040160405180910390fd5b8215611365573360009081526001602090815260408083208b8452909152902054611349908490613035565b3360009081526001602090815260408083208c84529091529020555b600160008190555095509550955095915050565b60008161138857506000611447565b8284111561139857506000611447565b6040516321d1336160e11b8152600481018690526000907f00000000000000000000000000000000000000000000000000000000000000006001600160a01b0316906343a266c2906024016101206040518083038186803b1580156113fc57600080fd5b505afa158015611410573d6000803e3d6000fd5b505050506040513d601f19601f8201168201806040525081019061143491906128fc565b905061144386828787876122c4565b9150505b949350505050565b600061145c8484846120ba565b90505b9392505050565b6040516321d1336160e11b81526004810184905260009081906001600160a01b037f000000000000000000000000000000000000000000000000000000000000000016906343a266c2906024016101206040518083038186803b1580156114cc57600080fd5b505afa1580156114e0573d6000803e3d6000fd5b505050506040513d601f19601f8201168201806040525081019061150491906128fc565b905060008361158e576115898787848a6001600160a01b031663e5a6b10f6040518163ffffffff1660e01b815260040160206040518083038186803b15801561154c57600080fd5b505afa158015611560573d6000803e3d6000fd5b505050506040513d601f19601f820116820180604052508101906115849190612a04565b611e0f565b611679565b61167986886001600160a01b031663313ce5676040518163ffffffff1660e01b815260040160206040518083038186803b1580156115cb57600080fd5b505afa1580156115df573d6000803e3d6000fd5b505050506040513d601f19601f820116820180604052508101906116039190612a04565b896001600160a01b031663e5a6b10f6040518163ffffffff1660e01b815260040160206040518083038186803b15801561163c57600080fd5b505afa158015611650573d6000803e3d6000fd5b505050506040513d601f19601f820116820180604052508101906116749190612a04565b6120ba565b90508061168b57600092505050611447565b604051632eec7b5560e11b8152600481018790526000907f00000000000000000000000000000000000000000000000000000000000000006001600160a01b031690635dd8f6aa9060240160206040518083038186803b1580156116ee57600080fd5b505afa158015611702573d6000803e3d6000fd5b505050506040513d601f19601f8201168201806040525081019061172691906125f3565b6001600160a01b031663b5f1e34d8861174b86610100015161ffff60189190911c1690565b6040516001600160e01b031960e085901b1681526004810192909252602482015260440160206040518083038186803b15801561178757600080fd5b505afa15801561179b573d6000803e3d6000fd5b505050506040513d601f19601f820116820180604052508101906117bf9190612a04565b9050808611156117d55760009350505050611447565b6117e287848884866122c4565b98975050505050505050565b6117f66124a2565b60006002600054141561181b5760405162461bcd60e51b815260040161033c90612ba7565b60026000556040516321d1336160e11b8152600481018690527f00000000000000000000000000000000000000000000000000000000000000006001600160a01b0316906343a266c2906024016101206040518083038186803b15801561188157600080fd5b505afa158015611895573d6000803e3d6000fd5b505050506040513d601f19601f820116820180604052508101906118b991906128fc565b61010081015190925060491c600190811614156118e95760405163861e9dcd60e01b815260040160405180910390fd5b336000908152600260209081526040808320888452825280832085518452909152812054611918908690612ef1565b90506000807f00000000000000000000000000000000000000000000000000000000000000006001600160a01b0316635dd8f6aa896040518263ffffffff1660e01b815260040161196b91815260200190565b60206040518083038186803b15801561198357600080fd5b505afa158015611997573d6000803e3d6000fd5b505050506040513d601f19601f820116820180604052508101906119bb91906125f3565b6001600160a01b031663e8db213089876020015133336001600160a01b031663fc0c546a6040518163ffffffff1660e01b815260040160206040518083038186803b158015611a0957600080fd5b505afa158015611a1d573d6000803e3d6000fd5b505050506040513d601f19601f82011682018060405250810190611a4191906125f3565b6040518563ffffffff1660e01b8152600401611a609493929190612e47565b604080518083038186803b158015611a7757600080fd5b505afa158015611a8b573d6000803e3d6000fd5b505050506040513d601f19601f82011682018060405250810190611aaf9190612a9a565b9150915081831180611abf575081155b15611add57604051630236b92b60e21b815260040160405180910390fd5b808614611afd5760405163e56ea4e760e01b815260040160405180910390fd5b6000336001600160a01b031663e5a6b10f6040518163ffffffff1660e01b815260040160206040518083038186803b158015611b3857600080fd5b505afa158015611b4c573d6000803e3d6000fd5b505050506040513d601f19601f82011682018060405250810190611b709190612a04565b9050808714611b8e57611b89886106896012600a612f6e565b611b90565b875b3360009081526001602090815260408083208d8452909152902054909550851115611bce576040516317e53f6760e11b815260040160405180910390fd5b3360008181526002602090815260408083208d845282528083208a5184528252808320889055928252600181528282208c8352905220546107ae908690613035565b6000611cef83837f00000000000000000000000000000000000000000000000000000000000000006001600160a01b03166343a266c2866040518263ffffffff1660e01b8152600401611c6591815260200190565b6101206040518083038186803b158015611c7e57600080fd5b505afa158015611c92573d6000803e3d6000fd5b505050506040513d601f19601f82011682018060405250810190611cb691906128fc565b866001600160a01b031663e5a6b10f6040518163ffffffff1660e01b815260040160206040518083038186803b15801561154c57600080fd5b90505b92915050565b336000908152600160209081526040808320858452909152902054611d1e908290612ef1565b336000908152600160209081526040808320958352949052929092209190915550565b600080806000198587098587029250828110838203039150508060001415611d7c57838281611d7257611d726130ad565b049250505061145f565b838110611da657604051631dcf306360e21b8152600481018290526024810185905260440161033c565b60008486880960026001871981018816978890046003810283188082028403028082028403028082028403028082028403028082028403029081029092039091026000889003889004909101858311909403939093029303949094049190911702949350505050565b6001600160a01b038416600090815260016020908152604080832086845290915281205480611e42576000915050611447565b604051632eec7b5560e11b81526004810186905260009081906001600160a01b037f00000000000000000000000000000000000000000000000000000000000000001690635dd8f6aa9060240160206040518083038186803b158015611ea757600080fd5b505afa158015611ebb573d6000803e3d6000fd5b505050506040513d601f19601f82011682018060405250810190611edf91906125f3565b6001600160a01b031663e8db21308888602001518b8c6001600160a01b031663fc0c546a6040518163ffffffff1660e01b815260040160206040518083038186803b158015611f2d57600080fd5b505afa158015611f41573d6000803e3d6000fd5b505050506040513d601f19601f82011682018060405250810190611f6591906125f3565b6040518563ffffffff1660e01b8152600401611f849493929190612e47565b604080518083038186803b158015611f9b57600080fd5b505afa158015611faf573d6000803e3d6000fd5b505050506040513d601f19601f82011682018060405250810190611fd39190612a9a565b6001600160a01b038a1660009081526002602090815260408083208c845282528083208b518452909152812054929450909250906120119084613035565b905080158015906120225750858214155b1561209557612092816120376012600a612f6e565b604051635268657960e11b815260048101869052602481018a9052601260448201527f00000000000000000000000000000000000000000000000000000000000000006001600160a01b03169063a4d0caf2906064016106e0565b90505b8084116120a35760006120ad565b6120ad8185613035565b9998505050505050505050565b60405163d175415360e01b81526004810184905260009081906001600160a01b037f0000000000000000000000000000000000000000000000000000000000000000169063d17541539060240160006040518083038186803b15801561211f57600080fd5b505afa158015612133573d6000803e3d6000fd5b505050506040513d6000823e601f3d908101601f1916820160405261215b9190810190612772565b90506000805b825181101561221f5782818151811061217c5761217c6130d9565b60200260200101516001600160a01b031663a32e1e96886040518263ffffffff1660e01b81526004016121b191815260200190565b60206040518083038186803b1580156121c957600080fd5b505afa1580156121dd573d6000803e3d6000fd5b505050506040513d601f19601f820116820180604052508101906122019190612a04565b61220b9083612ef1565b9150806122178161307c565b915050612161565b5060006001851461229a57604051635268657960e11b8152600160048201526024810186905260126044820152612295908390670de0b6b3a7640000906001600160a01b037f0000000000000000000000000000000000000000000000000000000000000000169063a4d0caf2906064016106e0565b61229c565b815b9050856012146122b7576122b281601288612444565b6122b9565b805b979650505050505050565b6000828414156122d5575080612401565b600080604051633157d5c760e21b8152600481018990527f00000000000000000000000000000000000000000000000000000000000000006001600160a01b03169063c55f571c9060240160206040518083038186803b15801561233857600080fd5b505afa15801561234c573d6000803e3d6000fd5b505050506040513d601f19601f8201168201806040525081019061237091906128db565b6002811115612381576123816130c3565b146123945761238f8661240a565b61239d565b61239d86612427565b9050806123ae576000915050612401565b60006123bb848787611d41565b90506127108214156123d05791506124019050565b6123fc816123ea886123e486612710613035565b89611d41565b6123f49085612ef1565b612710611d41565b925050505b95945050505050565b60006028826101000151901c61ffff16612710611cf29190613035565b60006038826101000151901c61ffff16612710611cf29190613035565b60008282141561245557508261145f565b82821115612483576124678383613035565b61247290600a612f6e565b61247c9085613016565b905061145f565b61248d8284613035565b61249890600a612f6e565b61247c9085612f09565b6040518061012001604052806000815260200160008152602001600081526020016000815260200160008152602001600081526020016000815260200160006001600160a01b03168152602001600081525090565b600061250a61250584612ec9565b612e98565b905082815283838301111561251e57600080fd5b828260208301376000602084830101529392505050565b600082601f83011261254657600080fd5b611cef838335602085016124f7565b805161256081613105565b919050565b60008083601f84011261257757600080fd5b50813567ffffffffffffffff81111561258f57600080fd5b6020830191508360208285010111156125a757600080fd5b9250929050565b600082601f8301126125bf57600080fd5b81516125cd61250582612ec9565b8181528460208386010111156125e257600080fd5b61144782602083016020870161304c565b60006020828403121561260557600080fd5b815161145f81613105565b600080600080600080600080888a0361014081121561262e57600080fd5b893561263981613105565b98506080601f198201121561264d57600080fd5b5060208901965060a0890135955060c0890135945060e089013561267081613105565b935061010089013567ffffffffffffffff8082111561268e57600080fd5b61269a8c838d01612565565b90955093506101208b01359150808211156126b457600080fd5b506126c18b828c01612535565b9150509295985092959890939650565b600080600080600060a086880312156126e957600080fd5b85356126f481613105565b94506020860135935060408601359250606086013567ffffffffffffffff8082111561271f57600080fd5b818801915088601f83011261273357600080fd5b612742898335602085016124f7565b9350608088013591508082111561275857600080fd5b5061276588828901612535565b9150509295509295909350565b6000602080838503121561278557600080fd5b825167ffffffffffffffff8082111561279d57600080fd5b818501915085601f8301126127b157600080fd5b8151818111156127c3576127c36130ef565b8060051b91506127d4848301612e98565b8181528481019084860184860187018a10156127ef57600080fd5b600095505b8386101561281e578051945061280985613105565b848352600195909501949186019186016127f4565b5098975050505050505050565b6000806040838503121561283e57600080fd5b823561284981613105565b946020939093013593505050565b60008060006060848603121561286c57600080fd5b833561287781613105565b95602085013595506040909401359392505050565b600080600080608085870312156128a257600080fd5b84356128ad81613105565b93506020850135925060408501359150606085013580151581146128d057600080fd5b939692955090935050565b6000602082840312156128ed57600080fd5b81516003811061145f57600080fd5b6000610120828403121561290f57600080fd5b612917612e6e565b825181526020830151602082015260408301516040820152606083015160608201526080830151608082015260a083015160a082015260c083015160c082015261296360e08401612555565b60e0820152610100928301519281019290925250919050565b60006080828403121561298e57600080fd5b6040516080810181811067ffffffffffffffff821117156129b1576129b16130ef565b60405282356129bf81613105565b808252506020830135602082015260408301356040820152606083013560608201528091505092915050565b6000602082840312156129fd57600080fd5b5035919050565b600060208284031215612a1657600080fd5b5051919050565b600080600060608486031215612a3257600080fd5b83519250602084015167ffffffffffffffff811115612a5057600080fd5b612a5c868287016125ae565b9250506040840151612a6d81613105565b809150509250925092565b60008060408385031215612a8b57600080fd5b50508035926020909101359150565b60008060408385031215612aad57600080fd5b505080516020909101519092909150565b600080600060608486031215612ad357600080fd5b505081359360208301359350604090920135919050565b60008060008060808587031215612b0057600080fd5b5050823594602084013594506040840135936060013592509050565b60008151808452612b3481602086016020860161304c565b601f01601f19169290920160200192915050565b805182526020808201519083015260408082015190830152606080820151908301526080808201519083015260a0808201519083015260c0808201519083015260e0808201516001600160a01b03169083015261010090810151910152565b6020808252601f908201527f5265656e7472616e637947756172643a207265656e7472616e742063616c6c00604082015260600190565b6101408101612bed8285612b48565b826101208301529392505050565b6000610180612c0a8388612b48565b61012083018690526001600160a01b03851661014084015261016083018190526122b981840185612b1c565b60208152612c506020820183516001600160a01b03169052565b60006020830151612c6c60408401826001600160a01b03169052565b506040830151612ca6606084018280516001600160a01b031682526020808201519083015260408082015190830152606090810151910152565b50606083015160e08301526080830151610100818185015260a08501519150610120612cdc818601846001600160a01b03169052565b60c086015161014086015260e08601516101608601528186015192506101a0915081610180860152612d126101c0860184612b1c565b90860151858203601f190183870152909250612d2e8382612b1c565b9695505050505050565b60208152612d526020820183516001600160a01b03169052565b60006020830151612d6e60408401826001600160a01b03169052565b506040830151606083015260608301516080830152608083015160a083015260a083015160c083015260c083015160e083015260e0830151610100612ddc8185018380516001600160a01b031682526020808201519083015260408082015190830152606090810151910152565b8401519050610180612df18482018315159052565b6101208501516101a08501526101408501516101c08501526101608501519150610200806101e0860152612e29610220860184612b1c565b9250818601519150601f198584030181860152506124018282612b1c565b93845260208401929092526001600160a01b03908116604084015216606082015260800190565b604051610120810167ffffffffffffffff81118282101715612e9257612e926130ef565b60405290565b604051601f8201601f1916810167ffffffffffffffff81118282101715612ec157612ec16130ef565b604052919050565b600067ffffffffffffffff821115612ee357612ee36130ef565b50601f01601f191660200190565b60008219821115612f0457612f04613097565b500190565b600082612f2657634e487b7160e01b600052601260045260246000fd5b500490565b600181815b80851115612f66578160001904821115612f4c57612f4c613097565b80851615612f5957918102915b93841c9390800290612f30565b509250929050565b6000611cef8383600082612f8457506001611cf2565b81612f9157506000611cf2565b8160018114612fa75760028114612fb157612fcd565b6001915050611cf2565b60ff841115612fc257612fc2613097565b50506001821b611cf2565b5060208310610133831016604e8410600b8410161715612ff0575081810a611cf2565b612ffa8383612f2b565b806000190482111561300e5761300e613097565b029392505050565b600081600019048311821515161561303057613030613097565b500290565b60008282101561304757613047613097565b500390565b60005b8381101561306757818101518382015260200161304f565b83811115613076576000848401525b50505050565b600060001982141561309057613090613097565b5060010190565b634e487b7160e01b600052601160045260246000fd5b634e487b7160e01b600052601260045260246000fd5b634e487b7160e01b600052602160045260246000fd5b634e487b7160e01b600052603260045260246000fd5b634e487b7160e01b600052604160045260246000fd5b6001600160a01b038116811461311a57600080fd5b5056fea2646970667358221220cb7d99cab870f7c23b2d288caa1aeccf471a2f0fd30fcbc8ba491d0a38415a0564736f6c63430008060033",
    "linkReferences": {}
  },
  "methodIdentifiers": {
    "balanceOf(address,uint256)": "00fdd58e",
    "currentOverflowOf(address,uint256)": "d49031c0",
    "currentReclaimableOverflowOf(address,uint256,uint256,bool)": "c294b2f4",
    "currentReclaimableOverflowOf(uint256,uint256,uint256,uint256)": "a57c7f59",
    "currentTotalOverflowOf(uint256,uint256,uint256)": "b753d7e9",
    "directory()": "c41c2f24",
    "fundingCycleStore()": "557e7155",
    "prices()": "d3419bf3",
    "recordAddedBalanceFor(uint256,uint256)": "e7c8e3e3",
    "recordDistributionFor(uint256,uint256,uint256)": "c6644597",
    "recordMigration(uint256)": "6bb6a5ad",
    "recordPaymentFrom(address,(address,uint256,uint256,uint256),uint256,uint256,address,string,bytes)": "2fa1b391",
    "recordRedemptionFor(address,uint256,uint256,string,bytes)": "a2df1f95",
    "recordUsedAllowanceOf(uint256,uint256,uint256)": "25386715",
    "usedDistributionLimitOf(address,uint256,uint256)": "e8ba563a",
    "usedOverflowAllowanceOf(address,uint256,uint256)": "d4c3a8d2"
  },
  "id": 15
}