{
  "abi": [
    {
      "inputs": [
        {
          "internalType": "contract IJBProjects",
          "name": "_jbProjects",
          "type": "address"
        },
        {
          "internalType": "uint256",
          "name": "_projectId",
          "type": "uint256"
        }
      ],
      "stateMutability": "nonpayable",
      "type": "constructor"
    },
    {
      "inputs": [],
      "name": "WhitelistDataSource_BeneficiaryNotWhitelisted",
      "type": "error"
    },
    {
      "inputs": [],
      "name": "WhitelistDataSource_Unauthorised",
      "type": "error"
    },
    {
      "anonymous": false,
      "inputs": [
        {
          "indexed": false,
          "internalType": "uint256",
          "name": "numberOfAddresses",
          "type": "uint256"
        }
      ],
      "name": "AddToWhitelist",
      "type": "event"
    },
    {
      "anonymous": false,
      "inputs": [
        {
          "indexed": false,
          "internalType": "uint256",
          "name": "numberOfAddresses",
          "type": "uint256"
        }
      ],
      "name": "RemoveFromWhitelist",
      "type": "event"
    },
    {
      "inputs": [
        {
          "internalType": "address[]",
          "name": "addresses",
          "type": "address[]"
        }
      ],
      "name": "addToWhitelist",
      "outputs": [],
      "stateMutability": "nonpayable",
      "type": "function"
    },
    {
      "inputs": [
        {
          "internalType": "address",
          "name": "_address",
          "type": "address"
        }
      ],
      "name": "addToWhitelist",
      "outputs": [],
      "stateMutability": "nonpayable",
      "type": "function"
    },
    {
      "inputs": [
        {
          "internalType": "address",
          "name": "",
          "type": "address"
        }
      ],
      "name": "isWhitelisted",
      "outputs": [
        {
          "internalType": "bool",
          "name": "",
          "type": "bool"
        }
      ],
      "stateMutability": "view",
      "type": "function"
    },
    {
      "inputs": [
        {
          "components": [
            {
              "internalType": "contract IJBPaymentTerminal",
              "name": "terminal",
              "type": "address"
            },
            {
              "internalType": "address",
              "name": "payer",
              "type": "address"
            },
            {
              "components": [
                {
                  "internalType": "address",
                  "name": "token",
                  "type": "address"
                },
                {
                  "internalType": "uint256",
                  "name": "value",
                  "type": "uint256"
                },
                {
                  "internalType": "uint256",
                  "name": "decimals",
                  "type": "uint256"
                },
                {
                  "internalType": "uint256",
                  "name": "currency",
                  "type": "uint256"
                }
              ],
              "internalType": "struct JBTokenAmount",
              "name": "amount",
              "type": "tuple"
            },
            {
              "internalType": "uint256",
              "name": "projectId",
              "type": "uint256"
            },
            {
              "internalType": "uint256",
              "name": "currentFundingCycleConfiguration",
              "type": "uint256"
            },
            {
              "internalType": "address",
              "name": "beneficiary",
              "type": "address"
            },
            {
              "internalType": "uint256",
              "name": "weight",
              "type": "uint256"
            },
            {
              "internalType": "uint256",
              "name": "reservedRate",
              "type": "uint256"
            },
            {
              "internalType": "string",
              "name": "memo",
              "type": "string"
            },
            {
              "internalType": "bytes",
              "name": "metadata",
              "type": "bytes"
            }
          ],
          "internalType": "struct JBPayParamsData",
          "name": "_data",
          "type": "tuple"
        }
      ],
      "name": "payParams",
      "outputs": [
        {
          "internalType": "uint256",
          "name": "weight",
          "type": "uint256"
        },
        {
          "internalType": "string",
          "name": "memo",
          "type": "string"
        },
        {
          "internalType": "contract IJBPayDelegate",
          "name": "delegate",
          "type": "address"
        }
      ],
      "stateMutability": "view",
      "type": "function"
    },
    {
      "inputs": [
        {
          "components": [
            {
              "internalType": "contract IJBPaymentTerminal",
              "name": "terminal",
              "type": "address"
            },
            {
              "internalType": "address",
              "name": "holder",
              "type": "address"
            },
            {
              "internalType": "uint256",
              "name": "projectId",
              "type": "uint256"
            },
            {
              "internalType": "uint256",
              "name": "currentFundingCycleConfiguration",
              "type": "uint256"
            },
            {
              "internalType": "uint256",
              "name": "tokenCount",
              "type": "uint256"
            },
            {
              "internalType": "uint256",
              "name": "totalSupply",
              "type": "uint256"
            },
            {
              "internalType": "uint256",
              "name": "overflow",
              "type": "uint256"
            },
            {
              "components": [
                {
                  "internalType": "address",
                  "name": "token",
                  "type": "address"
                },
                {
                  "internalType": "uint256",
                  "name": "value",
                  "type": "uint256"
                },
                {
                  "internalType": "uint256",
                  "name": "decimals",
                  "type": "uint256"
                },
                {
                  "internalType": "uint256",
                  "name": "currency",
                  "type": "uint256"
                }
              ],
              "internalType": "struct JBTokenAmount",
              "name": "reclaimAmount",
              "type": "tuple"
            },
            {
              "internalType": "bool",
              "name": "useTotalOverflow",
              "type": "bool"
            },
            {
              "internalType": "uint256",
              "name": "redemptionRate",
              "type": "uint256"
            },
            {
              "internalType": "uint256",
              "name": "ballotRedemptionRate",
              "type": "uint256"
            },
            {
              "internalType": "string",
              "name": "memo",
              "type": "string"
            },
            {
              "internalType": "bytes",
              "name": "metadata",
              "type": "bytes"
            }
          ],
          "internalType": "struct JBRedeemParamsData",
          "name": "_data",
          "type": "tuple"
        }
      ],
      "name": "redeemParams",
      "outputs": [
        {
          "internalType": "uint256",
          "name": "reclaimAmount",
          "type": "uint256"
        },
        {
          "internalType": "string",
          "name": "memo",
          "type": "string"
        },
        {
          "internalType": "contract IJBRedemptionDelegate",
          "name": "delegate",
          "type": "address"
        }
      ],
      "stateMutability": "view",
      "type": "function"
    },
    {
      "inputs": [
        {
          "internalType": "address[]",
          "name": "addresses",
          "type": "address[]"
        }
      ],
      "name": "removeFromWhitelist",
      "outputs": [],
      "stateMutability": "nonpayable",
      "type": "function"
    },
    {
      "inputs": [
        {
          "internalType": "address",
          "name": "_address",
          "type": "address"
        }
      ],
      "name": "removeFromWhitelist",
      "outputs": [],
      "stateMutability": "nonpayable",
      "type": "function"
    },
    {
      "inputs": [
        {
          "internalType": "bytes4",
          "name": "_interfaceId",
          "type": "bytes4"
        }
      ],
      "name": "supportsInterface",
      "outputs": [
        {
          "internalType": "bool",
          "name": "",
          "type": "bool"
        }
      ],
      "stateMutability": "pure",
      "type": "function"
    }
  ],
  "bytecode": {
    "object": "0x60c060405234801561001057600080fd5b50604051610b10380380610b1083398101604081905261002f9161004a565b60609190911b6001600160601b03191660805260a052610084565b6000806040838503121561005d57600080fd5b82516001600160a01b038116811461007457600080fd5b6020939093015192949293505050565b60805160601c60a051610a3a6100d66000396000818161017b015281816102fc0152818161047d01526106840152600081816101a101528181610322015281816104a301526106aa0152610a3a6000f3fe608060405234801561001057600080fd5b50600436106100885760003560e01c80638ab1d6811161005b5780638ab1d681146101115780638dfc959814610124578063d46cf17114610146578063e43252d71461015957600080fd5b806301ffc9a71461008d5780633af32abf146100c6578063548db174146100e95780637f649783146100fe575b600080fd5b6100b161009b366004610868565b6001600160e01b03191663599064e960e01b1490565b60405190151581526020015b60405180910390f35b6100b16100d43660046107b2565b60006020819052908152604090205460ff1681565b6100fc6100f73660046107f3565b61016c565b005b6100fc61010c3660046107f3565b6102ed565b6100fc61011f3660046107b2565b61046e565b6101376101323660046108ce565b6105ad565b6040516100bd93929190610957565b610137610154366004610892565b61060e565b6100fc6101673660046107b2565b610675565b6040516331a9108f60e11b81527f000000000000000000000000000000000000000000000000000000000000000060048201527f00000000000000000000000000000000000000000000000000000000000000006001600160a01b031690636352211e9060240160206040518083038186803b1580156101eb57600080fd5b505afa1580156101ff573d6000803e3d6000fd5b505050506040513d601f19601f8201168201806040525081019061022391906107d6565b6001600160a01b0316336001600160a01b031614610254576040516313d06f9960e21b815260040160405180910390fd5b8060005b818110156102b357600080858584818110610275576102756109d6565b905060200201602081019061028a91906107b2565b6001600160a01b031681526020810191909152604001600020805460ff19169055600101610258565b506040518181527fcfb85ac83685c1d2645f06cd1934839d8fd83b2b681ffe2393048ed1e19b55ee906020015b60405180910390a1505050565b6040516331a9108f60e11b81527f000000000000000000000000000000000000000000000000000000000000000060048201527f00000000000000000000000000000000000000000000000000000000000000006001600160a01b031690636352211e9060240160206040518083038186803b15801561036c57600080fd5b505afa158015610380573d6000803e3d6000fd5b505050506040513d601f19601f820116820180604052508101906103a491906107d6565b6001600160a01b0316336001600160a01b0316146103d5576040516313d06f9960e21b815260040160405180910390fd5b8060005b8181101561043d5760016000808686858181106103f8576103f86109d6565b905060200201602081019061040d91906107b2565b6001600160a01b031681526020810191909152604001600020805460ff19169115159190911790556001016103d9565b506040518181527f2450c14fa8f75af7bd8654a43bd1f9fe773395be9bf87d75684b22a5637f1a6e906020016102e0565b6040516331a9108f60e11b81527f000000000000000000000000000000000000000000000000000000000000000060048201527f00000000000000000000000000000000000000000000000000000000000000006001600160a01b031690636352211e9060240160206040518083038186803b1580156104ed57600080fd5b505afa158015610501573d6000803e3d6000fd5b505050506040513d601f19601f8201168201806040525081019061052591906107d6565b6001600160a01b0316336001600160a01b031614610556576040516313d06f9960e21b815260040160405180910390fd5b6001600160a01b03811660009081526020818152604091829020805460ff191690559051600181527fcfb85ac83685c1d2645f06cd1934839d8fd83b2b681ffe2393048ed1e19b55ee91015b60405180910390a150565b60006060816101008401356105c66101c0860186610988565b600082828080601f016020809104026020016040519081016040528093929190818152602001838380828437600092019190915250969b929a50929850909650505050505050565b60006060818080610627610120870161010088016107b2565b6001600160a01b0316815260208101919091526040016000205460ff16610661576040516375fd469d60e11b815260040160405180910390fd5b6101208401356105c6610160860186610988565b6040516331a9108f60e11b81527f000000000000000000000000000000000000000000000000000000000000000060048201527f00000000000000000000000000000000000000000000000000000000000000006001600160a01b031690636352211e9060240160206040518083038186803b1580156106f457600080fd5b505afa158015610708573d6000803e3d6000fd5b505050506040513d601f19601f8201168201806040525081019061072c91906107d6565b6001600160a01b0316336001600160a01b03161461075d576040516313d06f9960e21b815260040160405180910390fd5b6001600160a01b03811660009081526020818152604091829020805460ff1916600190811790915591519182527f2450c14fa8f75af7bd8654a43bd1f9fe773395be9bf87d75684b22a5637f1a6e91016105a2565b6000602082840312156107c457600080fd5b81356107cf816109ec565b9392505050565b6000602082840312156107e857600080fd5b81516107cf816109ec565b6000806020838503121561080657600080fd5b823567ffffffffffffffff8082111561081e57600080fd5b818501915085601f83011261083257600080fd5b81358181111561084157600080fd5b8660208260051b850101111561085657600080fd5b60209290920196919550909350505050565b60006020828403121561087a57600080fd5b81356001600160e01b0319811681146107cf57600080fd5b6000602082840312156108a457600080fd5b813567ffffffffffffffff8111156108bb57600080fd5b82016101a081850312156107cf57600080fd5b6000602082840312156108e057600080fd5b813567ffffffffffffffff8111156108f757600080fd5b820161020081850312156107cf57600080fd5b6000815180845260005b8181101561093057602081850181015186830182015201610914565b81811115610942576000602083870101525b50601f01601f19169290920160200192915050565b838152606060208201526000610970606083018561090a565b905060018060a01b0383166040830152949350505050565b6000808335601e1984360301811261099f57600080fd5b83018035915067ffffffffffffffff8211156109ba57600080fd5b6020019150368190038213156109cf57600080fd5b9250929050565b634e487b7160e01b600052603260045260246000fd5b6001600160a01b0381168114610a0157600080fd5b5056fea26469706673582212207015f72a25a29bfaafc13f6b78dca1aa596ebc99882e8819cf2d062306fb952364736f6c63430008060033",
    "linkReferences": {}
  },
  "methodIdentifiers": {
    "addToWhitelist(address)": "e43252d7",
    "addToWhitelist(address[])": "7f649783",
    "isWhitelisted(address)": "3af32abf",
    "payParams((address,address,(address,uint256,uint256,uint256),uint256,uint256,address,uint256,uint256,string,bytes))": "d46cf171",
    "redeemParams((address,address,uint256,uint256,uint256,uint256,uint256,(address,uint256,uint256,uint256),bool,uint256,uint256,string,bytes))": "8dfc9598",
    "removeFromWhitelist(address)": "8ab1d681",
    "removeFromWhitelist(address[])": "548db174",
    "supportsInterface(bytes4)": "01ffc9a7"
  },
  "id": 5
}