{
  "abi": [
    {
      "inputs": [
        {
          "internalType": "string",
          "name": "_defaultMemo",
          "type": "string"
        },
        {
          "internalType": "contract IJBPayDelegate",
          "name": "_defaultDelegate",
          "type": "address"
        }
      ],
      "stateMutability": "nonpayable",
      "type": "constructor"
    },
    {
      "inputs": [],
      "name": "MultiDateSource_WeightReconciliationMismatch",
      "type": "error"
    },
    {
      "inputs": [
        {
          "internalType": "uint256",
          "name": "",
          "type": "uint256"
        }
      ],
      "name": "dataSources",
      "outputs": [
        {
          "internalType": "contract IJBFundingCycleDataSource",
          "name": "",
          "type": "address"
        }
      ],
      "stateMutability": "view",
      "type": "function"
    },
    {
      "inputs": [],
      "name": "defaultDelegate",
      "outputs": [
        {
          "internalType": "contract IJBPayDelegate",
          "name": "",
          "type": "address"
        }
      ],
      "stateMutability": "view",
      "type": "function"
    },
    {
      "inputs": [],
      "name": "defaultMemo",
      "outputs": [
        {
          "internalType": "string",
          "name": "",
          "type": "string"
        }
      ],
      "stateMutability": "view",
      "type": "function"
    },
    {
      "inputs": [],
      "name": "defaultWeight",
      "outputs": [
        {
          "internalType": "uint256",
          "name": "",
          "type": "uint256"
        }
      ],
      "stateMutability": "view",
      "type": "function"
    },
    {
      "inputs": [
        {
          "components": [
            {
              "internalType": "contract IJBPaymentTerminal",
              "name": "terminal",
              "type": "address"
            },
            {
              "internalType": "address",
              "name": "payer",
              "type": "address"
            },
            {
              "components": [
                {
                  "internalType": "address",
                  "name": "token",
                  "type": "address"
                },
                {
                  "internalType": "uint256",
                  "name": "value",
                  "type": "uint256"
                },
                {
                  "internalType": "uint256",
                  "name": "decimals",
                  "type": "uint256"
                },
                {
                  "internalType": "uint256",
                  "name": "currency",
                  "type": "uint256"
                }
              ],
              "internalType": "struct JBTokenAmount",
              "name": "amount",
              "type": "tuple"
            },
            {
              "internalType": "uint256",
              "name": "projectId",
              "type": "uint256"
            },
            {
              "internalType": "uint256",
              "name": "currentFundingCycleConfiguration",
              "type": "uint256"
            },
            {
              "internalType": "address",
              "name": "beneficiary",
              "type": "address"
            },
            {
              "internalType": "uint256",
              "name": "weight",
              "type": "uint256"
            },
            {
              "internalType": "uint256",
              "name": "reservedRate",
              "type": "uint256"
            },
            {
              "internalType": "string",
              "name": "memo",
              "type": "string"
            },
            {
              "internalType": "bytes",
              "name": "metadata",
              "type": "bytes"
            }
          ],
          "internalType": "struct JBPayParamsData",
          "name": "_param",
          "type": "tuple"
        }
      ],
      "name": "payParams",
      "outputs": [
        {
          "internalType": "uint256",
          "name": "weight",
          "type": "uint256"
        },
        {
          "internalType": "string",
          "name": "memo",
          "type": "string"
        },
        {
          "internalType": "contract IJBPayDelegate",
          "name": "delegate",
          "type": "address"
        }
      ],
      "stateMutability": "nonpayable",
      "type": "function"
    },
    {
      "inputs": [
        {
          "components": [
            {
              "internalType": "contract IJBPaymentTerminal",
              "name": "terminal",
              "type": "address"
            },
            {
              "internalType": "address",
              "name": "holder",
              "type": "address"
            },
            {
              "internalType": "uint256",
              "name": "projectId",
              "type": "uint256"
            },
            {
              "internalType": "uint256",
              "name": "currentFundingCycleConfiguration",
              "type": "uint256"
            },
            {
              "internalType": "uint256",
              "name": "tokenCount",
              "type": "uint256"
            },
            {
              "internalType": "uint256",
              "name": "totalSupply",
              "type": "uint256"
            },
            {
              "internalType": "uint256",
              "name": "overflow",
              "type": "uint256"
            },
            {
              "components": [
                {
                  "internalType": "address",
                  "name": "token",
                  "type": "address"
                },
                {
                  "internalType": "uint256",
                  "name": "value",
                  "type": "uint256"
                },
                {
                  "internalType": "uint256",
                  "name": "decimals",
                  "type": "uint256"
                },
                {
                  "internalType": "uint256",
                  "name": "currency",
                  "type": "uint256"
                }
              ],
              "internalType": "struct JBTokenAmount",
              "name": "reclaimAmount",
              "type": "tuple"
            },
            {
              "internalType": "bool",
              "name": "useTotalOverflow",
              "type": "bool"
            },
            {
              "internalType": "uint256",
              "name": "redemptionRate",
              "type": "uint256"
            },
            {
              "internalType": "uint256",
              "name": "ballotRedemptionRate",
              "type": "uint256"
            },
            {
              "internalType": "string",
              "name": "memo",
              "type": "string"
            },
            {
              "internalType": "bytes",
              "name": "metadata",
              "type": "bytes"
            }
          ],
          "internalType": "struct JBRedeemParamsData",
          "name": "_param",
          "type": "tuple"
        }
      ],
      "name": "redeemParams",
      "outputs": [
        {
          "internalType": "uint256",
          "name": "reclaimAmount",
          "type": "uint256"
        },
        {
          "internalType": "string",
          "name": "memo",
          "type": "string"
        },
        {
          "internalType": "contract IJBRedemptionDelegate",
          "name": "delegate",
          "type": "address"
        }
      ],
      "stateMutability": "nonpayable",
      "type": "function"
    },
    {
      "inputs": [
        {
          "internalType": "bytes4",
          "name": "_interfaceId",
          "type": "bytes4"
        }
      ],
      "name": "supportsInterface",
      "outputs": [
        {
          "internalType": "bool",
          "name": "",
          "type": "bool"
        }
      ],
      "stateMutability": "view",
      "type": "function"
    },
    {
      "inputs": [],
      "name": "weightReconcilitationMode",
      "outputs": [
        {
          "internalType": "enum MultiFundingCycleDataSource.reconciliationMode",
          "name": "",
          "type": "uint8"
        }
      ],
      "stateMutability": "view",
      "type": "function"
    }
  ],
  "bytecode": {
    "object": "0x60806040526000196002556000196003556000196004553480156200002357600080fd5b506040516200111238038062001112833981016040819052620000469162000146565b81516200005b90600690602085019062000083565b50600780546001600160a01b0319166001600160a01b0392909216919091179055506200028a565b828054620000919062000237565b90600052602060002090601f016020900481019282620000b5576000855562000100565b82601f10620000d057805160ff191683800117855562000100565b8280016001018555821562000100579182015b8281111562000100578251825591602001919060010190620000e3565b506200010e92915062000112565b5090565b5b808211156200010e576000815560010162000113565b80516001600160a01b03811681146200014157600080fd5b919050565b600080604083850312156200015a57600080fd5b82516001600160401b03808211156200017257600080fd5b818501915085601f8301126200018757600080fd5b8151818111156200019c576200019c62000274565b604051601f8201601f19908116603f01168101908382118183101715620001c757620001c762000274565b81604052828152602093508884848701011115620001e457600080fd5b600091505b82821015620002085784820184015181830185015290830190620001e9565b828211156200021a5760008484830101525b95506200022c91505085820162000129565b925050509250929050565b600181811c908216806200024c57607f821691505b602082108114156200026e57634e487b7160e01b600052602260045260246000fd5b50919050565b634e487b7160e01b600052604160045260246000fd5b610e78806200029a6000396000f3fe608060405234801561001057600080fd5b50600436106100885760003560e01c8063a218e3251161005b578063a218e32514610146578063b96053df1461015d578063d46cf17114610172578063fdb87fdc1461018557600080fd5b806301ffc9a71461008d57806313e8e591146100b55780635cfe5bd4146100e05780638dfc9598146100fa575b600080fd5b6100a061009b366004610968565b610198565b60405190151581526020015b60405180910390f35b6100c86100c3366004610a11565b6101cf565b6040516001600160a01b0390911681526020016100ac565b6000546100ed9060ff1681565b6040516100ac9190610b7d565b6101376101083660046109d5565b60408051808201909152600a815269313cb2903437b63232b960b11b6020820152610100919091013591600090565b6040516100ac93929190610cb7565b61014f60055481565b6040519081526020016100ac565b6101656101f9565b6040516100ac9190610ba5565b610137610180366004610999565b610287565b6007546100c8906001600160a01b031681565b60006001600160e01b0319821663599064e960e01b14806101c957506301ffc9a760e01b6001600160e01b03198316145b92915050565b600181815481106101df57600080fd5b6000918252602090912001546001600160a01b0316905081565b6006805461020690610dad565b80601f016020809104026020016040519081016040528092919081815260200182805461023290610dad565b801561027f5780601f106102545761010080835404028352916020019161027f565b820191906000526020600020905b81548152906001019060200180831161026257829003601f168201915b505050505081565b60008054600354600454606092849260ff9091169160018360038111156102b0576102b0610de8565b141561047a5760015460009081906060908290815b818110156103b257600181815481106102e0576102e0610dfe565b9060005260206000200160009054906101000a90046001600160a01b03166001600160a01b031663d46cf1718e6040518263ffffffff1660e01b81526004016103299190610bb8565b600060405180830381600087803b15801561034357600080fd5b505af1158015610357573d6000803e3d6000fd5b505050506040513d6000823e601f3d908101601f1916820160405261037f9190810190610a2a565b9196509450925086811415610392578299505b8088141561039e57839a505b6103a88587610d35565b95506001016102c5565b506103bd8186610d5b565b9a506000198614156103d8576007546001600160a01b031698505b60001987141561047057600680546103ef90610dad565b80601f016020809104026020016040519081016040528092919081815260200182805461041b90610dad565b80156104685780601f1061043d57610100808354040283529160200191610468565b820191906000526020600020905b81548152906001019060200180831161044b57829003601f168201915b505050505099505b5050505050610943565b600383600381111561048e5761048e610de8565b14156105e4576002546000198114156104ba57604051632ede279360e21b815260040160405180910390fd5b6001546000906060908290815b818110156105b457600181815481106104e2576104e2610dfe565b9060005260206000200160009054906101000a90046001600160a01b03166001600160a01b031663d46cf1718e6040518263ffffffff1660e01b815260040161052b9190610bb8565b600060405180830381600087803b15801561054557600080fd5b505af1158015610559573d6000803e3d6000fd5b505050506040513d6000823e601f3d908101601f191682016040526105819190810190610a2a565b919650945092508581141561059457849b505b808714156105a0578299505b808814156105ac57839a505b6001016104c7565b506000198614156103d8576007546001600160a01b0316985060001987141561047057600680546103ef90610dad565b60028360038111156105f8576105f8610de8565b141561079857600154606090600090815b818110156106d9576001818154811061062457610624610dfe565b60009182526020909120015460405163d46cf17160e01b81526001600160a01b039091169063d46cf1719061065d908e90600401610bb8565b600060405180830381600087803b15801561067757600080fd5b505af115801561068b573d6000803e3d6000fd5b505050506040513d6000823e601f3d908101601f191682016040526106b39190810190610a2a565b909550935050848114156106c5578297505b808614156106d1578398505b600101610609565b5060025498506000198414156106f8576007546001600160a01b031696505b600019851415610790576006805461070f90610dad565b80601f016020809104026020016040519081016040528092919081815260200182805461073b90610dad565b80156107885780601f1061075d57610100808354040283529160200191610788565b820191906000526020600020905b81548152906001019060200180831161076b57829003601f168201915b505050505097505b505050610943565b60008360038111156107ac576107ac610de8565b141561094357600154606090600090815b8181101561088d57600181815481106107d8576107d8610dfe565b60009182526020909120015460405163d46cf17160e01b81526001600160a01b039091169063d46cf17190610811908e90600401610bb8565b600060405180830381600087803b15801561082b57600080fd5b505af115801561083f573d6000803e3d6000fd5b505050506040513d6000823e601f3d908101601f191682016040526108679190810190610a2a565b90955093505084811415610879578297505b80861415610885578398505b6001016107bd565b506000198414156108a7576007546001600160a01b031696505b60001985141561093f57600680546108be90610dad565b80601f01602080910402602001604051908101604052809291908181526020018280546108ea90610dad565b80156109375780601f1061090c57610100808354040283529160200191610937565b820191906000526020600020905b81548152906001019060200180831161091a57829003601f168201915b505050505097505b5050505b5050509193909250565b803561095881610e2a565b919050565b805161095881610e2a565b60006020828403121561097a57600080fd5b81356001600160e01b03198116811461099257600080fd5b9392505050565b6000602082840312156109ab57600080fd5b813567ffffffffffffffff8111156109c257600080fd5b82016101a0818503121561099257600080fd5b6000602082840312156109e757600080fd5b813567ffffffffffffffff8111156109fe57600080fd5b8201610200818503121561099257600080fd5b600060208284031215610a2357600080fd5b5035919050565b600080600060608486031215610a3f57600080fd5b83519250602084015167ffffffffffffffff80821115610a5e57600080fd5b818601915086601f830112610a7257600080fd5b815181811115610a8457610a84610e14565b604051601f8201601f19908116603f01168101908382118183101715610aac57610aac610e14565b81604052828152896020848701011115610ac557600080fd5b610ad6836020830160208801610d7d565b8096505050505050610aea6040850161095d565b90509250925092565b81835281816020850137506000828201602090810191909152601f909101601f19169091010190565b60008151808452610b34816020860160208601610d7d565b601f01601f19169290920160200192915050565b8035610b5381610e2a565b6001600160a01b031682526020818101359083015260408082013590830152606090810135910152565b6020810160048310610b9f57634e487b7160e01b600052602160045260246000fd5b91905290565b6020815260006109926020830184610b1c565b60208152610bd960208201610bcc8461094d565b6001600160a01b03169052565b6000610be76020840161094d565b6001600160a01b038116604084015250610c076060830160408501610b48565b60c083013560e083015261010060e084013581840152610c2881850161094d565b9050610120610c41818501836001600160a01b03169052565b61014091508085013582850152506101608185013581850152610c6681860186610ce8565b925090506101a06101808181870152610c846101c087018585610af3565b9350610c9281880188610ce8565b878603601f19018489015293509050610cac848483610af3565b979650505050505050565b838152606060208201526000610cd06060830185610b1c565b905060018060a01b0383166040830152949350505050565b6000808335601e19843603018112610cff57600080fd5b830160208101925035905067ffffffffffffffff811115610d1f57600080fd5b803603831315610d2e57600080fd5b9250929050565b60008219821115610d5657634e487b7160e01b600052601160045260246000fd5b500190565b600082610d7857634e487b7160e01b600052601260045260246000fd5b500490565b60005b83811015610d98578181015183820152602001610d80565b83811115610da7576000848401525b50505050565b600181811c90821680610dc157607f821691505b60208210811415610de257634e487b7160e01b600052602260045260246000fd5b50919050565b634e487b7160e01b600052602160045260246000fd5b634e487b7160e01b600052603260045260246000fd5b634e487b7160e01b600052604160045260246000fd5b6001600160a01b0381168114610e3f57600080fd5b5056fea2646970667358221220e78824055fe358e6e85e1a3d2a475563f1ae87e11515c7dc7cb635b1c147312b64736f6c63430008060033",
    "linkReferences": {}
  },
  "methodIdentifiers": {
    "dataSources(uint256)": "13e8e591",
    "defaultDelegate()": "fdb87fdc",
    "defaultMemo()": "b96053df",
    "defaultWeight()": "a218e325",
    "payParams((address,address,(address,uint256,uint256,uint256),uint256,uint256,address,uint256,uint256,string,bytes))": "d46cf171",
    "redeemParams((address,address,uint256,uint256,uint256,uint256,uint256,(address,uint256,uint256,uint256),bool,uint256,uint256,string,bytes))": "8dfc9598",
    "supportsInterface(bytes4)": "01ffc9a7",
    "weightReconcilitationMode()": "5cfe5bd4"
  },
  "id": 0
}