{
  "abi": [
    {
      "inputs": [
        {
          "internalType": "contract IJBOperatorStore",
          "name": "_operatorStore",
          "type": "address"
        }
      ],
      "stateMutability": "nonpayable",
      "type": "constructor"
    },
    {
      "inputs": [],
      "name": "UNAUTHORIZED",
      "type": "error"
    },
    {
      "anonymous": false,
      "inputs": [
        {
          "indexed": true,
          "internalType": "address",
          "name": "owner",
          "type": "address"
        },
        {
          "indexed": true,
          "internalType": "address",
          "name": "approved",
          "type": "address"
        },
        {
          "indexed": true,
          "internalType": "uint256",
          "name": "tokenId",
          "type": "uint256"
        }
      ],
      "name": "Approval",
      "type": "event"
    },
    {
      "anonymous": false,
      "inputs": [
        {
          "indexed": true,
          "internalType": "address",
          "name": "owner",
          "type": "address"
        },
        {
          "indexed": true,
          "internalType": "address",
          "name": "operator",
          "type": "address"
        },
        {
          "indexed": false,
          "internalType": "bool",
          "name": "approved",
          "type": "bool"
        }
      ],
      "name": "ApprovalForAll",
      "type": "event"
    },
    {
      "anonymous": false,
      "inputs": [
        {
          "indexed": true,
          "internalType": "uint256",
          "name": "projectId",
          "type": "uint256"
        },
        {
          "indexed": true,
          "internalType": "address",
          "name": "owner",
          "type": "address"
        },
        {
          "components": [
            {
              "internalType": "string",
              "name": "content",
              "type": "string"
            },
            {
              "internalType": "uint256",
              "name": "domain",
              "type": "uint256"
            }
          ],
          "indexed": false,
          "internalType": "struct JBProjectMetadata",
          "name": "metadata",
          "type": "tuple"
        },
        {
          "indexed": false,
          "internalType": "address",
          "name": "caller",
          "type": "address"
        }
      ],
      "name": "Create",
      "type": "event"
    },
    {
      "anonymous": false,
      "inputs": [
        {
          "indexed": true,
          "internalType": "address",
          "name": "delegator",
          "type": "address"
        },
        {
          "indexed": true,
          "internalType": "address",
          "name": "fromDelegate",
          "type": "address"
        },
        {
          "indexed": true,
          "internalType": "address",
          "name": "toDelegate",
          "type": "address"
        }
      ],
      "name": "DelegateChanged",
      "type": "event"
    },
    {
      "anonymous": false,
      "inputs": [
        {
          "indexed": true,
          "internalType": "address",
          "name": "delegate",
          "type": "address"
        },
        {
          "indexed": false,
          "internalType": "uint256",
          "name": "previousBalance",
          "type": "uint256"
        },
        {
          "indexed": false,
          "internalType": "uint256",
          "name": "newBalance",
          "type": "uint256"
        }
      ],
      "name": "DelegateVotesChanged",
      "type": "event"
    },
    {
      "anonymous": false,
      "inputs": [
        {
          "indexed": true,
          "internalType": "address",
          "name": "previousOwner",
          "type": "address"
        },
        {
          "indexed": true,
          "internalType": "address",
          "name": "newOwner",
          "type": "address"
        }
      ],
      "name": "OwnershipTransferred",
      "type": "event"
    },
    {
      "anonymous": false,
      "inputs": [
        {
          "indexed": true,
          "internalType": "uint256",
          "name": "projectId",
          "type": "uint256"
        },
        {
          "components": [
            {
              "internalType": "string",
              "name": "content",
              "type": "string"
            },
            {
              "internalType": "uint256",
              "name": "domain",
              "type": "uint256"
            }
          ],
          "indexed": false,
          "internalType": "struct JBProjectMetadata",
          "name": "metadata",
          "type": "tuple"
        },
        {
          "indexed": false,
          "internalType": "address",
          "name": "caller",
          "type": "address"
        }
      ],
      "name": "SetMetadata",
      "type": "event"
    },
    {
      "anonymous": false,
      "inputs": [
        {
          "indexed": true,
          "internalType": "contract IJBTokenUriResolver",
          "name": "resolver",
          "type": "address"
        },
        {
          "indexed": false,
          "internalType": "address",
          "name": "caller",
          "type": "address"
        }
      ],
      "name": "SetTokenUriResolver",
      "type": "event"
    },
    {
      "anonymous": false,
      "inputs": [
        {
          "indexed": true,
          "internalType": "address",
          "name": "from",
          "type": "address"
        },
        {
          "indexed": true,
          "internalType": "address",
          "name": "to",
          "type": "address"
        },
        {
          "indexed": true,
          "internalType": "uint256",
          "name": "tokenId",
          "type": "uint256"
        }
      ],
      "name": "Transfer",
      "type": "event"
    },
    {
      "inputs": [],
      "name": "DOMAIN_SEPARATOR",
      "outputs": [
        {
          "internalType": "bytes32",
          "name": "",
          "type": "bytes32"
        }
      ],
      "stateMutability": "view",
      "type": "function"
    },
    {
      "inputs": [
        {
          "internalType": "address",
          "name": "to",
          "type": "address"
        },
        {
          "internalType": "uint256",
          "name": "tokenId",
          "type": "uint256"
        }
      ],
      "name": "approve",
      "outputs": [],
      "stateMutability": "nonpayable",
      "type": "function"
    },
    {
      "inputs": [
        {
          "internalType": "address",
          "name": "owner",
          "type": "address"
        }
      ],
      "name": "balanceOf",
      "outputs": [
        {
          "internalType": "uint256",
          "name": "",
          "type": "uint256"
        }
      ],
      "stateMutability": "view",
      "type": "function"
    },
    {
      "inputs": [],
      "name": "count",
      "outputs": [
        {
          "internalType": "uint256",
          "name": "",
          "type": "uint256"
        }
      ],
      "stateMutability": "view",
      "type": "function"
    },
    {
      "inputs": [
        {
          "internalType": "address",
          "name": "_owner",
          "type": "address"
        },
        {
          "components": [
            {
              "internalType": "string",
              "name": "content",
              "type": "string"
            },
            {
              "internalType": "uint256",
              "name": "domain",
              "type": "uint256"
            }
          ],
          "internalType": "struct JBProjectMetadata",
          "name": "_metadata",
          "type": "tuple"
        }
      ],
      "name": "createFor",
      "outputs": [
        {
          "internalType": "uint256",
          "name": "projectId",
          "type": "uint256"
        }
      ],
      "stateMutability": "nonpayable",
      "type": "function"
    },
    {
      "inputs": [
        {
          "internalType": "address",
          "name": "delegatee",
          "type": "address"
        }
      ],
      "name": "delegate",
      "outputs": [],
      "stateMutability": "nonpayable",
      "type": "function"
    },
    {
      "inputs": [
        {
          "internalType": "address",
          "name": "delegatee",
          "type": "address"
        },
        {
          "internalType": "uint256",
          "name": "nonce",
          "type": "uint256"
        },
        {
          "internalType": "uint256",
          "name": "expiry",
          "type": "uint256"
        },
        {
          "internalType": "uint8",
          "name": "v",
          "type": "uint8"
        },
        {
          "internalType": "bytes32",
          "name": "r",
          "type": "bytes32"
        },
        {
          "internalType": "bytes32",
          "name": "s",
          "type": "bytes32"
        }
      ],
      "name": "delegateBySig",
      "outputs": [],
      "stateMutability": "nonpayable",
      "type": "function"
    },
    {
      "inputs": [
        {
          "internalType": "address",
          "name": "account",
          "type": "address"
        }
      ],
      "name": "delegates",
      "outputs": [
        {
          "internalType": "address",
          "name": "",
          "type": "address"
        }
      ],
      "stateMutability": "view",
      "type": "function"
    },
    {
      "inputs": [
        {
          "internalType": "uint256",
          "name": "tokenId",
          "type": "uint256"
        }
      ],
      "name": "getApproved",
      "outputs": [
        {
          "internalType": "address",
          "name": "",
          "type": "address"
        }
      ],
      "stateMutability": "view",
      "type": "function"
    },
    {
      "inputs": [
        {
          "internalType": "uint256",
          "name": "blockNumber",
          "type": "uint256"
        }
      ],
      "name": "getPastTotalSupply",
      "outputs": [
        {
          "internalType": "uint256",
          "name": "",
          "type": "uint256"
        }
      ],
      "stateMutability": "view",
      "type": "function"
    },
    {
      "inputs": [
        {
          "internalType": "address",
          "name": "account",
          "type": "address"
        },
        {
          "internalType": "uint256",
          "name": "blockNumber",
          "type": "uint256"
        }
      ],
      "name": "getPastVotes",
      "outputs": [
        {
          "internalType": "uint256",
          "name": "",
          "type": "uint256"
        }
      ],
      "stateMutability": "view",
      "type": "function"
    },
    {
      "inputs": [
        {
          "internalType": "address",
          "name": "account",
          "type": "address"
        }
      ],
      "name": "getVotes",
      "outputs": [
        {
          "internalType": "uint256",
          "name": "",
          "type": "uint256"
        }
      ],
      "stateMutability": "view",
      "type": "function"
    },
    {
      "inputs": [
        {
          "internalType": "address",
          "name": "owner",
          "type": "address"
        },
        {
          "internalType": "address",
          "name": "operator",
          "type": "address"
        }
      ],
      "name": "isApprovedForAll",
      "outputs": [
        {
          "internalType": "bool",
          "name": "",
          "type": "bool"
        }
      ],
      "stateMutability": "view",
      "type": "function"
    },
    {
      "inputs": [
        {
          "internalType": "uint256",
          "name": "",
          "type": "uint256"
        },
        {
          "internalType": "uint256",
          "name": "",
          "type": "uint256"
        }
      ],
      "name": "metadataContentOf",
      "outputs": [
        {
          "internalType": "string",
          "name": "",
          "type": "string"
        }
      ],
      "stateMutability": "view",
      "type": "function"
    },
    {
      "inputs": [],
      "name": "name",
      "outputs": [
        {
          "internalType": "string",
          "name": "",
          "type": "string"
        }
      ],
      "stateMutability": "view",
      "type": "function"
    },
    {
      "inputs": [
        {
          "internalType": "address",
          "name": "owner",
          "type": "address"
        }
      ],
      "name": "nonces",
      "outputs": [
        {
          "internalType": "uint256",
          "name": "",
          "type": "uint256"
        }
      ],
      "stateMutability": "view",
      "type": "function"
    },
    {
      "inputs": [],
      "name": "operatorStore",
      "outputs": [
        {
          "internalType": "contract IJBOperatorStore",
          "name": "",
          "type": "address"
        }
      ],
      "stateMutability": "view",
      "type": "function"
    },
    {
      "inputs": [],
      "name": "owner",
      "outputs": [
        {
          "internalType": "address",
          "name": "",
          "type": "address"
        }
      ],
      "stateMutability": "view",
      "type": "function"
    },
    {
      "inputs": [
        {
          "internalType": "uint256",
          "name": "tokenId",
          "type": "uint256"
        }
      ],
      "name": "ownerOf",
      "outputs": [
        {
          "internalType": "address",
          "name": "",
          "type": "address"
        }
      ],
      "stateMutability": "view",
      "type": "function"
    },
    {
      "inputs": [],
      "name": "renounceOwnership",
      "outputs": [],
      "stateMutability": "nonpayable",
      "type": "function"
    },
    {
      "inputs": [
        {
          "internalType": "address",
          "name": "from",
          "type": "address"
        },
        {
          "internalType": "address",
          "name": "to",
          "type": "address"
        },
        {
          "internalType": "uint256",
          "name": "tokenId",
          "type": "uint256"
        }
      ],
      "name": "safeTransferFrom",
      "outputs": [],
      "stateMutability": "nonpayable",
      "type": "function"
    },
    {
      "inputs": [
        {
          "internalType": "address",
          "name": "from",
          "type": "address"
        },
        {
          "internalType": "address",
          "name": "to",
          "type": "address"
        },
        {
          "internalType": "uint256",
          "name": "tokenId",
          "type": "uint256"
        },
        {
          "internalType": "bytes",
          "name": "data",
          "type": "bytes"
        }
      ],
      "name": "safeTransferFrom",
      "outputs": [],
      "stateMutability": "nonpayable",
      "type": "function"
    },
    {
      "inputs": [
        {
          "internalType": "address",
          "name": "operator",
          "type": "address"
        },
        {
          "internalType": "bool",
          "name": "approved",
          "type": "bool"
        }
      ],
      "name": "setApprovalForAll",
      "outputs": [],
      "stateMutability": "nonpayable",
      "type": "function"
    },
    {
      "inputs": [
        {
          "internalType": "uint256",
          "name": "_projectId",
          "type": "uint256"
        },
        {
          "components": [
            {
              "internalType": "string",
              "name": "content",
              "type": "string"
            },
            {
              "internalType": "uint256",
              "name": "domain",
              "type": "uint256"
            }
          ],
          "internalType": "struct JBProjectMetadata",
          "name": "_metadata",
          "type": "tuple"
        }
      ],
      "name": "setMetadataOf",
      "outputs": [],
      "stateMutability": "nonpayable",
      "type": "function"
    },
    {
      "inputs": [
        {
          "internalType": "contract IJBTokenUriResolver",
          "name": "_newResolver",
          "type": "address"
        }
      ],
      "name": "setTokenUriResolver",
      "outputs": [],
      "stateMutability": "nonpayable",
      "type": "function"
    },
    {
      "inputs": [
        {
          "internalType": "bytes4",
          "name": "_interfaceId",
          "type": "bytes4"
        }
      ],
      "name": "supportsInterface",
      "outputs": [
        {
          "internalType": "bool",
          "name": "",
          "type": "bool"
        }
      ],
      "stateMutability": "view",
      "type": "function"
    },
    {
      "inputs": [],
      "name": "symbol",
      "outputs": [
        {
          "internalType": "string",
          "name": "",
          "type": "string"
        }
      ],
      "stateMutability": "view",
      "type": "function"
    },
    {
      "inputs": [
        {
          "internalType": "uint256",
          "name": "_projectId",
          "type": "uint256"
        }
      ],
      "name": "tokenURI",
      "outputs": [
        {
          "internalType": "string",
          "name": "",
          "type": "string"
        }
      ],
      "stateMutability": "view",
      "type": "function"
    },
    {
      "inputs": [],
      "name": "tokenUriResolver",
      "outputs": [
        {
          "internalType": "contract IJBTokenUriResolver",
          "name": "",
          "type": "address"
        }
      ],
      "stateMutability": "view",
      "type": "function"
    },
    {
      "inputs": [
        {
          "internalType": "address",
          "name": "from",
          "type": "address"
        },
        {
          "internalType": "address",
          "name": "to",
          "type": "address"
        },
        {
          "internalType": "uint256",
          "name": "tokenId",
          "type": "uint256"
        }
      ],
      "name": "transferFrom",
      "outputs": [],
      "stateMutability": "nonpayable",
      "type": "function"
    },
    {
      "inputs": [
        {
          "internalType": "address",
          "name": "newOwner",
          "type": "address"
        }
      ],
      "name": "transferOwnership",
      "outputs": [],
      "stateMutability": "nonpayable",
      "type": "function"
    }
  ],
  "bytecode": {
    "object": "0x6101606040526000600b553480156200001757600080fd5b5060405162002cf738038062002cf78339810160408190526200003a916200028a565b6040805180820182526011808252704a75696365626f782050726f6a6563747360781b60208084018290528451808601865260018152603160f81b818301528551808701875293845283820192835285518087019096526008865267094aa92868a849eb60c31b918601919091526001600160601b0319606087901b166080528251939490939091620000d19160009190620001e4565b508051620000e7906001906020840190620001e4565b505082516020938401208251928401929092206101008390526101208190524660c0818152604080517f8b73c3c69bb8fe3d512ecc4cf759cc79239f7b179b0ffacaa9a75d522b39400f8189018190528183019790975260608181019590955260808101939093523060a0808501829052825180860382018152949093019091528251929096019190912090529290921b60e05261014052506200018b3362000192565b50620002f9565b600a80546001600160a01b038381166001600160a01b0319831681179093556040519116919082907f8be0079c531659141344cd1fd0a4f28419497f9722a3daafe3b4186f6b6457e090600090a35050565b828054620001f290620002bc565b90600052602060002090601f01602090048101928262000216576000855562000261565b82601f106200023157805160ff191683800117855562000261565b8280016001018555821562000261579182015b828111156200026157825182559160200191906001019062000244565b506200026f92915062000273565b5090565b5b808211156200026f576000815560010162000274565b6000602082840312156200029d57600080fd5b81516001600160a01b0381168114620002b557600080fd5b9392505050565b600181811c90821680620002d157607f821691505b60208210811415620002f357634e487b7160e01b600052602260045260246000fd5b50919050565b60805160601c60a05160c05160e05160601c61010051610120516101405161298f6200036860003960006111ec0152600061123b015260006112160152600061116f01526000611199015260006111c30152600081816103e2015281816112d00152611386015261298f6000f3fe608060405234801561001057600080fd5b50600436106101e55760003560e01c8063666d87a01161010f578063a22cb465116100a2578063c87b56dd11610071578063c87b56dd1461042a578063e131fc0c1461043d578063e985e9c514610450578063f2fde38b1461048c57600080fd5b8063a22cb465146103ca578063ad007d63146103dd578063b88d4fde14610404578063c3cda5201461041757600080fd5b80638da5cb5b116100de5780638da5cb5b1461038b5780638e539e8c1461039c57806395d89b41146103af5780639ab24eb0146103b757600080fd5b8063666d87a01461034a57806370a082311461035d578063715018a6146103705780637ecebe001461037857600080fd5b80633644e5151161018757806342842e0e1161015657806342842e0e146102e5578063587cde1e146102f85780635c19a95c146103245780636352211e1461033757600080fd5b80633644e515146102a457806336574975146102ac57806339fbc775146102bf5780633a46b1a8146102d257600080fd5b8063081812fc116101c3578063081812fc1461023e578063095ea7b31461026957806323b872dd1461027e5780632407497e1461029157600080fd5b806301ffc9a7146101ea57806306661abd1461021257806306fdde0314610229575b600080fd5b6101fd6101f836600461245c565b61049f565b60405190151581526020015b60405180910390f35b61021b600b5481565b604051908152602001610209565b6102316104e5565b60405161020991906125e2565b61025161024c36600461250d565b610577565b6040516001600160a01b039091168152602001610209565b61027c6102773660046123b1565b61059e565b005b61027c61028c366004612243565b6106b9565b61027c61029f3660046121ed565b6106ea565b61021b610768565b61027c6102ba366004612526565b610777565b6102316102cd366004612557565b610801565b61021b6102e03660046123b1565b6108a6565b61027c6102f3366004612243565b6108cf565b6102516103063660046121ed565b6001600160a01b039081166000908152600660205260409020541690565b61027c6103323660046121ed565b6108ea565b61025161034536600461250d565b6108f9565b61021b610358366004612361565b610959565b61021b61036b3660046121ed565b610a0c565b61027c610a92565b61021b6103863660046121ed565b610ac8565b600a546001600160a01b0316610251565b61021b6103aa36600461250d565b610ae6565b610231610b42565b61021b6103c53660046121ed565b610b51565b61027c6103d8366004612333565b610b72565b6102517f000000000000000000000000000000000000000000000000000000000000000081565b61027c610412366004612284565b610b7d565b61027c6104253660046123dd565b610bb5565b61023161043836600461250d565b610ce2565b600d54610251906001600160a01b031681565b6101fd61045e36600461220a565b6001600160a01b03918216600090815260056020908152604080832093909416825291909152205460ff1690565b61027c61049a3660046121ed565b610d89565b60006001600160e01b0319821663aa91a66f60e01b14806104d057506001600160e01b0319821663ad007d6360e01b145b806104df57506104df82610e24565b92915050565b6060600080546104f490612878565b80601f016020809104026020016040519081016040528092919081815260200182805461052090612878565b801561056d5780601f106105425761010080835404028352916020019161056d565b820191906000526020600020905b81548152906001019060200180831161055057829003601f168201915b5050505050905090565b600061058282610e74565b506000908152600460205260409020546001600160a01b031690565b60006105a9826108f9565b9050806001600160a01b0316836001600160a01b0316141561061c5760405162461bcd60e51b815260206004820152602160248201527f4552433732313a20617070726f76616c20746f2063757272656e74206f776e656044820152603960f91b60648201526084015b60405180910390fd5b336001600160a01b03821614806106385750610638813361045e565b6106aa5760405162461bcd60e51b815260206004820152603e60248201527f4552433732313a20617070726f76652063616c6c6572206973206e6f7420746f60448201527f6b656e206f776e6572206e6f7220617070726f76656420666f7220616c6c00006064820152608401610613565b6106b48383610ed3565b505050565b6106c33382610f41565b6106df5760405162461bcd60e51b81526004016106139061267c565b6106b4838383610fc0565b600a546001600160a01b031633146107145760405162461bcd60e51b815260040161061390612647565b600d80546001600160a01b0319166001600160a01b0383169081179091556040513381527fe7784d93cfbfa4408e19577e6cc0436f4dbb51214b70e100905dfce9def88c169060200160405180910390a250565b6000610772611162565b905090565b610780826108f9565b82600661078e838383611289565b610798848061275b565b6000878152600c6020908152604080832089830135845290915290206107bf92909161214b565b50847fd07720acb527321c9d1766f359139d0e0e3551bd99fb3ca353d4f008f3aad8e685336040516107f29291906126ca565b60405180910390a25050505050565b600c6020908152600092835260408084209091529082529020805461082590612878565b80601f016020809104026020016040519081016040528092919081815260200182805461085190612878565b801561089e5780601f106108735761010080835404028352916020019161089e565b820191906000526020600020905b81548152906001019060200180831161088157829003601f168201915b505050505081565b6001600160a01b03821660009081526007602052604081206108c89083611420565b9392505050565b6106b483838360405180602001604052806000815250610b7d565b336108f5818361152f565b5050565b6000818152600260205260408120546001600160a01b0316806104df5760405162461bcd60e51b8152602060048201526018602482015277115490cdcc8c4e881a5b9d985b1a59081d1bdad95b88125160421b6044820152606401610613565b6000600b6000815461096a906128ad565b9182905550905061097b83826115a1565b6000610987838061275b565b905011156109c257610999828061275b565b6000838152600c6020908152604080832087830135845290915290206109c092909161214b565b505b826001600160a01b0316817fa1c6fd563bcbc3222f6031d7c26ff58cd6c701abff0bfffe652d055ce40629d484336040516109fe9291906126ca565b60405180910390a392915050565b60006001600160a01b038216610a765760405162461bcd60e51b815260206004820152602960248201527f4552433732313a2061646472657373207a65726f206973206e6f7420612076616044820152683634b21037bbb732b960b91b6064820152608401610613565b506001600160a01b031660009081526003602052604090205490565b600a546001600160a01b03163314610abc5760405162461bcd60e51b815260040161061390612647565b610ac660006115bb565b565b6001600160a01b0381166000908152600960205260408120546104df565b6000438210610b375760405162461bcd60e51b815260206004820152601a60248201527f566f7465733a20626c6f636b206e6f7420796574206d696e65640000000000006044820152606401610613565b6104df600883611420565b6060600180546104f490612878565b6001600160a01b03811660009081526007602052604081206104df9061160d565b6108f5338383611669565b610b873383610f41565b610ba35760405162461bcd60e51b81526004016106139061267c565b610baf84848484611738565b50505050565b83421115610c055760405162461bcd60e51b815260206004820152601860248201527f566f7465733a207369676e6174757265206578706972656400000000000000006044820152606401610613565b604080517fe48329057bfd03d55e49b547132e39cffd9c1820ad7b9d4c5307691425d15adf60208201526001600160a01b038816918101919091526060810186905260808101859052600090610c7f90610c779060a0016040516020818303038152906040528051906020012061176b565b8585856117b9565b9050610c8a816117e1565b8614610ccf5760405162461bcd60e51b8152602060048201526014602482015273566f7465733a20696e76616c6964206e6f6e636560601b6044820152606401610613565b610cd9818861152f565b50505050505050565b600d546060906001600160a01b0316610d0957505060408051602081019091526000815290565b600d54604051636d02a25560e11b8152600481018490526001600160a01b039091169063da0544aa9060240160006040518083038186803b158015610d4d57600080fd5b505afa158015610d61573d6000803e3d6000fd5b505050506040513d6000823e601f3d908101601f191682016040526104df9190810190612496565b600a546001600160a01b03163314610db35760405162461bcd60e51b815260040161061390612647565b6001600160a01b038116610e185760405162461bcd60e51b815260206004820152602660248201527f4f776e61626c653a206e6577206f776e657220697320746865207a65726f206160448201526564647265737360d01b6064820152608401610613565b610e21816115bb565b50565b60006001600160e01b031982166380ac58cd60e01b1480610e5557506001600160e01b03198216635b5e139f60e01b145b806104df57506301ffc9a760e01b6001600160e01b03198316146104df565b6000818152600260205260409020546001600160a01b0316610e215760405162461bcd60e51b8152602060048201526018602482015277115490cdcc8c4e881a5b9d985b1a59081d1bdad95b88125160421b6044820152606401610613565b600081815260046020526040902080546001600160a01b0319166001600160a01b0384169081179091558190610f08826108f9565b6001600160a01b03167f8c5be1e5ebec7d5bd14f71427d1e84f3dd0314c0f7b2291e5b200ac8c7c3b92560405160405180910390a45050565b600080610f4d836108f9565b9050806001600160a01b0316846001600160a01b03161480610f9457506001600160a01b0380821660009081526005602090815260408083209388168352929052205460ff165b80610fb85750836001600160a01b0316610fad84610577565b6001600160a01b0316145b949350505050565b826001600160a01b0316610fd3826108f9565b6001600160a01b0316146110375760405162461bcd60e51b815260206004820152602560248201527f4552433732313a207472616e736665722066726f6d20696e636f72726563742060448201526437bbb732b960d91b6064820152608401610613565b6001600160a01b0382166110995760405162461bcd60e51b8152602060048201526024808201527f4552433732313a207472616e7366657220746f20746865207a65726f206164646044820152637265737360e01b6064820152608401610613565b6110a4600082610ed3565b6001600160a01b03831660009081526003602052604081208054600192906110cd908490612835565b90915550506001600160a01b03821660009081526003602052604081208054600192906110fb9084906127fb565b909155505060008181526002602052604080822080546001600160a01b0319166001600160a01b0386811691821790925591518493918716917fddf252ad1be2c89b69c2b068fc378daa952ba7f163c4a11628f55a4df523b3ef91a46106b4838383611809565b6000306001600160a01b037f0000000000000000000000000000000000000000000000000000000000000000161480156111bb57507f000000000000000000000000000000000000000000000000000000000000000046145b156111e557507f000000000000000000000000000000000000000000000000000000000000000090565b50604080517f00000000000000000000000000000000000000000000000000000000000000006020808301919091527f0000000000000000000000000000000000000000000000000000000000000000828401527f000000000000000000000000000000000000000000000000000000000000000060608301524660808301523060a0808401919091528351808403909101815260c0909201909252805191012090565b336001600160a01b0384161480159061134c575060405163c161c93f60e01b81523360048201526001600160a01b03848116602483015260448201849052606482018390527f0000000000000000000000000000000000000000000000000000000000000000169063c161c93f9060840160206040518083038186803b15801561131257600080fd5b505afa158015611326573d6000803e3d6000fd5b505050506040513d601f19601f8201168201806040525081019061134a919061243f565b155b8015611402575060405163c161c93f60e01b81523360048201526001600160a01b03848116602483015260006044830152606482018390527f0000000000000000000000000000000000000000000000000000000000000000169063c161c93f9060840160206040518083038186803b1580156113c857600080fd5b505afa1580156113dc573d6000803e3d6000fd5b505050506040513d601f19601f82011682018060405250810190611400919061243f565b155b156106b45760405163075fd2b160e01b815260040160405180910390fd5b60004382106114715760405162461bcd60e51b815260206004820181905260248201527f436865636b706f696e74733a20626c6f636b206e6f7420796574206d696e65646044820152606401610613565b825460005b818110156114d657600061148a8284611815565b9050848660000182815481106114a2576114a26128f4565b60009182526020909120015463ffffffff1611156114c2578092506114d0565b6114cd8160016127fb565b91505b50611476565b811561151a57846114e8600184612835565b815481106114f8576114f86128f4565b60009182526020909120015464010000000090046001600160e01b031661151d565b60005b6001600160e01b031695945050505050565b6001600160a01b0382811660008181526006602052604080822080548686166001600160a01b0319821681179092559151919094169392849290917f3134e8a2e6d97e929a7e54011ea5485d7d196dd5f0ba4d4ef95803e8e3fc257f9190a46106b4818361159c86611830565b61183b565b6108f5828260405180602001604052806000815250611969565b600a80546001600160a01b038381166001600160a01b0319831681179093556040519116919082907f8be0079c531659141344cd1fd0a4f28419497f9722a3daafe3b4186f6b6457e090600090a35050565b805460009080156116565782611624600183612835565b81548110611634576116346128f4565b60009182526020909120015464010000000090046001600160e01b0316611659565b60005b6001600160e01b03169392505050565b816001600160a01b0316836001600160a01b031614156116cb5760405162461bcd60e51b815260206004820152601960248201527f4552433732313a20617070726f766520746f2063616c6c6572000000000000006044820152606401610613565b6001600160a01b03838116600081815260056020908152604080832094871680845294825291829020805460ff191686151590811790915591519182527f17307eab39ab6107e8899845ad3d59bd9653f200f220920489ca2b5937696c31910160405180910390a3505050565b611743848484610fc0565b61174f8484848461199c565b610baf5760405162461bcd60e51b8152600401610613906125f5565b60006104df611778611162565b8360405161190160f01b6020820152602281018390526042810182905260009060620160405160208183030381529060405280519060200120905092915050565b60008060006117ca87878787611aa6565b915091506117d781611b93565b5095945050505050565b6001600160a01b03811660009081526009602052604090208054600181018255905b50919050565b6106b483836001611d4e565b60006118246002848418612813565b6108c8908484166127fb565b60006104df82610a0c565b816001600160a01b0316836001600160a01b03161415801561185d5750600081115b156106b4576001600160a01b038316156118eb576001600160a01b0383166000908152600760205260408120819061189890611dbe85611dca565b91509150846001600160a01b03167fdec2bacdd2f05b59de34da9b523dff8be42e5e38e818c82fdb0bae774387a72483836040516118e0929190918252602082015260400190565b60405180910390a250505b6001600160a01b038216156106b4576001600160a01b0382166000908152600760205260408120819061192190611df885611dca565b91509150836001600160a01b03167fdec2bacdd2f05b59de34da9b523dff8be42e5e38e818c82fdb0bae774387a72483836040516107f2929190918252602082015260400190565b6119738383611e04565b611980600084848461199c565b6106b45760405162461bcd60e51b8152600401610613906125f5565b60006001600160a01b0384163b15611a9e57604051630a85bd0160e11b81526001600160a01b0385169063150b7a02906119e09033908990889088906004016125a5565b602060405180830381600087803b1580156119fa57600080fd5b505af1925050508015611a2a575060408051601f3d908101601f19168201909252611a2791810190612479565b60015b611a84573d808015611a58576040519150601f19603f3d011682016040523d82523d6000602084013e611a5d565b606091505b508051611a7c5760405162461bcd60e51b8152600401610613906125f5565b805181602001fd5b6001600160e01b031916630a85bd0160e11b149050610fb8565b506001610fb8565b6000807f7fffffffffffffffffffffffffffffff5d576e7357a4501ddfe92f46681b20a0831115611add5750600090506003611b8a565b8460ff16601b14158015611af557508460ff16601c14155b15611b065750600090506004611b8a565b6040805160008082526020820180845289905260ff881692820192909252606081018690526080810185905260019060a0016020604051602081039080840390855afa158015611b5a573d6000803e3d6000fd5b5050604051601f1901519150506001600160a01b038116611b8357600060019250925050611b8a565b9150600090505b94509492505050565b6000816004811115611ba757611ba76128de565b1415611bb05750565b6001816004811115611bc457611bc46128de565b1415611c125760405162461bcd60e51b815260206004820152601860248201527f45434453413a20696e76616c6964207369676e617475726500000000000000006044820152606401610613565b6002816004811115611c2657611c266128de565b1415611c745760405162461bcd60e51b815260206004820152601f60248201527f45434453413a20696e76616c6964207369676e6174757265206c656e677468006044820152606401610613565b6003816004811115611c8857611c886128de565b1415611ce15760405162461bcd60e51b815260206004820152602260248201527f45434453413a20696e76616c6964207369676e6174757265202773272076616c604482015261756560f01b6064820152608401610613565b6004816004811115611cf557611cf56128de565b1415610e215760405162461bcd60e51b815260206004820152602260248201527f45434453413a20696e76616c6964207369676e6174757265202776272076616c604482015261756560f01b6064820152608401610613565b6001600160a01b038316611d6d57611d6a6008611df883611dca565b50505b6001600160a01b038216611d8c57611d896008611dbe83611dca565b50505b6001600160a01b038381166000908152600660205260408082205485841683529120546106b49291821691168361183b565b60006108c88284612835565b600080611dec85611de7611ddd8861160d565b868863ffffffff16565b611f4e565b91509150935093915050565b60006108c882846127fb565b6001600160a01b038216611e5a5760405162461bcd60e51b815260206004820181905260248201527f4552433732313a206d696e7420746f20746865207a65726f20616464726573736044820152606401610613565b6000818152600260205260409020546001600160a01b031615611ebf5760405162461bcd60e51b815260206004820152601c60248201527f4552433732313a20746f6b656e20616c7265616479206d696e746564000000006044820152606401610613565b6001600160a01b0382166000908152600360205260408120805460019290611ee89084906127fb565b909155505060008181526002602052604080822080546001600160a01b0319166001600160a01b03861690811790915590518392907fddf252ad1be2c89b69c2b068fc378daa952ba7f163c4a11628f55a4df523b3ef908290a46108f560008383611809565b8154600090819081611f5f8661160d565b9050600082118015611f9d57504386611f79600185612835565b81548110611f8957611f896128f4565b60009182526020909120015463ffffffff16145b15611ffd57611fab85612079565b86611fb7600185612835565b81548110611fc757611fc76128f4565b9060005260206000200160000160046101000a8154816001600160e01b0302191690836001600160e01b0316021790555061206b565b856000016040518060400160405280612015436120e6565b63ffffffff16815260200161202988612079565b6001600160e01b0390811690915282546001810184556000938452602093849020835194909301519091166401000000000263ffffffff909316929092179101555b9250839150505b9250929050565b60006001600160e01b038211156120e25760405162461bcd60e51b815260206004820152602760248201527f53616665436173743a2076616c756520646f65736e27742066697420696e20326044820152663234206269747360c81b6064820152608401610613565b5090565b600063ffffffff8211156120e25760405162461bcd60e51b815260206004820152602660248201527f53616665436173743a2076616c756520646f65736e27742066697420696e203360448201526532206269747360d01b6064820152608401610613565b82805461215790612878565b90600052602060002090601f01602090048101928261217957600085556121bf565b82601f106121925782800160ff198235161785556121bf565b828001600101855582156121bf579182015b828111156121bf5782358255916020019190600101906121a4565b506120e29291505b808211156120e257600081556001016121c7565b60006040828403121561180357600080fd5b6000602082840312156121ff57600080fd5b81356108c881612920565b6000806040838503121561221d57600080fd5b823561222881612920565b9150602083013561223881612920565b809150509250929050565b60008060006060848603121561225857600080fd5b833561226381612920565b9250602084013561227381612920565b929592945050506040919091013590565b6000806000806080858703121561229a57600080fd5b84356122a581612920565b935060208501356122b581612920565b925060408501359150606085013567ffffffffffffffff8111156122d857600080fd5b8501601f810187136122e957600080fd5b80356122fc6122f7826127d3565b6127a2565b81815288602083850101111561231157600080fd5b8160208401602083013760006020838301015280935050505092959194509250565b6000806040838503121561234657600080fd5b823561235181612920565b9150602083013561223881612935565b6000806040838503121561237457600080fd5b823561237f81612920565b9150602083013567ffffffffffffffff81111561239b57600080fd5b6123a7858286016121db565b9150509250929050565b600080604083850312156123c457600080fd5b82356123cf81612920565b946020939093013593505050565b60008060008060008060c087890312156123f657600080fd5b863561240181612920565b95506020870135945060408701359350606087013560ff8116811461242557600080fd5b9598949750929560808101359460a0909101359350915050565b60006020828403121561245157600080fd5b81516108c881612935565b60006020828403121561246e57600080fd5b81356108c881612943565b60006020828403121561248b57600080fd5b81516108c881612943565b6000602082840312156124a857600080fd5b815167ffffffffffffffff8111156124bf57600080fd5b8201601f810184136124d057600080fd5b80516124de6122f7826127d3565b8181528560208385010111156124f357600080fd5b61250482602083016020860161284c565b95945050505050565b60006020828403121561251f57600080fd5b5035919050565b6000806040838503121561253957600080fd5b82359150602083013567ffffffffffffffff81111561239b57600080fd5b6000806040838503121561256a57600080fd5b50508035926020909101359150565b6000815180845261259181602086016020860161284c565b601f01601f19169290920160200192915050565b6001600160a01b03858116825284166020820152604081018390526080606082018190526000906125d890830184612579565b9695505050505050565b6020815260006108c86020830184612579565b60208082526032908201527f4552433732313a207472616e7366657220746f206e6f6e20455243373231526560408201527131b2b4bb32b91034b6b83632b6b2b73a32b960711b606082015260800190565b6020808252818101527f4f776e61626c653a2063616c6c6572206973206e6f7420746865206f776e6572604082015260600190565b6020808252602e908201527f4552433732313a2063616c6c6572206973206e6f7420746f6b656e206f776e6560408201526d1c881b9bdc88185c1c1c9bdd995960921b606082015260800190565b6040815260008335601e198536030181126126e457600080fd5b8401803567ffffffffffffffff8111156126fd57600080fd5b80360386131561270c57600080fd5b604080850152806080850152806020830160a0860137600060a082860101526020860135606085015260a0601f19601f830116850101925050506108c860208301846001600160a01b03169052565b6000808335601e1984360301811261277257600080fd5b83018035915067ffffffffffffffff82111561278d57600080fd5b60200191503681900382131561207257600080fd5b604051601f8201601f1916810167ffffffffffffffff811182821017156127cb576127cb61290a565b604052919050565b600067ffffffffffffffff8211156127ed576127ed61290a565b50601f01601f191660200190565b6000821982111561280e5761280e6128c8565b500190565b60008261283057634e487b7160e01b600052601260045260246000fd5b500490565b600082821015612847576128476128c8565b500390565b60005b8381101561286757818101518382015260200161284f565b83811115610baf5750506000910152565b600181811c9082168061288c57607f821691505b6020821081141561180357634e487b7160e01b600052602260045260246000fd5b60006000198214156128c1576128c16128c8565b5060010190565b634e487b7160e01b600052601160045260246000fd5b634e487b7160e01b600052602160045260246000fd5b634e487b7160e01b600052603260045260246000fd5b634e487b7160e01b600052604160045260246000fd5b6001600160a01b0381168114610e2157600080fd5b8015158114610e2157600080fd5b6001600160e01b031981168114610e2157600080fdfea26469706673582212202bbdd2b6a9475d1e4c3b0c661f057074bb114bbf64d52d159a9a9ec32a70e3cb64736f6c63430008060033",
    "linkReferences": {}
  },
  "methodIdentifiers": {
    "DOMAIN_SEPARATOR()": "3644e515",
    "approve(address,uint256)": "095ea7b3",
    "balanceOf(address)": "70a08231",
    "count()": "06661abd",
    "createFor(address,(string,uint256))": "666d87a0",
    "delegate(address)": "5c19a95c",
    "delegateBySig(address,uint256,uint256,uint8,bytes32,bytes32)": "c3cda520",
    "delegates(address)": "587cde1e",
    "getApproved(uint256)": "081812fc",
    "getPastTotalSupply(uint256)": "8e539e8c",
    "getPastVotes(address,uint256)": "3a46b1a8",
    "getVotes(address)": "9ab24eb0",
    "isApprovedForAll(address,address)": "e985e9c5",
    "metadataContentOf(uint256,uint256)": "39fbc775",
    "name()": "06fdde03",
    "nonces(address)": "7ecebe00",
    "operatorStore()": "ad007d63",
    "owner()": "8da5cb5b",
    "ownerOf(uint256)": "6352211e",
    "renounceOwnership()": "715018a6",
    "safeTransferFrom(address,address,uint256)": "42842e0e",
    "safeTransferFrom(address,address,uint256,bytes)": "b88d4fde",
    "setApprovalForAll(address,bool)": "a22cb465",
    "setMetadataOf(uint256,(string,uint256))": "36574975",
    "setTokenUriResolver(address)": "2407497e",
    "supportsInterface(bytes4)": "01ffc9a7",
    "symbol()": "95d89b41",
    "tokenURI(uint256)": "c87b56dd",
    "tokenUriResolver()": "e131fc0c",
    "transferFrom(address,address,uint256)": "23b872dd",
    "transferOwnership(address)": "f2fde38b"
  },
  "id": 14
}