{
  "abi": [
    {
      "inputs": [
        {
          "internalType": "contract IJBOperatorStore",
          "name": "_operatorStore",
          "type": "address"
        },
        {
          "internalType": "contract IJBProjects",
          "name": "_projects",
          "type": "address"
        },
        {
          "internalType": "contract IJBFundingCycleStore",
          "name": "_fundingCycleStore",
          "type": "address"
        },
        {
          "internalType": "address",
          "name": "_owner",
          "type": "address"
        }
      ],
      "stateMutability": "nonpayable",
      "type": "constructor"
    },
    {
      "inputs": [],
      "name": "DUPLICATE_TERMINALS",
      "type": "error"
    },
    {
      "inputs": [],
      "name": "INVALID_PROJECT_ID_IN_DIRECTORY",
      "type": "error"
    },
    {
      "inputs": [],
      "name": "SET_CONTROLLER_NOT_ALLOWED",
      "type": "error"
    },
    {
      "inputs": [],
      "name": "SET_TERMINALS_NOT_ALLOWED",
      "type": "error"
    },
    {
      "inputs": [],
      "name": "TOKEN_NOT_ACCEPTED",
      "type": "error"
    },
    {
      "inputs": [],
      "name": "UNAUTHORIZED",
      "type": "error"
    },
    {
      "anonymous": false,
      "inputs": [
        {
          "indexed": true,
          "internalType": "uint256",
          "name": "projectId",
          "type": "uint256"
        },
        {
          "indexed": true,
          "internalType": "contract IJBPaymentTerminal",
          "name": "terminal",
          "type": "address"
        },
        {
          "indexed": false,
          "internalType": "address",
          "name": "caller",
          "type": "address"
        }
      ],
      "name": "AddTerminal",
      "type": "event"
    },
    {
      "anonymous": false,
      "inputs": [
        {
          "indexed": true,
          "internalType": "address",
          "name": "previousOwner",
          "type": "address"
        },
        {
          "indexed": true,
          "internalType": "address",
          "name": "newOwner",
          "type": "address"
        }
      ],
      "name": "OwnershipTransferred",
      "type": "event"
    },
    {
      "anonymous": false,
      "inputs": [
        {
          "indexed": true,
          "internalType": "uint256",
          "name": "projectId",
          "type": "uint256"
        },
        {
          "indexed": true,
          "internalType": "address",
          "name": "controller",
          "type": "address"
        },
        {
          "indexed": false,
          "internalType": "address",
          "name": "caller",
          "type": "address"
        }
      ],
      "name": "SetController",
      "type": "event"
    },
    {
      "anonymous": false,
      "inputs": [
        {
          "indexed": true,
          "internalType": "address",
          "name": "addr",
          "type": "address"
        },
        {
          "indexed": true,
          "internalType": "bool",
          "name": "flag",
          "type": "bool"
        },
        {
          "indexed": false,
          "internalType": "address",
          "name": "caller",
          "type": "address"
        }
      ],
      "name": "SetIsAllowedToSetFirstController",
      "type": "event"
    },
    {
      "anonymous": false,
      "inputs": [
        {
          "indexed": true,
          "internalType": "uint256",
          "name": "projectId",
          "type": "uint256"
        },
        {
          "indexed": true,
          "internalType": "address",
          "name": "token",
          "type": "address"
        },
        {
          "indexed": true,
          "internalType": "contract IJBPaymentTerminal",
          "name": "terminal",
          "type": "address"
        },
        {
          "indexed": false,
          "internalType": "address",
          "name": "caller",
          "type": "address"
        }
      ],
      "name": "SetPrimaryTerminal",
      "type": "event"
    },
    {
      "anonymous": false,
      "inputs": [
        {
          "indexed": true,
          "internalType": "uint256",
          "name": "projectId",
          "type": "uint256"
        },
        {
          "indexed": false,
          "internalType": "contract IJBPaymentTerminal[]",
          "name": "terminals",
          "type": "address[]"
        },
        {
          "indexed": false,
          "internalType": "address",
          "name": "caller",
          "type": "address"
        }
      ],
      "name": "SetTerminals",
      "type": "event"
    },
    {
      "inputs": [
        {
          "internalType": "uint256",
          "name": "",
          "type": "uint256"
        }
      ],
      "name": "controllerOf",
      "outputs": [
        {
          "internalType": "address",
          "name": "",
          "type": "address"
        }
      ],
      "stateMutability": "view",
      "type": "function"
    },
    {
      "inputs": [],
      "name": "fundingCycleStore",
      "outputs": [
        {
          "internalType": "contract IJBFundingCycleStore",
          "name": "",
          "type": "address"
        }
      ],
      "stateMutability": "view",
      "type": "function"
    },
    {
      "inputs": [
        {
          "internalType": "address",
          "name": "",
          "type": "address"
        }
      ],
      "name": "isAllowedToSetFirstController",
      "outputs": [
        {
          "internalType": "bool",
          "name": "",
          "type": "bool"
        }
      ],
      "stateMutability": "view",
      "type": "function"
    },
    {
      "inputs": [
        {
          "internalType": "uint256",
          "name": "_projectId",
          "type": "uint256"
        },
        {
          "internalType": "contract IJBPaymentTerminal",
          "name": "_terminal",
          "type": "address"
        }
      ],
      "name": "isTerminalOf",
      "outputs": [
        {
          "internalType": "bool",
          "name": "",
          "type": "bool"
        }
      ],
      "stateMutability": "view",
      "type": "function"
    },
    {
      "inputs": [],
      "name": "operatorStore",
      "outputs": [
        {
          "internalType": "contract IJBOperatorStore",
          "name": "",
          "type": "address"
        }
      ],
      "stateMutability": "view",
      "type": "function"
    },
    {
      "inputs": [],
      "name": "owner",
      "outputs": [
        {
          "internalType": "address",
          "name": "",
          "type": "address"
        }
      ],
      "stateMutability": "view",
      "type": "function"
    },
    {
      "inputs": [
        {
          "internalType": "uint256",
          "name": "_projectId",
          "type": "uint256"
        },
        {
          "internalType": "address",
          "name": "_token",
          "type": "address"
        }
      ],
      "name": "primaryTerminalOf",
      "outputs": [
        {
          "internalType": "contract IJBPaymentTerminal",
          "name": "",
          "type": "address"
        }
      ],
      "stateMutability": "view",
      "type": "function"
    },
    {
      "inputs": [],
      "name": "projects",
      "outputs": [
        {
          "internalType": "contract IJBProjects",
          "name": "",
          "type": "address"
        }
      ],
      "stateMutability": "view",
      "type": "function"
    },
    {
      "inputs": [],
      "name": "renounceOwnership",
      "outputs": [],
      "stateMutability": "nonpayable",
      "type": "function"
    },
    {
      "inputs": [
        {
          "internalType": "uint256",
          "name": "_projectId",
          "type": "uint256"
        },
        {
          "internalType": "address",
          "name": "_controller",
          "type": "address"
        }
      ],
      "name": "setControllerOf",
      "outputs": [],
      "stateMutability": "nonpayable",
      "type": "function"
    },
    {
      "inputs": [
        {
          "internalType": "address",
          "name": "_address",
          "type": "address"
        },
        {
          "internalType": "bool",
          "name": "_flag",
          "type": "bool"
        }
      ],
      "name": "setIsAllowedToSetFirstController",
      "outputs": [],
      "stateMutability": "nonpayable",
      "type": "function"
    },
    {
      "inputs": [
        {
          "internalType": "uint256",
          "name": "_projectId",
          "type": "uint256"
        },
        {
          "internalType": "address",
          "name": "_token",
          "type": "address"
        },
        {
          "internalType": "contract IJBPaymentTerminal",
          "name": "_terminal",
          "type": "address"
        }
      ],
      "name": "setPrimaryTerminalOf",
      "outputs": [],
      "stateMutability": "nonpayable",
      "type": "function"
    },
    {
      "inputs": [
        {
          "internalType": "uint256",
          "name": "_projectId",
          "type": "uint256"
        },
        {
          "internalType": "contract IJBPaymentTerminal[]",
          "name": "_terminals",
          "type": "address[]"
        }
      ],
      "name": "setTerminalsOf",
      "outputs": [],
      "stateMutability": "nonpayable",
      "type": "function"
    },
    {
      "inputs": [
        {
          "internalType": "uint256",
          "name": "_projectId",
          "type": "uint256"
        }
      ],
      "name": "terminalsOf",
      "outputs": [
        {
          "internalType": "contract IJBPaymentTerminal[]",
          "name": "",
          "type": "address[]"
        }
      ],
      "stateMutability": "view",
      "type": "function"
    },
    {
      "inputs": [
        {
          "internalType": "address",
          "name": "newOwner",
          "type": "address"
        }
      ],
      "name": "transferOwnership",
      "outputs": [],
      "stateMutability": "nonpayable",
      "type": "function"
    }
  ],
  "bytecode": {
    "object": "0x60e06040523480156200001157600080fd5b50604051620019b6380380620019b68339810160408190526200003491620000d0565b606084901b6001600160601b031916608052620000513362000080565b6001600160601b0319606084811b821660a05283901b1660c052620000768162000080565b5050505062000151565b600080546001600160a01b038381166001600160a01b0319831681178455604051919092169283917f8be0079c531659141344cd1fd0a4f28419497f9722a3daafe3b4186f6b6457e09190a35050565b60008060008060808587031215620000e757600080fd5b8451620000f48162000138565b6020860151909450620001078162000138565b60408601519093506200011a8162000138565b60608601519092506200012d8162000138565b939692955090935050565b6001600160a01b03811681146200014e57600080fd5b50565b60805160601c60a05160601c60c05160601c6117e0620001d66000396000818160ff015281816106bb015281816109380152610ffe0152600081816101e5015281816102be0152818161050a015281816105f4015261087201526000818161023001528181610e7601528181610f210152818161117e015261122901526117e06000f3fe608060405234801561001057600080fd5b50600436106100f55760003560e01c80638620265011610097578063ad007d6311610066578063ad007d631461022b578063c5664e2114610252578063d175415314610275578063f2fde38b1461029557600080fd5b806386202650146101cd5780638b79543c146101e05780638da5cb5b14610207578063a1ed31751461021857600080fd5b80636e49181f116100d35780636e49181f1461017c578063714e7f321461019f578063715018a6146101b2578063821b9fd8146101ba57600080fd5b8063557e7155146100fa5780635dd8f6aa1461013e57806363d0850a14610167575b600080fd5b6101217f000000000000000000000000000000000000000000000000000000000000000081565b6040516001600160a01b0390911681526020015b60405180910390f35b61012161014c3660046114ca565b6003602052600090815260409020546001600160a01b031681565b61017a610175366004611521565b6102a8565b005b61018f61018a3660046114fc565b61046b565b6040519015158152602001610135565b61017a6101ad3660046114fc565b6104f4565b61017a61081d565b61017a6101c8366004611563565b61085c565b6101216101db3660046114fc565b610b41565b6101217f000000000000000000000000000000000000000000000000000000000000000081565b6000546001600160a01b0316610121565b61017a6102263660046113f4565b610cb8565b6101217f000000000000000000000000000000000000000000000000000000000000000081565b61018f6102603660046113b3565b60046020526000908152604090205460ff1681565b6102886102833660046114ca565b610d44565b604051610135919061166e565b61017a6102a33660046113b3565b610db0565b6040516331a9108f60e11b8152600481018490527f00000000000000000000000000000000000000000000000000000000000000006001600160a01b031690636352211e9060240160206040518083038186803b15801561030857600080fd5b505afa15801561031c573d6000803e3d6000fd5b505050506040513d601f19601f8201168201806040525081019061034091906113d7565b83601061034e838383610e4b565b60405163df21a7dd60e01b81526001600160a01b0386811660048301526024820188905285169063df21a7dd9060440160206040518083038186803b15801561039657600080fd5b505afa1580156103aa573d6000803e3d6000fd5b505050506040513d601f19601f820116820180604052508101906103ce919061142d565b6103eb57604051630faa917b60e11b815260040160405180910390fd5b6103f58685610fd2565b60008681526002602090815260408083206001600160a01b038981168086529184529382902080546001600160a01b03191694891694851790559051338152909189917fc670a502bbb9f8a4315f95eca901a9f99b65f89a2eb5705a58050e5c00f9d672910160405180910390a4505050505050565b6000805b6000848152600160205260409020548110156104e857600084815260016020526040902080546001600160a01b0385169190839081106104b1576104b1611771565b6000918252602090912001546001600160a01b031614156104d65760019150506104ee565b806104e081611740565b91505061046f565b50600090505b92915050565b6040516331a9108f60e11b8152600481018390527f00000000000000000000000000000000000000000000000000000000000000006001600160a01b031690636352211e9060240160206040518083038186803b15801561055457600080fd5b505afa158015610568573d6000803e3d6000fd5b505050506040513d601f19601f8201168201806040525081019061058c91906113d7565b6000838152600360205260409020548390600e906001600160a01b03163314806105e557503360009081526004602052604090205460ff1680156105e557506000858152600360205260409020546001600160a01b0316155b6105f184848484611149565b857f00000000000000000000000000000000000000000000000000000000000000006001600160a01b03166306661abd6040518163ffffffff1660e01b815260040160206040518083038186803b15801561064b57600080fd5b505afa15801561065f573d6000803e3d6000fd5b505050506040513d601f19601f8201168201806040525081019061068391906114e3565b10156106a257604051634a283a5360e11b815260040160405180910390fd5b6040516321d1336160e11b8152600481018790526000907f00000000000000000000000000000000000000000000000000000000000000006001600160a01b0316906343a266c2906024016101206040518083038186803b15801561070657600080fd5b505afa15801561071a573d6000803e3d6000fd5b505050506040513d601f19601f8201168201806040525081019061073e919061144a565b6000888152600360205260409020549091506001600160a01b0316331480159061077e57506000878152600360205260409020546001600160a01b031615155b8015610796575061010081015160091c600190811614155b156107b45760405163a33db4cb60e01b815260040160405180910390fd5b60008781526003602090815260409182902080546001600160a01b0319166001600160a01b038a16908117909155915133815289917f7f9a7dcb234c909a09de2f344661ad9e5b24067adb97c908647c2edcbb121c30910160405180910390a350505050505050565b6000546001600160a01b031633146108505760405162461bcd60e51b8152600401610847906116bb565b60405180910390fd5b61085a60006112db565b565b6040516331a9108f60e11b8152600481018490527f00000000000000000000000000000000000000000000000000000000000000006001600160a01b031690636352211e9060240160206040518083038186803b1580156108bc57600080fd5b505afa1580156108d0573d6000803e3d6000fd5b505050506040513d601f19601f820116820180604052508101906108f491906113d7565b6000848152600360205260409020548490600f906001600160a01b0316331461091f84848484611149565b6040516321d1336160e11b8152600481018890526000907f00000000000000000000000000000000000000000000000000000000000000006001600160a01b0316906343a266c2906024016101206040518083038186803b15801561098357600080fd5b505afa158015610997573d6000803e3d6000fd5b505050506040513d601f19601f820116820180604052508101906109bb919061144a565b6000898152600360205260409020549091506001600160a01b031633148015906109f1575061010081015160081c600190811614155b15610a0f576040516375fef35f60e11b815260040160405180910390fd5b6000888152600160205260409020610a2890888861132b565b506001861115610afb5760005b86811015610af9576000610a4a826001611728565b90505b87811015610ae657888882818110610a6757610a67611771565b9050602002016020810190610a7c91906113b3565b6001600160a01b0316898984818110610a9757610a97611771565b9050602002016020810190610aac91906113b3565b6001600160a01b03161415610ad457604051633e3830ab60e11b815260040160405180910390fd5b80610ade81611740565b915050610a4d565b5080610af181611740565b915050610a35565b505b877fb648241d83df6540fc10f2acc641e4bf80a1e84e7ae2f1f6b0ad204b8fee635b888833604051610b2f9392919061160b565b60405180910390a25050505050505050565b60008281526002602090815260408083206001600160a01b03858116855292528220541615801590610b9e575060008381526002602090815260408083206001600160a01b038087168552925290912054610b9e9185911661046b565b15610bce575060008281526002602090815260408083206001600160a01b038086168552925290912054166104ee565b60005b6000848152600160205260409020548110156104e8576000848152600160205260408120805483908110610c0757610c07611771565b60009182526020909120015460405163df21a7dd60e01b81526001600160a01b038681166004830152602482018890529091169150819063df21a7dd9060440160206040518083038186803b158015610c5f57600080fd5b505afa158015610c73573d6000803e3d6000fd5b505050506040513d601f19601f82011682018060405250810190610c97919061142d565b15610ca55791506104ee9050565b5080610cb081611740565b915050610bd1565b6000546001600160a01b03163314610ce25760405162461bcd60e51b8152600401610847906116bb565b6001600160a01b038216600081815260046020908152604091829020805460ff191685151590811790915591513381529192917f11207664cc48b0fa81c8674795f1d8f642960f38d5d2d305ad813093bed85fab910160405180910390a35050565b600081815260016020908152604091829020805483518184028101840190945280845260609392830182828015610da457602002820191906000526020600020905b81546001600160a01b03168152600190910190602001808311610d86575b50505050509050919050565b6000546001600160a01b03163314610dda5760405162461bcd60e51b8152600401610847906116bb565b6001600160a01b038116610e3f5760405162461bcd60e51b815260206004820152602660248201527f4f776e61626c653a206e6577206f776e657220697320746865207a65726f206160448201526564647265737360d01b6064820152608401610847565b610e48816112db565b50565b336001600160a01b03841614801590610f03575060405163c161c93f60e01b81526001600160a01b037f0000000000000000000000000000000000000000000000000000000000000000169063c161c93f90610eb19033908790879087906004016115e2565b60206040518083038186803b158015610ec957600080fd5b505afa158015610edd573d6000803e3d6000fd5b505050506040513d601f19601f82011682018060405250810190610f01919061142d565b155b8015610faf575060405163c161c93f60e01b81526001600160a01b037f0000000000000000000000000000000000000000000000000000000000000000169063c161c93f90610f5d903390879060009087906004016115e2565b60206040518083038186803b158015610f7557600080fd5b505afa158015610f89573d6000803e3d6000fd5b505050506040513d601f19601f82011682018060405250810190610fad919061142d565b155b15610fcd5760405163075fd2b160e01b815260040160405180910390fd5b505050565b610fdc828261046b565b15610fe5575050565b6040516321d1336160e11b8152600481018390526000907f00000000000000000000000000000000000000000000000000000000000000006001600160a01b0316906343a266c2906024016101206040518083038186803b15801561104957600080fd5b505afa15801561105d573d6000803e3d6000fd5b505050506040513d601f19601f82011682018060405250810190611081919061144a565b6000848152600360205260409020549091506001600160a01b031633148015906110b7575061010081015160081c600190811614155b156110d5576040516375fef35f60e11b815260040160405180910390fd5b60008381526001602081815260408084208054938401815584529281902090910180546001600160a01b0319166001600160a01b038616908117909155915133815285917f409bccc07b7cf7807930526a24318212d614c59f2dde05a017a41efee144e7c8910160405180910390a3505050565b801580156111605750336001600160a01b03851614155b801561120b575060405163c161c93f60e01b81526001600160a01b037f0000000000000000000000000000000000000000000000000000000000000000169063c161c93f906111b99033908890889088906004016115e2565b60206040518083038186803b1580156111d157600080fd5b505afa1580156111e5573d6000803e3d6000fd5b505050506040513d601f19601f82011682018060405250810190611209919061142d565b155b80156112b7575060405163c161c93f60e01b81526001600160a01b037f0000000000000000000000000000000000000000000000000000000000000000169063c161c93f90611265903390889060009088906004016115e2565b60206040518083038186803b15801561127d57600080fd5b505afa158015611291573d6000803e3d6000fd5b505050506040513d601f19601f820116820180604052508101906112b5919061142d565b155b156112d55760405163075fd2b160e01b815260040160405180910390fd5b50505050565b600080546001600160a01b038381166001600160a01b0319831681178455604051919092169283917f8be0079c531659141344cd1fd0a4f28419497f9722a3daafe3b4186f6b6457e09190a35050565b82805482825590600052602060002090810192821561137e579160200282015b8281111561137e5781546001600160a01b0319166001600160a01b0384351617825560209092019160019091019061134b565b5061138a92915061138e565b5090565b5b8082111561138a576000815560010161138f565b80516113ae81611787565b919050565b6000602082840312156113c557600080fd5b81356113d081611787565b9392505050565b6000602082840312156113e957600080fd5b81516113d081611787565b6000806040838503121561140757600080fd5b823561141281611787565b915060208301356114228161179c565b809150509250929050565b60006020828403121561143f57600080fd5b81516113d08161179c565b6000610120828403121561145d57600080fd5b6114656116f0565b825181526020830151602082015260408301516040820152606083015160608201526080830151608082015260a083015160a082015260c083015160c08201526114b160e084016113a3565b60e0820152610100928301519281019290925250919050565b6000602082840312156114dc57600080fd5b5035919050565b6000602082840312156114f557600080fd5b5051919050565b6000806040838503121561150f57600080fd5b82359150602083013561142281611787565b60008060006060848603121561153657600080fd5b83359250602084013561154881611787565b9150604084013561155881611787565b809150509250925092565b60008060006040848603121561157857600080fd5b83359250602084013567ffffffffffffffff8082111561159757600080fd5b818601915086601f8301126115ab57600080fd5b8135818111156115ba57600080fd5b8760208260051b85010111156115cf57600080fd5b6020830194508093505050509250925092565b6001600160a01b0394851681529290931660208301526040820152606081019190915260800190565b6040808252810183905260008460608301825b8681101561164e57823561163181611787565b6001600160a01b031682526020928301929091019060010161161e565b506001600160a01b03949094166020939093019290925250909392505050565b6020808252825182820181905260009190848201906040850190845b818110156116af5783516001600160a01b03168352928401929184019160010161168a565b50909695505050505050565b6020808252818101527f4f776e61626c653a2063616c6c6572206973206e6f7420746865206f776e6572604082015260600190565b604051610120810167ffffffffffffffff8111828210171561172257634e487b7160e01b600052604160045260246000fd5b60405290565b6000821982111561173b5761173b61175b565b500190565b60006000198214156117545761175461175b565b5060010190565b634e487b7160e01b600052601160045260246000fd5b634e487b7160e01b600052603260045260246000fd5b6001600160a01b0381168114610e4857600080fd5b8015158114610e4857600080fdfea26469706673582212201435f0e70731bdc2088d6ba9fb3c525c3ded42ad509eb7a503eb67a049fe707464736f6c63430008060033",
    "linkReferences": {}
  },
  "methodIdentifiers": {
    "controllerOf(uint256)": "5dd8f6aa",
    "fundingCycleStore()": "557e7155",
    "isAllowedToSetFirstController(address)": "c5664e21",
    "isTerminalOf(uint256,address)": "6e49181f",
    "operatorStore()": "ad007d63",
    "owner()": "8da5cb5b",
    "primaryTerminalOf(uint256,address)": "86202650",
    "projects()": "8b79543c",
    "renounceOwnership()": "715018a6",
    "setControllerOf(uint256,address)": "714e7f32",
    "setIsAllowedToSetFirstController(address,bool)": "a1ed3175",
    "setPrimaryTerminalOf(uint256,address,address)": "63d0850a",
    "setTerminalsOf(uint256,address[])": "821b9fd8",
    "terminalsOf(uint256)": "d1754153",
    "transferOwnership(address)": "f2fde38b"
  },
  "id": 8
}