{
  "abi": [
    {
      "inputs": [
        {
          "internalType": "uint256",
          "name": "_baseWeightCurrency",
          "type": "uint256"
        },
        {
          "internalType": "contract IJBOperatorStore",
          "name": "_operatorStore",
          "type": "address"
        },
        {
          "internalType": "contract IJBProjects",
          "name": "_projects",
          "type": "address"
        },
        {
          "internalType": "contract IJBDirectory",
          "name": "_directory",
          "type": "address"
        },
        {
          "internalType": "contract IJBSplitsStore",
          "name": "_splitsStore",
          "type": "address"
        },
        {
          "internalType": "contract IJBPrices",
          "name": "_prices",
          "type": "address"
        },
        {
          "internalType": "contract IJBSingleTokenPaymentTerminalStore",
          "name": "_store",
          "type": "address"
        },
        {
          "internalType": "address",
          "name": "_owner",
          "type": "address"
        }
      ],
      "stateMutability": "nonpayable",
      "type": "constructor"
    },
    {
      "inputs": [],
      "name": "FEE_TOO_HIGH",
      "type": "error"
    },
    {
      "inputs": [],
      "name": "INADEQUATE_DISTRIBUTION_AMOUNT",
      "type": "error"
    },
    {
      "inputs": [],
      "name": "INADEQUATE_RECLAIM_AMOUNT",
      "type": "error"
    },
    {
      "inputs": [],
      "name": "INADEQUATE_TOKEN_COUNT",
      "type": "error"
    },
    {
      "inputs": [],
      "name": "NO_MSG_VALUE_ALLOWED",
      "type": "error"
    },
    {
      "inputs": [],
      "name": "PAY_TO_ZERO_ADDRESS",
      "type": "error"
    },
    {
      "inputs": [
        {
          "internalType": "uint256",
          "name": "prod1",
          "type": "uint256"
        },
        {
          "internalType": "uint256",
          "name": "denominator",
          "type": "uint256"
        }
      ],
      "name": "PRBMath__MulDivOverflow",
      "type": "error"
    },
    {
      "inputs": [],
      "name": "PROJECT_TERMINAL_MISMATCH",
      "type": "error"
    },
    {
      "inputs": [],
      "name": "REDEEM_TO_ZERO_ADDRESS",
      "type": "error"
    },
    {
      "inputs": [],
      "name": "TERMINAL_IN_SPLIT_ZERO_ADDRESS",
      "type": "error"
    },
    {
      "inputs": [],
      "name": "TERMINAL_TOKENS_INCOMPATIBLE",
      "type": "error"
    },
    {
      "inputs": [],
      "name": "UNAUTHORIZED",
      "type": "error"
    },
    {
      "anonymous": false,
      "inputs": [
        {
          "indexed": true,
          "internalType": "uint256",
          "name": "projectId",
          "type": "uint256"
        },
        {
          "indexed": false,
          "internalType": "uint256",
          "name": "amount",
          "type": "uint256"
        },
        {
          "indexed": false,
          "internalType": "uint256",
          "name": "refundedFees",
          "type": "uint256"
        },
        {
          "indexed": false,
          "internalType": "string",
          "name": "memo",
          "type": "string"
        },
        {
          "indexed": false,
          "internalType": "bytes",
          "name": "metadata",
          "type": "bytes"
        },
        {
          "indexed": false,
          "internalType": "address",
          "name": "caller",
          "type": "address"
        }
      ],
      "name": "AddToBalance",
      "type": "event"
    },
    {
      "anonymous": false,
      "inputs": [
        {
          "indexed": true,
          "internalType": "contract IJBPayDelegate",
          "name": "delegate",
          "type": "address"
        },
        {
          "components": [
            {
              "internalType": "address",
              "name": "payer",
              "type": "address"
            },
            {
              "internalType": "uint256",
              "name": "projectId",
              "type": "uint256"
            },
            {
              "internalType": "uint256",
              "name": "currentFundingCycleConfiguration",
              "type": "uint256"
            },
            {
              "components": [
                {
                  "internalType": "address",
                  "name": "token",
                  "type": "address"
                },
                {
                  "internalType": "uint256",
                  "name": "value",
                  "type": "uint256"
                },
                {
                  "internalType": "uint256",
                  "name": "decimals",
                  "type": "uint256"
                },
                {
                  "internalType": "uint256",
                  "name": "currency",
                  "type": "uint256"
                }
              ],
              "internalType": "struct JBTokenAmount",
              "name": "amount",
              "type": "tuple"
            },
            {
              "internalType": "uint256",
              "name": "projectTokenCount",
              "type": "uint256"
            },
            {
              "internalType": "address",
              "name": "beneficiary",
              "type": "address"
            },
            {
              "internalType": "bool",
              "name": "preferClaimedTokens",
              "type": "bool"
            },
            {
              "internalType": "string",
              "name": "memo",
              "type": "string"
            },
            {
              "internalType": "bytes",
              "name": "metadata",
              "type": "bytes"
            }
          ],
          "indexed": false,
          "internalType": "struct JBDidPayData",
          "name": "data",
          "type": "tuple"
        },
        {
          "indexed": false,
          "internalType": "address",
          "name": "caller",
          "type": "address"
        }
      ],
      "name": "DelegateDidPay",
      "type": "event"
    },
    {
      "anonymous": false,
      "inputs": [
        {
          "indexed": true,
          "internalType": "contract IJBRedemptionDelegate",
          "name": "delegate",
          "type": "address"
        },
        {
          "components": [
            {
              "internalType": "address",
              "name": "holder",
              "type": "address"
            },
            {
              "internalType": "uint256",
              "name": "projectId",
              "type": "uint256"
            },
            {
              "internalType": "uint256",
              "name": "currentFundingCycleConfiguration",
              "type": "uint256"
            },
            {
              "internalType": "uint256",
              "name": "projectTokenCount",
              "type": "uint256"
            },
            {
              "components": [
                {
                  "internalType": "address",
                  "name": "token",
                  "type": "address"
                },
                {
                  "internalType": "uint256",
                  "name": "value",
                  "type": "uint256"
                },
                {
                  "internalType": "uint256",
                  "name": "decimals",
                  "type": "uint256"
                },
                {
                  "internalType": "uint256",
                  "name": "currency",
                  "type": "uint256"
                }
              ],
              "internalType": "struct JBTokenAmount",
              "name": "reclaimedAmount",
              "type": "tuple"
            },
            {
              "internalType": "address payable",
              "name": "beneficiary",
              "type": "address"
            },
            {
              "internalType": "string",
              "name": "memo",
              "type": "string"
            },
            {
              "internalType": "bytes",
              "name": "metadata",
              "type": "bytes"
            }
          ],
          "indexed": false,
          "internalType": "struct JBDidRedeemData",
          "name": "data",
          "type": "tuple"
        },
        {
          "indexed": false,
          "internalType": "address",
          "name": "caller",
          "type": "address"
        }
      ],
      "name": "DelegateDidRedeem",
      "type": "event"
    },
    {
      "anonymous": false,
      "inputs": [
        {
          "indexed": true,
          "internalType": "uint256",
          "name": "fundingCycleConfiguration",
          "type": "uint256"
        },
        {
          "indexed": true,
          "internalType": "uint256",
          "name": "fundingCycleNumber",
          "type": "uint256"
        },
        {
          "indexed": true,
          "internalType": "uint256",
          "name": "projectId",
          "type": "uint256"
        },
        {
          "indexed": false,
          "internalType": "address",
          "name": "beneficiary",
          "type": "address"
        },
        {
          "indexed": false,
          "internalType": "uint256",
          "name": "amount",
          "type": "uint256"
        },
        {
          "indexed": false,
          "internalType": "uint256",
          "name": "distributedAmount",
          "type": "uint256"
        },
        {
          "indexed": false,
          "internalType": "uint256",
          "name": "fee",
          "type": "uint256"
        },
        {
          "indexed": false,
          "internalType": "uint256",
          "name": "beneficiaryDistributionAmount",
          "type": "uint256"
        },
        {
          "indexed": false,
          "internalType": "string",
          "name": "memo",
          "type": "string"
        },
        {
          "indexed": false,
          "internalType": "address",
          "name": "caller",
          "type": "address"
        }
      ],
      "name": "DistributePayouts",
      "type": "event"
    },
    {
      "anonymous": false,
      "inputs": [
        {
          "indexed": true,
          "internalType": "uint256",
          "name": "projectId",
          "type": "uint256"
        },
        {
          "indexed": true,
          "internalType": "uint256",
          "name": "domain",
          "type": "uint256"
        },
        {
          "indexed": true,
          "internalType": "uint256",
          "name": "group",
          "type": "uint256"
        },
        {
          "components": [
            {
              "internalType": "bool",
              "name": "preferClaimed",
              "type": "bool"
            },
            {
              "internalType": "bool",
              "name": "preferAddToBalance",
              "type": "bool"
            },
            {
              "internalType": "uint256",
              "name": "percent",
              "type": "uint256"
            },
            {
              "internalType": "uint256",
              "name": "projectId",
              "type": "uint256"
            },
            {
              "internalType": "address payable",
              "name": "beneficiary",
              "type": "address"
            },
            {
              "internalType": "uint256",
              "name": "lockedUntil",
              "type": "uint256"
            },
            {
              "internalType": "contract IJBSplitAllocator",
              "name": "allocator",
              "type": "address"
            }
          ],
          "indexed": false,
          "internalType": "struct JBSplit",
          "name": "split",
          "type": "tuple"
        },
        {
          "indexed": false,
          "internalType": "uint256",
          "name": "amount",
          "type": "uint256"
        },
        {
          "indexed": false,
          "internalType": "address",
          "name": "caller",
          "type": "address"
        }
      ],
      "name": "DistributeToPayoutSplit",
      "type": "event"
    },
    {
      "anonymous": false,
      "inputs": [
        {
          "indexed": true,
          "internalType": "uint256",
          "name": "projectId",
          "type": "uint256"
        },
        {
          "indexed": true,
          "internalType": "uint256",
          "name": "amount",
          "type": "uint256"
        },
        {
          "indexed": true,
          "internalType": "uint256",
          "name": "fee",
          "type": "uint256"
        },
        {
          "indexed": false,
          "internalType": "uint256",
          "name": "feeDiscount",
          "type": "uint256"
        },
        {
          "indexed": false,
          "internalType": "address",
          "name": "beneficiary",
          "type": "address"
        },
        {
          "indexed": false,
          "internalType": "address",
          "name": "caller",
          "type": "address"
        }
      ],
      "name": "HoldFee",
      "type": "event"
    },
    {
      "anonymous": false,
      "inputs": [
        {
          "indexed": true,
          "internalType": "uint256",
          "name": "projectId",
          "type": "uint256"
        },
        {
          "indexed": true,
          "internalType": "contract IJBPaymentTerminal",
          "name": "to",
          "type": "address"
        },
        {
          "indexed": false,
          "internalType": "uint256",
          "name": "amount",
          "type": "uint256"
        },
        {
          "indexed": false,
          "internalType": "address",
          "name": "caller",
          "type": "address"
        }
      ],
      "name": "Migrate",
      "type": "event"
    },
    {
      "anonymous": false,
      "inputs": [
        {
          "indexed": true,
          "internalType": "address",
          "name": "previousOwner",
          "type": "address"
        },
        {
          "indexed": true,
          "internalType": "address",
          "name": "newOwner",
          "type": "address"
        }
      ],
      "name": "OwnershipTransferred",
      "type": "event"
    },
    {
      "anonymous": false,
      "inputs": [
        {
          "indexed": true,
          "internalType": "uint256",
          "name": "fundingCycleConfiguration",
          "type": "uint256"
        },
        {
          "indexed": true,
          "internalType": "uint256",
          "name": "fundingCycleNumber",
          "type": "uint256"
        },
        {
          "indexed": true,
          "internalType": "uint256",
          "name": "projectId",
          "type": "uint256"
        },
        {
          "indexed": false,
          "internalType": "address",
          "name": "payer",
          "type": "address"
        },
        {
          "indexed": false,
          "internalType": "address",
          "name": "beneficiary",
          "type": "address"
        },
        {
          "indexed": false,
          "internalType": "uint256",
          "name": "amount",
          "type": "uint256"
        },
        {
          "indexed": false,
          "internalType": "uint256",
          "name": "beneficiaryTokenCount",
          "type": "uint256"
        },
        {
          "indexed": false,
          "internalType": "string",
          "name": "memo",
          "type": "string"
        },
        {
          "indexed": false,
          "internalType": "bytes",
          "name": "metadata",
          "type": "bytes"
        },
        {
          "indexed": false,
          "internalType": "address",
          "name": "caller",
          "type": "address"
        }
      ],
      "name": "Pay",
      "type": "event"
    },
    {
      "anonymous": false,
      "inputs": [
        {
          "indexed": true,
          "internalType": "uint256",
          "name": "projectId",
          "type": "uint256"
        },
        {
          "indexed": true,
          "internalType": "uint256",
          "name": "amount",
          "type": "uint256"
        },
        {
          "indexed": true,
          "internalType": "bool",
          "name": "wasHeld",
          "type": "bool"
        },
        {
          "indexed": false,
          "internalType": "address",
          "name": "beneficiary",
          "type": "address"
        },
        {
          "indexed": false,
          "internalType": "address",
          "name": "caller",
          "type": "address"
        }
      ],
      "name": "ProcessFee",
      "type": "event"
    },
    {
      "anonymous": false,
      "inputs": [
        {
          "indexed": true,
          "internalType": "uint256",
          "name": "fundingCycleConfiguration",
          "type": "uint256"
        },
        {
          "indexed": true,
          "internalType": "uint256",
          "name": "fundingCycleNumber",
          "type": "uint256"
        },
        {
          "indexed": true,
          "internalType": "uint256",
          "name": "projectId",
          "type": "uint256"
        },
        {
          "indexed": false,
          "internalType": "address",
          "name": "holder",
          "type": "address"
        },
        {
          "indexed": false,
          "internalType": "address",
          "name": "beneficiary",
          "type": "address"
        },
        {
          "indexed": false,
          "internalType": "uint256",
          "name": "tokenCount",
          "type": "uint256"
        },
        {
          "indexed": false,
          "internalType": "uint256",
          "name": "reclaimedAmount",
          "type": "uint256"
        },
        {
          "indexed": false,
          "internalType": "string",
          "name": "memo",
          "type": "string"
        },
        {
          "indexed": false,
          "internalType": "bytes",
          "name": "metadata",
          "type": "bytes"
        },
        {
          "indexed": false,
          "internalType": "address",
          "name": "caller",
          "type": "address"
        }
      ],
      "name": "RedeemTokens",
      "type": "event"
    },
    {
      "anonymous": false,
      "inputs": [
        {
          "indexed": true,
          "internalType": "uint256",
          "name": "projectId",
          "type": "uint256"
        },
        {
          "indexed": true,
          "internalType": "uint256",
          "name": "amount",
          "type": "uint256"
        },
        {
          "indexed": true,
          "internalType": "uint256",
          "name": "refundedFees",
          "type": "uint256"
        },
        {
          "indexed": false,
          "internalType": "uint256",
          "name": "leftoverAmount",
          "type": "uint256"
        },
        {
          "indexed": false,
          "internalType": "address",
          "name": "caller",
          "type": "address"
        }
      ],
      "name": "RefundHeldFees",
      "type": "event"
    },
    {
      "anonymous": false,
      "inputs": [
        {
          "indexed": false,
          "internalType": "uint256",
          "name": "fee",
          "type": "uint256"
        },
        {
          "indexed": false,
          "internalType": "address",
          "name": "caller",
          "type": "address"
        }
      ],
      "name": "SetFee",
      "type": "event"
    },
    {
      "anonymous": false,
      "inputs": [
        {
          "indexed": true,
          "internalType": "contract IJBFeeGauge",
          "name": "feeGauge",
          "type": "address"
        },
        {
          "indexed": false,
          "internalType": "address",
          "name": "caller",
          "type": "address"
        }
      ],
      "name": "SetFeeGauge",
      "type": "event"
    },
    {
      "anonymous": false,
      "inputs": [
        {
          "indexed": true,
          "internalType": "address",
          "name": "addrs",
          "type": "address"
        },
        {
          "indexed": true,
          "internalType": "bool",
          "name": "flag",
          "type": "bool"
        },
        {
          "indexed": false,
          "internalType": "address",
          "name": "caller",
          "type": "address"
        }
      ],
      "name": "SetFeelessAddress",
      "type": "event"
    },
    {
      "anonymous": false,
      "inputs": [
        {
          "indexed": true,
          "internalType": "uint256",
          "name": "fundingCycleConfiguration",
          "type": "uint256"
        },
        {
          "indexed": true,
          "internalType": "uint256",
          "name": "fundingCycleNumber",
          "type": "uint256"
        },
        {
          "indexed": true,
          "internalType": "uint256",
          "name": "projectId",
          "type": "uint256"
        },
        {
          "indexed": false,
          "internalType": "address",
          "name": "beneficiary",
          "type": "address"
        },
        {
          "indexed": false,
          "internalType": "uint256",
          "name": "amount",
          "type": "uint256"
        },
        {
          "indexed": false,
          "internalType": "uint256",
          "name": "distributedAmount",
          "type": "uint256"
        },
        {
          "indexed": false,
          "internalType": "uint256",
          "name": "netDistributedamount",
          "type": "uint256"
        },
        {
          "indexed": false,
          "internalType": "string",
          "name": "memo",
          "type": "string"
        },
        {
          "indexed": false,
          "internalType": "address",
          "name": "caller",
          "type": "address"
        }
      ],
      "name": "UseAllowance",
      "type": "event"
    },
    {
      "inputs": [
        {
          "internalType": "address",
          "name": "_token",
          "type": "address"
        },
        {
          "internalType": "uint256",
          "name": "_projectId",
          "type": "uint256"
        }
      ],
      "name": "acceptsToken",
      "outputs": [
        {
          "internalType": "bool",
          "name": "",
          "type": "bool"
        }
      ],
      "stateMutability": "view",
      "type": "function"
    },
    {
      "inputs": [
        {
          "internalType": "uint256",
          "name": "_projectId",
          "type": "uint256"
        },
        {
          "internalType": "uint256",
          "name": "_amount",
          "type": "uint256"
        },
        {
          "internalType": "address",
          "name": "_token",
          "type": "address"
        },
        {
          "internalType": "string",
          "name": "_memo",
          "type": "string"
        },
        {
          "internalType": "bytes",
          "name": "_metadata",
          "type": "bytes"
        }
      ],
      "name": "addToBalanceOf",
      "outputs": [],
      "stateMutability": "payable",
      "type": "function"
    },
    {
      "inputs": [],
      "name": "baseWeightCurrency",
      "outputs": [
        {
          "internalType": "uint256",
          "name": "",
          "type": "uint256"
        }
      ],
      "stateMutability": "view",
      "type": "function"
    },
    {
      "inputs": [],
      "name": "currency",
      "outputs": [
        {
          "internalType": "uint256",
          "name": "",
          "type": "uint256"
        }
      ],
      "stateMutability": "view",
      "type": "function"
    },
    {
      "inputs": [
        {
          "internalType": "address",
          "name": "_token",
          "type": "address"
        }
      ],
      "name": "currencyForToken",
      "outputs": [
        {
          "internalType": "uint256",
          "name": "",
          "type": "uint256"
        }
      ],
      "stateMutability": "view",
      "type": "function"
    },
    {
      "inputs": [
        {
          "internalType": "uint256",
          "name": "_projectId",
          "type": "uint256"
        }
      ],
      "name": "currentEthOverflowOf",
      "outputs": [
        {
          "internalType": "uint256",
          "name": "",
          "type": "uint256"
        }
      ],
      "stateMutability": "view",
      "type": "function"
    },
    {
      "inputs": [],
      "name": "decimals",
      "outputs": [
        {
          "internalType": "uint256",
          "name": "",
          "type": "uint256"
        }
      ],
      "stateMutability": "view",
      "type": "function"
    },
    {
      "inputs": [
        {
          "internalType": "address",
          "name": "_token",
          "type": "address"
        }
      ],
      "name": "decimalsForToken",
      "outputs": [
        {
          "internalType": "uint256",
          "name": "",
          "type": "uint256"
        }
      ],
      "stateMutability": "view",
      "type": "function"
    },
    {
      "inputs": [],
      "name": "directory",
      "outputs": [
        {
          "internalType": "contract IJBDirectory",
          "name": "",
          "type": "address"
        }
      ],
      "stateMutability": "view",
      "type": "function"
    },
    {
      "inputs": [
        {
          "internalType": "uint256",
          "name": "_projectId",
          "type": "uint256"
        },
        {
          "internalType": "uint256",
          "name": "_amount",
          "type": "uint256"
        },
        {
          "internalType": "uint256",
          "name": "_currency",
          "type": "uint256"
        },
        {
          "internalType": "address",
          "name": "_token",
          "type": "address"
        },
        {
          "internalType": "uint256",
          "name": "_minReturnedTokens",
          "type": "uint256"
        },
        {
          "internalType": "string",
          "name": "_memo",
          "type": "string"
        }
      ],
      "name": "distributePayoutsOf",
      "outputs": [
        {
          "internalType": "uint256",
          "name": "netLeftoverDistributionAmount",
          "type": "uint256"
        }
      ],
      "stateMutability": "nonpayable",
      "type": "function"
    },
    {
      "inputs": [],
      "name": "fee",
      "outputs": [
        {
          "internalType": "uint256",
          "name": "",
          "type": "uint256"
        }
      ],
      "stateMutability": "view",
      "type": "function"
    },
    {
      "inputs": [],
      "name": "feeGauge",
      "outputs": [
        {
          "internalType": "contract IJBFeeGauge",
          "name": "",
          "type": "address"
        }
      ],
      "stateMutability": "view",
      "type": "function"
    },
    {
      "inputs": [
        {
          "internalType": "uint256",
          "name": "_projectId",
          "type": "uint256"
        }
      ],
      "name": "heldFeesOf",
      "outputs": [
        {
          "components": [
            {
              "internalType": "uint256",
              "name": "amount",
              "type": "uint256"
            },
            {
              "internalType": "uint32",
              "name": "fee",
              "type": "uint32"
            },
            {
              "internalType": "uint32",
              "name": "feeDiscount",
              "type": "uint32"
            },
            {
              "internalType": "address",
              "name": "beneficiary",
              "type": "address"
            }
          ],
          "internalType": "struct JBFee[]",
          "name": "",
          "type": "tuple[]"
        }
      ],
      "stateMutability": "view",
      "type": "function"
    },
    {
      "inputs": [
        {
          "internalType": "address",
          "name": "",
          "type": "address"
        }
      ],
      "name": "isFeelessAddress",
      "outputs": [
        {
          "internalType": "bool",
          "name": "",
          "type": "bool"
        }
      ],
      "stateMutability": "view",
      "type": "function"
    },
    {
      "inputs": [
        {
          "internalType": "uint256",
          "name": "_projectId",
          "type": "uint256"
        },
        {
          "internalType": "contract IJBPaymentTerminal",
          "name": "_to",
          "type": "address"
        }
      ],
      "name": "migrate",
      "outputs": [
        {
          "internalType": "uint256",
          "name": "balance",
          "type": "uint256"
        }
      ],
      "stateMutability": "nonpayable",
      "type": "function"
    },
    {
      "inputs": [],
      "name": "operatorStore",
      "outputs": [
        {
          "internalType": "contract IJBOperatorStore",
          "name": "",
          "type": "address"
        }
      ],
      "stateMutability": "view",
      "type": "function"
    },
    {
      "inputs": [],
      "name": "owner",
      "outputs": [
        {
          "internalType": "address",
          "name": "",
          "type": "address"
        }
      ],
      "stateMutability": "view",
      "type": "function"
    },
    {
      "inputs": [
        {
          "internalType": "uint256",
          "name": "_projectId",
          "type": "uint256"
        },
        {
          "internalType": "uint256",
          "name": "_amount",
          "type": "uint256"
        },
        {
          "internalType": "address",
          "name": "_token",
          "type": "address"
        },
        {
          "internalType": "address",
          "name": "_beneficiary",
          "type": "address"
        },
        {
          "internalType": "uint256",
          "name": "_minReturnedTokens",
          "type": "uint256"
        },
        {
          "internalType": "bool",
          "name": "_preferClaimedTokens",
          "type": "bool"
        },
        {
          "internalType": "string",
          "name": "_memo",
          "type": "string"
        },
        {
          "internalType": "bytes",
          "name": "_metadata",
          "type": "bytes"
        }
      ],
      "name": "pay",
      "outputs": [
        {
          "internalType": "uint256",
          "name": "",
          "type": "uint256"
        }
      ],
      "stateMutability": "payable",
      "type": "function"
    },
    {
      "inputs": [],
      "name": "payoutSplitsGroup",
      "outputs": [
        {
          "internalType": "uint256",
          "name": "",
          "type": "uint256"
        }
      ],
      "stateMutability": "view",
      "type": "function"
    },
    {
      "inputs": [],
      "name": "prices",
      "outputs": [
        {
          "internalType": "contract IJBPrices",
          "name": "",
          "type": "address"
        }
      ],
      "stateMutability": "view",
      "type": "function"
    },
    {
      "inputs": [
        {
          "internalType": "uint256",
          "name": "_projectId",
          "type": "uint256"
        }
      ],
      "name": "processFees",
      "outputs": [],
      "stateMutability": "nonpayable",
      "type": "function"
    },
    {
      "inputs": [],
      "name": "projects",
      "outputs": [
        {
          "internalType": "contract IJBProjects",
          "name": "",
          "type": "address"
        }
      ],
      "stateMutability": "view",
      "type": "function"
    },
    {
      "inputs": [
        {
          "internalType": "address",
          "name": "_holder",
          "type": "address"
        },
        {
          "internalType": "uint256",
          "name": "_projectId",
          "type": "uint256"
        },
        {
          "internalType": "uint256",
          "name": "_tokenCount",
          "type": "uint256"
        },
        {
          "internalType": "address",
          "name": "_token",
          "type": "address"
        },
        {
          "internalType": "uint256",
          "name": "_minReturnedTokens",
          "type": "uint256"
        },
        {
          "internalType": "address payable",
          "name": "_beneficiary",
          "type": "address"
        },
        {
          "internalType": "string",
          "name": "_memo",
          "type": "string"
        },
        {
          "internalType": "bytes",
          "name": "_metadata",
          "type": "bytes"
        }
      ],
      "name": "redeemTokensOf",
      "outputs": [
        {
          "internalType": "uint256",
          "name": "reclaimAmount",
          "type": "uint256"
        }
      ],
      "stateMutability": "nonpayable",
      "type": "function"
    },
    {
      "inputs": [],
      "name": "renounceOwnership",
      "outputs": [],
      "stateMutability": "nonpayable",
      "type": "function"
    },
    {
      "inputs": [
        {
          "internalType": "uint256",
          "name": "_fee",
          "type": "uint256"
        }
      ],
      "name": "setFee",
      "outputs": [],
      "stateMutability": "nonpayable",
      "type": "function"
    },
    {
      "inputs": [
        {
          "internalType": "contract IJBFeeGauge",
          "name": "_feeGauge",
          "type": "address"
        }
      ],
      "name": "setFeeGauge",
      "outputs": [],
      "stateMutability": "nonpayable",
      "type": "function"
    },
    {
      "inputs": [
        {
          "internalType": "address",
          "name": "_address",
          "type": "address"
        },
        {
          "internalType": "bool",
          "name": "_flag",
          "type": "bool"
        }
      ],
      "name": "setFeelessAddress",
      "outputs": [],
      "stateMutability": "nonpayable",
      "type": "function"
    },
    {
      "inputs": [],
      "name": "splitsStore",
      "outputs": [
        {
          "internalType": "contract IJBSplitsStore",
          "name": "",
          "type": "address"
        }
      ],
      "stateMutability": "view",
      "type": "function"
    },
    {
      "inputs": [],
      "name": "store",
      "outputs": [
        {
          "internalType": "contract IJBSingleTokenPaymentTerminalStore",
          "name": "",
          "type": "address"
        }
      ],
      "stateMutability": "view",
      "type": "function"
    },
    {
      "inputs": [
        {
          "internalType": "bytes4",
          "name": "_interfaceId",
          "type": "bytes4"
        }
      ],
      "name": "supportsInterface",
      "outputs": [
        {
          "internalType": "bool",
          "name": "",
          "type": "bool"
        }
      ],
      "stateMutability": "view",
      "type": "function"
    },
    {
      "inputs": [],
      "name": "token",
      "outputs": [
        {
          "internalType": "address",
          "name": "",
          "type": "address"
        }
      ],
      "stateMutability": "view",
      "type": "function"
    },
    {
      "inputs": [
        {
          "internalType": "address",
          "name": "newOwner",
          "type": "address"
        }
      ],
      "name": "transferOwnership",
      "outputs": [],
      "stateMutability": "nonpayable",
      "type": "function"
    },
    {
      "inputs": [
        {
          "internalType": "uint256",
          "name": "_projectId",
          "type": "uint256"
        },
        {
          "internalType": "uint256",
          "name": "_amount",
          "type": "uint256"
        },
        {
          "internalType": "uint256",
          "name": "_currency",
          "type": "uint256"
        },
        {
          "internalType": "address",
          "name": "_token",
          "type": "address"
        },
        {
          "internalType": "uint256",
          "name": "_minReturnedTokens",
          "type": "uint256"
        },
        {
          "internalType": "address payable",
          "name": "_beneficiary",
          "type": "address"
        },
        {
          "internalType": "string",
          "name": "_memo",
          "type": "string"
        }
      ],
      "name": "useAllowanceOf",
      "outputs": [
        {
          "internalType": "uint256",
          "name": "netDistributedAmount",
          "type": "uint256"
        }
      ],
      "stateMutability": "nonpayable",
      "type": "function"
    }
  ],
  "bytecode": {
    "object": "0x6101e060405263017d78406003553480156200001a57600080fd5b506040516200535b3803806200535b8339810160408190526200003d9162000219565b6deeee000000000000000000000000608052601260a0819052600160c0819052606089901b6001600160601b03191660e05261eeee91908a818b8b8b8b8b8b8b6200008833620000f4565b600180556101a08990526101c08890526001600160601b0319606087811b82166101005286811b82166101205285811b82166101405284811b82166101605283901b1661018052620000da8162000144565b5050505050505050505050505050505050505050620002e4565b600080546001600160a01b038381166001600160a01b0319831681178455604051919092169283917f8be0079c531659141344cd1fd0a4f28419497f9722a3daafe3b4186f6b6457e09190a35050565b6000546001600160a01b03163314620001a45760405162461bcd60e51b815260206004820181905260248201527f4f776e61626c653a2063616c6c6572206973206e6f7420746865206f776e657260448201526064015b60405180910390fd5b6001600160a01b0381166200020b5760405162461bcd60e51b815260206004820152602660248201527f4f776e61626c653a206e6577206f776e657220697320746865207a65726f206160448201526564647265737360d01b60648201526084016200019b565b6200021681620000f4565b50565b600080600080600080600080610100898b0312156200023757600080fd5b8851975060208901516200024b81620002ce565b60408a01519097506200025e81620002ce565b60608a01519096506200027181620002ce565b60808a01519095506200028481620002ce565b60a08a01519094506200029781620002ce565b60c08a0151909350620002aa81620002ce565b60e08a0151909250620002bd81620002ce565b809150509295985092959890939650565b6001600160a01b03811681146200021657600080fd5b60805160601c60a05160c05160e05160601c6101005160601c6101205160601c6101405160601c6101605160601c6101805160601c6101a0516101c051614e4562000516600039600081816103c40152611f5401526000818161031c0152611a1d0152600081816104ec01528181610d2b0152818161142b01528181611859015281816119eb01528181611dca0152818161274c01526129a801526000818161063801526115bf0152600081816102d001526134270152600081816106040152818161083b015281816109fd01528181611add0152818161242f01528181612a82015281816132ba01526136b301526000818161049a01528181610bc8015281816110c60152818161166e01528181611e85015261281101526000818161054001528181612067015281816121120152818161224301526122ee01526000818161025b015281816106f00152818161150a0152818161156c015281816119c50152612c2f015260008181610350015281816105b0015281816114ab015281816114d701528181611537015281816115990152818161199f01528181612c0901526135ea0152600081816106ae01528181610744015281816108dc01528181610a9601528181610c6f01528181610dbb01528181610e2e0152818161196a01528181612404015281816124f20152818161256701528181612bd40152818161328d0152818161356b015281816135b5015281816136e0015281816138d30152818161398c0152613a050152614e456000f3fe6080604052600436106101ee5760003560e01c80638b79543c1161010d578063c41c2f24116100a0578063df21a7dd1161006f578063df21a7dd14610690578063e5a6b10f146106de578063f2fde38b14610712578063fc0c546a14610732578063fe663f0f1461076657600080fd5b8063c41c2f24146105f2578063d3419bf314610626578063d6dacc531461065a578063ddca3f431461067a57600080fd5b8063ad007d63116100dc578063ad007d631461052e578063b631b50014610562578063b7bad1b114610592578063bc8926e9146105d257600080fd5b80638b79543c146104885780638da5cb5b146104bc578063975057e7146104da578063a32e1e961461050e57600080fd5b8063405b84fa11610185578063715018a611610154578063715018a6146104065780637258002c1461041b57806389701db51461043b5780638af560941461045b57600080fd5b8063405b84fa14610372578063637913ac1461039257806366248b86146103b257806369fe0e2d146103e657600080fd5b80632b267b4e116101c15780632b267b4e1461029e5780632bdfe004146102be5780632d1a59031461030a578063313ce5671461033e57600080fd5b806301ffc9a7146101f35780630cf8e858146102285780631982d6791461023d5780631ebc263f1461028b575b600080fd5b3480156101ff57600080fd5b5061021361020e3660046141c2565b610786565b60405190151581526020015b60405180910390f35b61023b6102363660046143aa565b61081d565b005b34801561024957600080fd5b5061027d610258366004613f27565b507f000000000000000000000000000000000000000000000000000000000000000090565b60405190815260200161021f565b61027d6102993660046142e2565b6109d4565b3480156102aa57600080fd5b5061027d6102b93660046144c9565b610b93565b3480156102ca57600080fd5b506102f27f000000000000000000000000000000000000000000000000000000000000000081565b6040516001600160a01b03909116815260200161021f565b34801561031657600080fd5b5061027d7f000000000000000000000000000000000000000000000000000000000000000081565b34801561034a57600080fd5b5061027d7f000000000000000000000000000000000000000000000000000000000000000081565b34801561037e57600080fd5b5061027d61038d3660046142bd565b610baf565b34801561039e57600080fd5b5061023b6103ad366004613f27565b610ed8565b3480156103be57600080fd5b5061027d7f000000000000000000000000000000000000000000000000000000000000000081565b3480156103f257600080fd5b5061023b61040136600461428b565b610f5f565b34801561041257600080fd5b5061023b610fee565b34801561042757600080fd5b5061023b610436366004613f61565b611024565b34801561044757600080fd5b5061023b61045636600461428b565b6110b0565b34801561046757600080fd5b5061047b61047636600461428b565b611355565b60405161021f91906148ed565b34801561049457600080fd5b506102f27f000000000000000000000000000000000000000000000000000000000000000081565b3480156104c857600080fd5b506000546001600160a01b03166102f2565b3480156104e657600080fd5b506102f27f000000000000000000000000000000000000000000000000000000000000000081565b34801561051a57600080fd5b5061027d61052936600461428b565b611402565b34801561053a57600080fd5b506102f27f000000000000000000000000000000000000000000000000000000000000000081565b34801561056e57600080fd5b5061021361057d366004613f27565b60056020526000908152604090205460ff1681565b34801561059e57600080fd5b5061027d6105ad366004613f27565b507f000000000000000000000000000000000000000000000000000000000000000090565b3480156105de57600080fd5b5061027d6105ed366004614440565b611655565b3480156105fe57600080fd5b506102f27f000000000000000000000000000000000000000000000000000000000000000081565b34801561063257600080fd5b506102f27f000000000000000000000000000000000000000000000000000000000000000081565b34801561066657600080fd5b506004546102f2906001600160a01b031681565b34801561068657600080fd5b5061027d60035481565b34801561069c57600080fd5b506102136106ab366004613f9a565b507f00000000000000000000000000000000000000000000000000000000000000006001600160a01b0390811691161490565b3480156106ea57600080fd5b5061027d7f000000000000000000000000000000000000000000000000000000000000000081565b34801561071e57600080fd5b5061023b61072d366004613f27565b61171b565b34801561073e57600080fd5b506102f27f000000000000000000000000000000000000000000000000000000000000000081565b34801561077257600080fd5b5061027d610781366004613fc6565b6117b6565b60006001600160e01b0319821663edb527eb60e01b14806107b757506001600160e01b031982166315933da760e11b145b806107d257506001600160e01b0319821663bc8926e960e01b145b806107ed57506001600160e01b0319821663fe663f0f60e01b145b8061080857506001600160e01b0319821663ad007d6360e01b145b806108175750610817826117d6565b92915050565b604051636e49181f60e01b81526004810188905230602482015287907f00000000000000000000000000000000000000000000000000000000000000006001600160a01b031690636e49181f9060440160206040518083038186803b15801561088557600080fd5b505afa158015610899573d6000803e3d6000fd5b505050506040513d601f19601f820116820180604052508101906108bd91906141a5565b6108da57604051631b1d5a5960e31b815260040160405180910390fd5b7f00000000000000000000000000000000000000000000000000000000000000006001600160a01b031661eeee1461093b57341561092b57604051635e7e9adf60e11b815260040160405180910390fd5b610936333089611826565b61093f565b3496505b33600090815260056020908152604091829020548251601f88018390048302810183019093528683526109ca928b928b9260ff161591908a908a908190840183828082843760009201919091525050604080516020601f8c018190048102820181019092528a815292508a915089908190840183828082843760009201919091525061183592505050565b5050505050505050565b604051636e49181f60e01b8152600481018b90523060248201526000908b906001600160a01b037f00000000000000000000000000000000000000000000000000000000000000001690636e49181f9060440160206040518083038186803b158015610a3f57600080fd5b505afa158015610a53573d6000803e3d6000fd5b505050506040513d601f19601f82011682018060405250810190610a7791906141a5565b610a9457604051631b1d5a5960e31b815260040160405180910390fd5b7f00000000000000000000000000000000000000000000000000000000000000006001600160a01b031661eeee14610af5573415610ae557604051635e7e9adf60e11b815260040160405180910390fd5b610af033308d611826565b610af9565b349a505b610b838b338e8c8c8c8c8c8080601f016020809104026020016040519081016040528093929190818152602001838380828437600081840152601f19601f820116905080830192505050505050508b8b8080601f01602080910402602001604051908101604052809392919081815260200183838082843760009201919091525061192792505050565b9c9b505050505050505050505050565b6000610ba3888888878787611d97565b98975050505050505050565b6040516331a9108f60e11b8152600481018390526000907f00000000000000000000000000000000000000000000000000000000000000006001600160a01b031690636352211e9060240160206040518083038186803b158015610c1257600080fd5b505afa158015610c26573d6000803e3d6000fd5b505050506040513d601f19601f82011682018060405250810190610c4a9190613f44565b836004610c5883838361203c565b60405163df21a7dd60e01b81526001600160a01b037f0000000000000000000000000000000000000000000000000000000000000000811660048301526024820188905286169063df21a7dd9060440160206040518083038186803b158015610cc057600080fd5b505afa158015610cd4573d6000803e3d6000fd5b505050506040513d601f19601f82011682018060405250810190610cf891906141a5565b610d155760405163581010ed60e01b815260040160405180910390fd5b604051636bb6a5ad60e01b8152600481018790527f00000000000000000000000000000000000000000000000000000000000000006001600160a01b031690636bb6a5ad90602401602060405180830381600087803b158015610d7757600080fd5b505af1158015610d8b573d6000803e3d6000fd5b505050506040513d601f19601f82011682018060405250810190610daf91906142a4565b93508315610e8a5760007f00000000000000000000000000000000000000000000000000000000000000006001600160a01b031661eeee14610df2576000610df4565b845b6040805160208101825260008152905163019f1d0b60e31b81529192506001600160a01b03881691630cf8e858918491610e56918c918b917f000000000000000000000000000000000000000000000000000000000000000091600401614ad6565b6000604051808303818588803b158015610e6f57600080fd5b505af1158015610e83573d6000803e3d6000fd5b5050505050505b604080518581523360208201526001600160a01b0387169188917fa7519e5f94697b7f53e97c5eb46a0c730a296ab686ab8fd333835c5f735784eb910160405180910390a350505092915050565b6000546001600160a01b03163314610f0b5760405162461bcd60e51b8152600401610f0290614963565b60405180910390fd5b600480546001600160a01b0319166001600160a01b0383169081179091556040513381527f0a9a80fe9716605b3e52abb3d792d6a4e7816d6afc02a5a4ef023081feaf9f609060200160405180910390a250565b6000546001600160a01b03163314610f895760405162461bcd60e51b8152600401610f0290614963565b6302faf080811115610fae576040516345fbd9c160e01b815260040160405180910390fd5b6003819055604080518281523360208201527fd7414e590e1cb532989ab2a34c8f4c2c17f7ab6f006efeeaef2e87cd5008c202910160405180910390a150565b6000546001600160a01b031633146110185760405162461bcd60e51b8152600401610f0290614963565b61102260006121be565b565b6000546001600160a01b0316331461104e5760405162461bcd60e51b8152600401610f0290614963565b6001600160a01b038216600081815260056020908152604091829020805460ff191685151590811790915591513381529192917fa2653e25a502c023a5830d0de847ef6f458387865b1f4f575d7594f9f2c0d71e910160405180910390a35050565b6040516331a9108f60e11b8152600481018290527f00000000000000000000000000000000000000000000000000000000000000006001600160a01b031690636352211e9060240160206040518083038186803b15801561111057600080fd5b505afa158015611124573d6000803e3d6000fd5b505050506040513d601f19601f820116820180604052508101906111489190613f44565b81600561115d6000546001600160a01b031690565b6001600160a01b0316336001600160a01b03161461117d8484848461220e565b600085815260026020908152604080832080548251818502810185019093528083529192909190849084015b8282101561121657600084815260209081902060408051608081018252600286029092018054835260019081015463ffffffff8082168587015264010000000082041692840192909252600160401b9091046001600160a01b0316606083015290835290920191016111a9565b5050506000888152600260205260408120929350611235929150613d17565b805160005b818110156109ca5760006112b284838151811061125957611259614dc0565b60200260200101516000015185848151811061127757611277614dc0565b60200260200101516020015163ffffffff1686858151811061129b5761129b614dc0565b60200260200101516040015163ffffffff166123a0565b90506112db818584815181106112ca576112ca614dc0565b6020026020010151606001516123e6565b60011515818a7fcf0c92a2c6d7c42f488326b0cb900104b99984b6b218db81cd29371364a3525187868151811061131457611314614dc0565b602002602001015160600151336040516113449291906001600160a01b0392831681529116602082015260400190565b60405180910390a45060010161123a565b606060026000838152602001908152602001600020805480602002602001604051908101604052809291908181526020016000905b828210156113f757600084815260209081902060408051608081018252600286029092018054835260019081015463ffffffff8082168587015264010000000082041692840192909252600160401b9091046001600160a01b03166060830152908352909201910161138a565b505050509050919050565b60405163035240c760e61b81523060048201526024810182905260009081906001600160a01b037f0000000000000000000000000000000000000000000000000000000000000000169063d49031c09060440160206040518083038186803b15801561146d57600080fd5b505afa158015611481573d6000803e3d6000fd5b505050506040513d601f19601f820116820180604052508101906114a591906142a4565b905060007f0000000000000000000000000000000000000000000000000000000000000000601214611502576114fd827f000000000000000000000000000000000000000000000000000000000000000060126125ed565b611504565b815b905060017f00000000000000000000000000000000000000000000000000000000000000001461164b576116468161155d7f0000000000000000000000000000000000000000000000000000000000000000600a614c8a565b604051635268657960e11b81527f00000000000000000000000000000000000000000000000000000000000000006004820152600160248201527f000000000000000000000000000000000000000000000000000000000000000060448201527f00000000000000000000000000000000000000000000000000000000000000006001600160a01b03169063a4d0caf29060640160206040518083038186803b15801561160957600080fd5b505afa15801561161d573d6000803e3d6000fd5b505050506040513d601f19601f8201168201806040525081019061164191906142a4565b61264b565b61164d565b805b949350505050565b6040516331a9108f60e11b8152600481018890526000907f00000000000000000000000000000000000000000000000000000000000000006001600160a01b031690636352211e9060240160206040518083038186803b1580156116b857600080fd5b505afa1580156116cc573d6000803e3d6000fd5b505050506040513d601f19601f820116820180604052508101906116f09190613f44565b8860116116fe83838361203c565b61170c8b8b8b8a8a8a612719565b9b9a5050505050505050505050565b6000546001600160a01b031633146117455760405162461bcd60e51b8152600401610f0290614963565b6001600160a01b0381166117aa5760405162461bcd60e51b815260206004820152602660248201527f4f776e61626c653a206e6577206f776e657220697320746865207a65726f206160448201526564647265737360d01b6064820152608401610f02565b6117b3816121be565b50565b6000888860026117c783838361203c565b610b838c8c8c8b8b8b8b61295d565b60006001600160e01b0319821663301cdc3960e21b148061180757506001600160e01b0319821663144b000160e11b145b8061081757506301ffc9a760e01b6001600160e01b0319831614610817565b6118308282612d80565b505050565b60008361184357600061184d565b61184d8686612e99565b90506001600160a01b037f00000000000000000000000000000000000000000000000000000000000000001663e7c8e3e3876118898489614c0d565b6040516001600160e01b031960e085901b16815260048101929092526024820152604401600060405180830381600087803b1580156118c757600080fd5b505af11580156118db573d6000803e3d6000fd5b50505050857f9ecaf7fc3dfffd6867c175d6e684b1f1e3aef019398ba8db2c1ffab4a09db2538683868633604051611917959493929190614b1b565b60405180910390a2505050505050565b60006001600160a01b0386166119505760405163a762251360e01b815260040160405180910390fd5b611958613d38565b600080600060405180608001604052807f00000000000000000000000000000000000000000000000000000000000000006001600160a01b031681526020018e81526020017f000000000000000000000000000000000000000000000000000000000000000081526020017f000000000000000000000000000000000000000000000000000000000000000081525090507f00000000000000000000000000000000000000000000000000000000000000006001600160a01b0316632fa1b3918d838e7f00000000000000000000000000000000000000000000000000000000000000008f8d8d6040518863ffffffff1660e01b8152600401611a619796959493929190614842565b600060405180830381600087803b158015611a7b57600080fd5b505af1158015611a8f573d6000803e3d6000fd5b505050506040513d6000823e601f3d908101601f19168201604052611ab7919081019061421b565b995091955090935091508115611c0a57604051632eec7b5560e11b8152600481018c90527f00000000000000000000000000000000000000000000000000000000000000006001600160a01b031690635dd8f6aa9060240160206040518083038186803b158015611b2757600080fd5b505afa158015611b3b573d6000803e3d6000fd5b505050506040513d601f19601f82011682018060405250810190611b5f9190613f44565b604051638ae9c07b60e01b8152600481018d9052602481018490526001600160a01b038c8116604483015260c06064830152600060c48301528a15156084830152600160a48301529190911690638ae9c07b9060e401602060405180830381600087803b158015611bcf57600080fd5b505af1158015611be3573d6000803e3d6000fd5b505050506040513d601f19601f82011682018060405250810190611c0791906142a4565b94505b88851015611c2b57604051633dca309360e11b815260040160405180910390fd5b6001600160a01b03831615611d395760006040518061012001604052808e6001600160a01b031681526020018d8152602001866020015181526020018381526020018781526020018c6001600160a01b031681526020018a15158152602001898152602001888152509050836001600160a01b031663304b1eea826040518263ffffffff1660e01b8152600401611cc29190614998565b600060405180830381600087803b158015611cdc57600080fd5b505af1158015611cf0573d6000803e3d6000fd5b50505050836001600160a01b03167fdcbcf946bdc8fbe709377d507c6a207221aecd117c05690f674af73d923cdb548233604051611d2f9291906149ab565b60405180910390a2505b50505087816000015182602001517f133161f1c9161488f777ab9a26aae91d47c0d9a3fafb398960f138db02c737978c8b8f888b8b33604051611d8297969594939291906147b9565b60405180910390a45098975050505050505050565b60405163c664459760e01b8152600481018790526024810186905260448101859052600090819081906001600160a01b037f0000000000000000000000000000000000000000000000000000000000000000169063c66445979060640161014060405180830381600087803b158015611e0f57600080fd5b505af1158015611e23573d6000803e3d6000fd5b505050506040513d601f19601f82011682018060405250810190611e4791906141ec565b9150915085811015611e6c5760405163b01493c160e01b815260040160405180910390fd5b6040516331a9108f60e11b8152600481018a90526000907f00000000000000000000000000000000000000000000000000000000000000006001600160a01b031690636352211e9060240160206040518083038186803b158015611ecf57600080fd5b505afa158015611ee3573d6000803e3d6000fd5b505050506040513d601f19601f82011682018060405250810190611f079190613f44565b905060008060035460001480611f2c57503360009081526005602052604090205460ff165b611f3e57611f398c61326f565b611f44565b633b9aca005b9050600080611f7a8e88602001517f000000000000000000000000000000000000000000000000000000000000000089876133fc565b810192509050633b9aca00831480611f90575081155b611fa657611fa18e88848887613b99565b611fa9565b60005b93508015611fc557611fbe81600354856123a0565b8103611fc8565b60005b97508715611fdb57611fdb30868a611826565b5050508a846000015185602001517f24352f49df447b14e0e08a323625c663d865ce20c343c4638af12e1dc48aa760858e88878c8f8f33604051612026989796959493929190614756565b60405180910390a4505050509695505050505050565b336001600160a01b038416148015906120f4575060405163c161c93f60e01b81526001600160a01b037f0000000000000000000000000000000000000000000000000000000000000000169063c161c93f906120a2903390879087908790600401614819565b60206040518083038186803b1580156120ba57600080fd5b505afa1580156120ce573d6000803e3d6000fd5b505050506040513d601f19601f820116820180604052508101906120f291906141a5565b155b80156121a0575060405163c161c93f60e01b81526001600160a01b037f0000000000000000000000000000000000000000000000000000000000000000169063c161c93f9061214e90339087906000908790600401614819565b60206040518083038186803b15801561216657600080fd5b505afa15801561217a573d6000803e3d6000fd5b505050506040513d601f19601f8201168201806040525081019061219e91906141a5565b155b156118305760405163075fd2b160e01b815260040160405180910390fd5b600080546001600160a01b038381166001600160a01b0319831681178455604051919092169283917f8be0079c531659141344cd1fd0a4f28419497f9722a3daafe3b4186f6b6457e09190a35050565b801580156122255750336001600160a01b03851614155b80156122d0575060405163c161c93f60e01b81526001600160a01b037f0000000000000000000000000000000000000000000000000000000000000000169063c161c93f9061227e903390889088908890600401614819565b60206040518083038186803b15801561229657600080fd5b505afa1580156122aa573d6000803e3d6000fd5b505050506040513d601f19601f820116820180604052508101906122ce91906141a5565b155b801561237c575060405163c161c93f60e01b81526001600160a01b037f0000000000000000000000000000000000000000000000000000000000000000169063c161c93f9061232a90339088906000908890600401614819565b60206040518083038186803b15801561234257600080fd5b505afa158015612356573d6000803e3d6000fd5b505050506040513d601f19601f8201168201806040525081019061237a91906141a5565b155b1561239a5760405163075fd2b160e01b815260040160405180910390fd5b50505050565b6000806123b28484633b9aca0061264b565b6123bc9085614d51565b90506123d185633b9aca006116418185614c0d565b6123db9086614d51565b9150505b9392505050565b604051630862026560e41b8152600160048201526001600160a01b037f0000000000000000000000000000000000000000000000000000000000000000811660248301526000917f00000000000000000000000000000000000000000000000000000000000000009091169063862026509060440160206040518083038186803b15801561247357600080fd5b505afa158015612487573d6000803e3d6000fd5b505050506040513d601f19601f820116820180604052508101906124ab9190613f44565b90506001600160a01b0381163014156124ee5761239a83306001856000806040518060200160405280600081525060405180602001604052806000815250611927565b60007f00000000000000000000000000000000000000000000000000000000000000006001600160a01b031661eeee1461252957600061252b565b835b6040805160208101825260008082529151631ebc263f60e01b81529293506001600160a01b03851692631ebc263f928592612594926001928b927f0000000000000000000000000000000000000000000000000000000000000000928c92918291600401614a7e565b6020604051808303818588803b1580156125ad57600080fd5b505af11580156125c1573d6000803e3d6000fd5b50505050506040513d601f19601f820116820180604052508101906125e691906142a4565b5050505050565b6000828214156125fe5750826123df565b8282111561262c576126108383614d51565b61261b90600a614c8a565b6126259085614d32565b90506123df565b6126368284614d51565b61264190600a614c8a565b6126259085614c25565b6000808060001985870985870292508281108382030391505080600014156126865783828161267c5761267c614daa565b04925050506123df565b8381106126b057604051631dcf306360e21b81526004810182905260248101859052604401610f02565b60008486880960026001871981018816978890046003810283188082028403028082028403028082028403028082028403028082028403029081029092039091026000889003889004909101858311909403939093029303949094049190911702949350505050565b604051632538671560e01b8152600481018790526024810186905260448101859052600090819081906001600160a01b037f0000000000000000000000000000000000000000000000000000000000000000169063253867159060640161014060405180830381600087803b15801561279157600080fd5b505af11580156127a5573d6000803e3d6000fd5b505050506040513d601f19601f820116820180604052508101906127c991906141ec565b91509150858110156127ee5760405163b01493c160e01b815260040160405180910390fd5b6040516331a9108f60e11b8152600481018a905260009081906001600160a01b037f00000000000000000000000000000000000000000000000000000000000000001690636352211e9060240160206040518083038186803b15801561285357600080fd5b505afa158015612867573d6000803e3d6000fd5b505050506040513d601f19601f8201168201806040525081019061288b9190613f44565b90506000600354600014806128af57503360009081526005602052604090205460ff165b6128c1576128bc8c61326f565b6128c7565b633b9aca005b9050633b9aca0081146128e6576128e18c86868585613b99565b6128e9565b60005b8085039650925083831461290257612902308988611826565b50505088826000015183602001517f8657a0c05a68a912c23c1bd00124afaa8c669063b046bd9bfd22b21d573c5e6d888c86898b336040516129499695949392919061470c565b60405180910390a450509695505050505050565b60006001600160a01b03841661298657604051637ba50db360e11b815260040160405180910390fd5b61298e613d38565b60405163a2df1f9560e01b81526000906001600160a01b037f0000000000000000000000000000000000000000000000000000000000000000169063a2df1f95906129e5908d908d908d908b908b906004016148ae565b600060405180830381600087803b1580156129ff57600080fd5b505af1158015612a13573d6000803e3d6000fd5b505050506040513d6000823e601f3d908101601f19168201604052612a3b919081019061421b565b9750909450909250905086831015612a665760405163f896960b60e01b815260040160405180910390fd5b8715612b8557604051632eec7b5560e11b8152600481018a90527f00000000000000000000000000000000000000000000000000000000000000006001600160a01b031690635dd8f6aa9060240160206040518083038186803b158015612acc57600080fd5b505afa158015612ae0573d6000803e3d6000fd5b505050506040513d601f19601f82011682018060405250810190612b049190613f44565b604051631665bc0f60e01b81526001600160a01b038c81166004830152602482018c9052604482018b905260a06064830152600060a4830181905260848301529190911690631665bc0f9060c401600060405180830381600087803b158015612b6c57600080fd5b505af1158015612b80573d6000803e3d6000fd5b505050505b6001600160a01b03811615612d145760006040518061010001604052808c6001600160a01b031681526020018b8152602001846020015181526020018a815260200160405180608001604052807f00000000000000000000000000000000000000000000000000000000000000006001600160a01b031681526020018781526020017f000000000000000000000000000000000000000000000000000000000000000081526020017f00000000000000000000000000000000000000000000000000000000000000008152508152602001886001600160a01b03168152602001878152602001868152509050816001600160a01b0316632400e8f7826040518263ffffffff1660e01b8152600401612c9d91906149d5565b600060405180830381600087803b158015612cb757600080fd5b505af1158015612ccb573d6000803e3d6000fd5b50505050816001600160a01b03167fb5f35105f7321aaa2c0eae1a660fb9bc9624fceaa75a04a3dd171a1fe303edae8233604051612d0a9291906149e8565b60405180910390a2505b508115612d2657612d26308684611826565b87816000015182602001517f2be10f2a0203c77d0fcaa9fd6484a8a1d6904de31cd820587f60c1c8c338c8148c898c888b8b33604051612d6c97969594939291906147b9565b60405180910390a450979650505050505050565b80471015612dd05760405162461bcd60e51b815260206004820152601d60248201527f416464726573733a20696e73756666696369656e742062616c616e63650000006044820152606401610f02565b6000826001600160a01b03168260405160006040518083038185875af1925050503d8060008114612e1d576040519150601f19603f3d011682016040523d82523d6000602084013e612e22565b606091505b50509050806118305760405162461bcd60e51b815260206004820152603a60248201527f416464726573733a20756e61626c6520746f2073656e642076616c75652c207260448201527f6563697069656e74206d617920686176652072657665727465640000000000006064820152608401610f02565b600082815260026020908152604080832080548251818502810185019093528083528493849084015b82821015612f2f57600084815260209081902060408051608081018252600286029092018054835260019081015463ffffffff8082168587015264010000000082041692840192909252600160401b9091046001600160a01b031660608301529083529092019101612ec2565b5050506000868152600260205260408120929350612f4e929150613d17565b8051839060005b8181101561322757826130115760008781526002602052604090208451859083908110612f8457612f84614dc0565b60209081029190910181015182546001818101855560009485529383902082516002909202019081559181015191909201805460408401516060909401516001600160a01b0316600160401b02600160401b600160e01b031963ffffffff9586166401000000000267ffffffffffffffff199093169590941694909417179190911691909117905561321f565b83818151811061302357613023614dc0565b60200260200101516000015183106130b75783818151811061304757613047614dc0565b602002602001015160000151830392506130ae84828151811061306c5761306c614dc0565b60200260200101516000015185838151811061308a5761308a614dc0565b60200260200101516020015163ffffffff1686848151811061129b5761129b614dc0565b8501945061321f565b600260008881526020019081526020016000206040518060800160405280858785815181106130e8576130e8614dc0565b6020026020010151600001516130fe9190614d51565b815260200186848151811061311557613115614dc0565b60200260200101516020015163ffffffff16815260200186848151811061313e5761313e614dc0565b60200260200101516040015163ffffffff16815260200186848151811061316757613167614dc0565b6020908102919091018101516060908101516001600160a01b0390811690935284546001818101875560009687529583902085516002909202019081559184015191909401805460408501519490950151909216600160401b02600160401b600160e01b031963ffffffff9485166401000000000267ffffffffffffffff1990961694909216939093179390931792909216179055835161321690849086908490811061308a5761308a614dc0565b85019450600092505b600101612f55565b50604080518381523360208201528591879189917f59860d79d97c1fce2be7f987915c631471f4b08f671200463cc40a3380194ffb910160405180910390a450505092915050565b604051630862026560e41b8152600160048201526001600160a01b037f00000000000000000000000000000000000000000000000000000000000000008116602483015260009182917f0000000000000000000000000000000000000000000000000000000000000000169063862026509060440160206040518083038186803b1580156132fc57600080fd5b505afa158015613310573d6000803e3d6000fd5b505050506040513d601f19601f820116820180604052508101906133349190613f44565b6001600160a01b0316141561334e5750633b9aca00919050565b6004546001600160a01b0316613366575060006133e7565b60048054604051633bb4ac4b60e11b81529182018490526001600160a01b03169063776958969060240160206040518083038186803b1580156133a857600080fd5b505afa9250505080156133d8575060408051601f3d908101601f191682019092526133d5918101906142a4565b60015b6133e4575060006133e7565b90505b633b9aca008111156133f7575060005b919050565b6040516369e11cc560e01b8152600481018690526024810185905260448101849052829060009081907f00000000000000000000000000000000000000000000000000000000000000006001600160a01b0316906369e11cc59060640160006040518083038186803b15801561347157600080fd5b505afa158015613485573d6000803e3d6000fd5b505050506040513d6000823e601f3d908101601f191682016040526134ad919081019061407f565b905060005b8151811015613b8d5760008282815181106134cf576134cf614dc0565b6020026020010151905060006134ee888360400151633b9aca0061264b565b905060008115613b415760c08301516001600160a01b03161561368a5760c08301516001600160a01b031660009081526005602052604090205460ff1615613537575080613567565b633b9aca0088146135565761354f826003548a6123a0565b8203613558565b815b90506135648287614c0d565b95505b60007f00000000000000000000000000000000000000000000000000000000000000006001600160a01b031661eeee146135a25760006135a4565b815b905060006040518060c001604052807f00000000000000000000000000000000000000000000000000000000000000006001600160a01b031681526020018481526020017f000000000000000000000000000000000000000000000000000000000000000081526020018f81526020018d81526020018681525090508460c001516001600160a01b0316639d740bfa83836040518363ffffffff1660e01b815260040161365191906149fb565b6000604051808303818588803b15801561366a57600080fd5b505af115801561367e573d6000803e3d6000fd5b50505050505050613b3b565b606083015115613ad7576060830151604051630862026560e41b81526000916001600160a01b037f0000000000000000000000000000000000000000000000000000000000000000169163862026509161371a917f0000000000000000000000000000000000000000000000000000000000000000906004019182526001600160a01b0316602082015260400190565b60206040518083038186803b15801561373257600080fd5b505afa158015613746573d6000803e3d6000fd5b505050506040513d601f19601f8201168201806040525081019061376a9190613f44565b90506001600160a01b03811661379357604051636921234360e01b815260040160405180910390fd5b6001600160a01b038116301415613876576040805160208082528183019092528493506000916020820181803683370190505090508d6040516020016137db91815260200190565b604051602081830303815290604052905084602001511561381c5761381785606001518460006040518060200160405280600081525085611835565b613870565b61386e8330876060015160006001600160a01b031689608001516001600160a01b0316141561384b5733613851565b88608001515b60008a600001516040518060200160405280600081525088611927565b505b50613ad1565b6001600160a01b03811660009081526005602052604090205460ff161561389f578291506138cf565b633b9aca0089146138be576138b7836003548b6123a0565b83036138c0565b825b91506138cc8388614c0d565b96505b60007f00000000000000000000000000000000000000000000000000000000000000006001600160a01b031661eeee1461390a57600061390c565b825b604080516020808252818301909252919250600091906020820181803683370190505090508e60405160200161394491815260200190565b60405160208183030381529060405290508560200151156139ed57606086015160405163019f1d0b60e31b81526001600160a01b03851691630cf8e8589185916139b69189907f0000000000000000000000000000000000000000000000000000000000000000908890600401614ad6565b6000604051808303818588803b1580156139cf57600080fd5b505af11580156139e3573d6000803e3d6000fd5b5050505050613ace565b826001600160a01b0316631ebc263f838860600151877f000000000000000000000000000000000000000000000000000000000000000060006001600160a01b03168c608001516001600160a01b03161415613a495733613a4f565b8b608001515b8c516040516001600160e01b031960e089901b168152613a7a95949392916000918b90600401614a7e565b6020604051808303818588803b158015613a9357600080fd5b505af1158015613aa7573d6000803e3d6000fd5b50505050506040513d601f19601f82011682018060405250810190613acc91906142a4565b505b50505b50613b3b565b633b9aca008814613af657613aef826003548a6123a0565b8203613af8565b815b9050613b048287614c0d565b9550613b3b3060006001600160a01b031685608001516001600160a01b03161415613b2f5733613b35565b84608001515b83611826565b81870396505b898b8d7f2a1f2df21da49f011c6165709ae4b279f8d6d7cffe9043c582352882d8c9698b868533604051613b7793929190614a4f565b60405180910390a48360010193505050506134b2565b50509550959350505050565b6000613ba884600354846123a0565b61010086015190915060501c60019081161415613cbb57600086815260026020818152604080842081516080810183528981526003805463ffffffff9081168387019081528a82168487019081526001600160a01b038d81166060808801828152895460018082018c559a8f529d8c902098519d909c029097019b8c5592519a909601805491519951909616600160401b02600160401b600160e01b03199984166401000000000267ffffffffffffffff199092169a9093169990991798909817969096169590951790915592548151878152928301949094523390820152869189917f77813be0661650ddc1a5193ff2837df4162b251cb432651e2c060c3fc39756be910160405180910390a4613d0e565b613cc581846123e6565b604080516001600160a01b0385168152336020820152600091839189917fcf0c92a2c6d7c42f488326b0cb900104b99984b6b218db81cd29371364a35251910160405180910390a45b95945050505050565b50805460008255600202906000526020600020908101906117b39190613d8d565b6040518061012001604052806000815260200160008152602001600081526020016000815260200160008152602001600081526020016000815260200160006001600160a01b03168152602001600081525090565b5b80821115613db457600081556001810180546001600160e01b0319169055600201613d8e565b5090565b60008083601f840112613dca57600080fd5b50813567ffffffffffffffff811115613de257600080fd5b602083019150836020828501011115613dfa57600080fd5b9250929050565b600082601f830112613e1257600080fd5b8135613e25613e2082614be5565b614bb4565b818152846020838601011115613e3a57600080fd5b816020850160208301376000918101602001919091529392505050565b80516133f781614dec565b600082601f830112613e7357600080fd5b8151613e81613e2082614be5565b818152846020838601011115613e9657600080fd5b61164d826020830160208701614d68565b60006101208284031215613eba57600080fd5b613ec2614b67565b9050815181526020820151602082015260408201516040820152606082015160608201526080820151608082015260a082015160a082015260c082015160c0820152613f1060e08301613e57565b60e082015261010080830151818301525092915050565b600060208284031215613f3957600080fd5b81356123df81614dec565b600060208284031215613f5657600080fd5b81516123df81614dec565b60008060408385031215613f7457600080fd5b8235613f7f81614dec565b91506020830135613f8f81614e01565b809150509250929050565b60008060408385031215613fad57600080fd5b8235613fb881614dec565b946020939093013593505050565b600080600080600080600080610100898b031215613fe357600080fd5b8835613fee81614dec565b97506020890135965060408901359550606089013561400c81614dec565b94506080890135935060a089013561402381614dec565b925060c089013567ffffffffffffffff8082111561404057600080fd5b61404c8c838d01613e01565b935060e08b013591508082111561406257600080fd5b5061406f8b828c01613e01565b9150509295985092959890939650565b6000602080838503121561409257600080fd5b825167ffffffffffffffff808211156140aa57600080fd5b818501915085601f8301126140be57600080fd5b8151818111156140d0576140d0614dd6565b6140de848260051b01614bb4565b818152848101925083850160e0808402860187018a10156140fe57600080fd5b60009550855b848110156141965781838c03121561411a578687fd5b614122614b91565b835161412d81614e01565b81528389015161413c81614e01565b818a0152604084810151908201526060808501519082015260808085015161416381614dec565b9082015260a0848101519082015260c08085015161418081614dec565b9082015286529487019491810191600101614104565b50919998505050505050505050565b6000602082840312156141b757600080fd5b81516123df81614e01565b6000602082840312156141d457600080fd5b81356001600160e01b0319811681146123df57600080fd5b600080610140838503121561420057600080fd5b61420a8484613ea7565b915061012083015190509250929050565b600080600080610180858703121561423257600080fd5b61423c8686613ea7565b9350610120850151925061014085015161425581614dec565b61016086015190925067ffffffffffffffff81111561427357600080fd5b61427f87828801613e62565b91505092959194509250565b60006020828403121561429d57600080fd5b5035919050565b6000602082840312156142b657600080fd5b5051919050565b600080604083850312156142d057600080fd5b823591506020830135613f8f81614dec565b6000806000806000806000806000806101008b8d03121561430257600080fd5b8a35995060208b0135985060408b013561431b81614dec565b975060608b013561432b81614dec565b965060808b0135955060a08b013561434281614e01565b945060c08b013567ffffffffffffffff8082111561435f57600080fd5b61436b8e838f01613db8565b909650945060e08d013591508082111561438457600080fd5b506143918d828e01613db8565b915080935050809150509295989b9194979a5092959850565b600080600080600080600060a0888a0312156143c557600080fd5b873596506020880135955060408801356143de81614dec565b9450606088013567ffffffffffffffff808211156143fb57600080fd5b6144078b838c01613db8565b909650945060808a013591508082111561442057600080fd5b5061442d8a828b01613db8565b989b979a50959850939692959293505050565b600080600080600080600060e0888a03121561445b57600080fd5b873596506020880135955060408801359450606088013561447b81614dec565b93506080880135925060a088013561449281614dec565b915060c088013567ffffffffffffffff8111156144ae57600080fd5b6144ba8a828b01613e01565b91505092959891949750929550565b600080600080600080600060c0888a0312156144e457600080fd5b873596506020880135955060408801359450606088013561450481614dec565b93506080880135925060a088013567ffffffffffffffff81111561452757600080fd5b61442d8a828b01613db8565b6000815180845261454b816020860160208601614d68565b601f01601f19169290920160200192915050565b80516001600160a01b0316825260006101806020830151602085015260408301516040850152606083015161459760608601826146e0565b50608083015160e085015260a08301516101006145be818701836001600160a01b03169052565b60c0850151151561012087015260e0850151610140870184905291506145e683870183614533565b925080850151915050848203610160860152613d0e8282614533565b600061016060018060a01b038351168452602083015160208501526040830151604085015260608301516060850152608083015161464360808601826146e0565b5060a08301516001600160a01b031661010085015260c0830151610120850182905261467182860182614533565b91505060e0830151848203610140860152613d0e8282614533565b80511515825260208082015115159083015260408082015190830152606080820151908301526080808201516001600160a01b039081169184019190915260a0808301519084015260c09182015116910152565b80516001600160a01b031682526020808201519083015260408082015190830152606090810151910152565b600060018060a01b03808916835287602084015286604084015285606084015260c0608084015261474060c0840186614533565b915080841660a084015250979650505050505050565b600060018060a01b03808b16835289602084015288604084015287606084015286608084015260e060a08401528460e08401526101008587828601376000848701820152931660c083015250601f909201601f1916909101019695505050505050565b600060018060a01b03808a168352808916602084015287604084015286606084015260e060808401526147ef60e0840187614533565b83810360a08501526148018187614533565b92505080841660c08401525098975050505050505050565b6001600160a01b0394851681529290931660208301526040820152606081019190915260800190565b6001600160a01b03888116825260009061014090614863602085018b6146e0565b8860a08501528760c085015280871660e0850152508061010084015261488b81840186614533565b90508281036101208401526148a08185614533565b9a9950505050505050505050565b60018060a01b038616815284602082015283604082015260a0606082015260006148db60a0830185614533565b8281036080840152610ba38185614533565b602080825282518282018190526000919060409081850190868401855b82811015614956578151805185528681015163ffffffff908116888701528682015116868601526060908101516001600160a01b0316908501526080909301929085019060010161490a565b5091979650505050505050565b6020808252818101527f4f776e61626c653a2063616c6c6572206973206e6f7420746865206f776e6572604082015260600190565b6020815260006123df602083018461455f565b6040815260006149be604083018561455f565b905060018060a01b03831660208301529392505050565b6020815260006123df6020830184614602565b6040815260006149be6040830185614602565b81516001600160a01b031681526020808301519082015260408083015190820152606080830151908201526080808301519082015260a082810151610180830191614a489084018261468c565b5092915050565b6101208101614a5e828661468c565b60e08201939093526001600160a01b039190911661010090910152919050565b878152602081018790526001600160a01b038681166040830152851660608201526080810184905282151560a082015261010060c08201819052600090820181905261012060e083018190526148a081840185614533565b84815283602082015260018060a01b038316604082015260a06060820152600060a082015260c060808201526000614b1160c0830184614533565b9695505050505050565b85815284602082015260a060408201526000614b3a60a0830186614533565b8281036060840152614b4c8186614533565b91505060018060a01b03831660808301529695505050505050565b604051610120810167ffffffffffffffff81118282101715614b8b57614b8b614dd6565b60405290565b60405160e0810167ffffffffffffffff81118282101715614b8b57614b8b614dd6565b604051601f8201601f1916810167ffffffffffffffff81118282101715614bdd57614bdd614dd6565b604052919050565b600067ffffffffffffffff821115614bff57614bff614dd6565b50601f01601f191660200190565b60008219821115614c2057614c20614d94565b500190565b600082614c4257634e487b7160e01b600052601260045260246000fd5b500490565b600181815b80851115614c82578160001904821115614c6857614c68614d94565b80851615614c7557918102915b93841c9390800290614c4c565b509250929050565b60006123df8383600082614ca057506001610817565b81614cad57506000610817565b8160018114614cc35760028114614ccd57614ce9565b6001915050610817565b60ff841115614cde57614cde614d94565b50506001821b610817565b5060208310610133831016604e8410600b8410161715614d0c575081810a610817565b614d168383614c47565b8060001904821115614d2a57614d2a614d94565b029392505050565b6000816000190483118215151615614d4c57614d4c614d94565b500290565b600082821015614d6357614d63614d94565b500390565b60005b83811015614d83578181015183820152602001614d6b565b8381111561239a5750506000910152565b634e487b7160e01b600052601160045260246000fd5b634e487b7160e01b600052601260045260246000fd5b634e487b7160e01b600052603260045260246000fd5b634e487b7160e01b600052604160045260246000fd5b6001600160a01b03811681146117b357600080fd5b80151581146117b357600080fdfea26469706673582212203c27fdd2c966e0a1dd0ac88a5bf8815a094652331a92941b6adfd71672329f6a64736f6c63430008060033",
    "linkReferences": {}
  },
  "methodIdentifiers": {
    "acceptsToken(address,uint256)": "df21a7dd",
    "addToBalanceOf(uint256,uint256,address,string,bytes)": "0cf8e858",
    "baseWeightCurrency()": "2d1a5903",
    "currency()": "e5a6b10f",
    "currencyForToken(address)": "1982d679",
    "currentEthOverflowOf(uint256)": "a32e1e96",
    "decimals()": "313ce567",
    "decimalsForToken(address)": "b7bad1b1",
    "directory()": "c41c2f24",
    "distributePayoutsOf(uint256,uint256,uint256,address,uint256,string)": "2b267b4e",
    "fee()": "ddca3f43",
    "feeGauge()": "d6dacc53",
    "heldFeesOf(uint256)": "8af56094",
    "isFeelessAddress(address)": "b631b500",
    "migrate(uint256,address)": "405b84fa",
    "operatorStore()": "ad007d63",
    "owner()": "8da5cb5b",
    "pay(uint256,uint256,address,address,uint256,bool,string,bytes)": "1ebc263f",
    "payoutSplitsGroup()": "66248b86",
    "prices()": "d3419bf3",
    "processFees(uint256)": "89701db5",
    "projects()": "8b79543c",
    "redeemTokensOf(address,uint256,uint256,address,uint256,address,string,bytes)": "fe663f0f",
    "renounceOwnership()": "715018a6",
    "setFee(uint256)": "69fe0e2d",
    "setFeeGauge(address)": "637913ac",
    "setFeelessAddress(address,bool)": "7258002c",
    "splitsStore()": "2bdfe004",
    "store()": "975057e7",
    "supportsInterface(bytes4)": "01ffc9a7",
    "token()": "fc0c546a",
    "transferOwnership(address)": "f2fde38b",
    "useAllowanceOf(uint256,uint256,uint256,address,uint256,address,string)": "bc8926e9"
  },
  "id": 10
}