{
  "abi": [
    {
      "inputs": [
        {
          "internalType": "contract IJBPayDelegate",
          "name": "_delegate",
          "type": "address"
        }
      ],
      "stateMutability": "nonpayable",
      "type": "constructor"
    },
    {
      "inputs": [
        {
          "components": [
            {
              "internalType": "contract IJBPaymentTerminal",
              "name": "terminal",
              "type": "address"
            },
            {
              "internalType": "address",
              "name": "payer",
              "type": "address"
            },
            {
              "components": [
                {
                  "internalType": "address",
                  "name": "token",
                  "type": "address"
                },
                {
                  "internalType": "uint256",
                  "name": "value",
                  "type": "uint256"
                },
                {
                  "internalType": "uint256",
                  "name": "decimals",
                  "type": "uint256"
                },
                {
                  "internalType": "uint256",
                  "name": "currency",
                  "type": "uint256"
                }
              ],
              "internalType": "struct JBTokenAmount",
              "name": "amount",
              "type": "tuple"
            },
            {
              "internalType": "uint256",
              "name": "projectId",
              "type": "uint256"
            },
            {
              "internalType": "uint256",
              "name": "currentFundingCycleConfiguration",
              "type": "uint256"
            },
            {
              "internalType": "address",
              "name": "beneficiary",
              "type": "address"
            },
            {
              "internalType": "uint256",
              "name": "weight",
              "type": "uint256"
            },
            {
              "internalType": "uint256",
              "name": "reservedRate",
              "type": "uint256"
            },
            {
              "internalType": "string",
              "name": "memo",
              "type": "string"
            },
            {
              "internalType": "bytes",
              "name": "metadata",
              "type": "bytes"
            }
          ],
          "internalType": "struct JBPayParamsData",
          "name": "_param",
          "type": "tuple"
        }
      ],
      "name": "payParams",
      "outputs": [
        {
          "internalType": "uint256",
          "name": "weight",
          "type": "uint256"
        },
        {
          "internalType": "string",
          "name": "memo",
          "type": "string"
        },
        {
          "internalType": "contract IJBPayDelegate",
          "name": "delegate",
          "type": "address"
        }
      ],
      "stateMutability": "view",
      "type": "function"
    },
    {
      "inputs": [
        {
          "components": [
            {
              "internalType": "contract IJBPaymentTerminal",
              "name": "terminal",
              "type": "address"
            },
            {
              "internalType": "address",
              "name": "holder",
              "type": "address"
            },
            {
              "internalType": "uint256",
              "name": "projectId",
              "type": "uint256"
            },
            {
              "internalType": "uint256",
              "name": "currentFundingCycleConfiguration",
              "type": "uint256"
            },
            {
              "internalType": "uint256",
              "name": "tokenCount",
              "type": "uint256"
            },
            {
              "internalType": "uint256",
              "name": "totalSupply",
              "type": "uint256"
            },
            {
              "internalType": "uint256",
              "name": "overflow",
              "type": "uint256"
            },
            {
              "components": [
                {
                  "internalType": "address",
                  "name": "token",
                  "type": "address"
                },
                {
                  "internalType": "uint256",
                  "name": "value",
                  "type": "uint256"
                },
                {
                  "internalType": "uint256",
                  "name": "decimals",
                  "type": "uint256"
                },
                {
                  "internalType": "uint256",
                  "name": "currency",
                  "type": "uint256"
                }
              ],
              "internalType": "struct JBTokenAmount",
              "name": "reclaimAmount",
              "type": "tuple"
            },
            {
              "internalType": "bool",
              "name": "useTotalOverflow",
              "type": "bool"
            },
            {
              "internalType": "uint256",
              "name": "redemptionRate",
              "type": "uint256"
            },
            {
              "internalType": "uint256",
              "name": "ballotRedemptionRate",
              "type": "uint256"
            },
            {
              "internalType": "string",
              "name": "memo",
              "type": "string"
            },
            {
              "internalType": "bytes",
              "name": "metadata",
              "type": "bytes"
            }
          ],
          "internalType": "struct JBRedeemParamsData",
          "name": "_param",
          "type": "tuple"
        }
      ],
      "name": "redeemParams",
      "outputs": [
        {
          "internalType": "uint256",
          "name": "reclaimAmount",
          "type": "uint256"
        },
        {
          "internalType": "string",
          "name": "memo",
          "type": "string"
        },
        {
          "internalType": "contract IJBRedemptionDelegate",
          "name": "delegate",
          "type": "address"
        }
      ],
      "stateMutability": "view",
      "type": "function"
    },
    {
      "inputs": [
        {
          "internalType": "bytes4",
          "name": "_interfaceId",
          "type": "bytes4"
        }
      ],
      "name": "supportsInterface",
      "outputs": [
        {
          "internalType": "bool",
          "name": "",
          "type": "bool"
        }
      ],
      "stateMutability": "view",
      "type": "function"
    }
  ],
  "bytecode": {
    "object": "0x608060405234801561001057600080fd5b5060405161050038038061050083398101604081905261002f91610054565b600080546001600160a01b0319166001600160a01b0392909216919091179055610084565b60006020828403121561006657600080fd5b81516001600160a01b038116811461007d57600080fd5b9392505050565b61046d806100936000396000f3fe608060405234801561001057600080fd5b50600436106100415760003560e01c806301ffc9a7146100465780638dfc95981461006e578063d46cf17114610090575b600080fd5b6100596100543660046102b0565b6100a3565b60405190151581526020015b60405180910390f35b61008161007c366004610316565b610110565b604051610065939291906103b8565b61008161009e3660046102da565b610214565b60006001600160e01b0319821663599064e960e01b14806100d457506001600160e01b031982166318258f7560e11b145b806100ef57506001600160e01b03198216632400e8f760e01b145b8061010a57506301ffc9a760e01b6001600160e01b03198316145b92915050565b60008054606090829081906001600160a01b03166370a082316101396040880160208901610280565b6040516001600160e01b031960e084901b1681526001600160a01b03909116600482015260240160206040518083038186803b15801561017857600080fd5b505afa15801561018c573d6000803e3d6000fd5b505050506040513d601f19601f820116820180604052508101906101b09190610352565b11156101e857505060408051808201909152600a815269313cb2903437b63232b960b11b60208201526101008301359150600061020d565b50506040805180820190915260068152656e6f2077617960d01b602082015260009150815b9193909250565b600060608161012084013561022d6101608601866103e9565b600054604080516020601f85018190048102820181019092528381526001600160a01b0390921691908490849081908401838280828437600092019190915250969b929a50929850909650505050505050565b60006020828403121561029257600080fd5b81356001600160a01b03811681146102a957600080fd5b9392505050565b6000602082840312156102c257600080fd5b81356001600160e01b0319811681146102a957600080fd5b6000602082840312156102ec57600080fd5b813567ffffffffffffffff81111561030357600080fd5b82016101a081850312156102a957600080fd5b60006020828403121561032857600080fd5b813567ffffffffffffffff81111561033f57600080fd5b820161020081850312156102a957600080fd5b60006020828403121561036457600080fd5b5051919050565b6000815180845260005b8181101561039157602081850181015186830182015201610375565b818111156103a3576000602083870101525b50601f01601f19169290920160200192915050565b8381526060602082015260006103d1606083018561036b565b905060018060a01b0383166040830152949350505050565b6000808335601e1984360301811261040057600080fd5b83018035915067ffffffffffffffff82111561041b57600080fd5b60200191503681900382131561043057600080fd5b925092905056fea264697066735822122050a14aea3aa79e1adbef7a043e7fa3d5e8052425a4b75383d366384fdfb3c05464736f6c63430008060033",
    "linkReferences": {}
  },
  "methodIdentifiers": {
    "payParams((address,address,(address,uint256,uint256,uint256),uint256,uint256,address,uint256,uint256,string,bytes))": "d46cf171",
    "redeemParams((address,address,uint256,uint256,uint256,uint256,uint256,(address,uint256,uint256,uint256),bool,uint256,uint256,string,bytes))": "8dfc9598",
    "supportsInterface(bytes4)": "01ffc9a7"
  },
  "id": 0
}