{
  "abi": [
    {
      "inputs": [
        {
          "components": [
            {
              "internalType": "address",
              "name": "token",
              "type": "address"
            },
            {
              "internalType": "uint256",
              "name": "amount",
              "type": "uint256"
            },
            {
              "internalType": "uint256",
              "name": "decimals",
              "type": "uint256"
            },
            {
              "internalType": "uint256",
              "name": "projectId",
              "type": "uint256"
            },
            {
              "internalType": "uint256",
              "name": "group",
              "type": "uint256"
            },
            {
              "components": [
                {
                  "internalType": "bool",
                  "name": "preferClaimed",
                  "type": "bool"
                },
                {
                  "internalType": "bool",
                  "name": "preferAddToBalance",
                  "type": "bool"
                },
                {
                  "internalType": "uint256",
                  "name": "percent",
                  "type": "uint256"
                },
                {
                  "internalType": "uint256",
                  "name": "projectId",
                  "type": "uint256"
                },
                {
                  "internalType": "address payable",
                  "name": "beneficiary",
                  "type": "address"
                },
                {
                  "internalType": "uint256",
                  "name": "lockedUntil",
                  "type": "uint256"
                },
                {
                  "internalType": "contract IJBSplitAllocator",
                  "name": "allocator",
                  "type": "address"
                }
              ],
              "internalType": "struct JBSplit",
              "name": "split",
              "type": "tuple"
            }
          ],
          "internalType": "struct JBSplitAllocationData",
          "name": "_data",
          "type": "tuple"
        }
      ],
      "name": "allocate",
      "outputs": [],
      "stateMutability": "payable",
      "type": "function"
    },
    {
      "inputs": [
        {
          "internalType": "bytes4",
          "name": "_interfaceId",
          "type": "bytes4"
        }
      ],
      "name": "supportsInterface",
      "outputs": [
        {
          "internalType": "bool",
          "name": "",
          "type": "bool"
        }
      ],
      "stateMutability": "view",
      "type": "function"
    }
  ],
  "bytecode": {
    "object": "0x608060405234801561001057600080fd5b5061011d806100206000396000f3fe60806040526004361060265760003560e01c806301ffc9a714602b5780639d740bfa14605a575b600080fd5b348015603657600080fd5b506046604236600460a0565b606a565b604051901515815260200160405180910390f35b6068606536600460cf565b50565b005b60006001600160e01b03198216634eba05fd60e11b1480609a57506301ffc9a760e01b6001600160e01b03198316145b92915050565b60006020828403121560b157600080fd5b81356001600160e01b03198116811460c857600080fd5b9392505050565b6000610180828403121560e157600080fd5b5091905056fea264697066735822122011cb288a54573f8bf2819c413e55e063153361676970d235f8f61d82299cebf264736f6c63430008060033",
    "linkReferences": {}
  },
  "methodIdentifiers": {
    "allocate((address,uint256,uint256,uint256,uint256,(bool,bool,uint256,uint256,address,uint256,address)))": "9d740bfa",
    "supportsInterface(bytes4)": "01ffc9a7"
  },
  "id": 0
}