{
  "abi": [
    {
      "inputs": [
        {
          "internalType": "contract IJBOperatorStore",
          "name": "_operatorStore",
          "type": "address"
        },
        {
          "internalType": "contract IJBProjects",
          "name": "_projects",
          "type": "address"
        },
        {
          "internalType": "contract IJBDirectory",
          "name": "_directory",
          "type": "address"
        },
        {
          "internalType": "contract IJBFundingCycleStore",
          "name": "_fundingCycleStore",
          "type": "address"
        },
        {
          "internalType": "contract IJBTokenStore",
          "name": "_tokenStore",
          "type": "address"
        },
        {
          "internalType": "contract IJBSplitsStore",
          "name": "_splitsStore",
          "type": "address"
        }
      ],
      "stateMutability": "nonpayable",
      "type": "constructor"
    },
    {
      "inputs": [],
      "name": "BURN_PAUSED_AND_SENDER_NOT_VALID_TERMINAL_DELEGATE",
      "type": "error"
    },
    {
      "inputs": [],
      "name": "CANT_MIGRATE_TO_CURRENT_CONTROLLER",
      "type": "error"
    },
    {
      "inputs": [],
      "name": "CHANGE_TOKEN_NOT_ALLOWED",
      "type": "error"
    },
    {
      "inputs": [],
      "name": "FUNDING_CYCLE_ALREADY_LAUNCHED",
      "type": "error"
    },
    {
      "inputs": [],
      "name": "INVALID_BALLOT_REDEMPTION_RATE",
      "type": "error"
    },
    {
      "inputs": [],
      "name": "INVALID_DISTRIBUTION_LIMIT",
      "type": "error"
    },
    {
      "inputs": [],
      "name": "INVALID_DISTRIBUTION_LIMIT_CURRENCY",
      "type": "error"
    },
    {
      "inputs": [],
      "name": "INVALID_OVERFLOW_ALLOWANCE",
      "type": "error"
    },
    {
      "inputs": [],
      "name": "INVALID_OVERFLOW_ALLOWANCE_CURRENCY",
      "type": "error"
    },
    {
      "inputs": [],
      "name": "INVALID_REDEMPTION_RATE",
      "type": "error"
    },
    {
      "inputs": [],
      "name": "INVALID_RESERVED_RATE",
      "type": "error"
    },
    {
      "inputs": [],
      "name": "MIGRATION_NOT_ALLOWED",
      "type": "error"
    },
    {
      "inputs": [],
      "name": "MINT_NOT_ALLOWED_AND_NOT_TERMINAL_DELEGATE",
      "type": "error"
    },
    {
      "inputs": [],
      "name": "NOT_CURRENT_CONTROLLER",
      "type": "error"
    },
    {
      "inputs": [],
      "name": "NO_BURNABLE_TOKENS",
      "type": "error"
    },
    {
      "inputs": [
        {
          "internalType": "uint256",
          "name": "prod1",
          "type": "uint256"
        },
        {
          "internalType": "uint256",
          "name": "denominator",
          "type": "uint256"
        }
      ],
      "name": "PRBMath__MulDivOverflow",
      "type": "error"
    },
    {
      "inputs": [],
      "name": "UNAUTHORIZED",
      "type": "error"
    },
    {
      "inputs": [],
      "name": "ZERO_TOKENS_TO_MINT",
      "type": "error"
    },
    {
      "anonymous": false,
      "inputs": [
        {
          "indexed": true,
          "internalType": "address",
          "name": "holder",
          "type": "address"
        },
        {
          "indexed": true,
          "internalType": "uint256",
          "name": "projectId",
          "type": "uint256"
        },
        {
          "indexed": false,
          "internalType": "uint256",
          "name": "tokenCount",
          "type": "uint256"
        },
        {
          "indexed": false,
          "internalType": "string",
          "name": "memo",
          "type": "string"
        },
        {
          "indexed": false,
          "internalType": "address",
          "name": "caller",
          "type": "address"
        }
      ],
      "name": "BurnTokens",
      "type": "event"
    },
    {
      "anonymous": false,
      "inputs": [
        {
          "indexed": true,
          "internalType": "uint256",
          "name": "fundingCycleConfiguration",
          "type": "uint256"
        },
        {
          "indexed": true,
          "internalType": "uint256",
          "name": "fundingCycleNumber",
          "type": "uint256"
        },
        {
          "indexed": true,
          "internalType": "uint256",
          "name": "projectId",
          "type": "uint256"
        },
        {
          "indexed": false,
          "internalType": "address",
          "name": "beneficiary",
          "type": "address"
        },
        {
          "indexed": false,
          "internalType": "uint256",
          "name": "tokenCount",
          "type": "uint256"
        },
        {
          "indexed": false,
          "internalType": "uint256",
          "name": "beneficiaryTokenCount",
          "type": "uint256"
        },
        {
          "indexed": false,
          "internalType": "string",
          "name": "memo",
          "type": "string"
        },
        {
          "indexed": false,
          "internalType": "address",
          "name": "caller",
          "type": "address"
        }
      ],
      "name": "DistributeReservedTokens",
      "type": "event"
    },
    {
      "anonymous": false,
      "inputs": [
        {
          "indexed": true,
          "internalType": "uint256",
          "name": "projectId",
          "type": "uint256"
        },
        {
          "indexed": true,
          "internalType": "uint256",
          "name": "domain",
          "type": "uint256"
        },
        {
          "indexed": true,
          "internalType": "uint256",
          "name": "group",
          "type": "uint256"
        },
        {
          "components": [
            {
              "internalType": "bool",
              "name": "preferClaimed",
              "type": "bool"
            },
            {
              "internalType": "bool",
              "name": "preferAddToBalance",
              "type": "bool"
            },
            {
              "internalType": "uint256",
              "name": "percent",
              "type": "uint256"
            },
            {
              "internalType": "uint256",
              "name": "projectId",
              "type": "uint256"
            },
            {
              "internalType": "address payable",
              "name": "beneficiary",
              "type": "address"
            },
            {
              "internalType": "uint256",
              "name": "lockedUntil",
              "type": "uint256"
            },
            {
              "internalType": "contract IJBSplitAllocator",
              "name": "allocator",
              "type": "address"
            }
          ],
          "indexed": false,
          "internalType": "struct JBSplit",
          "name": "split",
          "type": "tuple"
        },
        {
          "indexed": false,
          "internalType": "uint256",
          "name": "tokenCount",
          "type": "uint256"
        },
        {
          "indexed": false,
          "internalType": "address",
          "name": "caller",
          "type": "address"
        }
      ],
      "name": "DistributeToReservedTokenSplit",
      "type": "event"
    },
    {
      "anonymous": false,
      "inputs": [
        {
          "indexed": false,
          "internalType": "uint256",
          "name": "configuration",
          "type": "uint256"
        },
        {
          "indexed": false,
          "internalType": "uint256",
          "name": "projectId",
          "type": "uint256"
        },
        {
          "indexed": false,
          "internalType": "string",
          "name": "memo",
          "type": "string"
        },
        {
          "indexed": false,
          "internalType": "address",
          "name": "caller",
          "type": "address"
        }
      ],
      "name": "LaunchFundingCycles",
      "type": "event"
    },
    {
      "anonymous": false,
      "inputs": [
        {
          "indexed": false,
          "internalType": "uint256",
          "name": "configuration",
          "type": "uint256"
        },
        {
          "indexed": false,
          "internalType": "uint256",
          "name": "projectId",
          "type": "uint256"
        },
        {
          "indexed": false,
          "internalType": "string",
          "name": "memo",
          "type": "string"
        },
        {
          "indexed": false,
          "internalType": "address",
          "name": "caller",
          "type": "address"
        }
      ],
      "name": "LaunchProject",
      "type": "event"
    },
    {
      "anonymous": false,
      "inputs": [
        {
          "indexed": true,
          "internalType": "uint256",
          "name": "projectId",
          "type": "uint256"
        },
        {
          "indexed": false,
          "internalType": "contract IJBMigratable",
          "name": "to",
          "type": "address"
        },
        {
          "indexed": false,
          "internalType": "address",
          "name": "caller",
          "type": "address"
        }
      ],
      "name": "Migrate",
      "type": "event"
    },
    {
      "anonymous": false,
      "inputs": [
        {
          "indexed": true,
          "internalType": "address",
          "name": "beneficiary",
          "type": "address"
        },
        {
          "indexed": true,
          "internalType": "uint256",
          "name": "projectId",
          "type": "uint256"
        },
        {
          "indexed": false,
          "internalType": "uint256",
          "name": "tokenCount",
          "type": "uint256"
        },
        {
          "indexed": false,
          "internalType": "uint256",
          "name": "beneficiaryTokenCount",
          "type": "uint256"
        },
        {
          "indexed": false,
          "internalType": "string",
          "name": "memo",
          "type": "string"
        },
        {
          "indexed": false,
          "internalType": "uint256",
          "name": "reservedRate",
          "type": "uint256"
        },
        {
          "indexed": false,
          "internalType": "address",
          "name": "caller",
          "type": "address"
        }
      ],
      "name": "MintTokens",
      "type": "event"
    },
    {
      "anonymous": false,
      "inputs": [
        {
          "indexed": true,
          "internalType": "uint256",
          "name": "projectId",
          "type": "uint256"
        },
        {
          "indexed": false,
          "internalType": "address",
          "name": "from",
          "type": "address"
        },
        {
          "indexed": false,
          "internalType": "address",
          "name": "caller",
          "type": "address"
        }
      ],
      "name": "PrepMigration",
      "type": "event"
    },
    {
      "anonymous": false,
      "inputs": [
        {
          "indexed": false,
          "internalType": "uint256",
          "name": "configuration",
          "type": "uint256"
        },
        {
          "indexed": false,
          "internalType": "uint256",
          "name": "projectId",
          "type": "uint256"
        },
        {
          "indexed": false,
          "internalType": "string",
          "name": "memo",
          "type": "string"
        },
        {
          "indexed": false,
          "internalType": "address",
          "name": "caller",
          "type": "address"
        }
      ],
      "name": "ReconfigureFundingCycles",
      "type": "event"
    },
    {
      "anonymous": false,
      "inputs": [
        {
          "indexed": true,
          "internalType": "uint256",
          "name": "fundingCycleConfiguration",
          "type": "uint256"
        },
        {
          "indexed": true,
          "internalType": "uint256",
          "name": "fundingCycleNumber",
          "type": "uint256"
        },
        {
          "indexed": true,
          "internalType": "uint256",
          "name": "projectId",
          "type": "uint256"
        },
        {
          "components": [
            {
              "internalType": "contract IJBPaymentTerminal",
              "name": "terminal",
              "type": "address"
            },
            {
              "internalType": "address",
              "name": "token",
              "type": "address"
            },
            {
              "internalType": "uint256",
              "name": "distributionLimit",
              "type": "uint256"
            },
            {
              "internalType": "uint256",
              "name": "distributionLimitCurrency",
              "type": "uint256"
            },
            {
              "internalType": "uint256",
              "name": "overflowAllowance",
              "type": "uint256"
            },
            {
              "internalType": "uint256",
              "name": "overflowAllowanceCurrency",
              "type": "uint256"
            }
          ],
          "indexed": false,
          "internalType": "struct JBFundAccessConstraints",
          "name": "constraints",
          "type": "tuple"
        },
        {
          "indexed": false,
          "internalType": "address",
          "name": "caller",
          "type": "address"
        }
      ],
      "name": "SetFundAccessConstraints",
      "type": "event"
    },
    {
      "inputs": [
        {
          "internalType": "address",
          "name": "_holder",
          "type": "address"
        },
        {
          "internalType": "uint256",
          "name": "_projectId",
          "type": "uint256"
        },
        {
          "internalType": "uint256",
          "name": "_tokenCount",
          "type": "uint256"
        },
        {
          "internalType": "string",
          "name": "_memo",
          "type": "string"
        },
        {
          "internalType": "bool",
          "name": "_preferClaimedTokens",
          "type": "bool"
        }
      ],
      "name": "burnTokensOf",
      "outputs": [],
      "stateMutability": "nonpayable",
      "type": "function"
    },
    {
      "inputs": [
        {
          "internalType": "uint256",
          "name": "_projectId",
          "type": "uint256"
        },
        {
          "internalType": "contract IJBToken",
          "name": "_token",
          "type": "address"
        },
        {
          "internalType": "address",
          "name": "_newOwner",
          "type": "address"
        }
      ],
      "name": "changeTokenOf",
      "outputs": [],
      "stateMutability": "nonpayable",
      "type": "function"
    },
    {
      "inputs": [
        {
          "internalType": "uint256",
          "name": "_projectId",
          "type": "uint256"
        }
      ],
      "name": "currentFundingCycleOf",
      "outputs": [
        {
          "components": [
            {
              "internalType": "uint256",
              "name": "number",
              "type": "uint256"
            },
            {
              "internalType": "uint256",
              "name": "configuration",
              "type": "uint256"
            },
            {
              "internalType": "uint256",
              "name": "basedOn",
              "type": "uint256"
            },
            {
              "internalType": "uint256",
              "name": "start",
              "type": "uint256"
            },
            {
              "internalType": "uint256",
              "name": "duration",
              "type": "uint256"
            },
            {
              "internalType": "uint256",
              "name": "weight",
              "type": "uint256"
            },
            {
              "internalType": "uint256",
              "name": "discountRate",
              "type": "uint256"
            },
            {
              "internalType": "contract IJBFundingCycleBallot",
              "name": "ballot",
              "type": "address"
            },
            {
              "internalType": "uint256",
              "name": "metadata",
              "type": "uint256"
            }
          ],
          "internalType": "struct JBFundingCycle",
          "name": "fundingCycle",
          "type": "tuple"
        },
        {
          "components": [
            {
              "components": [
                {
                  "internalType": "bool",
                  "name": "allowSetTerminals",
                  "type": "bool"
                },
                {
                  "internalType": "bool",
                  "name": "allowSetController",
                  "type": "bool"
                }
              ],
              "internalType": "struct JBGlobalFundingCycleMetadata",
              "name": "global",
              "type": "tuple"
            },
            {
              "internalType": "uint256",
              "name": "reservedRate",
              "type": "uint256"
            },
            {
              "internalType": "uint256",
              "name": "redemptionRate",
              "type": "uint256"
            },
            {
              "internalType": "uint256",
              "name": "ballotRedemptionRate",
              "type": "uint256"
            },
            {
              "internalType": "bool",
              "name": "pausePay",
              "type": "bool"
            },
            {
              "internalType": "bool",
              "name": "pauseDistributions",
              "type": "bool"
            },
            {
              "internalType": "bool",
              "name": "pauseRedeem",
              "type": "bool"
            },
            {
              "internalType": "bool",
              "name": "pauseBurn",
              "type": "bool"
            },
            {
              "internalType": "bool",
              "name": "allowMinting",
              "type": "bool"
            },
            {
              "internalType": "bool",
              "name": "allowChangeToken",
              "type": "bool"
            },
            {
              "internalType": "bool",
              "name": "allowTerminalMigration",
              "type": "bool"
            },
            {
              "internalType": "bool",
              "name": "allowControllerMigration",
              "type": "bool"
            },
            {
              "internalType": "bool",
              "name": "holdFees",
              "type": "bool"
            },
            {
              "internalType": "bool",
              "name": "useTotalOverflowForRedemptions",
              "type": "bool"
            },
            {
              "internalType": "bool",
              "name": "useDataSourceForPay",
              "type": "bool"
            },
            {
              "internalType": "bool",
              "name": "useDataSourceForRedeem",
              "type": "bool"
            },
            {
              "internalType": "address",
              "name": "dataSource",
              "type": "address"
            }
          ],
          "internalType": "struct JBFundingCycleMetadata",
          "name": "metadata",
          "type": "tuple"
        }
      ],
      "stateMutability": "view",
      "type": "function"
    },
    {
      "inputs": [],
      "name": "directory",
      "outputs": [
        {
          "internalType": "contract IJBDirectory",
          "name": "",
          "type": "address"
        }
      ],
      "stateMutability": "view",
      "type": "function"
    },
    {
      "inputs": [
        {
          "internalType": "uint256",
          "name": "_projectId",
          "type": "uint256"
        },
        {
          "internalType": "string",
          "name": "_memo",
          "type": "string"
        }
      ],
      "name": "distributeReservedTokensOf",
      "outputs": [
        {
          "internalType": "uint256",
          "name": "",
          "type": "uint256"
        }
      ],
      "stateMutability": "nonpayable",
      "type": "function"
    },
    {
      "inputs": [
        {
          "internalType": "uint256",
          "name": "_projectId",
          "type": "uint256"
        },
        {
          "internalType": "uint256",
          "name": "_configuration",
          "type": "uint256"
        },
        {
          "internalType": "contract IJBPaymentTerminal",
          "name": "_terminal",
          "type": "address"
        },
        {
          "internalType": "address",
          "name": "_token",
          "type": "address"
        }
      ],
      "name": "distributionLimitOf",
      "outputs": [
        {
          "internalType": "uint256",
          "name": "",
          "type": "uint256"
        },
        {
          "internalType": "uint256",
          "name": "",
          "type": "uint256"
        }
      ],
      "stateMutability": "view",
      "type": "function"
    },
    {
      "inputs": [],
      "name": "fundingCycleStore",
      "outputs": [
        {
          "internalType": "contract IJBFundingCycleStore",
          "name": "",
          "type": "address"
        }
      ],
      "stateMutability": "view",
      "type": "function"
    },
    {
      "inputs": [
        {
          "internalType": "uint256",
          "name": "_projectId",
          "type": "uint256"
        },
        {
          "internalType": "uint256",
          "name": "_configuration",
          "type": "uint256"
        }
      ],
      "name": "getFundingCycleOf",
      "outputs": [
        {
          "components": [
            {
              "internalType": "uint256",
              "name": "number",
              "type": "uint256"
            },
            {
              "internalType": "uint256",
              "name": "configuration",
              "type": "uint256"
            },
            {
              "internalType": "uint256",
              "name": "basedOn",
              "type": "uint256"
            },
            {
              "internalType": "uint256",
              "name": "start",
              "type": "uint256"
            },
            {
              "internalType": "uint256",
              "name": "duration",
              "type": "uint256"
            },
            {
              "internalType": "uint256",
              "name": "weight",
              "type": "uint256"
            },
            {
              "internalType": "uint256",
              "name": "discountRate",
              "type": "uint256"
            },
            {
              "internalType": "contract IJBFundingCycleBallot",
              "name": "ballot",
              "type": "address"
            },
            {
              "internalType": "uint256",
              "name": "metadata",
              "type": "uint256"
            }
          ],
          "internalType": "struct JBFundingCycle",
          "name": "fundingCycle",
          "type": "tuple"
        },
        {
          "components": [
            {
              "components": [
                {
                  "internalType": "bool",
                  "name": "allowSetTerminals",
                  "type": "bool"
                },
                {
                  "internalType": "bool",
                  "name": "allowSetController",
                  "type": "bool"
                }
              ],
              "internalType": "struct JBGlobalFundingCycleMetadata",
              "name": "global",
              "type": "tuple"
            },
            {
              "internalType": "uint256",
              "name": "reservedRate",
              "type": "uint256"
            },
            {
              "internalType": "uint256",
              "name": "redemptionRate",
              "type": "uint256"
            },
            {
              "internalType": "uint256",
              "name": "ballotRedemptionRate",
              "type": "uint256"
            },
            {
              "internalType": "bool",
              "name": "pausePay",
              "type": "bool"
            },
            {
              "internalType": "bool",
              "name": "pauseDistributions",
              "type": "bool"
            },
            {
              "internalType": "bool",
              "name": "pauseRedeem",
              "type": "bool"
            },
            {
              "internalType": "bool",
              "name": "pauseBurn",
              "type": "bool"
            },
            {
              "internalType": "bool",
              "name": "allowMinting",
              "type": "bool"
            },
            {
              "internalType": "bool",
              "name": "allowChangeToken",
              "type": "bool"
            },
            {
              "internalType": "bool",
              "name": "allowTerminalMigration",
              "type": "bool"
            },
            {
              "internalType": "bool",
              "name": "allowControllerMigration",
              "type": "bool"
            },
            {
              "internalType": "bool",
              "name": "holdFees",
              "type": "bool"
            },
            {
              "internalType": "bool",
              "name": "useTotalOverflowForRedemptions",
              "type": "bool"
            },
            {
              "internalType": "bool",
              "name": "useDataSourceForPay",
              "type": "bool"
            },
            {
              "internalType": "bool",
              "name": "useDataSourceForRedeem",
              "type": "bool"
            },
            {
              "internalType": "address",
              "name": "dataSource",
              "type": "address"
            }
          ],
          "internalType": "struct JBFundingCycleMetadata",
          "name": "metadata",
          "type": "tuple"
        }
      ],
      "stateMutability": "view",
      "type": "function"
    },
    {
      "inputs": [
        {
          "internalType": "uint256",
          "name": "_projectId",
          "type": "uint256"
        },
        {
          "internalType": "string",
          "name": "_name",
          "type": "string"
        },
        {
          "internalType": "string",
          "name": "_symbol",
          "type": "string"
        }
      ],
      "name": "issueTokenFor",
      "outputs": [
        {
          "internalType": "contract IJBToken",
          "name": "token",
          "type": "address"
        }
      ],
      "stateMutability": "nonpayable",
      "type": "function"
    },
    {
      "inputs": [
        {
          "internalType": "uint256",
          "name": "_projectId",
          "type": "uint256"
        }
      ],
      "name": "latestConfiguredFundingCycleOf",
      "outputs": [
        {
          "components": [
            {
              "internalType": "uint256",
              "name": "number",
              "type": "uint256"
            },
            {
              "internalType": "uint256",
              "name": "configuration",
              "type": "uint256"
            },
            {
              "internalType": "uint256",
              "name": "basedOn",
              "type": "uint256"
            },
            {
              "internalType": "uint256",
              "name": "start",
              "type": "uint256"
            },
            {
              "internalType": "uint256",
              "name": "duration",
              "type": "uint256"
            },
            {
              "internalType": "uint256",
              "name": "weight",
              "type": "uint256"
            },
            {
              "internalType": "uint256",
              "name": "discountRate",
              "type": "uint256"
            },
            {
              "internalType": "contract IJBFundingCycleBallot",
              "name": "ballot",
              "type": "address"
            },
            {
              "internalType": "uint256",
              "name": "metadata",
              "type": "uint256"
            }
          ],
          "internalType": "struct JBFundingCycle",
          "name": "fundingCycle",
          "type": "tuple"
        },
        {
          "components": [
            {
              "components": [
                {
                  "internalType": "bool",
                  "name": "allowSetTerminals",
                  "type": "bool"
                },
                {
                  "internalType": "bool",
                  "name": "allowSetController",
                  "type": "bool"
                }
              ],
              "internalType": "struct JBGlobalFundingCycleMetadata",
              "name": "global",
              "type": "tuple"
            },
            {
              "internalType": "uint256",
              "name": "reservedRate",
              "type": "uint256"
            },
            {
              "internalType": "uint256",
              "name": "redemptionRate",
              "type": "uint256"
            },
            {
              "internalType": "uint256",
              "name": "ballotRedemptionRate",
              "type": "uint256"
            },
            {
              "internalType": "bool",
              "name": "pausePay",
              "type": "bool"
            },
            {
              "internalType": "bool",
              "name": "pauseDistributions",
              "type": "bool"
            },
            {
              "internalType": "bool",
              "name": "pauseRedeem",
              "type": "bool"
            },
            {
              "internalType": "bool",
              "name": "pauseBurn",
              "type": "bool"
            },
            {
              "internalType": "bool",
              "name": "allowMinting",
              "type": "bool"
            },
            {
              "internalType": "bool",
              "name": "allowChangeToken",
              "type": "bool"
            },
            {
              "internalType": "bool",
              "name": "allowTerminalMigration",
              "type": "bool"
            },
            {
              "internalType": "bool",
              "name": "allowControllerMigration",
              "type": "bool"
            },
            {
              "internalType": "bool",
              "name": "holdFees",
              "type": "bool"
            },
            {
              "internalType": "bool",
              "name": "useTotalOverflowForRedemptions",
              "type": "bool"
            },
            {
              "internalType": "bool",
              "name": "useDataSourceForPay",
              "type": "bool"
            },
            {
              "internalType": "bool",
              "name": "useDataSourceForRedeem",
              "type": "bool"
            },
            {
              "internalType": "address",
              "name": "dataSource",
              "type": "address"
            }
          ],
          "internalType": "struct JBFundingCycleMetadata",
          "name": "metadata",
          "type": "tuple"
        },
        {
          "internalType": "enum JBBallotState",
          "name": "ballotState",
          "type": "uint8"
        }
      ],
      "stateMutability": "view",
      "type": "function"
    },
    {
      "inputs": [
        {
          "internalType": "uint256",
          "name": "_projectId",
          "type": "uint256"
        },
        {
          "components": [
            {
              "internalType": "uint256",
              "name": "duration",
              "type": "uint256"
            },
            {
              "internalType": "uint256",
              "name": "weight",
              "type": "uint256"
            },
            {
              "internalType": "uint256",
              "name": "discountRate",
              "type": "uint256"
            },
            {
              "internalType": "contract IJBFundingCycleBallot",
              "name": "ballot",
              "type": "address"
            }
          ],
          "internalType": "struct JBFundingCycleData",
          "name": "_data",
          "type": "tuple"
        },
        {
          "components": [
            {
              "components": [
                {
                  "internalType": "bool",
                  "name": "allowSetTerminals",
                  "type": "bool"
                },
                {
                  "internalType": "bool",
                  "name": "allowSetController",
                  "type": "bool"
                }
              ],
              "internalType": "struct JBGlobalFundingCycleMetadata",
              "name": "global",
              "type": "tuple"
            },
            {
              "internalType": "uint256",
              "name": "reservedRate",
              "type": "uint256"
            },
            {
              "internalType": "uint256",
              "name": "redemptionRate",
              "type": "uint256"
            },
            {
              "internalType": "uint256",
              "name": "ballotRedemptionRate",
              "type": "uint256"
            },
            {
              "internalType": "bool",
              "name": "pausePay",
              "type": "bool"
            },
            {
              "internalType": "bool",
              "name": "pauseDistributions",
              "type": "bool"
            },
            {
              "internalType": "bool",
              "name": "pauseRedeem",
              "type": "bool"
            },
            {
              "internalType": "bool",
              "name": "pauseBurn",
              "type": "bool"
            },
            {
              "internalType": "bool",
              "name": "allowMinting",
              "type": "bool"
            },
            {
              "internalType": "bool",
              "name": "allowChangeToken",
              "type": "bool"
            },
            {
              "internalType": "bool",
              "name": "allowTerminalMigration",
              "type": "bool"
            },
            {
              "internalType": "bool",
              "name": "allowControllerMigration",
              "type": "bool"
            },
            {
              "internalType": "bool",
              "name": "holdFees",
              "type": "bool"
            },
            {
              "internalType": "bool",
              "name": "useTotalOverflowForRedemptions",
              "type": "bool"
            },
            {
              "internalType": "bool",
              "name": "useDataSourceForPay",
              "type": "bool"
            },
            {
              "internalType": "bool",
              "name": "useDataSourceForRedeem",
              "type": "bool"
            },
            {
              "internalType": "address",
              "name": "dataSource",
              "type": "address"
            }
          ],
          "internalType": "struct JBFundingCycleMetadata",
          "name": "_metadata",
          "type": "tuple"
        },
        {
          "internalType": "uint256",
          "name": "_mustStartAtOrAfter",
          "type": "uint256"
        },
        {
          "components": [
            {
              "internalType": "uint256",
              "name": "group",
              "type": "uint256"
            },
            {
              "components": [
                {
                  "internalType": "bool",
                  "name": "preferClaimed",
                  "type": "bool"
                },
                {
                  "internalType": "bool",
                  "name": "preferAddToBalance",
                  "type": "bool"
                },
                {
                  "internalType": "uint256",
                  "name": "percent",
                  "type": "uint256"
                },
                {
                  "internalType": "uint256",
                  "name": "projectId",
                  "type": "uint256"
                },
                {
                  "internalType": "address payable",
                  "name": "beneficiary",
                  "type": "address"
                },
                {
                  "internalType": "uint256",
                  "name": "lockedUntil",
                  "type": "uint256"
                },
                {
                  "internalType": "contract IJBSplitAllocator",
                  "name": "allocator",
                  "type": "address"
                }
              ],
              "internalType": "struct JBSplit[]",
              "name": "splits",
              "type": "tuple[]"
            }
          ],
          "internalType": "struct JBGroupedSplits[]",
          "name": "_groupedSplits",
          "type": "tuple[]"
        },
        {
          "components": [
            {
              "internalType": "contract IJBPaymentTerminal",
              "name": "terminal",
              "type": "address"
            },
            {
              "internalType": "address",
              "name": "token",
              "type": "address"
            },
            {
              "internalType": "uint256",
              "name": "distributionLimit",
              "type": "uint256"
            },
            {
              "internalType": "uint256",
              "name": "distributionLimitCurrency",
              "type": "uint256"
            },
            {
              "internalType": "uint256",
              "name": "overflowAllowance",
              "type": "uint256"
            },
            {
              "internalType": "uint256",
              "name": "overflowAllowanceCurrency",
              "type": "uint256"
            }
          ],
          "internalType": "struct JBFundAccessConstraints[]",
          "name": "_fundAccessConstraints",
          "type": "tuple[]"
        },
        {
          "internalType": "contract IJBPaymentTerminal[]",
          "name": "_terminals",
          "type": "address[]"
        },
        {
          "internalType": "string",
          "name": "_memo",
          "type": "string"
        }
      ],
      "name": "launchFundingCyclesFor",
      "outputs": [
        {
          "internalType": "uint256",
          "name": "configuration",
          "type": "uint256"
        }
      ],
      "stateMutability": "nonpayable",
      "type": "function"
    },
    {
      "inputs": [
        {
          "internalType": "address",
          "name": "_owner",
          "type": "address"
        },
        {
          "components": [
            {
              "internalType": "string",
              "name": "content",
              "type": "string"
            },
            {
              "internalType": "uint256",
              "name": "domain",
              "type": "uint256"
            }
          ],
          "internalType": "struct JBProjectMetadata",
          "name": "_projectMetadata",
          "type": "tuple"
        },
        {
          "components": [
            {
              "internalType": "uint256",
              "name": "duration",
              "type": "uint256"
            },
            {
              "internalType": "uint256",
              "name": "weight",
              "type": "uint256"
            },
            {
              "internalType": "uint256",
              "name": "discountRate",
              "type": "uint256"
            },
            {
              "internalType": "contract IJBFundingCycleBallot",
              "name": "ballot",
              "type": "address"
            }
          ],
          "internalType": "struct JBFundingCycleData",
          "name": "_data",
          "type": "tuple"
        },
        {
          "components": [
            {
              "components": [
                {
                  "internalType": "bool",
                  "name": "allowSetTerminals",
                  "type": "bool"
                },
                {
                  "internalType": "bool",
                  "name": "allowSetController",
                  "type": "bool"
                }
              ],
              "internalType": "struct JBGlobalFundingCycleMetadata",
              "name": "global",
              "type": "tuple"
            },
            {
              "internalType": "uint256",
              "name": "reservedRate",
              "type": "uint256"
            },
            {
              "internalType": "uint256",
              "name": "redemptionRate",
              "type": "uint256"
            },
            {
              "internalType": "uint256",
              "name": "ballotRedemptionRate",
              "type": "uint256"
            },
            {
              "internalType": "bool",
              "name": "pausePay",
              "type": "bool"
            },
            {
              "internalType": "bool",
              "name": "pauseDistributions",
              "type": "bool"
            },
            {
              "internalType": "bool",
              "name": "pauseRedeem",
              "type": "bool"
            },
            {
              "internalType": "bool",
              "name": "pauseBurn",
              "type": "bool"
            },
            {
              "internalType": "bool",
              "name": "allowMinting",
              "type": "bool"
            },
            {
              "internalType": "bool",
              "name": "allowChangeToken",
              "type": "bool"
            },
            {
              "internalType": "bool",
              "name": "allowTerminalMigration",
              "type": "bool"
            },
            {
              "internalType": "bool",
              "name": "allowControllerMigration",
              "type": "bool"
            },
            {
              "internalType": "bool",
              "name": "holdFees",
              "type": "bool"
            },
            {
              "internalType": "bool",
              "name": "useTotalOverflowForRedemptions",
              "type": "bool"
            },
            {
              "internalType": "bool",
              "name": "useDataSourceForPay",
              "type": "bool"
            },
            {
              "internalType": "bool",
              "name": "useDataSourceForRedeem",
              "type": "bool"
            },
            {
              "internalType": "address",
              "name": "dataSource",
              "type": "address"
            }
          ],
          "internalType": "struct JBFundingCycleMetadata",
          "name": "_metadata",
          "type": "tuple"
        },
        {
          "internalType": "uint256",
          "name": "_mustStartAtOrAfter",
          "type": "uint256"
        },
        {
          "components": [
            {
              "internalType": "uint256",
              "name": "group",
              "type": "uint256"
            },
            {
              "components": [
                {
                  "internalType": "bool",
                  "name": "preferClaimed",
                  "type": "bool"
                },
                {
                  "internalType": "bool",
                  "name": "preferAddToBalance",
                  "type": "bool"
                },
                {
                  "internalType": "uint256",
                  "name": "percent",
                  "type": "uint256"
                },
                {
                  "internalType": "uint256",
                  "name": "projectId",
                  "type": "uint256"
                },
                {
                  "internalType": "address payable",
                  "name": "beneficiary",
                  "type": "address"
                },
                {
                  "internalType": "uint256",
                  "name": "lockedUntil",
                  "type": "uint256"
                },
                {
                  "internalType": "contract IJBSplitAllocator",
                  "name": "allocator",
                  "type": "address"
                }
              ],
              "internalType": "struct JBSplit[]",
              "name": "splits",
              "type": "tuple[]"
            }
          ],
          "internalType": "struct JBGroupedSplits[]",
          "name": "_groupedSplits",
          "type": "tuple[]"
        },
        {
          "components": [
            {
              "internalType": "contract IJBPaymentTerminal",
              "name": "terminal",
              "type": "address"
            },
            {
              "internalType": "address",
              "name": "token",
              "type": "address"
            },
            {
              "internalType": "uint256",
              "name": "distributionLimit",
              "type": "uint256"
            },
            {
              "internalType": "uint256",
              "name": "distributionLimitCurrency",
              "type": "uint256"
            },
            {
              "internalType": "uint256",
              "name": "overflowAllowance",
              "type": "uint256"
            },
            {
              "internalType": "uint256",
              "name": "overflowAllowanceCurrency",
              "type": "uint256"
            }
          ],
          "internalType": "struct JBFundAccessConstraints[]",
          "name": "_fundAccessConstraints",
          "type": "tuple[]"
        },
        {
          "internalType": "contract IJBPaymentTerminal[]",
          "name": "_terminals",
          "type": "address[]"
        },
        {
          "internalType": "string",
          "name": "_memo",
          "type": "string"
        }
      ],
      "name": "launchProjectFor",
      "outputs": [
        {
          "internalType": "uint256",
          "name": "projectId",
          "type": "uint256"
        }
      ],
      "stateMutability": "nonpayable",
      "type": "function"
    },
    {
      "inputs": [
        {
          "internalType": "uint256",
          "name": "_projectId",
          "type": "uint256"
        },
        {
          "internalType": "contract IJBMigratable",
          "name": "_to",
          "type": "address"
        }
      ],
      "name": "migrate",
      "outputs": [],
      "stateMutability": "nonpayable",
      "type": "function"
    },
    {
      "inputs": [
        {
          "internalType": "uint256",
          "name": "_projectId",
          "type": "uint256"
        },
        {
          "internalType": "uint256",
          "name": "_tokenCount",
          "type": "uint256"
        },
        {
          "internalType": "address",
          "name": "_beneficiary",
          "type": "address"
        },
        {
          "internalType": "string",
          "name": "_memo",
          "type": "string"
        },
        {
          "internalType": "bool",
          "name": "_preferClaimedTokens",
          "type": "bool"
        },
        {
          "internalType": "bool",
          "name": "_useReservedRate",
          "type": "bool"
        }
      ],
      "name": "mintTokensOf",
      "outputs": [
        {
          "internalType": "uint256",
          "name": "beneficiaryTokenCount",
          "type": "uint256"
        }
      ],
      "stateMutability": "nonpayable",
      "type": "function"
    },
    {
      "inputs": [],
      "name": "operatorStore",
      "outputs": [
        {
          "internalType": "contract IJBOperatorStore",
          "name": "",
          "type": "address"
        }
      ],
      "stateMutability": "view",
      "type": "function"
    },
    {
      "inputs": [
        {
          "internalType": "uint256",
          "name": "_projectId",
          "type": "uint256"
        },
        {
          "internalType": "uint256",
          "name": "_configuration",
          "type": "uint256"
        },
        {
          "internalType": "contract IJBPaymentTerminal",
          "name": "_terminal",
          "type": "address"
        },
        {
          "internalType": "address",
          "name": "_token",
          "type": "address"
        }
      ],
      "name": "overflowAllowanceOf",
      "outputs": [
        {
          "internalType": "uint256",
          "name": "",
          "type": "uint256"
        },
        {
          "internalType": "uint256",
          "name": "",
          "type": "uint256"
        }
      ],
      "stateMutability": "view",
      "type": "function"
    },
    {
      "inputs": [
        {
          "internalType": "uint256",
          "name": "_projectId",
          "type": "uint256"
        },
        {
          "internalType": "address",
          "name": "_from",
          "type": "address"
        }
      ],
      "name": "prepForMigrationOf",
      "outputs": [],
      "stateMutability": "nonpayable",
      "type": "function"
    },
    {
      "inputs": [],
      "name": "projects",
      "outputs": [
        {
          "internalType": "contract IJBProjects",
          "name": "",
          "type": "address"
        }
      ],
      "stateMutability": "view",
      "type": "function"
    },
    {
      "inputs": [
        {
          "internalType": "uint256",
          "name": "_projectId",
          "type": "uint256"
        }
      ],
      "name": "queuedFundingCycleOf",
      "outputs": [
        {
          "components": [
            {
              "internalType": "uint256",
              "name": "number",
              "type": "uint256"
            },
            {
              "internalType": "uint256",
              "name": "configuration",
              "type": "uint256"
            },
            {
              "internalType": "uint256",
              "name": "basedOn",
              "type": "uint256"
            },
            {
              "internalType": "uint256",
              "name": "start",
              "type": "uint256"
            },
            {
              "internalType": "uint256",
              "name": "duration",
              "type": "uint256"
            },
            {
              "internalType": "uint256",
              "name": "weight",
              "type": "uint256"
            },
            {
              "internalType": "uint256",
              "name": "discountRate",
              "type": "uint256"
            },
            {
              "internalType": "contract IJBFundingCycleBallot",
              "name": "ballot",
              "type": "address"
            },
            {
              "internalType": "uint256",
              "name": "metadata",
              "type": "uint256"
            }
          ],
          "internalType": "struct JBFundingCycle",
          "name": "fundingCycle",
          "type": "tuple"
        },
        {
          "components": [
            {
              "components": [
                {
                  "internalType": "bool",
                  "name": "allowSetTerminals",
                  "type": "bool"
                },
                {
                  "internalType": "bool",
                  "name": "allowSetController",
                  "type": "bool"
                }
              ],
              "internalType": "struct JBGlobalFundingCycleMetadata",
              "name": "global",
              "type": "tuple"
            },
            {
              "internalType": "uint256",
              "name": "reservedRate",
              "type": "uint256"
            },
            {
              "internalType": "uint256",
              "name": "redemptionRate",
              "type": "uint256"
            },
            {
              "internalType": "uint256",
              "name": "ballotRedemptionRate",
              "type": "uint256"
            },
            {
              "internalType": "bool",
              "name": "pausePay",
              "type": "bool"
            },
            {
              "internalType": "bool",
              "name": "pauseDistributions",
              "type": "bool"
            },
            {
              "internalType": "bool",
              "name": "pauseRedeem",
              "type": "bool"
            },
            {
              "internalType": "bool",
              "name": "pauseBurn",
              "type": "bool"
            },
            {
              "internalType": "bool",
              "name": "allowMinting",
              "type": "bool"
            },
            {
              "internalType": "bool",
              "name": "allowChangeToken",
              "type": "bool"
            },
            {
              "internalType": "bool",
              "name": "allowTerminalMigration",
              "type": "bool"
            },
            {
              "internalType": "bool",
              "name": "allowControllerMigration",
              "type": "bool"
            },
            {
              "internalType": "bool",
              "name": "holdFees",
              "type": "bool"
            },
            {
              "internalType": "bool",
              "name": "useTotalOverflowForRedemptions",
              "type": "bool"
            },
            {
              "internalType": "bool",
              "name": "useDataSourceForPay",
              "type": "bool"
            },
            {
              "internalType": "bool",
              "name": "useDataSourceForRedeem",
              "type": "bool"
            },
            {
              "internalType": "address",
              "name": "dataSource",
              "type": "address"
            }
          ],
          "internalType": "struct JBFundingCycleMetadata",
          "name": "metadata",
          "type": "tuple"
        }
      ],
      "stateMutability": "view",
      "type": "function"
    },
    {
      "inputs": [
        {
          "internalType": "uint256",
          "name": "_projectId",
          "type": "uint256"
        },
        {
          "components": [
            {
              "internalType": "uint256",
              "name": "duration",
              "type": "uint256"
            },
            {
              "internalType": "uint256",
              "name": "weight",
              "type": "uint256"
            },
            {
              "internalType": "uint256",
              "name": "discountRate",
              "type": "uint256"
            },
            {
              "internalType": "contract IJBFundingCycleBallot",
              "name": "ballot",
              "type": "address"
            }
          ],
          "internalType": "struct JBFundingCycleData",
          "name": "_data",
          "type": "tuple"
        },
        {
          "components": [
            {
              "components": [
                {
                  "internalType": "bool",
                  "name": "allowSetTerminals",
                  "type": "bool"
                },
                {
                  "internalType": "bool",
                  "name": "allowSetController",
                  "type": "bool"
                }
              ],
              "internalType": "struct JBGlobalFundingCycleMetadata",
              "name": "global",
              "type": "tuple"
            },
            {
              "internalType": "uint256",
              "name": "reservedRate",
              "type": "uint256"
            },
            {
              "internalType": "uint256",
              "name": "redemptionRate",
              "type": "uint256"
            },
            {
              "internalType": "uint256",
              "name": "ballotRedemptionRate",
              "type": "uint256"
            },
            {
              "internalType": "bool",
              "name": "pausePay",
              "type": "bool"
            },
            {
              "internalType": "bool",
              "name": "pauseDistributions",
              "type": "bool"
            },
            {
              "internalType": "bool",
              "name": "pauseRedeem",
              "type": "bool"
            },
            {
              "internalType": "bool",
              "name": "pauseBurn",
              "type": "bool"
            },
            {
              "internalType": "bool",
              "name": "allowMinting",
              "type": "bool"
            },
            {
              "internalType": "bool",
              "name": "allowChangeToken",
              "type": "bool"
            },
            {
              "internalType": "bool",
              "name": "allowTerminalMigration",
              "type": "bool"
            },
            {
              "internalType": "bool",
              "name": "allowControllerMigration",
              "type": "bool"
            },
            {
              "internalType": "bool",
              "name": "holdFees",
              "type": "bool"
            },
            {
              "internalType": "bool",
              "name": "useTotalOverflowForRedemptions",
              "type": "bool"
            },
            {
              "internalType": "bool",
              "name": "useDataSourceForPay",
              "type": "bool"
            },
            {
              "internalType": "bool",
              "name": "useDataSourceForRedeem",
              "type": "bool"
            },
            {
              "internalType": "address",
              "name": "dataSource",
              "type": "address"
            }
          ],
          "internalType": "struct JBFundingCycleMetadata",
          "name": "_metadata",
          "type": "tuple"
        },
        {
          "internalType": "uint256",
          "name": "_mustStartAtOrAfter",
          "type": "uint256"
        },
        {
          "components": [
            {
              "internalType": "uint256",
              "name": "group",
              "type": "uint256"
            },
            {
              "components": [
                {
                  "internalType": "bool",
                  "name": "preferClaimed",
                  "type": "bool"
                },
                {
                  "internalType": "bool",
                  "name": "preferAddToBalance",
                  "type": "bool"
                },
                {
                  "internalType": "uint256",
                  "name": "percent",
                  "type": "uint256"
                },
                {
                  "internalType": "uint256",
                  "name": "projectId",
                  "type": "uint256"
                },
                {
                  "internalType": "address payable",
                  "name": "beneficiary",
                  "type": "address"
                },
                {
                  "internalType": "uint256",
                  "name": "lockedUntil",
                  "type": "uint256"
                },
                {
                  "internalType": "contract IJBSplitAllocator",
                  "name": "allocator",
                  "type": "address"
                }
              ],
              "internalType": "struct JBSplit[]",
              "name": "splits",
              "type": "tuple[]"
            }
          ],
          "internalType": "struct JBGroupedSplits[]",
          "name": "_groupedSplits",
          "type": "tuple[]"
        },
        {
          "components": [
            {
              "internalType": "contract IJBPaymentTerminal",
              "name": "terminal",
              "type": "address"
            },
            {
              "internalType": "address",
              "name": "token",
              "type": "address"
            },
            {
              "internalType": "uint256",
              "name": "distributionLimit",
              "type": "uint256"
            },
            {
              "internalType": "uint256",
              "name": "distributionLimitCurrency",
              "type": "uint256"
            },
            {
              "internalType": "uint256",
              "name": "overflowAllowance",
              "type": "uint256"
            },
            {
              "internalType": "uint256",
              "name": "overflowAllowanceCurrency",
              "type": "uint256"
            }
          ],
          "internalType": "struct JBFundAccessConstraints[]",
          "name": "_fundAccessConstraints",
          "type": "tuple[]"
        },
        {
          "internalType": "string",
          "name": "_memo",
          "type": "string"
        }
      ],
      "name": "reconfigureFundingCyclesOf",
      "outputs": [
        {
          "internalType": "uint256",
          "name": "configuration",
          "type": "uint256"
        }
      ],
      "stateMutability": "nonpayable",
      "type": "function"
    },
    {
      "inputs": [
        {
          "internalType": "uint256",
          "name": "_projectId",
          "type": "uint256"
        },
        {
          "internalType": "uint256",
          "name": "_reservedRate",
          "type": "uint256"
        }
      ],
      "name": "reservedTokenBalanceOf",
      "outputs": [
        {
          "internalType": "uint256",
          "name": "",
          "type": "uint256"
        }
      ],
      "stateMutability": "view",
      "type": "function"
    },
    {
      "inputs": [],
      "name": "splitsStore",
      "outputs": [
        {
          "internalType": "contract IJBSplitsStore",
          "name": "",
          "type": "address"
        }
      ],
      "stateMutability": "view",
      "type": "function"
    },
    {
      "inputs": [
        {
          "internalType": "bytes4",
          "name": "_interfaceId",
          "type": "bytes4"
        }
      ],
      "name": "supportsInterface",
      "outputs": [
        {
          "internalType": "bool",
          "name": "",
          "type": "bool"
        }
      ],
      "stateMutability": "view",
      "type": "function"
    },
    {
      "inputs": [],
      "name": "tokenStore",
      "outputs": [
        {
          "internalType": "contract IJBTokenStore",
          "name": "",
          "type": "address"
        }
      ],
      "stateMutability": "view",
      "type": "function"
    },
    {
      "inputs": [
        {
          "internalType": "uint256",
          "name": "_projectId",
          "type": "uint256"
        },
        {
          "internalType": "uint256",
          "name": "_reservedRate",
          "type": "uint256"
        }
      ],
      "name": "totalOutstandingTokensOf",
      "outputs": [
        {
          "internalType": "uint256",
          "name": "",
          "type": "uint256"
        }
      ],
      "stateMutability": "view",
      "type": "function"
    }
  ],
  "bytecode": {
    "object": "0x6101406040523480156200001257600080fd5b506040516200507738038062005077833981016040819052620000359162000076565b6001600160601b0319606096871b811660805294861b851660a05292851b84166101205290841b831660c052831b821660e05290911b166101005262000123565b60008060008060008060c087890312156200009057600080fd5b86516200009d816200010a565b6020880151909650620000b0816200010a565b6040880151909550620000c3816200010a565b6060880151909450620000d6816200010a565b6080880151909350620000e9816200010a565b60a0880151909250620000fc816200010a565b809150509295509295509295565b6001600160a01b03811681146200012057600080fd5b50565b60805160601c60a05160601c60c05160601c60e05160601c6101005160601c6101205160601c614d9b620002dc600039600081816104120152818161061a0152818161078f01528181610c3e01528181610e9901528181611150015281816113830152818161140501528181611593015281816116860152818161192001526119f601526000818161021001528181612aec0152612f8801526000818161029c0152818161087401528181610b9801528181610cf60152818161101b01528181611b7301528181611e7d01528181611fea015281816120fe0152818161273b015281816128d60152818161306601526131f401526000818161027501528181610559015281816106d70152818161095f01528181610ab801528181610f53015281816112c301528181611763015281816117dd01528181611dc30152818161269c0152612a1c01526000818161038b01528181610a0f01528181610de901528181611212015281816114eb0152818161187d01528181611c5201528181611f430152818161281201526130da0152600081816103d801528181612395015281816124400152818161251d01526125c80152614d9b6000f3fe608060405234801561001057600080fd5b50600436106101735760003560e01c80637fc19af5116100de578063ad007d6311610097578063d101307311610071578063d101307314610434578063e867c59c14610447578063e8db21301461045a578063f033b3b4146104b357600080fd5b8063ad007d63146103d3578063b5f1e34d146103fa578063c41c2f241461040d57600080fd5b80637fc19af51461034d5780638776c499146103605780638ae9c07b146103735780638b79543c1461038657806394b63795146103ad578063a40bb9c7146103c057600080fd5b80633e8c615b116101305780633e8c615b1461024a578063405b84fa1461025d578063557e71551461027057806361930630146102975780636d4bae6b146102be5780637a81b562146102df57600080fd5b806301ffc9a71461017857806312b37b14146101a05780631665bc0f146101c15780631f510453146101d6578063229bb824146101f85780632bdfe0041461020b575b600080fd5b61018b610186366004613cc2565b6104c6565b60405190151581526020015b60405180910390f35b6101b36101ae366004613e9e565b610533565b604051610197929190614635565b6101d46101cf366004613b1c565b6105ef565b005b6101e96101e4366004613e9e565b610936565b60405161019793929190614652565b6101d4610206366004613ef5565b6109f9565b6102327f000000000000000000000000000000000000000000000000000000000000000081565b6040516001600160a01b039091168152602001610197565b6101d4610258366004613ed0565b610c1e565b6101d461026b366004613ed0565b610dd3565b6102327f000000000000000000000000000000000000000000000000000000000000000081565b6102327f000000000000000000000000000000000000000000000000000000000000000081565b6102d16102cc3660046140d2565b6111f9565b604051908152602001610197565b6103386102ed366004614270565b60009384526002602090815260408086209486529381528385206001600160a01b039384168652815283852091909216845290529020546001600160e81b0381169160e89190911c90565b60408051928352602083019190915201610197565b6102d161035b3660046139f3565b6114d1565b6101b361036e366004613e9e565b61173d565b6102d16103813660046141e1565b61179a565b6102327f000000000000000000000000000000000000000000000000000000000000000081565b6102d16103bb366004613ffb565b611c39565b6101b36103ce3660046141bf565b611d96565b6102327f000000000000000000000000000000000000000000000000000000000000000081565b6102d16104083660046141bf565b611e5a565b6102327f000000000000000000000000000000000000000000000000000000000000000081565b610232610442366004613f82565b611f2a565b6102d1610455366004613f37565b612086565b610338610468366004614270565b60009384526001602090815260408086209486529381528385206001600160a01b039384168652815283852091909216845290529020546001600160e81b0381169160e89190911c90565b6102d16104c13660046141bf565b6120d2565b60006001600160e01b0319821663e8469c8560e01b14806104f757506001600160e01b03198216633e8c615b60e01b145b8061051257506001600160e01b0319821663ad007d6360e01b145b8061052d57506301ffc9a760e01b6001600160e01b03198316145b92915050565b61053b61350c565b610543613561565b604051630b8aa00f60e31b8152600481018490527f00000000000000000000000000000000000000000000000000000000000000006001600160a01b031690635c550078906024015b6101206040518083038186803b1580156105a557600080fd5b505afa1580156105b9573d6000803e3d6000fd5b505050506040513d601f19601f820116820180604052508101906105dd9190613e43565b91506105e882612185565b9050915091565b604051636e49181f60e01b81526004810186905233602482015286908690600a906001600160a01b037f00000000000000000000000000000000000000000000000000000000000000001690636e49181f9060440160206040518083038186803b15801561065c57600080fd5b505afa158015610670573d6000803e3d6000fd5b505050506040513d601f19601f820116820180604052508101906106949190613ca5565b6106a084848484612360565b876106be57604051637b38547b60e01b815260040160405180910390fd5b6040516321d1336160e11b8152600481018a90526000907f00000000000000000000000000000000000000000000000000000000000000006001600160a01b0316906343a266c2906024016101206040518083038186803b15801561072257600080fd5b505afa158015610736573d6000803e3d6000fd5b505050506040513d601f19601f8201168201806040525081019061075a9190613e43565b610100810151909150604b1c60019081161480156108135750604051636e49181f60e01b8152600481018b90523360248201527f00000000000000000000000000000000000000000000000000000000000000006001600160a01b031690636e49181f9060440160206040518083038186803b1580156107d957600080fd5b505afa1580156107ed573d6000803e3d6000fd5b505050506040513d601f19601f820116820180604052508101906108119190613ca5565b155b1561083157604051630f1490e360e31b815260040160405180910390fd5b60008a81526020819052604090205461084b908a90614ad3565b60008b81526020819052604090819020919091555163906ebd0f60e01b81526001600160a01b037f0000000000000000000000000000000000000000000000000000000000000000169063906ebd0f906108af908e908e908e908c906004016145ca565b600060405180830381600087803b1580156108c957600080fd5b505af11580156108dd573d6000803e3d6000fd5b50505050898b6001600160a01b03167fdf04e13ee4fcd48a81ab2fd114757093740a3efa9b6475d86e05878b4c59d0798b8b8b336040516109219493929190614769565b60405180910390a35050505050505050505050565b61093e61350c565b610946613561565b60405163ebc8ca1f60e01b8152600481018490526000907f00000000000000000000000000000000000000000000000000000000000000006001600160a01b03169063ebc8ca1f906024016101406040518083038186803b1580156109aa57600080fd5b505afa1580156109be573d6000803e3d6000fd5b505050506040513d601f19601f820116820180604052508101906109e29190613e60565b90935090506109f083612185565b91509193909250565b6040516331a9108f60e11b8152600481018490527f00000000000000000000000000000000000000000000000000000000000000006001600160a01b031690636352211e9060240160206040518083038186803b158015610a5957600080fd5b505afa158015610a6d573d6000803e3d6000fd5b505050506040513d601f19601f82011682018060405250810190610a9191906139d6565b836008610a9f8383836124f2565b6040516321d1336160e11b8152600481018790526000907f00000000000000000000000000000000000000000000000000000000000000006001600160a01b0316906343a266c2906024016101206040518083038186803b158015610b0357600080fd5b505afa158015610b17573d6000803e3d6000fd5b505050506040513d601f19601f82011682018060405250810190610b3b9190613e43565b610100810151909150604d1c600190811614610b6a57604051632ebc601360e01b815260040160405180910390fd5b604051630afc98ef60e31b8152600481018890526001600160a01b03878116602483015286811660448301527f000000000000000000000000000000000000000000000000000000000000000016906357e4c77890606401602060405180830381600087803b158015610bdc57600080fd5b505af1158015610bf0573d6000803e3d6000fd5b505050506040513d601f19601f82011682018060405250810190610c1491906139d6565b5050505050505050565b604051632eec7b5560e11b81526004810183905230906001600160a01b037f00000000000000000000000000000000000000000000000000000000000000001690635dd8f6aa9060240160206040518083038186803b158015610c8057600080fd5b505afa158015610c94573d6000803e3d6000fd5b505050506040513d601f19601f82011682018060405250810190610cb891906139d6565b6001600160a01b03161415610ce057604051637e16712d60e11b815260040160405180910390fd5b6040516375b0d9cd60e01b8152600481018390527f00000000000000000000000000000000000000000000000000000000000000006001600160a01b0316906375b0d9cd9060240160206040518083038186803b158015610d4057600080fd5b505afa158015610d54573d6000803e3d6000fd5b505050506040513d601f19601f82011682018060405250810190610d789190613eb7565b600083815260208181526040918290209290925580516001600160a01b0384168152339281019290925283917ff389f4f5d01fe4903d6a7a63b8790b7bf80d374b6afed808c03795c3b323d4d3910160405180910390a25050565b6040516331a9108f60e11b8152600481018390527f00000000000000000000000000000000000000000000000000000000000000006001600160a01b031690636352211e9060240160206040518083038186803b158015610e3357600080fd5b505afa158015610e47573d6000803e3d6000fd5b505050506040513d601f19601f82011682018060405250810190610e6b91906139d6565b826003610e798383836124f2565b604051632eec7b5560e11b81526004810186905230906001600160a01b037f00000000000000000000000000000000000000000000000000000000000000001690635dd8f6aa9060240160206040518083038186803b158015610edb57600080fd5b505afa158015610eef573d6000803e3d6000fd5b505050506040513d601f19601f82011682018060405250810190610f1391906139d6565b6001600160a01b031614610f3a5760405163e0a0a87d60e01b815260040160405180910390fd5b6040516321d1336160e11b8152600481018690526000907f00000000000000000000000000000000000000000000000000000000000000006001600160a01b0316906343a266c2906024016101206040518083038186803b158015610f9e57600080fd5b505afa158015610fb2573d6000803e3d6000fd5b505050506040513d601f19601f82011682018060405250810190610fd69190613e43565b610100810151909150604f1c600190811614611005576040516346ace3f960e01b815260040160405180910390fd5b6040516375b0d9cd60e01b8152600481018790527f00000000000000000000000000000000000000000000000000000000000000006001600160a01b0316906375b0d9cd9060240160206040518083038186803b15801561106557600080fd5b505afa158015611079573d6000803e3d6000fd5b505050506040513d601f19601f8201168201806040525081019061109d9190613eb7565b600087815260208190526040902054146110cc576110ca8660405180602001604052806000815250612679565b505b604051633e8c615b60e01b8152600481018790523060248201526001600160a01b03861690633e8c615b90604401600060405180830381600087803b15801561111457600080fd5b505af1158015611128573d6000803e3d6000fd5b50506040516338a73f9960e11b8152600481018990526001600160a01b0388811660248301527f000000000000000000000000000000000000000000000000000000000000000016925063714e7f329150604401600060405180830381600087803b15801561119657600080fd5b505af11580156111aa573d6000803e3d6000fd5b5050604080516001600160a01b03891681523360208201528993507f01f954abace731a88ab86e71186040cc2be49fe517ea06bc0d24f25b82b8345692500160405180910390a2505050505050565b6040516331a9108f60e11b8152600481018a90526000907f00000000000000000000000000000000000000000000000000000000000000006001600160a01b031690636352211e9060240160206040518083038186803b15801561125c57600080fd5b505afa158015611270573d6000803e3d6000fd5b505050506040513d601f19601f8201168201806040525081019061129491906139d6565b8a60016112a28383836124f2565b604051632cee6deb60e01b8152600481018e90526000906001600160a01b037f00000000000000000000000000000000000000000000000000000000000000001690632cee6deb9060240160206040518083038186803b15801561130557600080fd5b505afa158015611319573d6000803e3d6000fd5b505050506040513d601f19601f8201168201806040525081019061133d9190613eb7565b111561135f5760405160016217a1f760e11b0319815260040160405180910390fd5b6040516338a73f9960e11b8152600481018e90523060248201526001600160a01b037f0000000000000000000000000000000000000000000000000000000000000000169063714e7f3290604401600060405180830381600087803b1580156113c757600080fd5b505af11580156113db573d6000803e3d6000fd5b505050506113f98d8d8d8d8d8d906113f39190614b29565b8c612999565b865190945015611484577f00000000000000000000000000000000000000000000000000000000000000006001600160a01b031663821b9fd88e886040518363ffffffff1660e01b815260040161145192919061471f565b600060405180830381600087803b15801561146b57600080fd5b505af115801561147f573d6000803e3d6000fd5b505050505b7f8621c3692c18d8ddd4cd26457d6a3e1d916e7001c4243a6c8dfa862a7e10a823848e87336040516114b9949392919061495f565b60405180910390a15050509998505050505050505050565b6040516303336c3d60e51b81526000906001600160a01b037f0000000000000000000000000000000000000000000000000000000000000000169063666d87a090611522908f908f9060040161454a565b602060405180830381600087803b15801561153c57600080fd5b505af1158015611550573d6000803e3d6000fd5b505050506040513d601f19601f820116820180604052508101906115749190613eb7565b6040516338a73f9960e11b8152600481018290523060248201529091507f00000000000000000000000000000000000000000000000000000000000000006001600160a01b03169063714e7f3290604401600060405180830381600087803b1580156115df57600080fd5b505af11580156115f3573d6000803e3d6000fd5b505050506000611665828c8c8c8c8c9061160d9190614b29565b8b8b808060200260200160405190810160405280939291908181526020016000905b8282101561165b5761164c60c08302860136819003810190613cec565b8152602001906001019061162f565b5050505050612999565b8451909150156116f05760405163104373fb60e31b81526001600160a01b037f0000000000000000000000000000000000000000000000000000000000000000169063821b9fd8906116bd908590889060040161471f565b600060405180830381600087803b1580156116d757600080fd5b505af11580156116eb573d6000803e3d6000fd5b505050505b7ff3e6948ba8b32d557363ea08470121c47c0127659aed09320812174d373afef281838533604051611725949392919061495f565b60405180910390a1509b9a5050505050505050505050565b61174561350c565b61174d613561565b6040516321d1336160e11b8152600481018490527f00000000000000000000000000000000000000000000000000000000000000006001600160a01b0316906343a266c29060240161058c565b6000866117ba576040516327f44f9560e21b815260040160405180910390fd5b6040516321d1336160e11b81526004810189905260009081906001600160a01b037f000000000000000000000000000000000000000000000000000000000000000016906343a266c2906024016101206040518083038186803b15801561182057600080fd5b505afa158015611834573d6000803e3d6000fd5b505050506040513d601f19601f820116820180604052508101906118589190613e43565b6040516331a9108f60e11b8152600481018c90529091506119c3906001600160a01b037f00000000000000000000000000000000000000000000000000000000000000001690636352211e9060240160206040518083038186803b1580156118bf57600080fd5b505afa1580156118d3573d6000803e3d6000fd5b505050506040513d601f19601f820116820180604052508101906118f791906139d6565b604051636e49181f60e01b8152600481018d90523360248201528c906009906001600160a01b037f00000000000000000000000000000000000000000000000000000000000000001690636e49181f9060440160206040518083038186803b15801561196257600080fd5b505afa158015611976573d6000803e3d6000fd5b505050506040513d601f19601f8201168201806040525081019061199a9190613ca5565b806119be575061010085015160541c6001600160a01b0316336001600160a01b0316145b612360565b610100810151604c1c600190811614158015611a7a5750604051636e49181f60e01b8152600481018b90523360248201527f00000000000000000000000000000000000000000000000000000000000000006001600160a01b031690636e49181f9060440160206040518083038186803b158015611a4057600080fd5b505afa158015611a54573d6000803e3d6000fd5b505050506040513d601f19601f82011682018060405250810190611a789190613ca5565b155b8015611aa0575061010081015160541c6001600160a01b0316336001600160a01b031614155b15611abe57604051639d0ca8fd60e01b815260040160405180910390fd5b83611aca576000611ad8565b61010081015160181c61ffff165b915050612710811415611b1357600089815260208190526040902054611aff908990614ad3565b60008a815260208190526040902055611be1565b611b2b88611b2383612710614b12565b612710612d8a565b915080611b5c57600089815260208190526040902054611b4c908390614a7a565b60008a8152602081905260409020555b6040516333b774f960e21b81526001600160a01b037f0000000000000000000000000000000000000000000000000000000000000000169063ceddd3e490611bae908a908d9087908a906004016145ca565b600060405180830381600087803b158015611bc857600080fd5b505af1158015611bdc573d6000803e3d6000fd5b505050505b88876001600160a01b03167fe6fee9c572244c0c2238c3112ac12d411750a7ee00eeebd32521c3e5a666c14b8a858a8a8733604051611c259695949392919061491c565b60405180910390a350979650505050505050565b6040516331a9108f60e11b8152600481018b90526000907f00000000000000000000000000000000000000000000000000000000000000006001600160a01b031690636352211e9060240160206040518083038186803b158015611c9c57600080fd5b505afa158015611cb0573d6000803e3d6000fd5b505050506040513d601f19601f82011682018060405250810190611cd491906139d6565b8b6001611ce28383836124f2565b611d448e8e8e8e8e8e90611cf69190614b29565b8d8d808060200260200160405190810160405280939291908181526020016000905b8282101561165b57611d3560c08302860136819003810190613cec565b81526020019060010190611d18565b93507f1a08ad37c93969a586fd0605d240c17113b20a9c9ac3847595d0ab425225f6af848f888833604051611d7d9594939291906148e2565b60405180910390a15050509a9950505050505050505050565b611d9e61350c565b611da6613561565b60405163334f245560e11b815260048101859052602481018490527f00000000000000000000000000000000000000000000000000000000000000006001600160a01b03169063669e48aa906044016101206040518083038186803b158015611e0e57600080fd5b505afa158015611e22573d6000803e3d6000fd5b505050506040513d601f19601f82011682018060405250810190611e469190613e43565b9150611e5182612185565b90509250929050565b6040516375b0d9cd60e01b81526004810183905260009081906001600160a01b037f000000000000000000000000000000000000000000000000000000000000000016906375b0d9cd9060240160206040518083038186803b158015611ebf57600080fd5b505afa158015611ed3573d6000803e3d6000fd5b505050506040513d601f19601f82011682018060405250810190611ef79190613eb7565b60008581526020819052604081205491925090611f15908584612e5c565b9050611f218183614abb565b95945050505050565b6040516331a9108f60e11b8152600481018690526000907f00000000000000000000000000000000000000000000000000000000000000006001600160a01b031690636352211e9060240160206040518083038186803b158015611f8d57600080fd5b505afa158015611fa1573d6000803e3d6000fd5b505050506040513d601f19601f82011682018060405250810190611fc591906139d6565b866007611fd38383836124f2565b60405163a7f2a70b60e01b81526001600160a01b037f0000000000000000000000000000000000000000000000000000000000000000169063a7f2a70b90612027908c908c908c908c908c9060040161479c565b602060405180830381600087803b15801561204157600080fd5b505af1158015612055573d6000803e3d6000fd5b505050506040513d601f19601f8201168201806040525081019061207991906139d6565b9998505050505050505050565b60006120c88484848080601f01602080910402602001604051908101604052809392919081815260200183838082843760009201919091525061267992505050565b90505b9392505050565b6000828152602081905260408082205490516375b0d9cd60e01b8152600481018590526120cb919084907f00000000000000000000000000000000000000000000000000000000000000006001600160a01b0316906375b0d9cd9060240160206040518083038186803b15801561214857600080fd5b505afa15801561215c573d6000803e3d6000fd5b505050506040513d601f19601f820116820180604052508101906121809190613eb7565b612e5c565b61218d613561565b6040518061022001604052806121a284612ecd565b815261010084015160209091019060181c61ffff1681526020016121c584612f25565b81526020016121d384612f42565b81526020016121ef846101000151600160489190911c81161490565b1515815260200161220d846101000151600160499190911c81161490565b1515815260200161222b8461010001516001604a9190911c81161490565b151581526020016122498461010001516001604b9190911c81161490565b151581526020016122678461010001516001604c9190911c81161490565b151581526020016122858461010001516001604d9190911c81161490565b151581526020016122a38461010001516001604e9190911c81161490565b151581526020016122c18461010001516001604f9190911c81161490565b151581526020016122df846101000151600160509190911c81161490565b151581526020016122fd846101000151600160519190911c81161490565b1515815260200161231b846101000151600160529190911c81161490565b15158152602001612339846101000151600160539190911c81161490565b1515815260200161234f84610100015160541c90565b6001600160a01b0316905292915050565b801580156123775750336001600160a01b03851614155b8015612422575060405163c161c93f60e01b81526001600160a01b037f0000000000000000000000000000000000000000000000000000000000000000169063c161c93f906123d0903390889088908890600401614521565b60206040518083038186803b1580156123e857600080fd5b505afa1580156123fc573d6000803e3d6000fd5b505050506040513d601f19601f820116820180604052508101906124209190613ca5565b155b80156124ce575060405163c161c93f60e01b81526001600160a01b037f0000000000000000000000000000000000000000000000000000000000000000169063c161c93f9061247c90339088906000908890600401614521565b60206040518083038186803b15801561249457600080fd5b505afa1580156124a8573d6000803e3d6000fd5b505050506040513d601f19601f820116820180604052508101906124cc9190613ca5565b155b156124ec5760405163075fd2b160e01b815260040160405180910390fd5b50505050565b336001600160a01b038416148015906125aa575060405163c161c93f60e01b81526001600160a01b037f0000000000000000000000000000000000000000000000000000000000000000169063c161c93f90612558903390879087908790600401614521565b60206040518083038186803b15801561257057600080fd5b505afa158015612584573d6000803e3d6000fd5b505050506040513d601f19601f820116820180604052508101906125a89190613ca5565b155b8015612656575060405163c161c93f60e01b81526001600160a01b037f0000000000000000000000000000000000000000000000000000000000000000169063c161c93f9061260490339087906000908790600401614521565b60206040518083038186803b15801561261c57600080fd5b505afa158015612630573d6000803e3d6000fd5b505050506040513d601f19601f820116820180604052508101906126549190613ca5565b155b156126745760405163075fd2b160e01b815260040160405180910390fd5b505050565b6040516321d1336160e11b81526004810183905260009081906001600160a01b037f000000000000000000000000000000000000000000000000000000000000000016906343a266c2906024016101206040518083038186803b1580156126df57600080fd5b505afa1580156126f3573d6000803e3d6000fd5b505050506040513d601f19601f820116820180604052508101906127179190613e43565b6040516375b0d9cd60e01b8152600481018690529091506000906001600160a01b037f000000000000000000000000000000000000000000000000000000000000000016906375b0d9cd9060240160206040518083038186803b15801561277d57600080fd5b505afa158015612791573d6000803e3d6000fd5b505050506040513d601f19601f820116820180604052508101906127b59190613eb7565b6000868152602081905260409020546101008401519192506127de9160181c61ffff1683612e5c565b92506127ea8382614abb565b6000868152602081905260408082209290925590516331a9108f60e11b8152600481018790527f00000000000000000000000000000000000000000000000000000000000000006001600160a01b031690636352211e9060240160206040518083038186803b15801561285c57600080fd5b505afa158015612870573d6000803e3d6000fd5b505050506040513d601f19601f8201168201806040525081019061289491906139d6565b9050600084156128b4576128af878560200151600288612f5f565b6128b7565b60005b90508015612945576040516333b774f960e21b81526001600160a01b037f0000000000000000000000000000000000000000000000000000000000000000169063ceddd3e4906129129085908b9086906000906004016145ca565b600060405180830381600087803b15801561292c57600080fd5b505af1158015612940573d6000803e3d6000fd5b505050505b86846000015185602001517fb12d7a78048433f69fe6d30145bf08aad8e82985b96e4db6d5c6a7e94d57086e8589868c336040516129879594939291906145f2565b60405180910390a45050505092915050565b6000612710856040013511156129c257604051635623289560e01b815260040160405180910390fd5b612710856060013511156129e957604051639db9ee9360e01b815260040160405180910390fd5b61271085608001351115612a1057604051636edf8de360e11b815260040160405180910390fd5b60006001600160a01b037f00000000000000000000000000000000000000000000000000000000000000001663a249d4258989612a5a612a55368c90038c018c613d08565b613374565b896040518563ffffffff1660e01b8152600401612a7a94939291906147d5565b61012060405180830381600087803b158015612a9557600080fd5b505af1158015612aa9573d6000803e3d6000fd5b505050506040513d601f19601f82011682018060405250810190612acd9190613e43565b602081015160405163796d225b60e11b81529192506001600160a01b037f0000000000000000000000000000000000000000000000000000000000000000169163f2da44b691612b24918c91908990600401614829565b600060405180830381600087803b158015612b3e57600080fd5b505af1158015612b52573d6000803e3d6000fd5b5050505060005b8351811015612d7a576000848281518110612b7657612b76614d13565b602002602001015190506001600160e81b03801681604001511115612bae5760405163a9b8fbcf60e01b815260040160405180910390fd5b606081015162ffffff1015612bd657604051639583faed60e01b815260040160405180910390fd5b60808101516001600160e81b031015612c0257604051635730278360e01b815260040160405180910390fd5b60a081015162ffffff1015612c2a5760405163d9b93c2560e01b815260040160405180910390fd5b604081015115612c8757606081015160408083015160008d815260016020908152838220888201518352815283822086516001600160a01b03908116845290825284832082880151909116835290529190912060e89290921b1790555b608081015115612ce45760a0810151608082015160008c8152600260209081526040808320888301518452825280832086516001600160a01b039081168552908352818420838801519091168452909152902060e89290921b1790555b82516020808501516040805185516001600160a01b0390811682528685015116938101939093528085015190830152606080850151908301526080808501519083015260a080850151908301523360c08301528c92917f8a1c80ab9ab05d6bf02096dd94aa2fa05a9de212e793835a50dd5ffe8d8cbab89060e00160405180910390a45080612d7281614caf565b915050612b59565b5060200151979650505050505050565b600080806000198587098587029250828110838203039150508060001415612dc557838281612dbb57612dbb614cfd565b04925050506120cb565b838110612df357604051631dcf306360e21b8152600481018290526024810185905260440160405180910390fd5b60008486880960026001871981018816978890046003810283188082028403028082028403028082028403028082028403028082028403029081029092039091026000889003889004909101858311909403939093029303949094049190911702949350505050565b6000806000851215612e8057612e7185614cca565b612e7b9084614abb565b612e8a565b612e8a8584614b12565b905080612e9b5760009150506120cb565b612710841415612eac5790506120cb565b80612ec381612710612ebe8882614b12565b612d8a565b611f219190614b12565b604080518082019091526000808252602082015261052d6008836101000151901c6040805180820182526000808252602091820152815180830190925260018381168114835292831c83169092149181019190915290565b60006028826101000151901c61ffff1661271061052d9190614b12565b60006038826101000151901c61ffff1661271061052d9190614b12565b6040516369e11cc560e01b815260048101859052602481018490526044810183905281906000907f00000000000000000000000000000000000000000000000000000000000000006001600160a01b0316906369e11cc59060640160006040518083038186803b158015612fd257600080fd5b505afa158015612fe6573d6000803e3d6000fd5b505050506040513d6000823e601f3d908101601f1916820160405261300e9190810190613b97565b905060005b815181101561336a57600082828151811061303057613030614d13565b60200260200101519050600061304f868360400151633b9aca00612d8a565b905080156133175760c08201516001600160a01b037f000000000000000000000000000000000000000000000000000000000000000081169163ceddd3e491166131615760608401516130be5760808401516001600160a01b03166130b45733613167565b8360800151613167565b60608401516040516331a9108f60e11b815260048101919091527f00000000000000000000000000000000000000000000000000000000000000006001600160a01b031690636352211e9060240160206040518083038186803b15801561312457600080fd5b505afa158015613138573d6000803e3d6000fd5b505050506040513d601f19601f8201168201806040525081019061315c91906139d6565b613167565b8360c001515b84516040516001600160e01b031960e085901b16815261318f92918e918791906004016145ca565b600060405180830381600087803b1580156131a957600080fd5b505af11580156131bd573d6000803e3d6000fd5b5050505060c08201516001600160a01b03161561330a578160c001516001600160a01b0316639d740bfa6040518060c001604052807f00000000000000000000000000000000000000000000000000000000000000006001600160a01b031663ea78803f8e6040518263ffffffff1660e01b815260040161324091815260200190565b60206040518083038186803b15801561325857600080fd5b505afa15801561326c573d6000803e3d6000fd5b505050506040513d601f19601f8201168201806040525081019061329091906139d6565b6001600160a01b03168152602001848152602001601281526020018c81526020018a8152602001858152506040518263ffffffff1660e01b81526004016132d7919061469c565b600060405180830381600087803b1580156132f157600080fd5b505af1158015613305573d6000803e3d6000fd5b505050505b6133148186614b12565b94505b86888a7f990c1da5d280602f972ae3c429b6dc66a66569875205cc6e67f14e0b3fc4d2ac85853360405161334d939291906146f0565b60405180910390a45050808061336290614caf565b915050613013565b5050949350505050565b8051600190600890613385906134eb565b901b8117905060188260200151901b81179050602882604001516127106133ac9190614b12565b901b81179050603882606001516127106133c69190614b12565b901b811790508160800151156133e3576901000000000000000000175b8160a00151156133fa576902000000000000000000175b8160c0015115613411576904000000000000000000175b8160e0015115613428576908000000000000000000175b81610100015115613440576910000000000000000000175b81610120015115613458576920000000000000000000175b81610140015115613470576940000000000000000000175b81610160015115613488576980000000000000000000175b8161018001511561349a57600160501b175b816101a00151156134ac57600160511b175b816101c00151156134be57600160521b175b816101e00151156134d057600160531b175b610200919091015160541b600160541b600160f41b03161790565b8051600090156134f9576001175b816020015115613507576002175b919050565b6040518061012001604052806000815260200160008152602001600081526020016000815260200160008152602001600081526020016000815260200160006001600160a01b03168152602001600081525090565b6040805161026081018252600061022082018181526102408301829052825260208201819052918101829052606081018290526080810182905260a0810182905260c0810182905260e08101829052610100810182905261012081018290526101408101829052610160810182905261018081018290526101a081018290526101c081018290526101e0810182905261020081019190915290565b803561350781614d3f565b600082601f83011261361857600080fd5b8135602061362d61362883614a57565b614a27565b80838252828201915082860187848660051b890101111561364d57600080fd5b60005b8581101561367557813561366381614d3f565b84529284019290840190600101613650565b5090979650505050505050565b60008083601f84011261369457600080fd5b5081356001600160401b038111156136ab57600080fd5b60208301915083602060c0830285010111156136c657600080fd5b9250929050565b600082601f8301126136de57600080fd5b813560206136ee61362883614a57565b8281528181019085830160c08086028801850189101561370d57600080fd5b60005b86811015613734576137228a8461384c565b85529385019391810191600101613710565b509198975050505050505050565b60008083601f84011261375457600080fd5b5081356001600160401b0381111561376b57600080fd5b6020830191508360208260051b85010111156136c657600080fd5b803561350781614d57565b805161350781614d3f565b60008083601f8401126137ae57600080fd5b5081356001600160401b038111156137c557600080fd5b6020830191508360208285010111156136c657600080fd5b600082601f8301126137ee57600080fd5b81356001600160401b0381111561380757613807614d29565b61381a601f8201601f1916602001614a27565b81815284602083860101111561382f57600080fd5b816020850160208301376000918101602001919091529392505050565b600060c0828403121561385e57600080fd5b60405160c081018181106001600160401b038211171561388057613880614d29565b604052905080823561389181614d3f565b815260208301356138a181614d3f565b8060208301525060408301356040820152606083013560608201526080830135608082015260a083013560a08201525092915050565b6000608082840312156138e957600080fd5b50919050565b600061024082840312156138e957600080fd5b6000610120828403121561391557600080fd5b61391d614997565b9050815181526020820151602082015260408201516040820152606082015160608201526080820151608082015260a082015160a082015260c082015160c082015261396b60e08301613791565b60e082015261010080830151818301525092915050565b60006040828403121561399457600080fd5b61399c6149c0565b905081356139a981614d57565b815260208201356139b981614d57565b602082015292915050565b6000604082840312156138e957600080fd5b6000602082840312156139e857600080fd5b81516120cb81614d3f565b60008060008060008060008060008060006103a08c8e031215613a1557600080fd5b613a1e8c6135fc565b9a506001600160401b038060208e01351115613a3957600080fd5b613a498e60208f01358f016139c4565b9a50613a588e60408f016138d7565b9950613a678e60c08f016138ef565b98506103008d01359750806103208e01351115613a8357600080fd5b613a948e6103208f01358f01613742565b90975095506103408d0135811015613aab57600080fd5b613abc8e6103408f01358f01613682565b90955093506103608d0135811015613ad357600080fd5b613ae48e6103608f01358f01613607565b9250806103808e01351115613af857600080fd5b50613b0a8d6103808e01358e016137dd565b90509295989b509295989b9093969950565b60008060008060008060a08789031215613b3557600080fd5b8635613b4081614d3f565b9550602087013594506040870135935060608701356001600160401b03811115613b6957600080fd5b613b7589828a0161379c565b9094509250506080870135613b8981614d57565b809150509295509295509295565b60006020808385031215613baa57600080fd5b82516001600160401b03811115613bc057600080fd5b8301601f81018513613bd157600080fd5b8051613bdf61362882614a57565b8181528381019083850160e0808502860187018a1015613bfe57600080fd5b60009550855b85811015613c965781838c031215613c1a578687fd5b613c226149e2565b8351613c2d81614d57565b815283890151613c3c81614d57565b818a01526040848101519082015260608085015190820152608080850151613c6381614d3f565b9082015260a0848101519082015260c080850151613c8081614d3f565b9082015285529387019391810191600101613c04565b50919998505050505050505050565b600060208284031215613cb757600080fd5b81516120cb81614d57565b600060208284031215613cd457600080fd5b81356001600160e01b0319811681146120cb57600080fd5b600060c08284031215613cfe57600080fd5b6120cb838361384c565b60006102408284031215613d1b57600080fd5b613d23614a04565b613d2d8484613982565b8152604083013560208201526060830135604082015260808301356060820152613d5960a08401613786565b6080820152613d6a60c08401613786565b60a0820152613d7b60e08401613786565b60c0820152610100613d8e818501613786565b60e0830152610120613da1818601613786565b828401526101409150613db5828601613786565b90830152610160613dc7858201613786565b828401526101809150613ddb828601613786565b908301526101a0613ded858201613786565b828401526101c09150613e01828601613786565b908301526101e0613e13858201613786565b828401526102009150613e27828601613786565b90830152613e3861022085016135fc565b908201529392505050565b60006101208284031215613e5657600080fd5b6120cb8383613902565b6000806101408385031215613e7457600080fd5b613e7e8484613902565b915061012083015160038110613e9357600080fd5b809150509250929050565b600060208284031215613eb057600080fd5b5035919050565b600060208284031215613ec957600080fd5b5051919050565b60008060408385031215613ee357600080fd5b823591506020830135613e9381614d3f565b600080600060608486031215613f0a57600080fd5b833592506020840135613f1c81614d3f565b91506040840135613f2c81614d3f565b809150509250925092565b600080600060408486031215613f4c57600080fd5b8335925060208401356001600160401b03811115613f6957600080fd5b613f758682870161379c565b9497909650939450505050565b600080600080600060608688031215613f9a57600080fd5b8535945060208601356001600160401b0380821115613fb857600080fd5b613fc489838a0161379c565b90965094506040880135915080821115613fdd57600080fd5b50613fea8882890161379c565b969995985093965092949392505050565b6000806000806000806000806000806103608b8d03121561401b57600080fd5b8a35995061402c8c60208d016138d7565b985061403b8c60a08d016138ef565b97506102e08b013596506103008b01356001600160401b038082111561406057600080fd5b61406c8e838f01613742565b90985096506103208d013591508082111561408657600080fd5b6140928e838f01613682565b90965094506103408d01359150808211156140ac57600080fd5b506140b98d828e0161379c565b915080935050809150509295989b9194979a5092959850565b60008060008060008060008060006103808a8c0312156140f157600080fd5b893598506141028b60208c016138d7565b97506141118b60a08c016138ef565b96506102e08a013595506103008a01356001600160401b038082111561413657600080fd5b6141428d838e01613742565b90975095506103208c013591508082111561415c57600080fd5b6141688d838e016136cd565b94506103408c013591508082111561417f57600080fd5b61418b8d838e01613607565b93506103608c01359150808211156141a257600080fd5b506141af8c828d016137dd565b9150509295985092959850929598565b600080604083850312156141d257600080fd5b50508035926020909101359150565b600080600080600080600060c0888a0312156141fc57600080fd5b8735965060208801359550604088013561421581614d3f565b945060608801356001600160401b0381111561423057600080fd5b61423c8a828b0161379c565b909550935050608088013561425081614d57565b915060a088013561426081614d57565b8091505092959891949750929550565b6000806000806080858703121561428657600080fd5b8435935060208501359250604085013561429f81614d3f565b915060608501356142af81614d3f565b939692955090935050565b81835281816020850137506000828201602090810191909152601f909101601f19169091010190565b6000815180845260005b81811015614309576020818501810151868301820152016142ed565b8181111561431b576000602083870101525b50601f01601f19169290920160200192915050565b6143498282518051151582526020908101511515910152565b602081015160408301526040810151606083015260608101516080830152608081015161437a60a084018215159052565b5060a081015180151560c08401525060c081015180151560e08401525060e08101516101006143ac8185018315159052565b82015190506101206143c18482018315159052565b82015190506101406143d68482018315159052565b82015190506101606143eb8482018315159052565b82015190506101806144008482018315159052565b82015190506101a06144158482018315159052565b82015190506101c061442a8482018315159052565b82015190506101e061443f8482018315159052565b82015190506102006144548482018315159052565b8201516001600160a01b0381166102208501529050505050565b805182526020808201519083015260408082015190830152606080820151908301526080808201519083015260a0808201519083015260c0808201519083015260e0808201516001600160a01b03169083015261010090810151910152565b80511515825260208082015115159083015260408082015190830152606080820151908301526080808201516001600160a01b039081169184019190915260a0808301519084015260c09182015116910152565b6001600160a01b0394851681529290931660208301526040820152606081019190915260800190565b6001600160a01b0383168152604060208201526000823536849003601e1901811261457457600080fd5b830180356001600160401b0381111561458c57600080fd5b80360385131561459b57600080fd5b6040808501526145b26080850182602085016142ba565b91505060208401356060840152809150509392505050565b6001600160a01b03949094168452602084019290925260408301521515606082015260800190565b600060018060a01b03808816835286602084015285604084015260a0606084015261462060a08401866142e3565b91508084166080840152509695505050505050565b6103608101614644828561446e565b6120cb610120830184614330565b6103808101614661828661446e565b61466f610120830185614330565b6003831061468d57634e487b7160e01b600052602160045260246000fd5b82610360830152949350505050565b81516001600160a01b031681526020808301519082015260408083015190820152606080830151908201526080808301519082015260a0828101516101808301916146e9908401826144cd565b5092915050565b61012081016146ff82866144cd565b60e08201939093526001600160a01b039190911661010090910152919050565b6000604082018483526020604081850152818551808452606086019150828701935060005b818110156136755784516001600160a01b031683529383019391830191600101614744565b8481526060602082015260006147836060830185876142ba565b905060018060a01b038316604083015295945050505050565b8581526060602082015260006147b66060830186886142ba565b82810360408401526147c98185876142ba565b98975050505050505050565b600060e082019050858252843560208301526020850135604083015260408501356060830152606085013561480981614d3f565b6001600160a01b0316608083015260a082019390935260c0015292915050565b60006060808301868452602086818601526040838187015282875180855260808801915060808160051b89010194508389016000805b838110156148d0578a8803607f190185528251805189528701518789018790528051878a018190529088019083908b8b01905b808310156148bb576148a58285516144cd565b60e0820191508a84019350600183019250614892565b5099505050938601939186019160010161485f565b50959c9b505050505050505050505050565b8581528460208201526080604082015260006149026080830185876142ba565b905060018060a01b03831660608301529695505050505050565b86815285602082015260a06040820152600061493c60a0830186886142ba565b6060830194909452506001600160a01b0391909116608090910152949350505050565b84815283602082015260806040820152600061497e60808301856142e3565b905060018060a01b038316606083015295945050505050565b60405161012081016001600160401b03811182821017156149ba576149ba614d29565b60405290565b604080519081016001600160401b03811182821017156149ba576149ba614d29565b60405160e081016001600160401b03811182821017156149ba576149ba614d29565b60405161022081016001600160401b03811182821017156149ba576149ba614d29565b604051601f8201601f191681016001600160401b0381118282101715614a4f57614a4f614d29565b604052919050565b60006001600160401b03821115614a7057614a70614d29565b5060051b60200190565b600080821280156001600160ff1b0384900385131615614a9c57614a9c614ce7565b600160ff1b8390038412811615614ab557614ab5614ce7565b50500190565b60008219821115614ace57614ace614ce7565b500190565b60008083128015600160ff1b850184121615614af157614af1614ce7565b6001600160ff1b0384018313811615614b0c57614b0c614ce7565b50500390565b600082821015614b2457614b24614ce7565b500390565b6000614b3761362884614a57565b808482526020808301925084368760051b87011115614b5557600080fd5b60005b87811015614ca35781356001600160401b0380821115614b7757600080fd5b81890191506040808336031215614b8d57600080fd5b614b956149c0565b833581528684013583811115614baa57600080fd5b939093019236601f850112614bbe57600080fd5b83359250614bce61362884614a57565b8381528781019085890160e03681880289018c011115614bed57600080fd5b600097505b86881015614c8757808236031215614c0957600080fd5b614c116149e2565b8235614c1c81614d57565b8152828c0135614c2b81614d57565b818d0152828701358782015260608084013590820152608080840135614c5081614d3f565b9082015260a0838101359082015260c080840135614c6d81614d3f565b90820152845260019790970196928a019290810190614bf2565b5050828901525088525050509382019390820190600101614b58565b50919695505050505050565b6000600019821415614cc357614cc3614ce7565b5060010190565b6000600160ff1b821415614ce057614ce0614ce7565b5060000390565b634e487b7160e01b600052601160045260246000fd5b634e487b7160e01b600052601260045260246000fd5b634e487b7160e01b600052603260045260246000fd5b634e487b7160e01b600052604160045260246000fd5b6001600160a01b0381168114614d5457600080fd5b50565b8015158114614d5457600080fdfea264697066735822122026af231bf5061cf97a9e7a79e35130aaba43ba7753f4a44ddbcf4da8ccf5c17a64736f6c63430008060033",
    "linkReferences": {}
  },
  "methodIdentifiers": {
    "burnTokensOf(address,uint256,uint256,string,bool)": "1665bc0f",
    "changeTokenOf(uint256,address,address)": "229bb824",
    "currentFundingCycleOf(uint256)": "8776c499",
    "directory()": "c41c2f24",
    "distributeReservedTokensOf(uint256,string)": "e867c59c",
    "distributionLimitOf(uint256,uint256,address,address)": "e8db2130",
    "fundingCycleStore()": "557e7155",
    "getFundingCycleOf(uint256,uint256)": "a40bb9c7",
    "issueTokenFor(uint256,string,string)": "d1013073",
    "latestConfiguredFundingCycleOf(uint256)": "1f510453",
    "launchFundingCyclesFor(uint256,(uint256,uint256,uint256,address),((bool,bool),uint256,uint256,uint256,bool,bool,bool,bool,bool,bool,bool,bool,bool,bool,bool,bool,address),uint256,(uint256,(bool,bool,uint256,uint256,address,uint256,address)[])[],(address,address,uint256,uint256,uint256,uint256)[],address[],string)": "6d4bae6b",
    "launchProjectFor(address,(string,uint256),(uint256,uint256,uint256,address),((bool,bool),uint256,uint256,uint256,bool,bool,bool,bool,bool,bool,bool,bool,bool,bool,bool,bool,address),uint256,(uint256,(bool,bool,uint256,uint256,address,uint256,address)[])[],(address,address,uint256,uint256,uint256,uint256)[],address[],string)": "7fc19af5",
    "migrate(uint256,address)": "405b84fa",
    "mintTokensOf(uint256,uint256,address,string,bool,bool)": "8ae9c07b",
    "operatorStore()": "ad007d63",
    "overflowAllowanceOf(uint256,uint256,address,address)": "7a81b562",
    "prepForMigrationOf(uint256,address)": "3e8c615b",
    "projects()": "8b79543c",
    "queuedFundingCycleOf(uint256)": "12b37b14",
    "reconfigureFundingCyclesOf(uint256,(uint256,uint256,uint256,address),((bool,bool),uint256,uint256,uint256,bool,bool,bool,bool,bool,bool,bool,bool,bool,bool,bool,bool,address),uint256,(uint256,(bool,bool,uint256,uint256,address,uint256,address)[])[],(address,address,uint256,uint256,uint256,uint256)[],string)": "94b63795",
    "reservedTokenBalanceOf(uint256,uint256)": "f033b3b4",
    "splitsStore()": "2bdfe004",
    "supportsInterface(bytes4)": "01ffc9a7",
    "tokenStore()": "61930630",
    "totalOutstandingTokensOf(uint256,uint256)": "b5f1e34d"
  },
  "id": 7
}