{
  "abi": [
    {
      "inputs": [
        {
          "internalType": "contract IERC20Metadata",
          "name": "_token",
          "type": "address"
        },
        {
          "internalType": "uint256",
          "name": "_currency",
          "type": "uint256"
        },
        {
          "internalType": "uint256",
          "name": "_baseWeightCurrency",
          "type": "uint256"
        },
        {
          "internalType": "uint256",
          "name": "_payoutSplitsGroup",
          "type": "uint256"
        },
        {
          "internalType": "contract IJBOperatorStore",
          "name": "_operatorStore",
          "type": "address"
        },
        {
          "internalType": "contract IJBProjects",
          "name": "_projects",
          "type": "address"
        },
        {
          "internalType": "contract IJBDirectory",
          "name": "_directory",
          "type": "address"
        },
        {
          "internalType": "contract IJBSplitsStore",
          "name": "_splitsStore",
          "type": "address"
        },
        {
          "internalType": "contract IJBPrices",
          "name": "_prices",
          "type": "address"
        },
        {
          "internalType": "contract IJBSingleTokenPaymentTerminalStore",
          "name": "_store",
          "type": "address"
        },
        {
          "internalType": "address",
          "name": "_owner",
          "type": "address"
        }
      ],
      "stateMutability": "nonpayable",
      "type": "constructor"
    },
    {
      "inputs": [],
      "name": "FEE_TOO_HIGH",
      "type": "error"
    },
    {
      "inputs": [],
      "name": "INADEQUATE_DISTRIBUTION_AMOUNT",
      "type": "error"
    },
    {
      "inputs": [],
      "name": "INADEQUATE_RECLAIM_AMOUNT",
      "type": "error"
    },
    {
      "inputs": [],
      "name": "INADEQUATE_TOKEN_COUNT",
      "type": "error"
    },
    {
      "inputs": [],
      "name": "NO_MSG_VALUE_ALLOWED",
      "type": "error"
    },
    {
      "inputs": [],
      "name": "PAY_TO_ZERO_ADDRESS",
      "type": "error"
    },
    {
      "inputs": [
        {
          "internalType": "uint256",
          "name": "prod1",
          "type": "uint256"
        },
        {
          "internalType": "uint256",
          "name": "denominator",
          "type": "uint256"
        }
      ],
      "name": "PRBMath__MulDivOverflow",
      "type": "error"
    },
    {
      "inputs": [],
      "name": "PROJECT_TERMINAL_MISMATCH",
      "type": "error"
    },
    {
      "inputs": [],
      "name": "REDEEM_TO_ZERO_ADDRESS",
      "type": "error"
    },
    {
      "inputs": [],
      "name": "TERMINAL_IN_SPLIT_ZERO_ADDRESS",
      "type": "error"
    },
    {
      "inputs": [],
      "name": "TERMINAL_TOKENS_INCOMPATIBLE",
      "type": "error"
    },
    {
      "inputs": [],
      "name": "UNAUTHORIZED",
      "type": "error"
    },
    {
      "anonymous": false,
      "inputs": [
        {
          "indexed": true,
          "internalType": "uint256",
          "name": "projectId",
          "type": "uint256"
        },
        {
          "indexed": false,
          "internalType": "uint256",
          "name": "amount",
          "type": "uint256"
        },
        {
          "indexed": false,
          "internalType": "uint256",
          "name": "refundedFees",
          "type": "uint256"
        },
        {
          "indexed": false,
          "internalType": "string",
          "name": "memo",
          "type": "string"
        },
        {
          "indexed": false,
          "internalType": "bytes",
          "name": "metadata",
          "type": "bytes"
        },
        {
          "indexed": false,
          "internalType": "address",
          "name": "caller",
          "type": "address"
        }
      ],
      "name": "AddToBalance",
      "type": "event"
    },
    {
      "anonymous": false,
      "inputs": [
        {
          "indexed": true,
          "internalType": "contract IJBPayDelegate",
          "name": "delegate",
          "type": "address"
        },
        {
          "components": [
            {
              "internalType": "address",
              "name": "payer",
              "type": "address"
            },
            {
              "internalType": "uint256",
              "name": "projectId",
              "type": "uint256"
            },
            {
              "internalType": "uint256",
              "name": "currentFundingCycleConfiguration",
              "type": "uint256"
            },
            {
              "components": [
                {
                  "internalType": "address",
                  "name": "token",
                  "type": "address"
                },
                {
                  "internalType": "uint256",
                  "name": "value",
                  "type": "uint256"
                },
                {
                  "internalType": "uint256",
                  "name": "decimals",
                  "type": "uint256"
                },
                {
                  "internalType": "uint256",
                  "name": "currency",
                  "type": "uint256"
                }
              ],
              "internalType": "struct JBTokenAmount",
              "name": "amount",
              "type": "tuple"
            },
            {
              "internalType": "uint256",
              "name": "projectTokenCount",
              "type": "uint256"
            },
            {
              "internalType": "address",
              "name": "beneficiary",
              "type": "address"
            },
            {
              "internalType": "bool",
              "name": "preferClaimedTokens",
              "type": "bool"
            },
            {
              "internalType": "string",
              "name": "memo",
              "type": "string"
            },
            {
              "internalType": "bytes",
              "name": "metadata",
              "type": "bytes"
            }
          ],
          "indexed": false,
          "internalType": "struct JBDidPayData",
          "name": "data",
          "type": "tuple"
        },
        {
          "indexed": false,
          "internalType": "address",
          "name": "caller",
          "type": "address"
        }
      ],
      "name": "DelegateDidPay",
      "type": "event"
    },
    {
      "anonymous": false,
      "inputs": [
        {
          "indexed": true,
          "internalType": "contract IJBRedemptionDelegate",
          "name": "delegate",
          "type": "address"
        },
        {
          "components": [
            {
              "internalType": "address",
              "name": "holder",
              "type": "address"
            },
            {
              "internalType": "uint256",
              "name": "projectId",
              "type": "uint256"
            },
            {
              "internalType": "uint256",
              "name": "currentFundingCycleConfiguration",
              "type": "uint256"
            },
            {
              "internalType": "uint256",
              "name": "projectTokenCount",
              "type": "uint256"
            },
            {
              "components": [
                {
                  "internalType": "address",
                  "name": "token",
                  "type": "address"
                },
                {
                  "internalType": "uint256",
                  "name": "value",
                  "type": "uint256"
                },
                {
                  "internalType": "uint256",
                  "name": "decimals",
                  "type": "uint256"
                },
                {
                  "internalType": "uint256",
                  "name": "currency",
                  "type": "uint256"
                }
              ],
              "internalType": "struct JBTokenAmount",
              "name": "reclaimedAmount",
              "type": "tuple"
            },
            {
              "internalType": "address payable",
              "name": "beneficiary",
              "type": "address"
            },
            {
              "internalType": "string",
              "name": "memo",
              "type": "string"
            },
            {
              "internalType": "bytes",
              "name": "metadata",
              "type": "bytes"
            }
          ],
          "indexed": false,
          "internalType": "struct JBDidRedeemData",
          "name": "data",
          "type": "tuple"
        },
        {
          "indexed": false,
          "internalType": "address",
          "name": "caller",
          "type": "address"
        }
      ],
      "name": "DelegateDidRedeem",
      "type": "event"
    },
    {
      "anonymous": false,
      "inputs": [
        {
          "indexed": true,
          "internalType": "uint256",
          "name": "fundingCycleConfiguration",
          "type": "uint256"
        },
        {
          "indexed": true,
          "internalType": "uint256",
          "name": "fundingCycleNumber",
          "type": "uint256"
        },
        {
          "indexed": true,
          "internalType": "uint256",
          "name": "projectId",
          "type": "uint256"
        },
        {
          "indexed": false,
          "internalType": "address",
          "name": "beneficiary",
          "type": "address"
        },
        {
          "indexed": false,
          "internalType": "uint256",
          "name": "amount",
          "type": "uint256"
        },
        {
          "indexed": false,
          "internalType": "uint256",
          "name": "distributedAmount",
          "type": "uint256"
        },
        {
          "indexed": false,
          "internalType": "uint256",
          "name": "fee",
          "type": "uint256"
        },
        {
          "indexed": false,
          "internalType": "uint256",
          "name": "beneficiaryDistributionAmount",
          "type": "uint256"
        },
        {
          "indexed": false,
          "internalType": "string",
          "name": "memo",
          "type": "string"
        },
        {
          "indexed": false,
          "internalType": "address",
          "name": "caller",
          "type": "address"
        }
      ],
      "name": "DistributePayouts",
      "type": "event"
    },
    {
      "anonymous": false,
      "inputs": [
        {
          "indexed": true,
          "internalType": "uint256",
          "name": "projectId",
          "type": "uint256"
        },
        {
          "indexed": true,
          "internalType": "uint256",
          "name": "domain",
          "type": "uint256"
        },
        {
          "indexed": true,
          "internalType": "uint256",
          "name": "group",
          "type": "uint256"
        },
        {
          "components": [
            {
              "internalType": "bool",
              "name": "preferClaimed",
              "type": "bool"
            },
            {
              "internalType": "bool",
              "name": "preferAddToBalance",
              "type": "bool"
            },
            {
              "internalType": "uint256",
              "name": "percent",
              "type": "uint256"
            },
            {
              "internalType": "uint256",
              "name": "projectId",
              "type": "uint256"
            },
            {
              "internalType": "address payable",
              "name": "beneficiary",
              "type": "address"
            },
            {
              "internalType": "uint256",
              "name": "lockedUntil",
              "type": "uint256"
            },
            {
              "internalType": "contract IJBSplitAllocator",
              "name": "allocator",
              "type": "address"
            }
          ],
          "indexed": false,
          "internalType": "struct JBSplit",
          "name": "split",
          "type": "tuple"
        },
        {
          "indexed": false,
          "internalType": "uint256",
          "name": "amount",
          "type": "uint256"
        },
        {
          "indexed": false,
          "internalType": "address",
          "name": "caller",
          "type": "address"
        }
      ],
      "name": "DistributeToPayoutSplit",
      "type": "event"
    },
    {
      "anonymous": false,
      "inputs": [
        {
          "indexed": true,
          "internalType": "uint256",
          "name": "projectId",
          "type": "uint256"
        },
        {
          "indexed": true,
          "internalType": "uint256",
          "name": "amount",
          "type": "uint256"
        },
        {
          "indexed": true,
          "internalType": "uint256",
          "name": "fee",
          "type": "uint256"
        },
        {
          "indexed": false,
          "internalType": "uint256",
          "name": "feeDiscount",
          "type": "uint256"
        },
        {
          "indexed": false,
          "internalType": "address",
          "name": "beneficiary",
          "type": "address"
        },
        {
          "indexed": false,
          "internalType": "address",
          "name": "caller",
          "type": "address"
        }
      ],
      "name": "HoldFee",
      "type": "event"
    },
    {
      "anonymous": false,
      "inputs": [
        {
          "indexed": true,
          "internalType": "uint256",
          "name": "projectId",
          "type": "uint256"
        },
        {
          "indexed": true,
          "internalType": "contract IJBPaymentTerminal",
          "name": "to",
          "type": "address"
        },
        {
          "indexed": false,
          "internalType": "uint256",
          "name": "amount",
          "type": "uint256"
        },
        {
          "indexed": false,
          "internalType": "address",
          "name": "caller",
          "type": "address"
        }
      ],
      "name": "Migrate",
      "type": "event"
    },
    {
      "anonymous": false,
      "inputs": [
        {
          "indexed": true,
          "internalType": "address",
          "name": "previousOwner",
          "type": "address"
        },
        {
          "indexed": true,
          "internalType": "address",
          "name": "newOwner",
          "type": "address"
        }
      ],
      "name": "OwnershipTransferred",
      "type": "event"
    },
    {
      "anonymous": false,
      "inputs": [
        {
          "indexed": true,
          "internalType": "uint256",
          "name": "fundingCycleConfiguration",
          "type": "uint256"
        },
        {
          "indexed": true,
          "internalType": "uint256",
          "name": "fundingCycleNumber",
          "type": "uint256"
        },
        {
          "indexed": true,
          "internalType": "uint256",
          "name": "projectId",
          "type": "uint256"
        },
        {
          "indexed": false,
          "internalType": "address",
          "name": "payer",
          "type": "address"
        },
        {
          "indexed": false,
          "internalType": "address",
          "name": "beneficiary",
          "type": "address"
        },
        {
          "indexed": false,
          "internalType": "uint256",
          "name": "amount",
          "type": "uint256"
        },
        {
          "indexed": false,
          "internalType": "uint256",
          "name": "beneficiaryTokenCount",
          "type": "uint256"
        },
        {
          "indexed": false,
          "internalType": "string",
          "name": "memo",
          "type": "string"
        },
        {
          "indexed": false,
          "internalType": "bytes",
          "name": "metadata",
          "type": "bytes"
        },
        {
          "indexed": false,
          "internalType": "address",
          "name": "caller",
          "type": "address"
        }
      ],
      "name": "Pay",
      "type": "event"
    },
    {
      "anonymous": false,
      "inputs": [
        {
          "indexed": true,
          "internalType": "uint256",
          "name": "projectId",
          "type": "uint256"
        },
        {
          "indexed": true,
          "internalType": "uint256",
          "name": "amount",
          "type": "uint256"
        },
        {
          "indexed": true,
          "internalType": "bool",
          "name": "wasHeld",
          "type": "bool"
        },
        {
          "indexed": false,
          "internalType": "address",
          "name": "beneficiary",
          "type": "address"
        },
        {
          "indexed": false,
          "internalType": "address",
          "name": "caller",
          "type": "address"
        }
      ],
      "name": "ProcessFee",
      "type": "event"
    },
    {
      "anonymous": false,
      "inputs": [
        {
          "indexed": true,
          "internalType": "uint256",
          "name": "fundingCycleConfiguration",
          "type": "uint256"
        },
        {
          "indexed": true,
          "internalType": "uint256",
          "name": "fundingCycleNumber",
          "type": "uint256"
        },
        {
          "indexed": true,
          "internalType": "uint256",
          "name": "projectId",
          "type": "uint256"
        },
        {
          "indexed": false,
          "internalType": "address",
          "name": "holder",
          "type": "address"
        },
        {
          "indexed": false,
          "internalType": "address",
          "name": "beneficiary",
          "type": "address"
        },
        {
          "indexed": false,
          "internalType": "uint256",
          "name": "tokenCount",
          "type": "uint256"
        },
        {
          "indexed": false,
          "internalType": "uint256",
          "name": "reclaimedAmount",
          "type": "uint256"
        },
        {
          "indexed": false,
          "internalType": "string",
          "name": "memo",
          "type": "string"
        },
        {
          "indexed": false,
          "internalType": "bytes",
          "name": "metadata",
          "type": "bytes"
        },
        {
          "indexed": false,
          "internalType": "address",
          "name": "caller",
          "type": "address"
        }
      ],
      "name": "RedeemTokens",
      "type": "event"
    },
    {
      "anonymous": false,
      "inputs": [
        {
          "indexed": true,
          "internalType": "uint256",
          "name": "projectId",
          "type": "uint256"
        },
        {
          "indexed": true,
          "internalType": "uint256",
          "name": "amount",
          "type": "uint256"
        },
        {
          "indexed": true,
          "internalType": "uint256",
          "name": "refundedFees",
          "type": "uint256"
        },
        {
          "indexed": false,
          "internalType": "uint256",
          "name": "leftoverAmount",
          "type": "uint256"
        },
        {
          "indexed": false,
          "internalType": "address",
          "name": "caller",
          "type": "address"
        }
      ],
      "name": "RefundHeldFees",
      "type": "event"
    },
    {
      "anonymous": false,
      "inputs": [
        {
          "indexed": false,
          "internalType": "uint256",
          "name": "fee",
          "type": "uint256"
        },
        {
          "indexed": false,
          "internalType": "address",
          "name": "caller",
          "type": "address"
        }
      ],
      "name": "SetFee",
      "type": "event"
    },
    {
      "anonymous": false,
      "inputs": [
        {
          "indexed": true,
          "internalType": "contract IJBFeeGauge",
          "name": "feeGauge",
          "type": "address"
        },
        {
          "indexed": false,
          "internalType": "address",
          "name": "caller",
          "type": "address"
        }
      ],
      "name": "SetFeeGauge",
      "type": "event"
    },
    {
      "anonymous": false,
      "inputs": [
        {
          "indexed": true,
          "internalType": "address",
          "name": "addrs",
          "type": "address"
        },
        {
          "indexed": true,
          "internalType": "bool",
          "name": "flag",
          "type": "bool"
        },
        {
          "indexed": false,
          "internalType": "address",
          "name": "caller",
          "type": "address"
        }
      ],
      "name": "SetFeelessAddress",
      "type": "event"
    },
    {
      "anonymous": false,
      "inputs": [
        {
          "indexed": true,
          "internalType": "uint256",
          "name": "fundingCycleConfiguration",
          "type": "uint256"
        },
        {
          "indexed": true,
          "internalType": "uint256",
          "name": "fundingCycleNumber",
          "type": "uint256"
        },
        {
          "indexed": true,
          "internalType": "uint256",
          "name": "projectId",
          "type": "uint256"
        },
        {
          "indexed": false,
          "internalType": "address",
          "name": "beneficiary",
          "type": "address"
        },
        {
          "indexed": false,
          "internalType": "uint256",
          "name": "amount",
          "type": "uint256"
        },
        {
          "indexed": false,
          "internalType": "uint256",
          "name": "distributedAmount",
          "type": "uint256"
        },
        {
          "indexed": false,
          "internalType": "uint256",
          "name": "netDistributedamount",
          "type": "uint256"
        },
        {
          "indexed": false,
          "internalType": "string",
          "name": "memo",
          "type": "string"
        },
        {
          "indexed": false,
          "internalType": "address",
          "name": "caller",
          "type": "address"
        }
      ],
      "name": "UseAllowance",
      "type": "event"
    },
    {
      "inputs": [
        {
          "internalType": "address",
          "name": "_token",
          "type": "address"
        },
        {
          "internalType": "uint256",
          "name": "_projectId",
          "type": "uint256"
        }
      ],
      "name": "acceptsToken",
      "outputs": [
        {
          "internalType": "bool",
          "name": "",
          "type": "bool"
        }
      ],
      "stateMutability": "view",
      "type": "function"
    },
    {
      "inputs": [
        {
          "internalType": "uint256",
          "name": "_projectId",
          "type": "uint256"
        },
        {
          "internalType": "uint256",
          "name": "_amount",
          "type": "uint256"
        },
        {
          "internalType": "address",
          "name": "_token",
          "type": "address"
        },
        {
          "internalType": "string",
          "name": "_memo",
          "type": "string"
        },
        {
          "internalType": "bytes",
          "name": "_metadata",
          "type": "bytes"
        }
      ],
      "name": "addToBalanceOf",
      "outputs": [],
      "stateMutability": "payable",
      "type": "function"
    },
    {
      "inputs": [],
      "name": "baseWeightCurrency",
      "outputs": [
        {
          "internalType": "uint256",
          "name": "",
          "type": "uint256"
        }
      ],
      "stateMutability": "view",
      "type": "function"
    },
    {
      "inputs": [],
      "name": "currency",
      "outputs": [
        {
          "internalType": "uint256",
          "name": "",
          "type": "uint256"
        }
      ],
      "stateMutability": "view",
      "type": "function"
    },
    {
      "inputs": [
        {
          "internalType": "address",
          "name": "_token",
          "type": "address"
        }
      ],
      "name": "currencyForToken",
      "outputs": [
        {
          "internalType": "uint256",
          "name": "",
          "type": "uint256"
        }
      ],
      "stateMutability": "view",
      "type": "function"
    },
    {
      "inputs": [
        {
          "internalType": "uint256",
          "name": "_projectId",
          "type": "uint256"
        }
      ],
      "name": "currentEthOverflowOf",
      "outputs": [
        {
          "internalType": "uint256",
          "name": "",
          "type": "uint256"
        }
      ],
      "stateMutability": "view",
      "type": "function"
    },
    {
      "inputs": [],
      "name": "decimals",
      "outputs": [
        {
          "internalType": "uint256",
          "name": "",
          "type": "uint256"
        }
      ],
      "stateMutability": "view",
      "type": "function"
    },
    {
      "inputs": [
        {
          "internalType": "address",
          "name": "_token",
          "type": "address"
        }
      ],
      "name": "decimalsForToken",
      "outputs": [
        {
          "internalType": "uint256",
          "name": "",
          "type": "uint256"
        }
      ],
      "stateMutability": "view",
      "type": "function"
    },
    {
      "inputs": [],
      "name": "directory",
      "outputs": [
        {
          "internalType": "contract IJBDirectory",
          "name": "",
          "type": "address"
        }
      ],
      "stateMutability": "view",
      "type": "function"
    },
    {
      "inputs": [
        {
          "internalType": "uint256",
          "name": "_projectId",
          "type": "uint256"
        },
        {
          "internalType": "uint256",
          "name": "_amount",
          "type": "uint256"
        },
        {
          "internalType": "uint256",
          "name": "_currency",
          "type": "uint256"
        },
        {
          "internalType": "address",
          "name": "_token",
          "type": "address"
        },
        {
          "internalType": "uint256",
          "name": "_minReturnedTokens",
          "type": "uint256"
        },
        {
          "internalType": "string",
          "name": "_memo",
          "type": "string"
        }
      ],
      "name": "distributePayoutsOf",
      "outputs": [
        {
          "internalType": "uint256",
          "name": "netLeftoverDistributionAmount",
          "type": "uint256"
        }
      ],
      "stateMutability": "nonpayable",
      "type": "function"
    },
    {
      "inputs": [],
      "name": "fee",
      "outputs": [
        {
          "internalType": "uint256",
          "name": "",
          "type": "uint256"
        }
      ],
      "stateMutability": "view",
      "type": "function"
    },
    {
      "inputs": [],
      "name": "feeGauge",
      "outputs": [
        {
          "internalType": "contract IJBFeeGauge",
          "name": "",
          "type": "address"
        }
      ],
      "stateMutability": "view",
      "type": "function"
    },
    {
      "inputs": [
        {
          "internalType": "uint256",
          "name": "_projectId",
          "type": "uint256"
        }
      ],
      "name": "heldFeesOf",
      "outputs": [
        {
          "components": [
            {
              "internalType": "uint256",
              "name": "amount",
              "type": "uint256"
            },
            {
              "internalType": "uint32",
              "name": "fee",
              "type": "uint32"
            },
            {
              "internalType": "uint32",
              "name": "feeDiscount",
              "type": "uint32"
            },
            {
              "internalType": "address",
              "name": "beneficiary",
              "type": "address"
            }
          ],
          "internalType": "struct JBFee[]",
          "name": "",
          "type": "tuple[]"
        }
      ],
      "stateMutability": "view",
      "type": "function"
    },
    {
      "inputs": [
        {
          "internalType": "address",
          "name": "",
          "type": "address"
        }
      ],
      "name": "isFeelessAddress",
      "outputs": [
        {
          "internalType": "bool",
          "name": "",
          "type": "bool"
        }
      ],
      "stateMutability": "view",
      "type": "function"
    },
    {
      "inputs": [
        {
          "internalType": "uint256",
          "name": "_projectId",
          "type": "uint256"
        },
        {
          "internalType": "contract IJBPaymentTerminal",
          "name": "_to",
          "type": "address"
        }
      ],
      "name": "migrate",
      "outputs": [
        {
          "internalType": "uint256",
          "name": "balance",
          "type": "uint256"
        }
      ],
      "stateMutability": "nonpayable",
      "type": "function"
    },
    {
      "inputs": [],
      "name": "operatorStore",
      "outputs": [
        {
          "internalType": "contract IJBOperatorStore",
          "name": "",
          "type": "address"
        }
      ],
      "stateMutability": "view",
      "type": "function"
    },
    {
      "inputs": [],
      "name": "owner",
      "outputs": [
        {
          "internalType": "address",
          "name": "",
          "type": "address"
        }
      ],
      "stateMutability": "view",
      "type": "function"
    },
    {
      "inputs": [
        {
          "internalType": "uint256",
          "name": "_projectId",
          "type": "uint256"
        },
        {
          "internalType": "uint256",
          "name": "_amount",
          "type": "uint256"
        },
        {
          "internalType": "address",
          "name": "_token",
          "type": "address"
        },
        {
          "internalType": "address",
          "name": "_beneficiary",
          "type": "address"
        },
        {
          "internalType": "uint256",
          "name": "_minReturnedTokens",
          "type": "uint256"
        },
        {
          "internalType": "bool",
          "name": "_preferClaimedTokens",
          "type": "bool"
        },
        {
          "internalType": "string",
          "name": "_memo",
          "type": "string"
        },
        {
          "internalType": "bytes",
          "name": "_metadata",
          "type": "bytes"
        }
      ],
      "name": "pay",
      "outputs": [
        {
          "internalType": "uint256",
          "name": "",
          "type": "uint256"
        }
      ],
      "stateMutability": "payable",
      "type": "function"
    },
    {
      "inputs": [],
      "name": "payoutSplitsGroup",
      "outputs": [
        {
          "internalType": "uint256",
          "name": "",
          "type": "uint256"
        }
      ],
      "stateMutability": "view",
      "type": "function"
    },
    {
      "inputs": [],
      "name": "prices",
      "outputs": [
        {
          "internalType": "contract IJBPrices",
          "name": "",
          "type": "address"
        }
      ],
      "stateMutability": "view",
      "type": "function"
    },
    {
      "inputs": [
        {
          "internalType": "uint256",
          "name": "_projectId",
          "type": "uint256"
        }
      ],
      "name": "processFees",
      "outputs": [],
      "stateMutability": "nonpayable",
      "type": "function"
    },
    {
      "inputs": [],
      "name": "projects",
      "outputs": [
        {
          "internalType": "contract IJBProjects",
          "name": "",
          "type": "address"
        }
      ],
      "stateMutability": "view",
      "type": "function"
    },
    {
      "inputs": [
        {
          "internalType": "address",
          "name": "_holder",
          "type": "address"
        },
        {
          "internalType": "uint256",
          "name": "_projectId",
          "type": "uint256"
        },
        {
          "internalType": "uint256",
          "name": "_tokenCount",
          "type": "uint256"
        },
        {
          "internalType": "address",
          "name": "_token",
          "type": "address"
        },
        {
          "internalType": "uint256",
          "name": "_minReturnedTokens",
          "type": "uint256"
        },
        {
          "internalType": "address payable",
          "name": "_beneficiary",
          "type": "address"
        },
        {
          "internalType": "string",
          "name": "_memo",
          "type": "string"
        },
        {
          "internalType": "bytes",
          "name": "_metadata",
          "type": "bytes"
        }
      ],
      "name": "redeemTokensOf",
      "outputs": [
        {
          "internalType": "uint256",
          "name": "reclaimAmount",
          "type": "uint256"
        }
      ],
      "stateMutability": "nonpayable",
      "type": "function"
    },
    {
      "inputs": [],
      "name": "renounceOwnership",
      "outputs": [],
      "stateMutability": "nonpayable",
      "type": "function"
    },
    {
      "inputs": [
        {
          "internalType": "uint256",
          "name": "_fee",
          "type": "uint256"
        }
      ],
      "name": "setFee",
      "outputs": [],
      "stateMutability": "nonpayable",
      "type": "function"
    },
    {
      "inputs": [
        {
          "internalType": "contract IJBFeeGauge",
          "name": "_feeGauge",
          "type": "address"
        }
      ],
      "name": "setFeeGauge",
      "outputs": [],
      "stateMutability": "nonpayable",
      "type": "function"
    },
    {
      "inputs": [
        {
          "internalType": "address",
          "name": "_address",
          "type": "address"
        },
        {
          "internalType": "bool",
          "name": "_flag",
          "type": "bool"
        }
      ],
      "name": "setFeelessAddress",
      "outputs": [],
      "stateMutability": "nonpayable",
      "type": "function"
    },
    {
      "inputs": [],
      "name": "splitsStore",
      "outputs": [
        {
          "internalType": "contract IJBSplitsStore",
          "name": "",
          "type": "address"
        }
      ],
      "stateMutability": "view",
      "type": "function"
    },
    {
      "inputs": [],
      "name": "store",
      "outputs": [
        {
          "internalType": "contract IJBSingleTokenPaymentTerminalStore",
          "name": "",
          "type": "address"
        }
      ],
      "stateMutability": "view",
      "type": "function"
    },
    {
      "inputs": [
        {
          "internalType": "bytes4",
          "name": "_interfaceId",
          "type": "bytes4"
        }
      ],
      "name": "supportsInterface",
      "outputs": [
        {
          "internalType": "bool",
          "name": "",
          "type": "bool"
        }
      ],
      "stateMutability": "view",
      "type": "function"
    },
    {
      "inputs": [],
      "name": "token",
      "outputs": [
        {
          "internalType": "address",
          "name": "",
          "type": "address"
        }
      ],
      "stateMutability": "view",
      "type": "function"
    },
    {
      "inputs": [
        {
          "internalType": "address",
          "name": "newOwner",
          "type": "address"
        }
      ],
      "name": "transferOwnership",
      "outputs": [],
      "stateMutability": "nonpayable",
      "type": "function"
    },
    {
      "inputs": [
        {
          "internalType": "uint256",
          "name": "_projectId",
          "type": "uint256"
        },
        {
          "internalType": "uint256",
          "name": "_amount",
          "type": "uint256"
        },
        {
          "internalType": "uint256",
          "name": "_currency",
          "type": "uint256"
        },
        {
          "internalType": "address",
          "name": "_token",
          "type": "address"
        },
        {
          "internalType": "uint256",
          "name": "_minReturnedTokens",
          "type": "uint256"
        },
        {
          "internalType": "address payable",
          "name": "_beneficiary",
          "type": "address"
        },
        {
          "internalType": "string",
          "name": "_memo",
          "type": "string"
        }
      ],
      "name": "useAllowanceOf",
      "outputs": [
        {
          "internalType": "uint256",
          "name": "netDistributedAmount",
          "type": "uint256"
        }
      ],
      "stateMutability": "nonpayable",
      "type": "function"
    }
  ],
  "bytecode": {
    "object": "0x6101e060405263017d78406003553480156200001a57600080fd5b506040516200554a3803806200554a8339810160408190526200003d916200028e565b8a8b6001600160a01b031663313ce5676040518163ffffffff1660e01b815260040160206040518083038186803b1580156200007857600080fd5b505afa1580156200008d573d6000803e3d6000fd5b505050506040513d601f19601f82011682018060405250810190620000b3919062000370565b6001600160601b0319606083811b821660805260ff9290921660a081905260c08e9052918a901b1660e0528b8b8b8b8b8b8b8b8b8b620000fa620000f43390565b62000169565b600180556101a08990526101c08890526001600160601b0319606087811b82166101005286811b82166101205285811b82166101405284811b82166101605283901b16610180526200014c81620001b9565b5050505050505050505050505050505050505050505050620003b2565b600080546001600160a01b038381166001600160a01b0319831681178455604051919092169283917f8be0079c531659141344cd1fd0a4f28419497f9722a3daafe3b4186f6b6457e09190a35050565b6000546001600160a01b03163314620002195760405162461bcd60e51b815260206004820181905260248201527f4f776e61626c653a2063616c6c6572206973206e6f7420746865206f776e657260448201526064015b60405180910390fd5b6001600160a01b038116620002805760405162461bcd60e51b815260206004820152602660248201527f4f776e61626c653a206e6577206f776e657220697320746865207a65726f206160448201526564647265737360d01b606482015260840162000210565b6200028b8162000169565b50565b60008060008060008060008060008060006101608c8e031215620002b157600080fd5b8b51620002be816200039c565b809b505060208c0151995060408c0151985060608c0151975060808c0151620002e7816200039c565b60a08d0151909750620002fa816200039c565b60c08d01519096506200030d816200039c565b60e08d015190955062000320816200039c565b6101008d015190945062000334816200039c565b6101208d015190935062000348816200039c565b6101408d01519092506200035c816200039c565b809150509295989b509295989b9093969950565b6000602082840312156200038357600080fd5b815160ff811681146200039557600080fd5b9392505050565b6001600160a01b03811681146200028b57600080fd5b60805160601c60a05160c05160e05160601c6101005160601c6101205160601c6101405160601c6101605160601c6101805160601c6101a0516101c051614f51620005f9600039600081816103c401526120b601526000818161031c0152611b7f0152600081816104ec01528181610d2b01528181611435015281816119bb01528181611b4d01528181611f2c015281816129590152612bb501526000818161063801526115c90152600081816102d0015261351b0152600081816106040152818161083b015281816109fd01528181611c3f0152818161263201528181612c8f015281816133ae01526137b501526000818161049a01528181610bc8015281816110d00152818161167801528181611fe70152612a1e015260008181610540015281816121c9015281816122740152818161244c01526124f701526000818161025b015281816106f0015281816115140152818161157601528181611b270152612e3c015260008181610350015281816105b0015281816114b5015281816114e101528181611541015281816115a301528181611b0101528181612e1601526136ec0152600081816106ae01528181610744015281816108dc01528181610a9601528181610c6f01528181610dc501528181610e380152818161186e0152818161191501528181611acc0152818161234b01528181612607015281816126ff0152818161277401528181612de1015281816133810152818161366d015281816136b7015281816137e2015281816139df01528181613a980152613b110152614f516000f3fe6080604052600436106101ee5760003560e01c80638b79543c1161010d578063c41c2f24116100a0578063df21a7dd1161006f578063df21a7dd14610690578063e5a6b10f146106de578063f2fde38b14610712578063fc0c546a14610732578063fe663f0f1461076657600080fd5b8063c41c2f24146105f2578063d3419bf314610626578063d6dacc531461065a578063ddca3f431461067a57600080fd5b8063ad007d63116100dc578063ad007d631461052e578063b631b50014610562578063b7bad1b114610592578063bc8926e9146105d257600080fd5b80638b79543c146104885780638da5cb5b146104bc578063975057e7146104da578063a32e1e961461050e57600080fd5b8063405b84fa11610185578063715018a611610154578063715018a6146104065780637258002c1461041b57806389701db51461043b5780638af560941461045b57600080fd5b8063405b84fa14610372578063637913ac1461039257806366248b86146103b257806369fe0e2d146103e657600080fd5b80632b267b4e116101c15780632b267b4e1461029e5780632bdfe004146102be5780632d1a59031461030a578063313ce5671461033e57600080fd5b806301ffc9a7146101f35780630cf8e858146102285780631982d6791461023d5780631ebc263f1461028b575b600080fd5b3480156101ff57600080fd5b5061021361020e3660046142ce565b610786565b60405190151581526020015b60405180910390f35b61023b6102363660046144b6565b61081d565b005b34801561024957600080fd5b5061027d610258366004614033565b507f000000000000000000000000000000000000000000000000000000000000000090565b60405190815260200161021f565b61027d6102993660046143ee565b6109d4565b3480156102aa57600080fd5b5061027d6102b93660046145d5565b610b93565b3480156102ca57600080fd5b506102f27f000000000000000000000000000000000000000000000000000000000000000081565b6040516001600160a01b03909116815260200161021f565b34801561031657600080fd5b5061027d7f000000000000000000000000000000000000000000000000000000000000000081565b34801561034a57600080fd5b5061027d7f000000000000000000000000000000000000000000000000000000000000000081565b34801561037e57600080fd5b5061027d61038d3660046143c9565b610baf565b34801561039e57600080fd5b5061023b6103ad366004614033565b610ee2565b3480156103be57600080fd5b5061027d7f000000000000000000000000000000000000000000000000000000000000000081565b3480156103f257600080fd5b5061023b610401366004614397565b610f69565b34801561041257600080fd5b5061023b610ff8565b34801561042757600080fd5b5061023b61043636600461406d565b61102e565b34801561044757600080fd5b5061023b610456366004614397565b6110ba565b34801561046757600080fd5b5061047b610476366004614397565b61135f565b60405161021f91906149f9565b34801561049457600080fd5b506102f27f000000000000000000000000000000000000000000000000000000000000000081565b3480156104c857600080fd5b506000546001600160a01b03166102f2565b3480156104e657600080fd5b506102f27f000000000000000000000000000000000000000000000000000000000000000081565b34801561051a57600080fd5b5061027d610529366004614397565b61140c565b34801561053a57600080fd5b506102f27f000000000000000000000000000000000000000000000000000000000000000081565b34801561056e57600080fd5b5061021361057d366004614033565b60056020526000908152604090205460ff1681565b34801561059e57600080fd5b5061027d6105ad366004614033565b507f000000000000000000000000000000000000000000000000000000000000000090565b3480156105de57600080fd5b5061027d6105ed36600461454c565b61165f565b3480156105fe57600080fd5b506102f27f000000000000000000000000000000000000000000000000000000000000000081565b34801561063257600080fd5b506102f27f000000000000000000000000000000000000000000000000000000000000000081565b34801561066657600080fd5b506004546102f2906001600160a01b031681565b34801561068657600080fd5b5061027d60035481565b34801561069c57600080fd5b506102136106ab3660046140a6565b507f00000000000000000000000000000000000000000000000000000000000000006001600160a01b0390811691161490565b3480156106ea57600080fd5b5061027d7f000000000000000000000000000000000000000000000000000000000000000081565b34801561071e57600080fd5b5061023b61072d366004614033565b611725565b34801561073e57600080fd5b506102f27f000000000000000000000000000000000000000000000000000000000000000081565b34801561077257600080fd5b5061027d6107813660046140d2565b6117c0565b60006001600160e01b0319821663edb527eb60e01b14806107b757506001600160e01b031982166315933da760e11b145b806107d257506001600160e01b0319821663bc8926e960e01b145b806107ed57506001600160e01b0319821663fe663f0f60e01b145b8061080857506001600160e01b0319821663ad007d6360e01b145b806108175750610817826117e0565b92915050565b604051636e49181f60e01b81526004810188905230602482015287907f00000000000000000000000000000000000000000000000000000000000000006001600160a01b031690636e49181f9060440160206040518083038186803b15801561088557600080fd5b505afa158015610899573d6000803e3d6000fd5b505050506040513d601f19601f820116820180604052508101906108bd91906142b1565b6108da57604051631b1d5a5960e31b815260040160405180910390fd5b7f00000000000000000000000000000000000000000000000000000000000000006001600160a01b031661eeee1461093b57341561092b57604051635e7e9adf60e11b815260040160405180910390fd5b610936333089611830565b61093f565b3496505b33600090815260056020908152604091829020548251601f88018390048302810183019093528683526109ca928b928b9260ff161591908a908a908190840183828082843760009201919091525050604080516020601f8c018190048102820181019092528a815292508a915089908190840183828082843760009201919091525061199792505050565b5050505050505050565b604051636e49181f60e01b8152600481018b90523060248201526000908b906001600160a01b037f00000000000000000000000000000000000000000000000000000000000000001690636e49181f9060440160206040518083038186803b158015610a3f57600080fd5b505afa158015610a53573d6000803e3d6000fd5b505050506040513d601f19601f82011682018060405250810190610a7791906142b1565b610a9457604051631b1d5a5960e31b815260040160405180910390fd5b7f00000000000000000000000000000000000000000000000000000000000000006001600160a01b031661eeee14610af5573415610ae557604051635e7e9adf60e11b815260040160405180910390fd5b610af033308d611830565b610af9565b349a505b610b838b338e8c8c8c8c8c8080601f016020809104026020016040519081016040528093929190818152602001838380828437600081840152601f19601f820116905080830192505050505050508b8b8080601f016020809104026020016040519081016040528093929190818152602001838380828437600092019190915250611a8992505050565b9c9b505050505050505050505050565b6000610ba3888888878787611ef9565b98975050505050505050565b6040516331a9108f60e11b8152600481018390526000907f00000000000000000000000000000000000000000000000000000000000000006001600160a01b031690636352211e9060240160206040518083038186803b158015610c1257600080fd5b505afa158015610c26573d6000803e3d6000fd5b505050506040513d601f19601f82011682018060405250810190610c4a9190614050565b836004610c5883838361219e565b60405163df21a7dd60e01b81526001600160a01b037f0000000000000000000000000000000000000000000000000000000000000000811660048301526024820188905286169063df21a7dd9060440160206040518083038186803b158015610cc057600080fd5b505afa158015610cd4573d6000803e3d6000fd5b505050506040513d601f19601f82011682018060405250810190610cf891906142b1565b610d155760405163581010ed60e01b815260040160405180910390fd5b604051636bb6a5ad60e01b8152600481018790527f00000000000000000000000000000000000000000000000000000000000000006001600160a01b031690636bb6a5ad90602401602060405180830381600087803b158015610d7757600080fd5b505af1158015610d8b573d6000803e3d6000fd5b505050506040513d601f19601f82011682018060405250810190610daf91906143b0565b93508315610e9457610dc18585612325565b60007f00000000000000000000000000000000000000000000000000000000000000006001600160a01b031661eeee14610dfc576000610dfe565b845b6040805160208101825260008152905163019f1d0b60e31b81529192506001600160a01b03881691630cf8e858918491610e60918c918b917f000000000000000000000000000000000000000000000000000000000000000091600401614be2565b6000604051808303818588803b158015610e7957600080fd5b505af1158015610e8d573d6000803e3d6000fd5b5050505050505b604080518581523360208201526001600160a01b0387169188917fa7519e5f94697b7f53e97c5eb46a0c730a296ab686ab8fd333835c5f735784eb910160405180910390a350505092915050565b6000546001600160a01b03163314610f155760405162461bcd60e51b8152600401610f0c90614a6f565b60405180910390fd5b600480546001600160a01b0319166001600160a01b0383169081179091556040513381527f0a9a80fe9716605b3e52abb3d792d6a4e7816d6afc02a5a4ef023081feaf9f609060200160405180910390a250565b6000546001600160a01b03163314610f935760405162461bcd60e51b8152600401610f0c90614a6f565b6302faf080811115610fb8576040516345fbd9c160e01b815260040160405180910390fd5b6003819055604080518281523360208201527fd7414e590e1cb532989ab2a34c8f4c2c17f7ab6f006efeeaef2e87cd5008c202910160405180910390a150565b6000546001600160a01b031633146110225760405162461bcd60e51b8152600401610f0c90614a6f565b61102c60006123c7565b565b6000546001600160a01b031633146110585760405162461bcd60e51b8152600401610f0c90614a6f565b6001600160a01b038216600081815260056020908152604091829020805460ff191685151590811790915591513381529192917fa2653e25a502c023a5830d0de847ef6f458387865b1f4f575d7594f9f2c0d71e910160405180910390a35050565b6040516331a9108f60e11b8152600481018290527f00000000000000000000000000000000000000000000000000000000000000006001600160a01b031690636352211e9060240160206040518083038186803b15801561111a57600080fd5b505afa15801561112e573d6000803e3d6000fd5b505050506040513d601f19601f820116820180604052508101906111529190614050565b8160056111676000546001600160a01b031690565b6001600160a01b0316336001600160a01b03161461118784848484612417565b600085815260026020908152604080832080548251818502810185019093528083529192909190849084015b8282101561122057600084815260209081902060408051608081018252600286029092018054835260019081015463ffffffff8082168587015264010000000082041692840192909252600160401b9091046001600160a01b0316606083015290835290920191016111b3565b505050600088815260026020526040812092935061123f929150613e23565b805160005b818110156109ca5760006112bc84838151811061126357611263614ecc565b60200260200101516000015185848151811061128157611281614ecc565b60200260200101516020015163ffffffff168685815181106112a5576112a5614ecc565b60200260200101516040015163ffffffff166125a3565b90506112e5818584815181106112d4576112d4614ecc565b6020026020010151606001516125e9565b60011515818a7fcf0c92a2c6d7c42f488326b0cb900104b99984b6b218db81cd29371364a3525187868151811061131e5761131e614ecc565b6020026020010151606001513360405161134e9291906001600160a01b0392831681529116602082015260400190565b60405180910390a450600101611244565b606060026000838152602001908152602001600020805480602002602001604051908101604052809291908181526020016000905b8282101561140157600084815260209081902060408051608081018252600286029092018054835260019081015463ffffffff8082168587015264010000000082041692840192909252600160401b9091046001600160a01b031660608301529083529092019101611394565b505050509050919050565b60405163035240c760e61b81523060048201526024810182905260009081906001600160a01b037f0000000000000000000000000000000000000000000000000000000000000000169063d49031c09060440160206040518083038186803b15801561147757600080fd5b505afa15801561148b573d6000803e3d6000fd5b505050506040513d601f19601f820116820180604052508101906114af91906143b0565b905060007f000000000000000000000000000000000000000000000000000000000000000060121461150c57611507827f000000000000000000000000000000000000000000000000000000000000000060126127fa565b61150e565b815b905060017f00000000000000000000000000000000000000000000000000000000000000001461165557611650816115677f0000000000000000000000000000000000000000000000000000000000000000600a614d96565b604051635268657960e11b81527f00000000000000000000000000000000000000000000000000000000000000006004820152600160248201527f000000000000000000000000000000000000000000000000000000000000000060448201527f00000000000000000000000000000000000000000000000000000000000000006001600160a01b03169063a4d0caf29060640160206040518083038186803b15801561161357600080fd5b505afa158015611627573d6000803e3d6000fd5b505050506040513d601f19601f8201168201806040525081019061164b91906143b0565b612858565b611657565b805b949350505050565b6040516331a9108f60e11b8152600481018890526000907f00000000000000000000000000000000000000000000000000000000000000006001600160a01b031690636352211e9060240160206040518083038186803b1580156116c257600080fd5b505afa1580156116d6573d6000803e3d6000fd5b505050506040513d601f19601f820116820180604052508101906116fa9190614050565b88601161170883838361219e565b6117168b8b8b8a8a8a612926565b9b9a5050505050505050505050565b6000546001600160a01b0316331461174f5760405162461bcd60e51b8152600401610f0c90614a6f565b6001600160a01b0381166117b45760405162461bcd60e51b815260206004820152602660248201527f4f776e61626c653a206e6577206f776e657220697320746865207a65726f206160448201526564647265737360d01b6064820152608401610f0c565b6117bd816123c7565b50565b6000888860026117d183838361219e565b610b838c8c8c8b8b8b8b612b6a565b60006001600160e01b0319821663301cdc3960e21b148061181157506001600160e01b0319821663144b000160e11b145b8061081757506301ffc9a760e01b6001600160e01b0319831614610817565b6001600160a01b03831630146118ef576040516323b872dd60e01b81526001600160a01b0384811660048301528381166024830152604482018390527f000000000000000000000000000000000000000000000000000000000000000016906323b872dd90606401602060405180830381600087803b1580156118b257600080fd5b505af11580156118c6573d6000803e3d6000fd5b505050506040513d601f19601f820116820180604052508101906118ea91906142b1565b611991565b60405163a9059cbb60e01b81526001600160a01b038381166004830152602482018390527f0000000000000000000000000000000000000000000000000000000000000000169063a9059cbb90604401602060405180830381600087803b15801561195957600080fd5b505af115801561196d573d6000803e3d6000fd5b505050506040513d601f19601f8201168201806040525081019061199191906142b1565b50505050565b6000836119a55760006119af565b6119af8686612f8d565b90506001600160a01b037f00000000000000000000000000000000000000000000000000000000000000001663e7c8e3e3876119eb8489614d19565b6040516001600160e01b031960e085901b16815260048101929092526024820152604401600060405180830381600087803b158015611a2957600080fd5b505af1158015611a3d573d6000803e3d6000fd5b50505050857f9ecaf7fc3dfffd6867c175d6e684b1f1e3aef019398ba8db2c1ffab4a09db2538683868633604051611a79959493929190614c27565b60405180910390a2505050505050565b60006001600160a01b038616611ab25760405163a762251360e01b815260040160405180910390fd5b611aba613e44565b600080600060405180608001604052807f00000000000000000000000000000000000000000000000000000000000000006001600160a01b031681526020018e81526020017f000000000000000000000000000000000000000000000000000000000000000081526020017f000000000000000000000000000000000000000000000000000000000000000081525090507f00000000000000000000000000000000000000000000000000000000000000006001600160a01b0316632fa1b3918d838e7f00000000000000000000000000000000000000000000000000000000000000008f8d8d6040518863ffffffff1660e01b8152600401611bc3979695949392919061494e565b600060405180830381600087803b158015611bdd57600080fd5b505af1158015611bf1573d6000803e3d6000fd5b505050506040513d6000823e601f3d908101601f19168201604052611c199190810190614327565b995091955090935091508115611d6c57604051632eec7b5560e11b8152600481018c90527f00000000000000000000000000000000000000000000000000000000000000006001600160a01b031690635dd8f6aa9060240160206040518083038186803b158015611c8957600080fd5b505afa158015611c9d573d6000803e3d6000fd5b505050506040513d601f19601f82011682018060405250810190611cc19190614050565b604051638ae9c07b60e01b8152600481018d9052602481018490526001600160a01b038c8116604483015260c06064830152600060c48301528a15156084830152600160a48301529190911690638ae9c07b9060e401602060405180830381600087803b158015611d3157600080fd5b505af1158015611d45573d6000803e3d6000fd5b505050506040513d601f19601f82011682018060405250810190611d6991906143b0565b94505b88851015611d8d57604051633dca309360e11b815260040160405180910390fd5b6001600160a01b03831615611e9b5760006040518061012001604052808e6001600160a01b031681526020018d8152602001866020015181526020018381526020018781526020018c6001600160a01b031681526020018a15158152602001898152602001888152509050836001600160a01b031663304b1eea826040518263ffffffff1660e01b8152600401611e249190614aa4565b600060405180830381600087803b158015611e3e57600080fd5b505af1158015611e52573d6000803e3d6000fd5b50505050836001600160a01b03167fdcbcf946bdc8fbe709377d507c6a207221aecd117c05690f674af73d923cdb548233604051611e91929190614ab7565b60405180910390a2505b50505087816000015182602001517f133161f1c9161488f777ab9a26aae91d47c0d9a3fafb398960f138db02c737978c8b8f888b8b33604051611ee497969594939291906148c5565b60405180910390a45098975050505050505050565b60405163c664459760e01b8152600481018790526024810186905260448101859052600090819081906001600160a01b037f0000000000000000000000000000000000000000000000000000000000000000169063c66445979060640161014060405180830381600087803b158015611f7157600080fd5b505af1158015611f85573d6000803e3d6000fd5b505050506040513d601f19601f82011682018060405250810190611fa991906142f8565b9150915085811015611fce5760405163b01493c160e01b815260040160405180910390fd5b6040516331a9108f60e11b8152600481018a90526000907f00000000000000000000000000000000000000000000000000000000000000006001600160a01b031690636352211e9060240160206040518083038186803b15801561203157600080fd5b505afa158015612045573d6000803e3d6000fd5b505050506040513d601f19601f820116820180604052508101906120699190614050565b90506000806003546000148061208e57503360009081526005602052604090205460ff165b6120a05761209b8c613363565b6120a6565b633b9aca005b90506000806120dc8e88602001517f000000000000000000000000000000000000000000000000000000000000000089876134f0565b810192509050633b9aca008314806120f2575081155b612108576121038e88848887613ca5565b61210b565b60005b935080156121275761212081600354856125a3565b810361212a565b60005b9750871561213d5761213d30868a611830565b5050508a846000015185602001517f24352f49df447b14e0e08a323625c663d865ce20c343c4638af12e1dc48aa760858e88878c8f8f33604051612188989796959493929190614862565b60405180910390a4505050509695505050505050565b336001600160a01b03841614801590612256575060405163c161c93f60e01b81526001600160a01b037f0000000000000000000000000000000000000000000000000000000000000000169063c161c93f90612204903390879087908790600401614925565b60206040518083038186803b15801561221c57600080fd5b505afa158015612230573d6000803e3d6000fd5b505050506040513d601f19601f8201168201806040525081019061225491906142b1565b155b8015612302575060405163c161c93f60e01b81526001600160a01b037f0000000000000000000000000000000000000000000000000000000000000000169063c161c93f906122b090339087906000908790600401614925565b60206040518083038186803b1580156122c857600080fd5b505afa1580156122dc573d6000803e3d6000fd5b505050506040513d601f19601f8201168201806040525081019061230091906142b1565b155b156123205760405163075fd2b160e01b815260040160405180910390fd5b505050565b60405163095ea7b360e01b81526001600160a01b038381166004830152602482018390527f0000000000000000000000000000000000000000000000000000000000000000169063095ea7b390604401602060405180830381600087803b15801561238f57600080fd5b505af11580156123a3573d6000803e3d6000fd5b505050506040513d601f19601f8201168201806040525081019061232091906142b1565b600080546001600160a01b038381166001600160a01b0319831681178455604051919092169283917f8be0079c531659141344cd1fd0a4f28419497f9722a3daafe3b4186f6b6457e09190a35050565b8015801561242e5750336001600160a01b03851614155b80156124d9575060405163c161c93f60e01b81526001600160a01b037f0000000000000000000000000000000000000000000000000000000000000000169063c161c93f90612487903390889088908890600401614925565b60206040518083038186803b15801561249f57600080fd5b505afa1580156124b3573d6000803e3d6000fd5b505050506040513d601f19601f820116820180604052508101906124d791906142b1565b155b8015612585575060405163c161c93f60e01b81526001600160a01b037f0000000000000000000000000000000000000000000000000000000000000000169063c161c93f9061253390339088906000908890600401614925565b60206040518083038186803b15801561254b57600080fd5b505afa15801561255f573d6000803e3d6000fd5b505050506040513d601f19601f8201168201806040525081019061258391906142b1565b155b156119915760405163075fd2b160e01b815260040160405180910390fd5b6000806125b58484633b9aca00612858565b6125bf9085614e5d565b90506125d485633b9aca0061164b8185614d19565b6125de9086614e5d565b9150505b9392505050565b604051630862026560e41b8152600160048201526001600160a01b037f0000000000000000000000000000000000000000000000000000000000000000811660248301526000917f00000000000000000000000000000000000000000000000000000000000000009091169063862026509060440160206040518083038186803b15801561267657600080fd5b505afa15801561268a573d6000803e3d6000fd5b505050506040513d601f19601f820116820180604052508101906126ae9190614050565b90506001600160a01b0381163014156126f15761199183306001856000806040518060200160405280600081525060405180602001604052806000815250611a89565b6126fb8184612325565b60007f00000000000000000000000000000000000000000000000000000000000000006001600160a01b031661eeee14612736576000612738565b835b6040805160208101825260008082529151631ebc263f60e01b81529293506001600160a01b03851692631ebc263f9285926127a1926001928b927f0000000000000000000000000000000000000000000000000000000000000000928c92918291600401614b8a565b6020604051808303818588803b1580156127ba57600080fd5b505af11580156127ce573d6000803e3d6000fd5b50505050506040513d601f19601f820116820180604052508101906127f391906143b0565b5050505050565b60008282141561280b5750826125e2565b828211156128395761281d8383614e5d565b61282890600a614d96565b6128329085614e3e565b90506125e2565b6128438284614e5d565b61284e90600a614d96565b6128329085614d31565b6000808060001985870985870292508281108382030391505080600014156128935783828161288957612889614eb6565b04925050506125e2565b8381106128bd57604051631dcf306360e21b81526004810182905260248101859052604401610f0c565b60008486880960026001871981018816978890046003810283188082028403028082028403028082028403028082028403028082028403029081029092039091026000889003889004909101858311909403939093029303949094049190911702949350505050565b604051632538671560e01b8152600481018790526024810186905260448101859052600090819081906001600160a01b037f0000000000000000000000000000000000000000000000000000000000000000169063253867159060640161014060405180830381600087803b15801561299e57600080fd5b505af11580156129b2573d6000803e3d6000fd5b505050506040513d601f19601f820116820180604052508101906129d691906142f8565b91509150858110156129fb5760405163b01493c160e01b815260040160405180910390fd5b6040516331a9108f60e11b8152600481018a905260009081906001600160a01b037f00000000000000000000000000000000000000000000000000000000000000001690636352211e9060240160206040518083038186803b158015612a6057600080fd5b505afa158015612a74573d6000803e3d6000fd5b505050506040513d601f19601f82011682018060405250810190612a989190614050565b9050600060035460001480612abc57503360009081526005602052604090205460ff165b612ace57612ac98c613363565b612ad4565b633b9aca005b9050633b9aca008114612af357612aee8c86868585613ca5565b612af6565b60005b80850396509250838314612b0f57612b0f308988611830565b50505088826000015183602001517f8657a0c05a68a912c23c1bd00124afaa8c669063b046bd9bfd22b21d573c5e6d888c86898b33604051612b5696959493929190614818565b60405180910390a450509695505050505050565b60006001600160a01b038416612b9357604051637ba50db360e11b815260040160405180910390fd5b612b9b613e44565b60405163a2df1f9560e01b81526000906001600160a01b037f0000000000000000000000000000000000000000000000000000000000000000169063a2df1f9590612bf2908d908d908d908b908b906004016149ba565b600060405180830381600087803b158015612c0c57600080fd5b505af1158015612c20573d6000803e3d6000fd5b505050506040513d6000823e601f3d908101601f19168201604052612c489190810190614327565b9750909450909250905086831015612c735760405163f896960b60e01b815260040160405180910390fd5b8715612d9257604051632eec7b5560e11b8152600481018a90527f00000000000000000000000000000000000000000000000000000000000000006001600160a01b031690635dd8f6aa9060240160206040518083038186803b158015612cd957600080fd5b505afa158015612ced573d6000803e3d6000fd5b505050506040513d601f19601f82011682018060405250810190612d119190614050565b604051631665bc0f60e01b81526001600160a01b038c81166004830152602482018c9052604482018b905260a06064830152600060a4830181905260848301529190911690631665bc0f9060c401600060405180830381600087803b158015612d7957600080fd5b505af1158015612d8d573d6000803e3d6000fd5b505050505b6001600160a01b03811615612f215760006040518061010001604052808c6001600160a01b031681526020018b8152602001846020015181526020018a815260200160405180608001604052807f00000000000000000000000000000000000000000000000000000000000000006001600160a01b031681526020018781526020017f000000000000000000000000000000000000000000000000000000000000000081526020017f00000000000000000000000000000000000000000000000000000000000000008152508152602001886001600160a01b03168152602001878152602001868152509050816001600160a01b0316632400e8f7826040518263ffffffff1660e01b8152600401612eaa9190614ae1565b600060405180830381600087803b158015612ec457600080fd5b505af1158015612ed8573d6000803e3d6000fd5b50505050816001600160a01b03167fb5f35105f7321aaa2c0eae1a660fb9bc9624fceaa75a04a3dd171a1fe303edae8233604051612f17929190614af4565b60405180910390a2505b508115612f3357612f33308684611830565b87816000015182602001517f2be10f2a0203c77d0fcaa9fd6484a8a1d6904de31cd820587f60c1c8c338c8148c898c888b8b33604051612f7997969594939291906148c5565b60405180910390a450979650505050505050565b600082815260026020908152604080832080548251818502810185019093528083528493849084015b8282101561302357600084815260209081902060408051608081018252600286029092018054835260019081015463ffffffff8082168587015264010000000082041692840192909252600160401b9091046001600160a01b031660608301529083529092019101612fb6565b5050506000868152600260205260408120929350613042929150613e23565b8051839060005b8181101561331b5782613105576000878152600260205260409020845185908390811061307857613078614ecc565b60209081029190910181015182546001818101855560009485529383902082516002909202019081559181015191909201805460408401516060909401516001600160a01b0316600160401b02600160401b600160e01b031963ffffffff9586166401000000000267ffffffffffffffff1990931695909416949094171791909116919091179055613313565b83818151811061311757613117614ecc565b60200260200101516000015183106131ab5783818151811061313b5761313b614ecc565b602002602001015160000151830392506131a284828151811061316057613160614ecc565b60200260200101516000015185838151811061317e5761317e614ecc565b60200260200101516020015163ffffffff168684815181106112a5576112a5614ecc565b85019450613313565b600260008881526020019081526020016000206040518060800160405280858785815181106131dc576131dc614ecc565b6020026020010151600001516131f29190614e5d565b815260200186848151811061320957613209614ecc565b60200260200101516020015163ffffffff16815260200186848151811061323257613232614ecc565b60200260200101516040015163ffffffff16815260200186848151811061325b5761325b614ecc565b6020908102919091018101516060908101516001600160a01b0390811690935284546001818101875560009687529583902085516002909202019081559184015191909401805460408501519490950151909216600160401b02600160401b600160e01b031963ffffffff9485166401000000000267ffffffffffffffff1990961694909216939093179390931792909216179055835161330a90849086908490811061317e5761317e614ecc565b85019450600092505b600101613049565b50604080518381523360208201528591879189917f59860d79d97c1fce2be7f987915c631471f4b08f671200463cc40a3380194ffb910160405180910390a450505092915050565b604051630862026560e41b8152600160048201526001600160a01b037f00000000000000000000000000000000000000000000000000000000000000008116602483015260009182917f0000000000000000000000000000000000000000000000000000000000000000169063862026509060440160206040518083038186803b1580156133f057600080fd5b505afa158015613404573d6000803e3d6000fd5b505050506040513d601f19601f820116820180604052508101906134289190614050565b6001600160a01b031614156134425750633b9aca00919050565b6004546001600160a01b031661345a575060006134db565b60048054604051633bb4ac4b60e11b81529182018490526001600160a01b03169063776958969060240160206040518083038186803b15801561349c57600080fd5b505afa9250505080156134cc575060408051601f3d908101601f191682019092526134c9918101906143b0565b60015b6134d8575060006134db565b90505b633b9aca008111156134eb575060005b919050565b6040516369e11cc560e01b8152600481018690526024810185905260448101849052829060009081907f00000000000000000000000000000000000000000000000000000000000000006001600160a01b0316906369e11cc59060640160006040518083038186803b15801561356557600080fd5b505afa158015613579573d6000803e3d6000fd5b505050506040513d6000823e601f3d908101601f191682016040526135a1919081019061418b565b905060005b8151811015613c995760008282815181106135c3576135c3614ecc565b6020026020010151905060006135e2888360400151633b9aca00612858565b905060008115613c4d5760c08301516001600160a01b03161561378c5760c08301516001600160a01b031660009081526005602052604090205460ff161561362b57508061365b565b633b9aca00881461364a57613643826003548a6125a3565b820361364c565b815b90506136588287614d19565b95505b6136698360c0015182612325565b60007f00000000000000000000000000000000000000000000000000000000000000006001600160a01b031661eeee146136a45760006136a6565b815b905060006040518060c001604052807f00000000000000000000000000000000000000000000000000000000000000006001600160a01b031681526020018481526020017f000000000000000000000000000000000000000000000000000000000000000081526020018f81526020018d81526020018681525090508460c001516001600160a01b0316639d740bfa83836040518363ffffffff1660e01b81526004016137539190614b07565b6000604051808303818588803b15801561376c57600080fd5b505af1158015613780573d6000803e3d6000fd5b50505050505050613c47565b606083015115613be3576060830151604051630862026560e41b81526000916001600160a01b037f0000000000000000000000000000000000000000000000000000000000000000169163862026509161381c917f0000000000000000000000000000000000000000000000000000000000000000906004019182526001600160a01b0316602082015260400190565b60206040518083038186803b15801561383457600080fd5b505afa158015613848573d6000803e3d6000fd5b505050506040513d601f19601f8201168201806040525081019061386c9190614050565b90506001600160a01b03811661389557604051636921234360e01b815260040160405180910390fd5b6001600160a01b038116301415613978576040805160208082528183019092528493506000916020820181803683370190505090508d6040516020016138dd91815260200190565b604051602081830303815290604052905084602001511561391e5761391985606001518460006040518060200160405280600081525085611997565b613972565b6139708330876060015160006001600160a01b031689608001516001600160a01b0316141561394d5733613953565b88608001515b60008a600001516040518060200160405280600081525088611a89565b505b50613bdd565b6001600160a01b03811660009081526005602052604090205460ff16156139a1578291506139d1565b633b9aca0089146139c0576139b9836003548b6125a3565b83036139c2565b825b91506139ce8388614d19565b96505b6139db8183612325565b60007f00000000000000000000000000000000000000000000000000000000000000006001600160a01b031661eeee14613a16576000613a18565b825b604080516020808252818301909252919250600091906020820181803683370190505090508e604051602001613a5091815260200190565b6040516020818303038152906040529050856020015115613af957606086015160405163019f1d0b60e31b81526001600160a01b03851691630cf8e858918591613ac29189907f0000000000000000000000000000000000000000000000000000000000000000908890600401614be2565b6000604051808303818588803b158015613adb57600080fd5b505af1158015613aef573d6000803e3d6000fd5b5050505050613bda565b826001600160a01b0316631ebc263f838860600151877f000000000000000000000000000000000000000000000000000000000000000060006001600160a01b03168c608001516001600160a01b03161415613b555733613b5b565b8b608001515b8c516040516001600160e01b031960e089901b168152613b8695949392916000918b90600401614b8a565b6020604051808303818588803b158015613b9f57600080fd5b505af1158015613bb3573d6000803e3d6000fd5b50505050506040513d601f19601f82011682018060405250810190613bd891906143b0565b505b50505b50613c47565b633b9aca008814613c0257613bfb826003548a6125a3565b8203613c04565b815b9050613c108287614d19565b9550613c473060006001600160a01b031685608001516001600160a01b03161415613c3b5733613c41565b84608001515b83611830565b81870396505b898b8d7f2a1f2df21da49f011c6165709ae4b279f8d6d7cffe9043c582352882d8c9698b868533604051613c8393929190614b5b565b60405180910390a48360010193505050506135a6565b50509550959350505050565b6000613cb484600354846125a3565b61010086015190915060501c60019081161415613dc757600086815260026020818152604080842081516080810183528981526003805463ffffffff9081168387019081528a82168487019081526001600160a01b038d81166060808801828152895460018082018c559a8f529d8c902098519d909c029097019b8c5592519a909601805491519951909616600160401b02600160401b600160e01b03199984166401000000000267ffffffffffffffff199092169a9093169990991798909817969096169590951790915592548151878152928301949094523390820152869189917f77813be0661650ddc1a5193ff2837df4162b251cb432651e2c060c3fc39756be910160405180910390a4613e1a565b613dd181846125e9565b604080516001600160a01b0385168152336020820152600091839189917fcf0c92a2c6d7c42f488326b0cb900104b99984b6b218db81cd29371364a35251910160405180910390a45b95945050505050565b50805460008255600202906000526020600020908101906117bd9190613e99565b6040518061012001604052806000815260200160008152602001600081526020016000815260200160008152602001600081526020016000815260200160006001600160a01b03168152602001600081525090565b5b80821115613ec057600081556001810180546001600160e01b0319169055600201613e9a565b5090565b60008083601f840112613ed657600080fd5b50813567ffffffffffffffff811115613eee57600080fd5b602083019150836020828501011115613f0657600080fd5b9250929050565b600082601f830112613f1e57600080fd5b8135613f31613f2c82614cf1565b614cc0565b818152846020838601011115613f4657600080fd5b816020850160208301376000918101602001919091529392505050565b80516134eb81614ef8565b600082601f830112613f7f57600080fd5b8151613f8d613f2c82614cf1565b818152846020838601011115613fa257600080fd5b611657826020830160208701614e74565b60006101208284031215613fc657600080fd5b613fce614c73565b9050815181526020820151602082015260408201516040820152606082015160608201526080820151608082015260a082015160a082015260c082015160c082015261401c60e08301613f63565b60e082015261010080830151818301525092915050565b60006020828403121561404557600080fd5b81356125e281614ef8565b60006020828403121561406257600080fd5b81516125e281614ef8565b6000806040838503121561408057600080fd5b823561408b81614ef8565b9150602083013561409b81614f0d565b809150509250929050565b600080604083850312156140b957600080fd5b82356140c481614ef8565b946020939093013593505050565b600080600080600080600080610100898b0312156140ef57600080fd5b88356140fa81614ef8565b97506020890135965060408901359550606089013561411881614ef8565b94506080890135935060a089013561412f81614ef8565b925060c089013567ffffffffffffffff8082111561414c57600080fd5b6141588c838d01613f0d565b935060e08b013591508082111561416e57600080fd5b5061417b8b828c01613f0d565b9150509295985092959890939650565b6000602080838503121561419e57600080fd5b825167ffffffffffffffff808211156141b657600080fd5b818501915085601f8301126141ca57600080fd5b8151818111156141dc576141dc614ee2565b6141ea848260051b01614cc0565b818152848101925083850160e0808402860187018a101561420a57600080fd5b60009550855b848110156142a25781838c031215614226578687fd5b61422e614c9d565b835161423981614f0d565b81528389015161424881614f0d565b818a0152604084810151908201526060808501519082015260808085015161426f81614ef8565b9082015260a0848101519082015260c08085015161428c81614ef8565b9082015286529487019491810191600101614210565b50919998505050505050505050565b6000602082840312156142c357600080fd5b81516125e281614f0d565b6000602082840312156142e057600080fd5b81356001600160e01b0319811681146125e257600080fd5b600080610140838503121561430c57600080fd5b6143168484613fb3565b915061012083015190509250929050565b600080600080610180858703121561433e57600080fd5b6143488686613fb3565b9350610120850151925061014085015161436181614ef8565b61016086015190925067ffffffffffffffff81111561437f57600080fd5b61438b87828801613f6e565b91505092959194509250565b6000602082840312156143a957600080fd5b5035919050565b6000602082840312156143c257600080fd5b5051919050565b600080604083850312156143dc57600080fd5b82359150602083013561409b81614ef8565b6000806000806000806000806000806101008b8d03121561440e57600080fd5b8a35995060208b0135985060408b013561442781614ef8565b975060608b013561443781614ef8565b965060808b0135955060a08b013561444e81614f0d565b945060c08b013567ffffffffffffffff8082111561446b57600080fd5b6144778e838f01613ec4565b909650945060e08d013591508082111561449057600080fd5b5061449d8d828e01613ec4565b915080935050809150509295989b9194979a5092959850565b600080600080600080600060a0888a0312156144d157600080fd5b873596506020880135955060408801356144ea81614ef8565b9450606088013567ffffffffffffffff8082111561450757600080fd5b6145138b838c01613ec4565b909650945060808a013591508082111561452c57600080fd5b506145398a828b01613ec4565b989b979a50959850939692959293505050565b600080600080600080600060e0888a03121561456757600080fd5b873596506020880135955060408801359450606088013561458781614ef8565b93506080880135925060a088013561459e81614ef8565b915060c088013567ffffffffffffffff8111156145ba57600080fd5b6145c68a828b01613f0d565b91505092959891949750929550565b600080600080600080600060c0888a0312156145f057600080fd5b873596506020880135955060408801359450606088013561461081614ef8565b93506080880135925060a088013567ffffffffffffffff81111561463357600080fd5b6145398a828b01613ec4565b60008151808452614657816020860160208601614e74565b601f01601f19169290920160200192915050565b80516001600160a01b031682526000610180602083015160208501526040830151604085015260608301516146a360608601826147ec565b50608083015160e085015260a08301516101006146ca818701836001600160a01b03169052565b60c0850151151561012087015260e0850151610140870184905291506146f28387018361463f565b925080850151915050848203610160860152613e1a828261463f565b600061016060018060a01b038351168452602083015160208501526040830151604085015260608301516060850152608083015161474f60808601826147ec565b5060a08301516001600160a01b031661010085015260c0830151610120850182905261477d8286018261463f565b91505060e0830151848203610140860152613e1a828261463f565b80511515825260208082015115159083015260408082015190830152606080820151908301526080808201516001600160a01b039081169184019190915260a0808301519084015260c09182015116910152565b80516001600160a01b031682526020808201519083015260408082015190830152606090810151910152565b600060018060a01b03808916835287602084015286604084015285606084015260c0608084015261484c60c084018661463f565b915080841660a084015250979650505050505050565b600060018060a01b03808b16835289602084015288604084015287606084015286608084015260e060a08401528460e08401526101008587828601376000848701820152931660c083015250601f909201601f1916909101019695505050505050565b600060018060a01b03808a168352808916602084015287604084015286606084015260e060808401526148fb60e084018761463f565b83810360a085015261490d818761463f565b92505080841660c08401525098975050505050505050565b6001600160a01b0394851681529290931660208301526040820152606081019190915260800190565b6001600160a01b0388811682526000906101409061496f602085018b6147ec565b8860a08501528760c085015280871660e085015250806101008401526149978184018661463f565b90508281036101208401526149ac818561463f565b9a9950505050505050505050565b60018060a01b038616815284602082015283604082015260a0606082015260006149e760a083018561463f565b8281036080840152610ba3818561463f565b602080825282518282018190526000919060409081850190868401855b82811015614a62578151805185528681015163ffffffff908116888701528682015116868601526060908101516001600160a01b03169085015260809093019290850190600101614a16565b5091979650505050505050565b6020808252818101527f4f776e61626c653a2063616c6c6572206973206e6f7420746865206f776e6572604082015260600190565b6020815260006125e2602083018461466b565b604081526000614aca604083018561466b565b905060018060a01b03831660208301529392505050565b6020815260006125e2602083018461470e565b604081526000614aca604083018561470e565b81516001600160a01b031681526020808301519082015260408083015190820152606080830151908201526080808301519082015260a082810151610180830191614b5490840182614798565b5092915050565b6101208101614b6a8286614798565b60e08201939093526001600160a01b039190911661010090910152919050565b878152602081018790526001600160a01b038681166040830152851660608201526080810184905282151560a082015261010060c08201819052600090820181905261012060e083018190526149ac8184018561463f565b84815283602082015260018060a01b038316604082015260a06060820152600060a082015260c060808201526000614c1d60c083018461463f565b9695505050505050565b85815284602082015260a060408201526000614c4660a083018661463f565b8281036060840152614c58818661463f565b91505060018060a01b03831660808301529695505050505050565b604051610120810167ffffffffffffffff81118282101715614c9757614c97614ee2565b60405290565b60405160e0810167ffffffffffffffff81118282101715614c9757614c97614ee2565b604051601f8201601f1916810167ffffffffffffffff81118282101715614ce957614ce9614ee2565b604052919050565b600067ffffffffffffffff821115614d0b57614d0b614ee2565b50601f01601f191660200190565b60008219821115614d2c57614d2c614ea0565b500190565b600082614d4e57634e487b7160e01b600052601260045260246000fd5b500490565b600181815b80851115614d8e578160001904821115614d7457614d74614ea0565b80851615614d8157918102915b93841c9390800290614d58565b509250929050565b60006125e28383600082614dac57506001610817565b81614db957506000610817565b8160018114614dcf5760028114614dd957614df5565b6001915050610817565b60ff841115614dea57614dea614ea0565b50506001821b610817565b5060208310610133831016604e8410600b8410161715614e18575081810a610817565b614e228383614d53565b8060001904821115614e3657614e36614ea0565b029392505050565b6000816000190483118215151615614e5857614e58614ea0565b500290565b600082821015614e6f57614e6f614ea0565b500390565b60005b83811015614e8f578181015183820152602001614e77565b838111156119915750506000910152565b634e487b7160e01b600052601160045260246000fd5b634e487b7160e01b600052601260045260246000fd5b634e487b7160e01b600052603260045260246000fd5b634e487b7160e01b600052604160045260246000fd5b6001600160a01b03811681146117bd57600080fd5b80151581146117bd57600080fdfea2646970667358221220df75e736e58127fcd02180280bbdb659b899892435c7018a3dca0fe459550bea64736f6c63430008060033",
    "linkReferences": {}
  },
  "methodIdentifiers": {
    "acceptsToken(address,uint256)": "df21a7dd",
    "addToBalanceOf(uint256,uint256,address,string,bytes)": "0cf8e858",
    "baseWeightCurrency()": "2d1a5903",
    "currency()": "e5a6b10f",
    "currencyForToken(address)": "1982d679",
    "currentEthOverflowOf(uint256)": "a32e1e96",
    "decimals()": "313ce567",
    "decimalsForToken(address)": "b7bad1b1",
    "directory()": "c41c2f24",
    "distributePayoutsOf(uint256,uint256,uint256,address,uint256,string)": "2b267b4e",
    "fee()": "ddca3f43",
    "feeGauge()": "d6dacc53",
    "heldFeesOf(uint256)": "8af56094",
    "isFeelessAddress(address)": "b631b500",
    "migrate(uint256,address)": "405b84fa",
    "operatorStore()": "ad007d63",
    "owner()": "8da5cb5b",
    "pay(uint256,uint256,address,address,uint256,bool,string,bytes)": "1ebc263f",
    "payoutSplitsGroup()": "66248b86",
    "prices()": "d3419bf3",
    "processFees(uint256)": "89701db5",
    "projects()": "8b79543c",
    "redeemTokensOf(address,uint256,uint256,address,uint256,address,string,bytes)": "fe663f0f",
    "renounceOwnership()": "715018a6",
    "setFee(uint256)": "69fe0e2d",
    "setFeeGauge(address)": "637913ac",
    "setFeelessAddress(address,bool)": "7258002c",
    "splitsStore()": "2bdfe004",
    "store()": "975057e7",
    "supportsInterface(bytes4)": "01ffc9a7",
    "token()": "fc0c546a",
    "transferOwnership(address)": "f2fde38b",
    "useAllowanceOf(uint256,uint256,uint256,address,uint256,address,string)": "bc8926e9"
  },
  "id": 9
}