{
  "abi": [
    {
      "inputs": [
        {
          "internalType": "address",
          "name": "_owner",
          "type": "address"
        }
      ],
      "stateMutability": "nonpayable",
      "type": "constructor"
    },
    {
      "inputs": [
        {
          "internalType": "uint256",
          "name": "prod1",
          "type": "uint256"
        },
        {
          "internalType": "uint256",
          "name": "denominator",
          "type": "uint256"
        }
      ],
      "name": "PRBMath__MulDivOverflow",
      "type": "error"
    },
    {
      "inputs": [],
      "name": "PRICE_FEED_ALREADY_EXISTS",
      "type": "error"
    },
    {
      "inputs": [],
      "name": "PRICE_FEED_NOT_FOUND",
      "type": "error"
    },
    {
      "anonymous": false,
      "inputs": [
        {
          "indexed": true,
          "internalType": "uint256",
          "name": "currency",
          "type": "uint256"
        },
        {
          "indexed": true,
          "internalType": "uint256",
          "name": "base",
          "type": "uint256"
        },
        {
          "indexed": false,
          "internalType": "contract IJBPriceFeed",
          "name": "feed",
          "type": "address"
        }
      ],
      "name": "AddFeed",
      "type": "event"
    },
    {
      "anonymous": false,
      "inputs": [
        {
          "indexed": true,
          "internalType": "address",
          "name": "previousOwner",
          "type": "address"
        },
        {
          "indexed": true,
          "internalType": "address",
          "name": "newOwner",
          "type": "address"
        }
      ],
      "name": "OwnershipTransferred",
      "type": "event"
    },
    {
      "inputs": [
        {
          "internalType": "uint256",
          "name": "_currency",
          "type": "uint256"
        },
        {
          "internalType": "uint256",
          "name": "_base",
          "type": "uint256"
        },
        {
          "internalType": "contract IJBPriceFeed",
          "name": "_feed",
          "type": "address"
        }
      ],
      "name": "addFeedFor",
      "outputs": [],
      "stateMutability": "nonpayable",
      "type": "function"
    },
    {
      "inputs": [
        {
          "internalType": "uint256",
          "name": "",
          "type": "uint256"
        },
        {
          "internalType": "uint256",
          "name": "",
          "type": "uint256"
        }
      ],
      "name": "feedFor",
      "outputs": [
        {
          "internalType": "contract IJBPriceFeed",
          "name": "",
          "type": "address"
        }
      ],
      "stateMutability": "view",
      "type": "function"
    },
    {
      "inputs": [],
      "name": "owner",
      "outputs": [
        {
          "internalType": "address",
          "name": "",
          "type": "address"
        }
      ],
      "stateMutability": "view",
      "type": "function"
    },
    {
      "inputs": [
        {
          "internalType": "uint256",
          "name": "_currency",
          "type": "uint256"
        },
        {
          "internalType": "uint256",
          "name": "_base",
          "type": "uint256"
        },
        {
          "internalType": "uint256",
          "name": "_decimals",
          "type": "uint256"
        }
      ],
      "name": "priceFor",
      "outputs": [
        {
          "internalType": "uint256",
          "name": "",
          "type": "uint256"
        }
      ],
      "stateMutability": "view",
      "type": "function"
    },
    {
      "inputs": [],
      "name": "renounceOwnership",
      "outputs": [],
      "stateMutability": "nonpayable",
      "type": "function"
    },
    {
      "inputs": [
        {
          "internalType": "address",
          "name": "newOwner",
          "type": "address"
        }
      ],
      "name": "transferOwnership",
      "outputs": [],
      "stateMutability": "nonpayable",
      "type": "function"
    }
  ],
  "bytecode": {
    "object": "0x608060405234801561001057600080fd5b5060405161098d38038061098d83398101604081905261002f91610167565b61003833610047565b61004181610097565b50610197565b600080546001600160a01b038381166001600160a01b0319831681178455604051919092169283917f8be0079c531659141344cd1fd0a4f28419497f9722a3daafe3b4186f6b6457e09190a35050565b6000546001600160a01b031633146100f65760405162461bcd60e51b815260206004820181905260248201527f4f776e61626c653a2063616c6c6572206973206e6f7420746865206f776e657260448201526064015b60405180910390fd5b6001600160a01b03811661015b5760405162461bcd60e51b815260206004820152602660248201527f4f776e61626c653a206e6577206f776e657220697320746865207a65726f206160448201526564647265737360d01b60648201526084016100ed565b61016481610047565b50565b60006020828403121561017957600080fd5b81516001600160a01b038116811461019057600080fd5b9392505050565b6107e7806101a66000396000f3fe608060405234801561001057600080fd5b50600436106100625760003560e01c806315d63a9114610067578063715018a6146100b85780638da5cb5b146100c257806396364e6d146100d3578063a4d0caf2146100e6578063f2fde38b14610107575b600080fd5b61009b6100753660046105c7565b60016020908152600092835260408084209091529082529020546001600160a01b031681565b6040516001600160a01b0390911681526020015b60405180910390f35b6100c061011a565b005b6000546001600160a01b031661009b565b6100c06100e13660046105e9565b610159565b6100f96100f4366004610622565b610233565b6040519081526020016100af565b6100c0610115366004610591565b6103d8565b6000546001600160a01b0316331461014d5760405162461bcd60e51b81526004016101449061064e565b60405180910390fd5b6101576000610473565b565b6000546001600160a01b031633146101835760405162461bcd60e51b81526004016101449061064e565b60008381526001602090815260408083208584529091529020546001600160a01b0316156101c45760405163d28d564f60e01b815260040160405180910390fd5b600083815260016020908152604080832085845282529182902080546001600160a01b0319166001600160a01b0385169081179091559151918252839185917f2809ef679fa4c20b88a6467f2660840ad173b5205fef76c270c5d7ba44cb7057910160405180910390a3505050565b60008284141561024f5761024882600a6106c6565b90506103d1565b60008481526001602090815260408083208684529091529020546001600160a01b031680156102f857604051637a3c4c1760e01b8152600481018490526001600160a01b03821690637a3c4c179060240160206040518083038186803b1580156102b857600080fd5b505afa1580156102cc573d6000803e3d6000fd5b505050506040513d601f19601f820116820180604052508101906102f091906105ae565b9150506103d1565b5060008381526001602090815260408083208784529091529020546001600160a01b031680156103b8576102f061033084600a6106c6565b61033b85600a6106c6565b604051637a3c4c1760e01b8152600481018790526001600160a01b03851690637a3c4c179060240160206040518083038186803b15801561037b57600080fd5b505afa15801561038f573d6000803e3d6000fd5b505050506040513d601f19601f820116820180604052508101906103b391906105ae565b6104c3565b604051633ae4eae560e11b815260040160405180910390fd5b9392505050565b6000546001600160a01b031633146104025760405162461bcd60e51b81526004016101449061064e565b6001600160a01b0381166104675760405162461bcd60e51b815260206004820152602660248201527f4f776e61626c653a206e6577206f776e657220697320746865207a65726f206160448201526564647265737360d01b6064820152608401610144565b61047081610473565b50565b600080546001600160a01b038381166001600160a01b0319831681178455604051919092169283917f8be0079c531659141344cd1fd0a4f28419497f9722a3daafe3b4186f6b6457e09190a35050565b6000808060001985870985870292508281108382030391505080600014156104fe578382816104f4576104f4610786565b04925050506103d1565b83811061052857604051631dcf306360e21b81526004810182905260248101859052604401610144565b60008486880960026001871981018816978890046003810283188082028403028082028403028082028403028082028403028082028403029081029092039091026000889003889004909101858311909403939093029303949094049190911702949350505050565b6000602082840312156105a357600080fd5b81356103d18161079c565b6000602082840312156105c057600080fd5b5051919050565b600080604083850312156105da57600080fd5b50508035926020909101359150565b6000806000606084860312156105fe57600080fd5b833592506020840135915060408401356106178161079c565b809150509250925092565b60008060006060848603121561063757600080fd5b505081359360208301359350604090920135919050565b6020808252818101527f4f776e61626c653a2063616c6c6572206973206e6f7420746865206f776e6572604082015260600190565b600181815b808511156106be5781600019048211156106a4576106a4610770565b808516156106b157918102915b93841c9390800290610688565b509250929050565b60006103d183836000826106dc5750600161076a565b816106e95750600061076a565b81600181146106ff576002811461070957610725565b600191505061076a565b60ff84111561071a5761071a610770565b50506001821b61076a565b5060208310610133831016604e8410600b8410161715610748575081810a61076a565b6107528383610683565b806000190482111561076657610766610770565b0290505b92915050565b634e487b7160e01b600052601160045260246000fd5b634e487b7160e01b600052601260045260246000fd5b6001600160a01b038116811461047057600080fdfea26469706673582212202169f4b73085c1975634500c7fe53e3e3ce1d632729e5fdbdec0155b6328092864736f6c63430008060033",
    "linkReferences": {}
  },
  "methodIdentifiers": {
    "addFeedFor(uint256,uint256,address)": "96364e6d",
    "feedFor(uint256,uint256)": "15d63a91",
    "owner()": "8da5cb5b",
    "priceFor(uint256,uint256,uint256)": "a4d0caf2",
    "renounceOwnership()": "715018a6",
    "transferOwnership(address)": "f2fde38b"
  },
  "id": 19
}