{
  "abi": [
    {
      "inputs": [
        {
          "internalType": "contract IJBDirectory",
          "name": "_directory",
          "type": "address"
        }
      ],
      "stateMutability": "nonpayable",
      "type": "constructor"
    },
    {
      "inputs": [],
      "name": "CONTROLLER_UNAUTHORIZED",
      "type": "error"
    },
    {
      "inputs": [],
      "name": "INVALID_BALLOT",
      "type": "error"
    },
    {
      "inputs": [],
      "name": "INVALID_DISCOUNT_RATE",
      "type": "error"
    },
    {
      "inputs": [],
      "name": "INVALID_DURATION",
      "type": "error"
    },
    {
      "inputs": [],
      "name": "INVALID_WEIGHT",
      "type": "error"
    },
    {
      "inputs": [],
      "name": "NO_SAME_BLOCK_RECONFIGURATION",
      "type": "error"
    },
    {
      "inputs": [
        {
          "internalType": "uint256",
          "name": "prod1",
          "type": "uint256"
        },
        {
          "internalType": "uint256",
          "name": "denominator",
          "type": "uint256"
        }
      ],
      "name": "PRBMath__MulDivOverflow",
      "type": "error"
    },
    {
      "anonymous": false,
      "inputs": [
        {
          "indexed": true,
          "internalType": "uint256",
          "name": "configuration",
          "type": "uint256"
        },
        {
          "indexed": true,
          "internalType": "uint256",
          "name": "projectId",
          "type": "uint256"
        },
        {
          "components": [
            {
              "internalType": "uint256",
              "name": "duration",
              "type": "uint256"
            },
            {
              "internalType": "uint256",
              "name": "weight",
              "type": "uint256"
            },
            {
              "internalType": "uint256",
              "name": "discountRate",
              "type": "uint256"
            },
            {
              "internalType": "contract IJBFundingCycleBallot",
              "name": "ballot",
              "type": "address"
            }
          ],
          "indexed": false,
          "internalType": "struct JBFundingCycleData",
          "name": "data",
          "type": "tuple"
        },
        {
          "indexed": false,
          "internalType": "uint256",
          "name": "metadata",
          "type": "uint256"
        },
        {
          "indexed": false,
          "internalType": "uint256",
          "name": "mustStartAtOrAfter",
          "type": "uint256"
        },
        {
          "indexed": false,
          "internalType": "address",
          "name": "caller",
          "type": "address"
        }
      ],
      "name": "Configure",
      "type": "event"
    },
    {
      "anonymous": false,
      "inputs": [
        {
          "indexed": true,
          "internalType": "uint256",
          "name": "configuration",
          "type": "uint256"
        },
        {
          "indexed": true,
          "internalType": "uint256",
          "name": "projectId",
          "type": "uint256"
        },
        {
          "indexed": true,
          "internalType": "uint256",
          "name": "basedOn",
          "type": "uint256"
        }
      ],
      "name": "Init",
      "type": "event"
    },
    {
      "inputs": [
        {
          "internalType": "uint256",
          "name": "_projectId",
          "type": "uint256"
        },
        {
          "components": [
            {
              "internalType": "uint256",
              "name": "duration",
              "type": "uint256"
            },
            {
              "internalType": "uint256",
              "name": "weight",
              "type": "uint256"
            },
            {
              "internalType": "uint256",
              "name": "discountRate",
              "type": "uint256"
            },
            {
              "internalType": "contract IJBFundingCycleBallot",
              "name": "ballot",
              "type": "address"
            }
          ],
          "internalType": "struct JBFundingCycleData",
          "name": "_data",
          "type": "tuple"
        },
        {
          "internalType": "uint256",
          "name": "_metadata",
          "type": "uint256"
        },
        {
          "internalType": "uint256",
          "name": "_mustStartAtOrAfter",
          "type": "uint256"
        }
      ],
      "name": "configureFor",
      "outputs": [
        {
          "components": [
            {
              "internalType": "uint256",
              "name": "number",
              "type": "uint256"
            },
            {
              "internalType": "uint256",
              "name": "configuration",
              "type": "uint256"
            },
            {
              "internalType": "uint256",
              "name": "basedOn",
              "type": "uint256"
            },
            {
              "internalType": "uint256",
              "name": "start",
              "type": "uint256"
            },
            {
              "internalType": "uint256",
              "name": "duration",
              "type": "uint256"
            },
            {
              "internalType": "uint256",
              "name": "weight",
              "type": "uint256"
            },
            {
              "internalType": "uint256",
              "name": "discountRate",
              "type": "uint256"
            },
            {
              "internalType": "contract IJBFundingCycleBallot",
              "name": "ballot",
              "type": "address"
            },
            {
              "internalType": "uint256",
              "name": "metadata",
              "type": "uint256"
            }
          ],
          "internalType": "struct JBFundingCycle",
          "name": "",
          "type": "tuple"
        }
      ],
      "stateMutability": "nonpayable",
      "type": "function"
    },
    {
      "inputs": [
        {
          "internalType": "uint256",
          "name": "_projectId",
          "type": "uint256"
        }
      ],
      "name": "currentBallotStateOf",
      "outputs": [
        {
          "internalType": "enum JBBallotState",
          "name": "",
          "type": "uint8"
        }
      ],
      "stateMutability": "view",
      "type": "function"
    },
    {
      "inputs": [
        {
          "internalType": "uint256",
          "name": "_projectId",
          "type": "uint256"
        }
      ],
      "name": "currentOf",
      "outputs": [
        {
          "components": [
            {
              "internalType": "uint256",
              "name": "number",
              "type": "uint256"
            },
            {
              "internalType": "uint256",
              "name": "configuration",
              "type": "uint256"
            },
            {
              "internalType": "uint256",
              "name": "basedOn",
              "type": "uint256"
            },
            {
              "internalType": "uint256",
              "name": "start",
              "type": "uint256"
            },
            {
              "internalType": "uint256",
              "name": "duration",
              "type": "uint256"
            },
            {
              "internalType": "uint256",
              "name": "weight",
              "type": "uint256"
            },
            {
              "internalType": "uint256",
              "name": "discountRate",
              "type": "uint256"
            },
            {
              "internalType": "contract IJBFundingCycleBallot",
              "name": "ballot",
              "type": "address"
            },
            {
              "internalType": "uint256",
              "name": "metadata",
              "type": "uint256"
            }
          ],
          "internalType": "struct JBFundingCycle",
          "name": "fundingCycle",
          "type": "tuple"
        }
      ],
      "stateMutability": "view",
      "type": "function"
    },
    {
      "inputs": [],
      "name": "directory",
      "outputs": [
        {
          "internalType": "contract IJBDirectory",
          "name": "",
          "type": "address"
        }
      ],
      "stateMutability": "view",
      "type": "function"
    },
    {
      "inputs": [
        {
          "internalType": "uint256",
          "name": "_projectId",
          "type": "uint256"
        },
        {
          "internalType": "uint256",
          "name": "_configuration",
          "type": "uint256"
        }
      ],
      "name": "get",
      "outputs": [
        {
          "components": [
            {
              "internalType": "uint256",
              "name": "number",
              "type": "uint256"
            },
            {
              "internalType": "uint256",
              "name": "configuration",
              "type": "uint256"
            },
            {
              "internalType": "uint256",
              "name": "basedOn",
              "type": "uint256"
            },
            {
              "internalType": "uint256",
              "name": "start",
              "type": "uint256"
            },
            {
              "internalType": "uint256",
              "name": "duration",
              "type": "uint256"
            },
            {
              "internalType": "uint256",
              "name": "weight",
              "type": "uint256"
            },
            {
              "internalType": "uint256",
              "name": "discountRate",
              "type": "uint256"
            },
            {
              "internalType": "contract IJBFundingCycleBallot",
              "name": "ballot",
              "type": "address"
            },
            {
              "internalType": "uint256",
              "name": "metadata",
              "type": "uint256"
            }
          ],
          "internalType": "struct JBFundingCycle",
          "name": "fundingCycle",
          "type": "tuple"
        }
      ],
      "stateMutability": "view",
      "type": "function"
    },
    {
      "inputs": [
        {
          "internalType": "uint256",
          "name": "",
          "type": "uint256"
        }
      ],
      "name": "latestConfigurationOf",
      "outputs": [
        {
          "internalType": "uint256",
          "name": "",
          "type": "uint256"
        }
      ],
      "stateMutability": "view",
      "type": "function"
    },
    {
      "inputs": [
        {
          "internalType": "uint256",
          "name": "_projectId",
          "type": "uint256"
        }
      ],
      "name": "latestConfiguredOf",
      "outputs": [
        {
          "components": [
            {
              "internalType": "uint256",
              "name": "number",
              "type": "uint256"
            },
            {
              "internalType": "uint256",
              "name": "configuration",
              "type": "uint256"
            },
            {
              "internalType": "uint256",
              "name": "basedOn",
              "type": "uint256"
            },
            {
              "internalType": "uint256",
              "name": "start",
              "type": "uint256"
            },
            {
              "internalType": "uint256",
              "name": "duration",
              "type": "uint256"
            },
            {
              "internalType": "uint256",
              "name": "weight",
              "type": "uint256"
            },
            {
              "internalType": "uint256",
              "name": "discountRate",
              "type": "uint256"
            },
            {
              "internalType": "contract IJBFundingCycleBallot",
              "name": "ballot",
              "type": "address"
            },
            {
              "internalType": "uint256",
              "name": "metadata",
              "type": "uint256"
            }
          ],
          "internalType": "struct JBFundingCycle",
          "name": "fundingCycle",
          "type": "tuple"
        },
        {
          "internalType": "enum JBBallotState",
          "name": "ballotState",
          "type": "uint8"
        }
      ],
      "stateMutability": "view",
      "type": "function"
    },
    {
      "inputs": [
        {
          "internalType": "uint256",
          "name": "_projectId",
          "type": "uint256"
        }
      ],
      "name": "queuedOf",
      "outputs": [
        {
          "components": [
            {
              "internalType": "uint256",
              "name": "number",
              "type": "uint256"
            },
            {
              "internalType": "uint256",
              "name": "configuration",
              "type": "uint256"
            },
            {
              "internalType": "uint256",
              "name": "basedOn",
              "type": "uint256"
            },
            {
              "internalType": "uint256",
              "name": "start",
              "type": "uint256"
            },
            {
              "internalType": "uint256",
              "name": "duration",
              "type": "uint256"
            },
            {
              "internalType": "uint256",
              "name": "weight",
              "type": "uint256"
            },
            {
              "internalType": "uint256",
              "name": "discountRate",
              "type": "uint256"
            },
            {
              "internalType": "contract IJBFundingCycleBallot",
              "name": "ballot",
              "type": "address"
            },
            {
              "internalType": "uint256",
              "name": "metadata",
              "type": "uint256"
            }
          ],
          "internalType": "struct JBFundingCycle",
          "name": "fundingCycle",
          "type": "tuple"
        }
      ],
      "stateMutability": "view",
      "type": "function"
    }
  ],
  "bytecode": {
    "object": "0x60a060405234801561001057600080fd5b5060405161153138038061153183398101604081905261002f91610044565b60601b6001600160601b031916608052610074565b60006020828403121561005657600080fd5b81516001600160a01b038116811461006d57600080fd5b9392505050565b60805160601c6114986100996000396000818161011e01526103e001526114986000f3fe608060405234801561001057600080fd5b50600436106100885760003560e01c8063a249d4251161005b578063a249d42514610106578063c41c2f2414610119578063c55f571c14610158578063ebc8ca1f1461017857600080fd5b80632cee6deb1461008d57806343a266c2146100c05780635c550078146100e0578063669e48aa146100f3575b600080fd5b6100ad61009b3660046111e6565b60036020526000908152604090205481565b6040519081526020015b60405180910390f35b6100d36100ce3660046111e6565b610199565b6040516100b7919061136a565b6100d36100ee3660046111e6565b610294565b6100d361010136600461125f565b6103a4565b6100d3610114366004611218565b6103b6565b6101407f000000000000000000000000000000000000000000000000000000000000000081565b6040516001600160a01b0390911681526020016100b7565b61016b6101663660046111e6565b61073f565b6040516100b79190611302565b61018b6101863660046111e6565b610773565b6040516100b7929190611379565b6101a1611114565b6000828152600360205260409020546101c5576101bf6000806107b6565b92915050565b60006101d083610881565b90506101da611114565b811561020e576101ea84836107b6565b90506101f6848261093a565b15610202579392505050565b80604001519150610251565b600084815260036020526040902054915061022984836107b6565b9050610235848261093a565b15806102445750806060015142105b1561025157806040015191505b81610269576102616000806107b6565b949350505050565b61027384836107b6565b9050806080015160001415610289579392505050565b61026181600161096f565b61029c611114565b6000828152600360205260409020546102ba576101bf6000806107b6565b60006102c583610a3d565b90508015610303576102d783826107b6565b91506102e3838361093a565b156102ee5750919050565b6102fc8383604001516107b6565b915061033c565b60008381526003602052604090205461031d9084906107b6565b9150428260600151111561033c576103398383604001516107b6565b91505b6080820151610357576103506000806107b6565b9392505050565b610361838361093a565b156103715761035082600061096f565b61037f8383604001516107b6565b9150816080015160001415610399576103506000806107b6565b61035082600061096f565b6103ac611114565b61035083836107b6565b6103be611114565b604051632eec7b5560e11b815260048101869052859033906001600160a01b037f00000000000000000000000000000000000000000000000000000000000000001690635dd8f6aa9060240160206040518083038186803b15801561042257600080fd5b505afa158015610436573d6000803e3d6000fd5b505050506040513d601f19601f8201168201806040525081019061045a9190611169565b6001600160a01b03161461048157604051632adfdd0560e21b815260040160405180910390fd5b67ffffffffffffffff853511156104ab57604051630c51c95b60e21b815260040160405180910390fd5b633b9aca00856040013511156104d457604051632459513560e01b815260040160405180910390fd5b6affffffffffffffffffffff602086013511156105045760405163698f22ad60e01b815260040160405180910390fd5b600061051660808701606088016111a8565b6001600160a01b03161461062557600061053660808701606088016111a8565b9050803b63ffffffff811661055e57604051635401398160e01b815260040160405180910390fd5b61056e60808801606089016111a8565b6040516301ffc9a760e01b8152637ba3dfb360e01b60048201526001600160a01b0391909116906301ffc9a79060240160206040518083038186803b1580156105b657600080fd5b505afa9250505080156105e6575060408051601f3d908101601f191682019092526105e391810190611186565b60015b61060357604051635401398160e01b815260040160405180910390fd5b8061062157604051635401398160e01b815260040160405180910390fd5b5050505b426106438782602089013581881161063d5742610acb565b87610acb565b600061065560808801606089016111a8565b6001600160a01b031614158061066b5750853515155b8061067a575060008660400135115b156106c857600061069160808801606089016111a8565b600089815260208181526040808320868452909152908190206001600160a01b0392909216893560a01b179089013560e01b179055505b84156106eb57600087815260026020908152604080832084845290915290208590555b86817f1175572e9e7787125bbb2c1175e626d6fa90191342319fa2c35d8bd194a8a1b6888888336040516107229493929190611310565b60405180910390a361073487826107b6565b979650505050505050565b6000818152600360205260408120548161075984836107b6565b905061026184826020015183606001518460400151610c43565b61077b611114565b60008281526003602052604081205461079484826107b6565b92506107ae84846020015185606001518660400151610c43565b915050915091565b6107be611114565b816107c8576101bf565b602081810183905260008481526001825260408082208583528352808220546affffffffffffffffffffff811660a080870191909152605882901c66ffffffffffffff90811684880152609083901c16606087015260c89190911c85528683528284528183208684528452818320546001600160a01b03811660e0808801919091529181901c67ffffffffffffffff166080870152901c60c0850152948152600282528481209381529290529190205461010082015290565b6000818152600360205260408120549061089b83836107b6565b9050600081608001511180156108c45750806080015181606001516108c09190611396565b4210155b156108d25750600092915050565b806060015142106108e7576020015192915050565b60006108f78483604001516107b6565b90506000816080015111801561092057508060800151816060015161091c9190611396565b4210155b1561092f575060009392505050565b506040015192915050565b6000600161095684846020015185606001518660400151610c43565b600281111561096757610967611434565b149392505050565b610977611114565b6000821561099e57608084015161098e90426113c2565b610999906001611396565b6109a9565b6109a9426001611396565b905060006109b78583610da1565b905060006109c58683610e2e565b9050604051806101200160405280828152602001876020015181526020018760400151815260200183815260200187608001518152602001610a078885610e81565b81526020018760c0015181526020018760e001516001600160a01b03168152602001876101000151815250935050505092915050565b60008181526003602052604081205490610a5783836107b6565b905080606001514210610a6d5750600092915050565b805160011415610a7d5750919050565b6000610a8d8483604001516107b6565b905060008160800151118015610ab5575080608001518260600151610ab291906113c2565b42105b15610ac4575060009392505050565b5050919050565b600084815260036020526040902054610afa57610af584610aed6000806107b6565b858486610f3c565b610c3d565b6000610b0585610881565b905080610b1d57506000848152600360205260409020545b6000610b2986836107b6565b9050610b35868261093a565b1580610b445750806060015142105b15610b5a57610b578682604001516107b6565b90505b8481602001511415610b7f5760405163215da85760e11b815260040160405180910390fd5b60e08101516000906001600160a01b031615610c19578160e001516001600160a01b0316630fb5a6b46040518163ffffffff1660e01b815260040160206040518083038186803b158015610bd257600080fd5b505afa158015610be6573d6000803e3d6000fd5b505050506040513d601f19601f82011682018060405250810190610c0a91906111ff565b610c149087611396565b610c1c565b60005b9050610c39878388878511610c315787610c33565b845b89610f3c565b5050505b50505050565b600081610c5257506001610261565b6000610c5e86846107b6565b60e08101519091506001600160a01b0316610c7d576001915050610261565b610c8785426113c2565b8160e001516001600160a01b0316630fb5a6b46040518163ffffffff1660e01b815260040160206040518083038186803b158015610cc457600080fd5b505afa158015610cd8573d6000803e3d6000fd5b505050506040513d601f19601f82011682018060405250810190610cfc91906111ff565b10610d0b576000915050610261565b60e0810151604051637416790760e01b81526004810188905260248101879052604481018690526001600160a01b039091169063741679079060640160206040518083038186803b158015610d5f57600080fd5b505afa158015610d73573d6000803e3d6000fd5b505050506040513d601f19601f82011682018060405250810190610d9791906111c5565b9695505050505050565b6000826080015160001415610db75750806101bf565b600083608001518460600151610dcd9190611396565b9050828110610ddd5790506101bf565b6080840151600090610def83866113c2565b610df991906113f4565b9050610e0581856113c2565b92505b82841115610e26576080850151610e1f9084611396565b9250610e08565b505092915050565b6000826080015160001415610e51578251610e4a906001611396565b90506101bf565b6000836060015183610e6391906113c2565b9050836080015181610e7591906113ae565b84516102619190611396565b6000826080015160001415610eb657610e4a8360a001518460c00151633b9aca00610eac91906113c2565b633b9aca00611043565b5060a082015160c0830151610eca576101bf565b6000836060015183610edc91906113c2565b90506000846080015182610ef091906113ae565b905060005b81811015610f3357610f15848760c00151633b9aca00610eac91906113c2565b935083610f2157610f33565b80610f2b816113d9565b915050610ef5565b50505092915050565b8351610f7c5760208085015160008781526001808452604080832088845290945292902060589190911b8317609085901b17600160c81b17905550610ff9565b6000610f888584610da1565b905060008211610fa157610f9c8582610e81565b610fb2565b81600114610faf5781610fb2565b60005b91506000610fc08683610e2e565b60208088015160008a81526001835260408082208a83529093529190912060589190911b8517609085901b1760c883901b179055905050505b60008581526003602090815260408083208690559086015190519091879186917ff1bd4f3fcb4e0b193abc7e4002c0284e25086269a02de2e4c52045a91f64703791a45050505050565b60008080600019858709858702925082811083820303915050806000141561107e578382816110745761107461141e565b0492505050610350565b8381106110ac57604051631dcf306360e21b8152600481018290526024810185905260440160405180910390fd5b600084868809600260036001881981018916988990049182028318808302840302808302840302808302840302808302840302808302840302918202909203026000889003889004909101858311909403939093029303949094049190911702949350505050565b6040518061012001604052806000815260200160008152602001600081526020016000815260200160008152602001600081526020016000815260200160006001600160a01b03168152602001600081525090565b60006020828403121561117b57600080fd5b81516103508161144a565b60006020828403121561119857600080fd5b8151801515811461035057600080fd5b6000602082840312156111ba57600080fd5b81356103508161144a565b6000602082840312156111d757600080fd5b81516003811061035057600080fd5b6000602082840312156111f857600080fd5b5035919050565b60006020828403121561121157600080fd5b5051919050565b60008060008084860360e081121561122f57600080fd5b853594506080601f198201121561124557600080fd5b50929560208501955060a08501359460c001359350915050565b6000806040838503121561127257600080fd5b50508035926020909101359150565b6003811061129f57634e487b7160e01b600052602160045260246000fd5b9052565b805182526020808201519083015260408082015190830152606080820151908301526080808201519083015260a0808201519083015260c0808201519083015260e0808201516001600160a01b03169083015261010090810151910152565b602081016101bf8284611281565b84358152602080860135908201526040808601359082015260e08101606086013561133a8161144a565b6001600160a01b039081166060840152608083019590955260a0820193909352921660c090920191909152919050565b61012081016101bf82846112a3565b610140810161138882856112a3565b610350610120830184611281565b600082198211156113a9576113a9611408565b500190565b6000826113bd576113bd61141e565b500490565b6000828210156113d4576113d4611408565b500390565b60006000198214156113ed576113ed611408565b5060010190565b6000826114035761140361141e565b500690565b634e487b7160e01b600052601160045260246000fd5b634e487b7160e01b600052601260045260246000fd5b634e487b7160e01b600052602160045260246000fd5b6001600160a01b038116811461145f57600080fd5b5056fea264697066735822122010887704cfdb80e0ca9ef0beba739b3b05d7f1255cbfbfb72255f4cf735547d764736f6c63430008060033",
    "linkReferences": {}
  },
  "methodIdentifiers": {
    "configureFor(uint256,(uint256,uint256,uint256,address),uint256,uint256)": "a249d425",
    "currentBallotStateOf(uint256)": "c55f571c",
    "currentOf(uint256)": "43a266c2",
    "directory()": "c41c2f24",
    "get(uint256,uint256)": "669e48aa",
    "latestConfigurationOf(uint256)": "2cee6deb",
    "latestConfiguredOf(uint256)": "ebc8ca1f",
    "queuedOf(uint256)": "5c550078"
  },
  "id": 11
}